:100000000C946E010C949B150C9470150C94451572
:100010000C941A150C94EF140C94C4140C949914A9
:100020000C946E140C9498010C9498010C94980103
:100030000C9487170C9498010C9498010C949801D7
:100040000C9424140C9498010C9498010C9498012D
:100050000C9498010C9498010C9498010C949801BC
:100060000C9498010C9498010C9498010C949801AC
:100070000C9498010C94EA160C9498010C94980135
:100080000C9498010C94C6150C9498013F03000041
:100090000000000B0D0000000000000101C0800006
:1000A000000000000000000000060000000000004A
:1000B0000000000000000000000000000000000040
:1000C000000000000000FF0300000000000000002E
:1000D0000000000000000000000000000000000020
:1000E0000000000000000000000000000000000010
:1000F0000000000000000000000000000100AA0055
:100100000200AA000300AA000400AA000500AA0039
:100110000600AA000700AA000800AA000900AA0019
:100120000A0080000B0080000C0080000D008000A1
:100130000E0080000F008000100080001100800081
:10014000120080001300AA001400AA000000AA00F8
:100150000000AA000000AA000000AA000000AA00F7
:100160001580FF001581FF00FF000000FF00000068
:10017000FF000000FF000000FF000000FF00000083
:10018000FF000000FF000000FF000000FF00000073
:10019000FF000000FF000000FF0000000000000062
:1001A000000000000000000000000000000000004F
:1001B00000000000000000000000003A003700349A
:1001C00000310022006100640000003B003800356F
:1001D0000032002300620065000000000A0B0C00E2
:1001E00000000000000104050600000000000000FF
:1001F00000000000000000000000000000000000FF
:10020000000000000000000000000000000070007E
:10021000740078007C008000840088008C009000CE
:10022000940098009C00A000A400A800AC00B000BE
:10023000B400B800BC00C000C400C800CC00D000AE
:10024000D400D800DC00E000E400E800EC00F0009E
:10025000F400F800FC000001040108010C01010297
:10026000040810204080010204081020408008107B
:10027000010204081020408001020102040810203D
:10028000408004804020100804020101020408108C
:10029000204080000039003600330030002100206B
:1002A00000630005050505050505050202020202B9
:1002B00002020207070404040404040404070703F9
:1002C000030303030303030701010101010101010A
:1002D0000606060606060606B6180A2811241FBEDC
:1002E000CFEFD0E1DEBFCDBF11E0A0E0B1E0E0EFA5
:1002F000F3E500E00BBF02C007900D92A836B107EE
:10030000D9F727E0A8E6B1E001C01D92A63CB207EC
:10031000E1F711E0CDE6D1E004C02197FE010E9493
:100320005F28CC36D107C9F70E94041B0C94EB2937
:100330000C94000020911803309119032115310508
:1003400049F090E0880F991F820F931FFC01808174
:100350009181089590E080E008952091CA0281E0A3
:10036000213208F044C08091A6028111FCCF809117
:10037000C90292E09093A60291E09093A5029FEFAC
:100380009093A4021092A3022093A202A9EAB2E0E1
:10039000E2E8F2E090E0291331C0109281029091DE
:1003A0008102880F892B80938102809180028130A5
:1003B00049F51092800280918102809373008091B0
:1003C000740083FDF8CF85EC809374008091A602C1
:1003D0008230E1F38091A4028F3FB1F08091A402BA
:1003E0008032A1F08091A402803391F084E01092D9
:1003F000A8021092CA021092A70208953D9131936B
:100400009F5FC9CF85EEE0CF80E0F1CF82E0EFCFF4
:1004100083E0EDCFE82FF0E0EC59FD4F60830895C5
:10042000E0911502F0911602309729F01092A8027F
:100430001092CA0209940895CF93DF93AC01E09122
:100440001302F09114023097F1F090911202809112
:1004500011029817C0F090E0292F30E026173707D7
:1004600054F4D901AD58BE4F240F351FE90128813E
:100470002C939F5FF1CF1092120260931102CB0177
:10048000DF91CF910994DF91CF91089581508C3005
:1004900088F5E82FF0E0E15BFD4F0C945F287702D0
:1004A00077027A025B025F02620265027A027A02D6
:1004B00069026F0273028FB58F778FBD08958FB574
:1004C0008F7DFBCF8FB5877FF8CF85B58F7D85BDBD
:1004D000089580918B008F7780938B000895809191
:1004E0008B008F7DF9CF80918B00877FF5CF83B70D
:1004F0008F7D83BF08951F93CF93DF93282F30E024
:10050000F901E752FE4F8491F901E25AFD4FD4916F
:10051000F901ED55FD4FC491CC23A9F0162F81119F
:100520000E944602EC2FF0E0EE0FFF1FE753FE4F54
:10053000A591B4918FB7F894EC91111108C0D095A2
:10054000DE23DC938FBFDF91CF911F910895DE2BC7
:10055000F8CFCF93DF9390E0FC01E25AFD4F249156
:100560008D559D4FFC0184918823C9F090E0880F40
:10057000991FFC01E754FE4FA591B491FC01E7538C
:10058000FE4FC591D49161110DC09FB7F8948C9125
:10059000209582238C938881282328839FBFDF9115
:1005A000CF910895623051F49FB7F8943C91822F17
:1005B000809583238C93E8812E2BEFCF8FB7F8940F
:1005C000EC912E2B2C938FBFEACF3FB7F8948091FC
:1005D000090290910A02A0910B02B0910C0222B77D
:1005E00006B600FE05C02F3F19F00196A11DB11DF2
:1005F0003FBFBA2FA92F982F8827BC01CD01620FCA
:10060000711D811D911D42E0660F771F881F991F84
:100610004A95D1F708958F929F92AF92BF92CF9251
:10062000DF92EF92FF924B015C010E94E5026B01A9
:100630007C010E94E5026C197D098E099F09683EC4
:10064000734081059105A8F321E0821A9108A10861
:10065000B10888EEC80E83E0D81EE11CF11C81149D
:100660009104A104B10429F7FF90EF90DF90CF909F
:10067000BF90AF909F908F90089561E08BE00E94B3
:100680007B0264E070E080E090E00E940B0360E099
:100690008BE00C947B020C943D03E82FF0E0DF012B
:1006A000AA0FBB1FAF5FBE4F11967C936E9388302D
:1006B000A8F4E35AFC4F0C945F2865036F037C0396
:1006C0008A0398039F03AA03B60380916A008C7F74
:1006D000482B40936A0089B7816089BF0895809153
:1006E0006A00837F440F551F440F551F482B4093CA
:1006F0006A0089B78260F1CF80916A008F7C74E0D4
:10070000440F551F7A95E1F7482B40936A0089B74B
:100710008460E3CF80916A008F7366E0440F551FB9
:100720006A95E1F7482B40936A0089B78860D5CF76
:100730008AB78C7F482B4ABF89B78061CECF8AB7F2
:10074000837F440F551F440F551F482B4ABF89B75D
:100750008062C3CF8AB78F7C24E0440F551F2A954F
:10076000E1F7482B4ABF89B78064B7CF8AB78F7348
:1007700096E0440F551F9A95E1F7482B4ABF89B779
:100780008068ABCF883010F40C944D030895FF922D
:100790000F931F93CF93DF930E94E5022091710185
:1007A00030917201EB01C21BD30B2091E702309113
:1007B000E802C217D30708F461C04091EB025091E0
:1007C000EC024130510561F0E091E002F091E1026C
:1007D00020813091E20223233091CB0223134EC0BB
:1007E00070937201609371010091E9021091EA0225
:1007F0004230510509F419C14330510509F454C17F
:100800004130510561F480917001813009F449C093
:10081000D8F1833009F486C0843009F4CFC08091C8
:10082000EB029091EC02019749F1C017D10708F053
:1008300073C180916E018F5F80936E018B30F0F0F9
:1008400081E090E09093EC028093EB0241E050E075
:1008500067EC73E08091DE020E94C2031092CB022B
:100860001092700182E590E09093EA028093E90291
:1008700083E290E09093E8028093E702DF91CF91CA
:100880001F910F91FF900895C017D10730F481E0B8
:1008900080937001C0936F01C2CF84E08093700198
:1008A000BECFC017D107E0F51092700180916E01A4
:1008B0008F5F80936E0120916F018C2F0C2E000CA6
:1008C000990B821B910927FD939597FF03C0919582
:1008D00081959109499794F21092EC021092EB02E3
:1008E00082E990E09093EA028093E90282E590E049
:1008F0009093E8028093E70210926E01F090CC0290
:100900004F2D50E067EC73E08091DE020E94C2033D
:100910008091E20293E0F91229C08093CB027FCF4D
:1009200083E0BCCFC017D10718F51092EC021092EB
:10093000EB0282E990E09093EA028093E90282E57B
:1009400090E09093E8028093E70210926E01F0909D
:10095000CC024F2D50E067EC73E08091DE020E94E4
:10096000C2038091E20233E0F316B9F280E0D5CF02
:100970009091CC02933009F482E08093CC0282E023
:1009800090E09093EC028093EB0282E990E09093E8
:10099000EA028093E90282E590E09093E802809376
:1009A000E7021092F10280916E018093F2021092A0
:1009B000EE021092F0021092EF02C9CFC017D107D9
:1009C000A8F41092EC021092EB0282E990E090936E
:1009D000EA028093E90282E590E09093E802809336
:1009E000E70210926E011092EE0288CF82E090E052
:1009F0009093EC028093EB0282E990E09093EA02FC
:100A00008093E90282E590E09093E8028093E70208
:100A10001092F10280916E018093F2021092EE0228
:100A20001092F0021092EF0269CF9091EE029F5F58
:100A30009093EE028091EF02880FC017D107E0F08B
:100A40008093EF02983009F0F0CEE091F102E630A9
:100A5000A9F41092EC021092EB0282E990E09093DC
:100A6000EA028093E90282E590E09093E8028093A5
:100A7000E7021092EE02D3CE8160E2CF83E090E0F5
:100A80009093EC028093EB029091EF0281E08E0F45
:100A90008093F102F0E0E551FD4F90878091F002E4
:100AA00089278093F002BBCEC017D10728F510929A
:100AB000EC021092EB021092EE0282E990E0909329
:100AC000EA028093E90282E590E09093E802809345
:100AD000E7028091F0028111ACCE88E0E1EFF2E014
:100AE000A9EFB2E001900D928A95E1F781E0809341
:100AF000ED0210926E0193CE8091F102863009F4DE
:100B0000A8CF82E090E09093EC028093EB021092E9
:100B1000EE021092EF0283CE10926E01AFCE0895D6
:100B20008091110290911202891B990B0895DC01AA
:100B30001496ED91FC911597908111968C9180956A
:100B4000892380830895CF93DF93DC01EC91F0E05B
:100B5000EE0FFF1FED56FD4FC591D4919881119670
:100B60008C91982381E009F480E0DF91CF91089582
:100B7000DC011296ED91FC91139711969C911197BF
:100B8000808161110EC09095982390831496ED9109
:100B9000FC911597908111968C9180958923808383
:100BA0000895982B90830895DC0170E0FB01E25AD0
:100BB000FD4FE4911196EC9311976D557D4FFB011C
:100BC00024912C9330E0220F331FF901E754FE4F9C
:100BD0008591949113969C938E931297F901E75304
:100BE000FE4F8591949115969C938E93149708953A
:100BF00085ED809374008091740084FDFCCF109289
:100C0000A60208952091B301260F3327331F213206
:100C10003105ECF42091A602FC0190E080E0243044
:100C200069F082E00895A091B3012191AC014D5685
:100C30005E4FA40FB52FB11D2C930196861798F324
:100C40008091B301680F6093B30180E0089581E063
:100C500008950895E091120280911102E81730F48E
:100C6000F0E0ED58FE4F808190E008958FEF9FEF08
:100C7000089590911202809111022FEF3FEF981783
:100C800048F4E92FF0E0ED58FE4F208130E09F5FFF
:100C900090931202C9010895CF92DF92EF92FF92D2
:100CA0000F931F93CF93DF937C01CB018A01209197
:100CB000A702222389F0EB016B01C40ED51ECC15CF
:100CC000DD0569F06991D701ED91FC910190F0810A
:100CD000E02DC7010995F3CF642F0E940206C801D9
:100CE000DF91CF911F910F91FF90EF90DF90CF9008
:100CF0000895CF93DF931F92CDB7DEB7698320911C
:100D0000A7022223F9F02091CA02203258F021E0F4
:100D100030E0FC013383228390E080E00F90DF918C
:100D2000CF9108958091A802E82FF0E0E755FD4F9C
:100D3000998190838F5F8093A8028093CA0281E09B
:100D400090E0ECCF61E0CE0101960E940206F7CF61
:100D50001F93CF93DF93C5E0D2E01881698181E0D2
:100D600093E00E947906612F81E093E00E9479066A
:100D70006A8181E093E0DF91CF911F910C94790615
:100D800090E080E0089580E090E0892B29F0809148
:100D9000E60283FD0C94000008950F931F93CF93F8
:100DA000DF93FC018281813089F040F0823009F4C8
:100DB0007AC0DF91CF911F910F91089561E08081FA
:100DC000DF91CF911F910F910C947B020181C02F75
:100DD000D0E0108161E0812F0E94A902209719F4D0
:100DE00060E0812FEDCFCF3FD10511F461E0F9CF65
:100DF000E12FF0E0E752FE4FE491E150EC3008F0D3
:100E00004DC0F0E0EA5FF84F0C945F28120712071C
:100E10004E0717071D0723072B074E074E073007FE
:100E20003A07440783B7806283BF01BFC2CF8FB543
:100E300080688FBDDBBDCABDBCCF8FB580628FBD62
:100E4000D9BDC8BDB6CF8FB588608FBDD0937900AE
:100E5000C0937800AECF85B5806285BD03BDA9CFB4
:100E600080918B00806880938B00D0938700C09323
:100E700086009FCF80918B00806280938B00D093FF
:100E80008500C093840095CF80918B00886080930B
:100E90008B00D0938300C09382008BCFC038D105E4
:100EA0000CF0A4CF9DCF8181E381F0E0EC59FD4FA0
:100EB00080837FCF0F931F93CF93DF93D62F8C0127
:100EC000C0E0CD1741F0F801819191918F010E940E
:100ED000CD06CF5FF6CFDF91CF911F910F9108958F
:100EE00080936B01882351F08CEA93E00E94CD0639
:100EF00080918A00887F80938A0008958CEA93E02D
:100F00000E94CD06109288001092890080918A007C
:100F10008460F1CFCF93C82F8091CF028C1731F02E
:100F200081E0C11101C080E00E947007C093CF0230
:100F3000CC2311F12FB7F8948091270290912802C9
:100F4000A0912902B0912A022FBF482F392F2A2FB2
:100F50008B2F4093D0023093D1022093D202809302
:100F6000D3028091CF028C1761F081E0C11101C0E2
:100F700080E0CF910C94700740E030E020E080E00A
:100F8000E8CFCF9108958F929F92AF92BF92CF9268
:100F9000DF92EF92FF920F931F93CF930E94E5028F
:100FA000AB01BC018091B3039091B403A091B50350
:100FB000B091B6038A019B01081B190B2A0B3B0B4E
:100FC0008091BB03882309F481C08091BD03909177
:100FD000BC03A82F082E000CBB0BC3E38C02F0014E
:100FE0001124E90FF11D97FDFA95EE0FFF1FE9534C
:100FF000FC4F11830083053F11402105310508F0A6
:1010000054C09F5F9093BC039091BC039332C9F589
:1010100096E69A9F90019B9F300D11242F543C4FD0
:10102000F901E45AFF4FC090B703D090B803E090A5
:10103000B903F090BA034A015B018C189D08AE0811
:10104000BF0875016401C082D182E282F38228590F
:101050003F4FE1E0F0E0D901ED93FC938F5F8A30E0
:1010600094F58093BD03E091BD03B6E6EB02F00179
:101070001124E75EFB4F118210821092BB03109285
:10108000BC034093B3035093B4036093B5037093D0
:10109000B603CF911F910F91FF90EF90DF90CF900B
:1010A000BF90AF909F908F9008951092BC0391E0F5
:1010B0009093BB034093B7035093B8036093B90375
:1010C0007093BA03A1CF1092BD03CDCF053F11405D
:1010D00021053105B0F281E08093BB034093B70353
:1010E0005093B8036093B9037093BA03CACFCF92F9
:1010F000DF92EF92FF92CF93DF930E94E5026B01A4
:101100007C0180911201813019F483E080931201F7
:10111000E0EEF1E08491E5E6F2E0D491EAEAF2E073
:10112000C491CC2369F181110E944602EC2FF0E0BA
:10113000EE0FFF1FED56FD4FA591B491EC918091FC
:10114000560290915702A0915802B0915902A701FE
:101150009601281B390B4A0B5B0BDA01C901DE2310
:1011600079F080935A0290935B02A0935C02B09353
:101170005D02DF91CF91FF90EF90DF90CF900895C7
:101180008091560290915702A0915802B091590255
:10119000A7019601281B390B4A0B5B0BDA01C90129
:1011A00080935E0290935F02A0936002B09361020D
:1011B000C0925602D0925702E0925802F092590221
:1011C000D8CFFF920F931F93CF93DF93F62E8C010E
:1011D000C0E0CF15F9F0D801ED91FD918D0182812C
:1011E000813051F020F0823079F0CF5FF2CF60E0B3
:1011F00080810E947B02F9CFD08161E08D2F0E9417
:10120000A90260E08D2FF5CFE381F0E0EC59FD4FAE
:101210001082EBCFDF91CF911F910F91FF90089536
:10122000CF93DF93EC018D819E81009719F06C8143
:101230000E94E10888859985009729F06F81DF91E8
:10124000CF910C94E108DF91CF9108950F931F93F4
:10125000CF93DF93209118033091190321153105A5
:1012600071F190E0880F991F820F931FFC01C081DC
:10127000D1818B81882391F0009112031091130387
:1012800089819A810817190729F0CE010E94100957
:101290001A83098389819A81019731F48D819E8116
:1012A000009769F06C8105C088859985009739F0B1
:1012B0006F81DF91CF911F910F910C945A07DF91AD
:1012C000CF911F910F910895CF9380911A03909120
:1012D0001B03892B29F1C0E080911703C81700F583
:1012E0008C2F86958695869590E0E0911A03F09173
:1012F0001B03E80FF91F208130E043E0880F991F9E
:101300004A95E1F74C2F481B02C0359527954A9521
:10131000E2F720FF03C08C2F0E942609CF5FDCCFAD
:10132000CF910895209112033091130328173907A4
:1013300031F090931303809312030C946409089581
:101340006115710521F06130710581F008955091AA
:101350000D035817190629F0509110035817190654
:1013600061F440931603C9010C94920960910E0335
:1013700070910F0386179707A1F308952091180322
:10138000309119032115310551F090E0880F991F14
:10139000820F931FFC01808191810C9410090895A4
:1013A000CF93C62F813079F140F0823009F469C0C3
:1013B000833009F4A0C0CF91089580E064FF17C086
:1013C0000E94260981E0C0FF15C00E94260982E024
:1013D000C1FF13C00E94260983E0C2FF11C00E9412
:1013E000260984E0C3FF35C0CF910C9426090E94E2
:1013F000BE09E8CF0E94BE09EACF0E94BE09ECCF29
:101400000E94BE09EECF85E060FF26C00E9426093B
:1014100086E0C1FF24C00E94260987E0C2FF22C0E7
:101420000E94260988E0C3FF20C00E94260989E0A7
:10143000C4FF1EC00E9426098AE0C5FF1CC00E948E
:1014400026098BE0C6FF1AC00E9426098CE0C7FD62
:10145000CBCFCF910C94BE090E94BE09D9CF0E9478
:10146000BE09DBCF0E94BE09DDCF0E94BE09DFCFDF
:101470000E94BE09E1CF0E94BE09E3CF0E94BE09CF
:10148000E5CF8DE060FF22C00E9426098EE0C1FFFB
:1014900020C00E9426098FE0C2FF1EC00E942609BC
:1014A00080E1C3FF1CC00E94260981E1C4FF1AC06D
:1014B0000E94260982E1C5FF18C00E94260983E127
:1014C000C6FF16C00E94260984E1C1CF0E94BE0952
:1014D000DDCF0E94BE09DFCF0E94BE09E1CF0E948E
:1014E000BE09E3CF0E94BE09E5CF0E94BE09E7CF47
:1014F0000E94BE09E9CF85E160FF22C00E94260953
:1015000086E1C1FF20C00E94260987E1C2FF1EC0FC
:101510000E94260988E1C3FF1CC00E94260989E1B8
:10152000C4FF1AC00E9426098AE1C5FF18C00E94A4
:1015300026098BE1C6FF16C00E9426098CE187CFE1
:101540000E94BE09DDCF0E94BE09DFCF0E94BE0906
:10155000E1CF0E94BE09E3CF0E94BE09E5CF0E9401
:10156000BE09E7CF0E94BE09E9CF0E948A07EDECD1
:10157000F2E081E087831086E6EDF2E088E0DF01AB
:101580001D928A95E9F708950C941428EF92FF9222
:101590000F931F93CF93DF93E82EF62E81E090E018
:1015A0000E94C40A90E000910D0310E0C091100366
:1015B000D0E08017910721F08C179D0709F04EC0ED
:1015C000E092160381E0F8124CC08DE190E00E9499
:1015D000C40AF82E81E090E00E94C40A90E0081747
:1015E000190721F08C179D0799F4CE018C179D07E0
:1015F000B1F48091140390911503019749F0809103
:101600001103882309F448C01092150310921403A3
:10161000DF91CF911F910F91FF90EF9008958091EE
:10162000120390911303019799F3F0FE10C01092EA
:10163000130310921203ECCF0C171D0711F18091C8
:10164000120390911303892B19F3F0FEF0CF81E080
:1016500090E09093130380931203DACF81E0F816A1
:10166000B9F28DE190E00E94C40AF82E81E090E08A
:101670000E94C40A90E080179107F1F28C179D0731
:1016800039F68091140390911503892B09F280910A
:101690001103882309F4B8CF81E090E090931503FB
:1016A00080931403B5CFCF93863823E0920719F1C6
:1016B00038F4813823E09207D9F0CF910C94C40A12
:1016C000873823E09207D1F0883823E09207A9F702
:1016D00086E893E00E94C40AC82F87E893E00E943E
:1016E000C40A90E02FEFC29F800D911D1124E5CF19
:1016F00081E893E0E2CF86E893E0DFCF87E893E0EC
:10170000DCCF1F93CF93DF93EC0180916B01882393
:1017100059F08FE090E00E94C40A182F80E190E019
:101720000E94C40A181306C0CE01DF91CF911F9109
:101730000C94C40AFFCF0C94810BCF93DF932091BC
:10174000E3023091E4022F3F320721F0C901DF911B
:10175000CF9108958091E60287FF2BC086FF0FC0CE
:1017600089E090E00E949B0BC82F81E090E00E94EE
:101770009B0B9C2F9093E4028093E30215C089E0B9
:1017800090E00E949B0BC82F81E090E00E949B0B91
:1017900090E4C99F90011124207C31708F73282B15
:1017A0003093E4022093E3028091E3029091E402FB
:1017B000CECF85FF0CC081E190E00E949B0BC82F2B
:1017C00082E190E00E949B0BC05CDD0BD2CF81E0F8
:1017D00090E00E949B0B90E0CDCFEF92FF920F9391
:1017E0001F93CF93DF936115710559F06130710537
:1017F00009F45DC0DF91CF911F910F91FF90EF90A1
:10180000089530910D033817190629F0309110030F
:101810003817190679F7C22F4330510509F4F4C07F
:1018200008F04EC04130510509F463C04230510503
:1018300009F7822F8170F82E85E020FFD1C00E9429
:1018400026090C2F027086E0C1FFCDC00E94260938
:101850001C2F147087E0C2FFC9C00E942609DC2F2C
:10186000D87088E0C3FFC5C00E94260980916C0132
:10187000FF2009F4C1C0816080936C0180916C01EC
:10188000002309F4BBC0826080936C0180916C01DD
:10189000112309F4B5C0846080936C0180916C01C0
:1018A000DD2309F4AFC0886080936C01A3CF609101
:1018B0000E0370910F038617970709F4ACCF9ACFE8
:1018C0004530510509F42FC108F4EAC046305105EE
:1018D00009F090CFD0916D0180E024FF06C00E94F6
:1018E0002609D061D0936D0185CF0E94BE09DF7EAD
:1018F000F9CF122F1071D0916D01809124028111C6
:101900004FC0112309F447C00E942609D061D0932B
:101910006D018C2F8170E82E81E0C0FF4BC00E94CA
:1019200026098C2F8270F82E82E0C1FF46C00E94EB
:1019300026090C2F047083E0C2FF42C00E942609D2
:10194000DC2FD87084E0C3FF3EC00E94260980913E
:101950006D011123D9F1806180936D0180916D013A
:10196000EE20B1F1816080936D0180916D01FF20C7
:1019700089F1826080936D0180916D01002361F196
:10198000846080936D0180916D01DD2339F1886061
:1019900080936D012FCF80E00E94BE09DF7EB7CF1C
:1019A0008DE190E00E94C40A81FFB3CF80E0112353
:1019B00099F3AACF0E94BE09B4CF0E94BE09B9CF45
:1019C0000E94BE09BDCF0E94BE09C1CF8F7EC4CF89
:1019D0008E7FC9CF8D7FCECF8B7FD3CF877FD8CF60
:1019E0000E94BE092ECF0E94BE0932CF0E94BE09BE
:1019F00036CF0E94BE093ACF8E7F3ECF8D7F44CF37
:101A00008B7F4ACF877F50CF822F8170F82E89E05D
:101A100020FF32C00E9426090C2F02708AE0C1FF0D
:101A20002EC00E9426091C2F14708BE0C2FF2AC012
:101A30000E942609DC2FD8708CE0C3FF26C00E94CC
:101A4000260980916C01FF2019F1806180936C015F
:101A500080916C010023F1F0806280936C01809191
:101A60006C011123C9F0806480936C0180916C013A
:101A7000DD23A1F0806818CF0E94BE09CDCF0E945F
:101A8000BE09D1CF0E94BE09D5CF0E94BE09D9CFD1
:101A90008F7EDCCF8F7DE1CF8F7BE6CF8F7704CF3A
:101AA0008DE020FF2BC00E9426098EE0C1FF29C0D7
:101AB0000E9426098FE0C2FF27C00E94260980E10C
:101AC000C3FF25C00E94260981E1C4FF23C00E94F4
:101AD000260982E1C5FF21C00E94260983E1C6FFD5
:101AE0001FC00E94260984E1C7FF57C0DF91CF9134
:101AF0001F910F91FF90EF900C9426090E94BE0950
:101B0000D4CF0E94BE09D6CF0E94BE09D8CF0E9472
:101B1000BE09DACF0E94BE09DCCF0E94BE09DECF2B
:101B20000E94BE09E0CF85E120FF22C00E94260965
:101B300086E1C1FF20C00E94260987E1C2FF1EC0C6
:101B40000E94260988E1C3FF1CC00E94260989E182
:101B5000C4FF1AC00E9426098AE1C5FF18C00E946E
:101B600026098BE1C6FF16C00E9426098CE1BCCF76
:101B70000E94BE09DDCF0E94BE09DFCF0E94BE09D0
:101B8000E1CF0E94BE09E3CF0E94BE09E5CF0E94CB
:101B9000BE09E7CF0E94BE09E9CFDF91CF911F9127
:101BA0000F91FF90EF900C94BE09CF93C82F8FE256
:101BB00090E00E94C40A811109C085E190E0CC2325
:101BC00011F086E190E0CF910C94C40A80E0CF91AF
:101BD0000895CF93C82F8FE290E00E94C40A81112C
:101BE00006C08C2F90E0CA96CF910C94C40A80E076
:101BF000CF9108951F93CF93DF93EC01162F0E948E
:101C00001428181739F0612FCE01DF91CF911F9161
:101C10000C941C28DF91CF911F9108950F931F936F
:101C2000CF93DF93EC01162FC63883E0D80781F1FC
:101C300050F4C13883E0D807F9F0612FCE010E943B
:101C4000FA0DCE011FC0C73883E0D80741F1C8386C
:101C500083E0D80791F786E893E00E94C40A082F32
:101C600087E893E00E94C40AC82FD0E08FEF089F56
:101C7000C00DD11D1124E1CF81E893E00E94FA0D3F
:101C800081E893E0DF91CF911F910F910C94C40AEA
:101C900086E893E00E94FA0D86E893E0F3CF87E8A8
:101CA00093E00E94FA0D87E893E0ECCFFF920F9348
:101CB0001F93CF93DF930FB6F894A89581B58861F1
:101CC00081BD11BC0FBED0E0C0E0FE01E457FF4F64
:101CD0006491CE010E94FA0D2196CD3281E0D807A1
:101CE000A1F7CFE1D1E005E511E0FF24FA94899155
:101CF0009991FC01F1820E94CD060C171D07B9F7DE
:101D000088E19BE00FB6F894A89581BD0FBE91BD08
:101D1000DF91CF911F910F91FF9008951F93CF9363
:101D2000DF93209100012223C1F02FEF3FEF30938A
:101D3000F4012093F3013093F8012093F7013093DD
:101D4000FC012093FB01309300022093FF013093AC
:101D50000402209303021092000182309105C9F021
:101D60008330910509F458C020E030E0232B11F0B6
:101D70000E9400008091110290911202891B990B20
:101D8000181619060CF044C081E093E00E94390651
:101D9000F1CFE1EFF1E0D0E0C0E0828193810196E4
:101DA000E9F4CC0FDD1FCC0FDD1FCF50DE4F1B82BF
:101DB0001A8281E093E00E943906888381E093E0F3
:101DC0000E9439068983E0912502F091260230971E
:101DD000C9F4D0932602C09325021AC021963496E6
:101DE000C530D105D1F68091110290911202891B64
:101DF000990B1816190664F481E093E00E943906E5
:101E0000F2CFFC01828193810097D9F7D383C283FB
:101E1000DF91CF911F91089581E093E00E943906F0
:101E2000182F81E093E00E943906D12F90E0C92F4E
:101E3000C80FD11DD0930602C093050281E093E044
:101E40000E943906682F80930702CE01D7FF21C078
:101E50009F7790930602809305028830910561F088
:101E6000843823E0920741F08C3A23E0920721F076
:101E7000843D23E0920741F481E8683039F4DF9132
:101E8000CF911F910C94560E0E940E0E8093070264
:101E9000BFCF0E94530BFACF4F925F926F927F9207
:101EA0008F929F92AF92BF92CF92DF92EF92FF926A
:101EB0000F931F93CF93DF93C0911702D091180215
:101EC0008091E901811116C02FB7F8948091270203
:101ED00090912802A0912902B0912A022FBF8093ED
:101EE000E5019093E601A093E701B093E80181E05A
:101EF0008093E9018091DD01811111C00E94E5020A
:101F000064517109810991096093D9017093DA01D3
:101F10008093DB019093DC0181E08093DD010E94DE
:101F2000E5022B013C018FB7F894C0902702D090B6
:101F30002802E0902902F0902A028FBF8091E501EB
:101F4000BC2CB81A8091D9019091DA019201281B1A
:101F5000390BC9012091D801211169C0FE0130E07F
:101F600020E045815681C417D50709F056C045E0E9
:101F7000429F8001439F100D11240E5F1F4F0C0FD5
:101F80001D1F1093D7010093D6010115110509F407
:101F900058C0F801148213828431910508F496C167
:101FA000853F914008F0B8C18D8D9E8D0E94A3059C
:101FB000F801808381E08093D8014092D90150924A
:101FC000DA016092DB017092DC01F6E0FB1508F4A7
:101FD00081C18D8D9E8D0E94A305A090D601B090E9
:101FE000D7019091D801E92FE695E695E695292F3E
:101FF000277041E050E060E070E004C0440F551FDE
:10200000661F771F2A95D2F7EA0DFB2DF11D81116E
:1020100029C040958081482327C02F5F3F4F3596C8
:102020002530310509F09DCF10E000E0AACF26E071
:102030002B1508F44FC18431910518F0853F91406C
:1020400040F2DF91CF911F910F91FF90EF90DF90C1
:10205000CF90BF90AF909F908F907F906F905F9048
:102060004F9008958081482B408381E0890F8093B1
:10207000D8014092D9015092DA016092DB0170924E
:10208000DC01982F9770E9F68031E9F4F501808141
:10209000863780F4EB8DFC8D309721F4BC8EAB8EAF
:1020A00007C0FC01838194810097D9F7B482A38291
:1020B0001092D801C092E501D092E601E092E701CA
:1020C000F092E801BECF8831A9F7F50111811F77A1
:1020D0008DEF782E710EF7E2F71580F08881813050
:1020E000A1F4812E912C1B3261F118F5133049F1C6
:1020F000143029F1111152C0888124C085ED810F5F
:10210000883250F48881823061F3E091D601F091F9
:10211000D701D483C383CCCF8DEA810F883220F4DA
:102120008881833091F7DDCF8EEF810F8230C8F642
:10213000ECCF133531F0143511F01C3279F58AE00B
:1021400001C08DE0F501028190819B3769F19F37D5
:1021500009F472C09737C9F60813D7CF61E08D8DA7
:102160009E8D0E94B8058D8D9E8D0E9497058FE6ED
:1021700097E10197F1F700C00000AD8DBE8D149678
:10218000ED91FC911597808111969C91892B80830C
:1021900060E08D8D9E8D0E94B805B7CFC4018F572A
:1021A0009C4F0E94530BCECF202F2870302F3770BA
:1021B00004FF35C01D3278F51B3208F0A6CF91E040
:1021C000971508F0A2CF41E050E060E070E004C055
:1021D000440F551F661F771F3A95D2F7182F142BFF
:1021E000211103C0142F10951823612FC4018F579C
:1021F0009C4F0E940E0E181388CF61E08D8D9E8D2E
:102200000E94B8058D8D9E8D0E949705EFE6F7E13F
:102210003197F1F7B0CF13551230A8F676CF90E092
:1022200002C0959587953A95E2F78170992728170E
:10223000190609F06ACF92CF1B32D9F190F513300D
:10224000C1F1143009F461CF602FC4018F579C4F46
:102250000E940E0E08131FC061E08D8D9E8D0E949E
:10226000B8058D8D9E8D0E9497058FE697E10197A9
:10227000F1F700C00000AD8DBE8D1496ED91FC917C
:102280001597808111969C91892B808360E08D8DBC
:102290009E8D0E94B805111138CF043078F4088360
:1022A00034CF133531F0143509F42FCF1C3261F6D9
:1022B0002CCF083081F70E94560E9FCF61E081E855
:1022C00093E00E940E0E81E088831FCFF6E0FB159D
:1022D00008F0B7CE99E09B1508F0B3CEC092E501A7
:1022E000D092E601E092E701F092E8010091D60178
:1022F0001091D7018D8D9E8D0E94A305F8018083DA
:1023000081E08093D8014092D9015092DA01609225
:10231000DB017092DC0195CE26E02B15D8F291CE30
:102320001F93CF93DF93EC01162F089779F4662360
:1023300019F10E94560E80E090E0892BB9F0612FD0
:10234000CE01DF91CF911F910C94000080E090E0CE
:10235000892BA9F781E0C11590E1D90708F080E049
:10236000111105C0DF91CF911F91089581E027974A
:102370002297C0F780E0F6CF80E090E0892BF9F655
:1023800081E0F0CF0F931F93CF93DF93EC01162FD3
:1023900080916B01882329F1CF30D10561F48FE062
:1023A00090E00E94FA0D8FE090E0DF91CF911F91B5
:1023B0000F910C94C40A8FE090E00E94C40A082F89
:1023C00080E190E00E94C40A08130AC0C730D1051A
:1023D00031F0C830D10529F4183049F0FFCFFFCFD4
:1023E000FFCF612FCE010E94FA0DCE01DECF0E94F9
:1023F000560E88E0DF91CF911F910F9108958331A0
:10240000910588F48131910530F48130910519F0FE
:102410008930910531F42FEF3FEF3093E4022093A0
:10242000E3020C94C2118D319105D9F7677F609357
:10243000E6022091CD022F73362F307C232B209380
:10244000CD02E9CFCF93DF93EBEEF2E086E1DF013F
:102450001D928A95E9F782E990E09093EA028093D1
:10246000E90282E590E09093E8028093E702CDECE8
:10247000D2E0188219828FEF9FEF9F8B8E8B188E80
:1024800083E08093CC028D898093CB0243E050E0BF
:1024900067EC73E089890E94C2038DE190E00E949D
:1024A0009B0B682F6F738DE190E00E94FF11898F65
:1024B0006BE087E090E00E94FF116DE088E090E023
:1024C0000E94FF1180E0DF91CF910C94B50ABF927A
:1024D000CF92DF92EF92FF920F931F93CF93DF93F0
:1024E0008B01B42E690182FF23C083FF17C061E016
:1024F000C8010E9490118823D9F16B2DC8010E9458
:10250000FF118B1135C0F601DF91CF911F910F9113
:10251000FF90EF90DF90CF90BF90099460E0C801EA
:102520000E949011882321F1C8010E949B0BE9CFE2
:10253000842F8770C1E0D0E07E0101C0EE0C8A9547
:10254000EAF7D42FD870CB010E949B0BC82FB4FEA2
:102550001CC061E0C8010E949011882349F0DD236E
:1025600089F0CE296C2FC8010E94FF118C1759F2F7
:10257000DF91CF911F910F91FF90EF90DF90CF905F
:10258000BF900895E094CE21EDCF60E0C8010E9495
:102590009011882369F3CE21DD2319F0C111B3CF47
:1025A000E7CFCC2309F4AFCFE3CFCF92DF92EF9206
:1025B000FF920F931F93CF93DF937C016B01C42F86
:1025C000122FD42FD07E8091CD0287FF2BC0D03E1A
:1025D000B9F5C090CE02CC2099F1D12CC6010E9451
:1025E0009B0BD82FC60101960E949B0B982F8D2F15
:1025F000E816F90629F56C2F70E0762F6627662716
:102600007370612B6F5F7F4F23EC36E0402F8C2F70
:10261000DF91CF911F910F91FF90EF90DF90CF90BE
:102620000C94671280FD32C0D03609F464C088F47F
:10263000D03209F447C0D03409F45DC0DD2379F10C
:10264000DF91CF911F910F91FF90EF90DF90CF908E
:102650000895D03A09F483C090F42C2F2F7141E0F3
:1026600050E0D03869F7B601C701DF91CF911F91D3
:102670000F91FF90EF90DF90CF900C94ED0BD03C3A
:1026800009F476C0D03E09F4B6CFDACF0E949D0B94
:102690008E159F0549F2E114F10431F2D1CF8C2F50
:1026A0008E7071F680E090E0892B51F28C2F817052
:1026B000DF91CF911F910F91FF90EF90DF90CF901E
:1026C0000C940000CF71CF3109F0BACF412F4F7772
:1026D00071F0413071F0111F1127111F212F30E0CF
:1026E0000FE710E0B601C7010E94A009A9CF41E0A1
:1026F000F2CF40E0F0CF2C2F30E08C2F8F71813063
:1027000029F030F0803121F08131F9F440E001C04E
:1027100041E025FB222720F90DE110E030E0B60171
:10272000C7010E94A00980E090E0892B09F488CFBE
:102730004C2FB601C701DF91CF911F910F91FF90F0
:10274000EF90DF90CF900C940000C901880F991F83
:102750008E71C4FB442740F9482B4250DACF2C2F0E
:102760002F7043E050E0C4FF7ECF42E050E07BCFCB
:10277000CF71CE3139F0CF3109F062CF212F45E052
:1027800050E071CF212F44E050E06DCFCF92DF9227
:10279000EF92FF920F931F93CF93DF93EC017B0196
:1027A00041305105F9F4CD80DE802496C114D10466
:1027B000E9F462E070E081E090E00E9496288C01EC
:1027C000009731F0FC01F182E08288818F5F88837D
:1027D000C801DF91CF911F910F91FF90EF90DF9093
:1027E000CF900895C884D9842796E0CF88818F5FE1
:1027F0008883C82FD0E062E070E0CE010E94962866
:102800008C0120E0BE0161507109822F90E0861793
:10281000970774F4880F991FF601E80FF91F40819C
:102820005181800F911FFC01518340832F5FEDCFB9
:10283000C150D048CC0FDD1FC00FD11FF982E882F4
:10284000C6010E944E29C4CF1F920F920FB60F925D
:1028500011242F933F938F939F93AF93BF938091B6
:10286000270290912802A0912902B0912A0230916A
:10287000080223E0230F2D3768F126E8230F029684
:10288000A11DB11D20930802809327029093280276
:10289000A0932902B0932A028091090290910A0222
:1028A000A0910B02B0910C020196A11DB11D809365
:1028B000090290930A02A0930B02B0930C02BF91FD
:1028C000AF919F918F913F912F910F900FBE0F90DD
:1028D0001F9018950196A11DB11DD4CF1F920F9284
:1028E0000FB60F9211240BB60F922F933F934F9375
:1028F0005F936F937F938F939F93AF93BF93EF9368
:10290000FF93E0910F01F09110010995FF91EF9174
:10291000BF91AF919F918F917F916F915F914F91F7
:102920003F912F910F900BBE0F900FBE0F901F90F5
:1029300018951F920F920FB60F9211240BB60F929B
:102940002F933F934F935F936F937F938F939F93B7
:10295000AF93BF93EF93FF93E0910D01F0910E01C0
:102960000995FF91EF91BF91AF919F918F917F91C9
:102970006F915F914F913F912F910F900BBE0F90F0
:102980000FBE0F901F9018951F920F920FB60F92C7
:1029900011240BB60F922F933F934F935F936F9336
:1029A0007F938F939F93AF93BF93EF93FF93E091A8
:1029B0000B01F0910C010995FF91EF91BF91AF913F
:1029C0009F918F917F916F915F914F913F912F9147
:1029D0000F900BBE0F900FBE0F901F9018951F9277
:1029E0000F920FB60F9211240BB60F922F933F93B5
:1029F0004F935F936F937F938F939F93AF93BF9307
:102A0000EF93FF93E0910901F0910A010995FF917D
:102A1000EF91BF91AF919F918F917F916F915F9156
:102A20004F913F912F910F900BBE0F900FBE0F90C3
:102A30001F9018951F920F920FB60F9211240BB68C
:102A40000F922F933F934F935F936F937F938F9347
:102A50009F93AF93BF93EF93FF93E0910701F091A2
:102A600008010995FF91EF91BF91AF919F918F91CF
:102A70007F916F915F914F913F912F910F900BBE7E
:102A80000F900FBE0F901F9018951F920F920FB6C8
:102A90000F9211240BB60F922F933F934F935F9396
:102AA0006F937F938F939F93AF93BF93EF93FF9316
:102AB000E0910501F09106010995FF91EF91BF9119
:102AC000AF919F918F917F916F915F914F913F91C6
:102AD0002F910F900BBE0F900FBE0F901F90189567
:102AE0001F920F920FB60F9211240BB60F922F93D5
:102AF0003F934F935F936F937F938F939F93AF9386
:102B0000BF93EF93FF93E0910301F09104010995C6
:102B1000FF91EF91BF91AF919F918F917F916F91B5
:102B20005F914F913F912F910F900BBE0F900FBE71
:102B30000F901F9018951F920F920FB60F921124AD
:102B40000BB60F922F933F934F935F936F937F93A7
:102B50008F939F93AF93BF93EF93FF93E091010106
:102B6000F09102010995FF91EF91BF91AF919F9173
:102B70008F917F916F915F914F913F912F910F9026
:102B80000BBE0F900FBE0F901F9018951F920F92C3
:102B90000FB60F9211240BB60F922F933F934F93C2
:102BA0005F936F937F938F939F93AF93BF93EF93B5
:102BB000FF9380917100887F803609F44DC008F042
:102BC00040C0883209F4A9C028F5803109F49DC0BD
:102BD000C8F4882309F4FBC0883009F496C0FF913B
:102BE000EF91BF91AF919F918F917F916F915F9185
:102BF0004F913F912F910F900BBE0F900FBE0F90F2
:102C00001F901895883109F488C0803241F780936D
:102C1000A40214C0803409F49DC040F48033B9F399
:102C20008833E9F68093A40285ECB0C0803509F4BE
:102C300085C0883509F496C0883489F60E94F80565
:102C4000CECF883909F48CC038F5883729F050F494
:102C5000883611F0803719F683E08093A60210922F
:102C6000D50157C0883809F47BC0803919F0803805
:102C700009F0B5CF8091D501803208F071C0E091A4
:102C8000D50181E08E0F8093D50180917300F0E033
:102C9000EB54FE4F80833DC0803B39F0E0F4803A36
:102CA00009F479C0883A09F09ACF84E08093A602AB
:102CB0001092B4011092B301E0910F02F091100252
:102CC00009958091B30181110FC081E08093B30118
:102CD0001092930109C0803C09F4A6CF883C09F406
:102CE000A3CF883B09F07BCFE091B40181E08E0F48
:102CF0008093B401F0E0ED56FE4F80818093730025
:102D00009091B4018091B30129C080918102809398
:102D1000730085EC8093740062CF9091A302809140
:102D2000A202981758F5E091A30281E08E0F8093DC
:102D3000A302F0E0EE57FD4F8081E9CFE091A302BE
:102D400081E08E0F8093A30280917300F0E0EE5734
:102D5000FD4F80839091A3028091A2029817C8F240
:102D600085E8D8CFE091A30281E08E0F8093A30283
:102D700080917300F0E0EE57FD4F80838091A502B3
:102D800081115CCF81E08093800284EA809374009B
:102D90001092A60224CF85EC809374001092A602B4
:102DA0008091D501803230F4E091D501F0E0EB5410
:102DB000FE4F10826091D50170E0E0910D02F0911C
:102DC0000E0285EB91E009951092D50108CF109283
:102DD000A40234CF1F920F920FB60F9211240BB69C
:102DE0000F92EF92FF920F931F932F933F934F9366
:102DF0005F936F937F938F939F93AF93BF93CF9383
:102E0000DF93EF93FF930FB6F894A89581B588618F
:102E100081BD11BC0FBE789410926A01C1E0D1E06F
:102E2000D093A702C093C9021092A8021092CA02BE
:102E30000E94AD01811105C080916A018F5F80936E
:102E40006A01CF5FCF3761F7809168019091690186
:102E5000009731F00E944E2910926901109268018A
:102E6000D0916A01DD2371F161E070E08D2F90E077
:102E70000E9496287C01909369018093680110E07C
:102E8000C1E001E00093A702C093C9021092A8021A
:102E90001092CA020E94AD01811105C0F701E10F35
:102EA000F11DC0831F5FCF5FCF3761F7D23050F085
:102EB00080918A00887F80938A0080917D008B7F3B
:102EC00080937D00109288001092890088E19BE039
:102ED0000FB6F894A89581BD0FBE91BDFF91EF91FB
:102EE000DF91CF91BF91AF919F918F917F916F9122
:102EF0005F914F913F912F911F910F91FF90EF9014
:102F00000F900BBE0F900FBE0F901F9018951F9241
:102F10000F920FB60F9211248F939F937894809104
:102F20007F0290917E02891708F0CBC090916200D9
:102F300091609093620090917D02891708F0C5C05E
:102F4000AD9A90917C02891708F0C1C0969A909131
:102F50007B02891708F0BDC0979A90917A02891771
:102F600008F0B9C0909165009160909365009091D0
:102F70007902891708F0B3C0909165009260909330
:102F8000650090917802891708F0ADC0A89A9091D9
:102F90007702891708F0A9C01B9A909176028917C9
:102FA00008F0A5C0909162009460909362009091A7
:102FB0007502891708F09FC0C79A9091740289170B
:102FC00008F09BC0C59A90917302891708F097C0CA
:102FD000C49A90917202891708F093C0C69A909192
:102FE0007102891708F08FC0DB9A909170028917DF
:102FF00008F08BC0DC9A90916F02891708F087C0A7
:10300000DD9A90916E02891708F083C0DE9A909144
:103010006D02891708F07FC0DF9A90916C028917C2
:1030200008F07BC01C9A90916B02891708F077C05A
:103030001D9A90916A02891708F073C090916200FE
:1030400092609093620090916902891708F06DC0B8
:10305000C09A90916802891708F069C0D89A909137
:103060006702891708F065C09091620090649093A0
:10307000620090916602891708F05FC0909162002B
:1030800090629093620090916502891708F059C090
:103090009091620090619093620090916402891710
:1030A00008F053C0909162009860909362008F5F27
:1030B00080937F029F918F910F900FBE0F901F9072
:1030C0001895909162009E7F34CFAD983ACF969834
:1030D0003ECF979842CF909165009E7F46CF9091CA
:1030E00065009D7F4CCFA89852CF1B9856CF9091EA
:1030F00062009B7F5ACFC79860CFC59864CFC498B1
:1031000068CFC6986CCFDB9870CFDC9874CFDD9811
:1031100078CFDE987CCFDF9880CF1C9884CF1D9825
:1031200088CF909162009D7F8CCFC09892CFD89825
:1031300096CF909162009F7B9ACF909162009F7D85
:10314000A0CF909162009F7EA6CF90916200977F62
:10315000ACCFCF93DF93EC0161E088810E94A9029C
:1031600060E08881DF91CF910C947B02EF92FF9217
:103170000F931F93CF93DF931092040310920303D6
:1031800088EE93E0A0E0B0E08093050390930603FF
:10319000A0930703B093080389E591E0909302039D
:1031A0008093010383E190E00E94C40AC82F82E16A
:1031B00090E00E94C40AD82F81E190E00E94C40AE6
:1031C000182F81E090E00E94C40A21E030E03093A3
:1031D00013032093120330931503209314031092CA
:1031E000160310921B0310921A0380930D03212FD4
:1031F000205C330BC9012D2F382FC90190930F0389
:1032000080930E03CF77C0931003109211038DE1CA
:103210008093170362E070E08DE190E00E949628B1
:1032200090931903809318030097C9F0EC0110E004
:10323000EE24E394F12C8AE090E00E94B228FC0195
:10324000F282E1821382148216821582178211861D
:1032500010861083899399931F5F1D3161F767E092
:1032600084E293E00E94D40563E28EE193E00E9441
:10327000D40580E38093AC03C2E0C093AE03109208
:10328000AF03DFEFD093AD031092B0038CEA93E06D
:103290000E94A91881E38093A703C093A90381E04A
:1032A0008093AA03D093A8031092AB0387EA93E01C
:1032B0000E94A91882E38093A203C093A403C09341
:1032C000A503D093A3031092A60382EA93E00E9481
:1032D000A91883E380939D03C0939F0313E0109389
:1032E000A003D0939E031092A1038DE993E00E9466
:1032F000A9188CE280939803C0939A0384E0F82E77
:10330000F0929B03D093990310929C0388E993E079
:103310000E94A91808E000939303C093950395E0D9
:10332000E92EE0929603D09394031092970383E9D9
:1033300093E00E94A9188EE280938E03C0939003BD
:1033400086E080939103D0938F03109292038EE8CE
:1033500093E00E94A918E0928903C0938B0387E051
:1033600080938C03D0938A0310928D0389E893E0B5
:103370000E94A918F0928403C093860300938703E8
:10338000D09385031092880384E893E00E94A918E3
:1033900085E280937F03C093810389E08093820359
:1033A000D0938003109283038FE793E00E94A918C3
:1033B00086E280937A03C0937C038AE080937D0346
:1033C000D0937B0310927E038AE793E00E94A918B2
:1033D00087E280937503C09377038BE08093780333
:1033E000D09376031092790385E793E00E94A918A1
:1033F00088E280937003C09372030CE00093730320
:10340000D09371031092740380E793E00E94A9188F
:1034100089E280936B03C0936D032DE0F22EF0924E
:103420006E03D0936C0310926F038BE693E00E94BF
:10343000A9188EE080936603C093680380936903A4
:10344000D093670310926A0386E693E00E94A9185E
:1034500000936103C09363030FE000936403D09370
:1034600062031092650381E693E00E94A918F0922E
:103470005C03C0935E0380E180935F03D0935D03A0
:10348000109260038CE593E00E94A9180093570303
:10349000C093590381E180935A03D093580310924B
:1034A0005B0387E593E00E94A9188FE280935203A3
:1034B000C093540382E180935503D0935303109239
:1034C000560382E593E00E94A91810934D03C09320
:1034D0004F0383E180935003D0934E031092510326
:1034E0008DE493E00E94A9188CE180934803C09377
:1034F0004A0384E180934B03D093490310924C0319
:1035000088E493E00E94A9188BE180934303C09361
:10351000450385E180934603D0934403109247030B
:1035200083E493E00E94A9181AE110933E03C0932C
:10353000400386E180934103D0933F0310924203FE
:103540008EE393E00E94A91809E100933903C09328
:103550003B0387E180933C03D0933A0310923D03F1
:1035600089E393E00E94A91888E180933403C09313
:10357000360380933703D09335031092380384E3E6
:1035800093E00E94A91881E280932F03C093310336
:1035900000933203D0933003109233038FE293E011
:1035A0000E94A9188DE280932A03C0932C031093E4
:1035B0002D03D0932B0310922E038AE293E00E94F6
:1035C000A9181092B3031092B4031092B50310928D
:1035D000B6031092B7031092B8031092B903109279
:1035E000BA031092BB031092BC031092BD0387E094
:1035F00090E09093B2038093B103DF91CF911F913C
:103600000F91FF90EF900895CF93DF93CDB7DEB782
:1036100063970FB6F894DEBF0FBECDBF789483B723
:103620008C6483BF87B7816087BF82E08EBD8EB513
:1036300081608EBD8FB581608FBD85B5846085BD8D
:1036400085B5806485BD80918A00836080938A00FF
:1036500080918B00816080938B0087E886B91AB8CF
:103660000FB6F894A89581B5886181BD11BC0FBED5
:103670002FB7F89490E080E0FC01EC59FD4F1082E8
:1036800001968B319105C1F7809162008E7F809306
:103690006200AD9896989798809165008E7F809390
:1036A0006500809165008D7F80936500A8981B98C8
:1036B000809162008B7F80936200C798C598C49800
:1036C000C698DB98DC98DD98DE98DF981C981D98EA
:1036D000809162008D7F80936200C098D89880911D
:1036E00062008F7B80936200809162008F7D809367
:1036F0006200809162008F7E809362008091620000
:10370000877F809362002FBF9FB7F89480916100FC
:10371000816080936100A59A8E9A8F9A809164004F
:103720008160809364008091640082608093640073
:10373000A09A139A80916100846080936100BF9A7F
:10374000BD9ABC9ABE9AD39AD49AD59AD69AD79A49
:10375000149A159A80916100826080936100B89AF2
:10376000D09A8091610080648093610080916100B3
:10377000806280936100809161008061809361002C
:10378000809161008860809361009FBF1FBC89E0C9
:103790008EBD81E194E09BBD8ABD87B7806187BF04
:1037A00010927F0261E08BE00E94A90260E084E257
:1037B00093E00E94B805D12CC12CBB24B394F60130
:1037C000E25FFD4FE4910E2F10E0C8010E94C40A91
:1037D000F82EC80101960E94C40AE82EC80102967C
:1037E0000E94C40AA82EC80103960E94C40A9091A0
:1037F0001703F91638F5F601E15EFE4F00811181DD
:10380000D8011196AC92119714968C938F2DE110DC
:10381000A0C10E949A014C0141E050E0B8010E9411
:10382000C613F401968385838F2D0E949A017C0133
:1038300050E040E0B8010E94C613D70119969C934E
:103840008E931897A895F2E0CF0ED11C26E3C216EE
:10385000D10409F0B4CF61E070E084E090E00E9410
:10386000962890931B0380931A03892B91F010E004
:1038700000E0E0901A03F0901B03E00EF11E802F91
:103880000E94E90DD7018C930F5F1F4F0430110583
:1038900081F780E00E94D50D082F10E081E00E94A2
:1038A000D50D282F30E0322F222722273E7F000F10
:1038B000111F202B312B80FD64C130931D032093F9
:1038C0001C0310921202109211021092A802109280
:1038D000CA021092A602FF24F394F092A50210925D
:1038E000800261E083E10E947B0261E082E10E944C
:1038F0007B02809171008C7F8093710088E48093BB
:10390000700085E48093740080E192E0909310024F
:1039100080930F028CE192E090930E0280930D024F
:1039200082E0809372008CE0809370008EE89EE0CD
:10393000909314028093130288EA96E09093160203
:10394000809315028FE190E00E94B2288C0186E0FE
:10395000F801818386E090E00E94B2286C0166E164
:103960000E94D405D8015E96DC92CE925D971093AA
:1039700063020093620281E893E00E94530BF80116
:103980008083843038F061E081E893E00E940E0E7D
:10399000D801FC921093180200931702F80181815C
:1039A0008F3FA1F060E00E94A902D80111968C918E
:1039B0009CEF980F943020F08251843008F08FEF04
:1039C00042E050E06CE47FE00E94C20360E0F80156
:1039D000858D968D0E94B805D80116961C930E937E
:1039E00015971B961C930E931A9750961C930E9343
:1039F0001F9755961C930E9354975A961C930E93AB
:103A000059975C961C921E925B9781E090E00E9411
:103A1000C40A21E030E030931A0220931902809307
:103A20001B0281E190E00E94C40A21E130E0309362
:103A30001D0220931C0280931E0282E190E00E94EE
:103A4000C40A22E130E03093200220931F028093C9
:103A500021028DE190E00E94810B81FD94C08DE1F7
:103A600090E090932302809322021092240287E038
:103A70008093DE028093DF02EAEAF2E0E491F0E074
:103A8000EE0FFF1FED56FD4F859194919093E1024B
:103A90008093E002E5E6F2E0E491E093E20260E088
:103AA00087E00E94A9020E942212109288001092C0
:103AB000890010928A0010928B0080918A008460A5
:103AC00080938A0080917D00846080937D0088E1EE
:103AD0009BE00FB6F894A89581BD0FBE91BD0E94E2
:103AE000E5026B017C01B1E0BB8BE0912502F09116
:103AF0002602309709F46FC080E090E0892B21F016
:103B0000618180810E940000E0912502F0912602EF
:103B10008081803409F47CC108F0B9C0893209F48D
:103B2000E3C108F090C0843209F4BDC108F041C07F
:103B3000813209F487C1833209F48DC1811141C0FA
:103B400080E090E0892B09F4F2C081810E9400009E
:103B5000EEC00E949A01FC01B382F0E8EF1609F46E
:103B600063CEB1E8EB126ECE8F2D0E949A017C01DC
:103B700041E050E0B8010E94C613F70196838583A7
:103B800061CE21609ACE85FD0DC080911901909182
:103B90001A01A0911B018093220290932302A0930B
:103BA000240265CF80911C0190911D01A0911E01FE
:103BB000F2CF863209F463C108F47EC1883209F479
:103BC00089C1828193812FEF3FEF338322839093CA
:103BD0002602809325020091620210916302D801AF
:103BE0005B96ED91FC91309709F4C9C180E090E0BB
:103BF000892B21F0618180810E940000D8015B96B1
:103C0000ED91FC918081803409F4D1C208F025C285
:103C1000893209F432C308F0FCC1843209F40CC3C0
:103C200008F09CC1813209F4DCC2833209F4E2C29B
:103C300081119CC180E090E0892B09F45BC28181F5
:103C40000E94000057C28D3209F466C168F48B32BD
:103C500009F45AC108F450C180E090E0892B09F4BE
:103C600066C0618184E03DC18F3209F465C108F40A
:103C70005BC1803309F468C1813309F0A2CF80E0D1
:103C800090E0892B09F453C0618182E064C18036E1
:103C900009F449C058F5803509F405C178F4823437
:103CA00009F4C8C008F4BEC0833409F08ACF80E0AC
:103CB00090E0892BE1F1618183E0B1C08235B9F1F7
:103CC00008F4FAC08E3509F07CCFA281B381109739
:103CD000E1F18C918F3559F580E090E0892B39F135
:103CE00011969C9181810E94000021C0893650F478
:103CF0008436E8F4823609F446C008F441C0618194
:103D000083E013C08D3609F441C08E3609F465C0D6
:103D10008C3609F056CF80E090E0892B41F081810C
:103D20000E94000004C0618180E00E94D009E091FF
:103D30002502F0912602828193812FEF3FEF33839A
:103D4000228390932602809325020E94E5026B0154
:103D50007C01FBE0FB8B0E94E5026C197D098E095A
:103D60009F096132714A8740910508F415C50E9488
:103D700022120E94E5026B017C01E1E0EB8B0CC595
:103D8000618181E0D2CF618182E0CFCF80E090E09D
:103D9000892B69F26181862F8F77D1F410E000E0E2
:103DA00067FD0BC00F5F1F4F0038110509F4BFCF2F
:103DB00060E0C8010E940000F5CF0F5F1F4F003880
:103DC000110509F4B4CF61E0C8010E940000F5CFED
:103DD000607890E00E940000AACFA281B381109782
:103DE00009F4B3CF8C918F3609F0A1CF80E090E039
:103DF000892B09F49CCF2181622F661F6627661FDD
:103E000011968C91E0E88E9FC0011124822BE2CFA5
:103E100080E090E0892B09F48ACF618180E00E94E4
:103E2000000085CF80E090E0892B09F480CF61818C
:103E300081E0F5CF80E090E0892B09F478CF6181B3
:103E400082E0EDCF80E090E0892B09F470CF818192
:103E50000E9400006CCF80E090E0892B09F467CFCE
:103E6000818187FD06C0082E000C990B0E9400007E
:103E70005ECF819590E0919581959109F7CF80E093
:103E800090E0892B09F453CF818187FD06C0082E6D
:103E9000000C990B0E9400004ACF819590E091950B
:103EA00081959109F7CF818160E087FF02C061E0D1
:103EB00080580E94C60A3BCF80E090E0892B09F42D
:103EC00036CF818160E087FF02C061E080580E94A8
:103ED00000002DCF80E090E0892B09F428CF61818C
:103EE00080E00E94000023CF80E090E0892B09F45D
:103EF0001ECF618181E0F5CF80E090E0892B09F44D
:103F000016CF618182E0EDCF80E090E0892B09F44B
:103F10000ECF618183E0E5CF80E090E0892B09F44A
:103F200006CF618185E0DDCF80E090E0892B09F448
:103F3000FECE618186E0D5CF80E090E0892B09F448
:103F4000F6CE618187E0CDCF80E090E0892B09F447
:103F5000EECE618181E00E940000E9CE863209F454
:103F60005AC108F472C1883209F47DC183819481F9
:103F700014830383D8015C969C938E935B97EB89A3
:103F8000E23009F40BC4E33009F487C7E13009F0EB
:103F9000E2CE8091CF028823F1F02FB7F894809180
:103FA000270290912802A0912902B0912A022FBFE6
:103FB0004091D0025091D1026091D2027091D3020F
:103FC000841B950BA60BB70B4597A105B10518F0FF
:103FD00080E00E94B50A8091ED02882309F4C4C3F1
:103FE000F89488E0E9EFF2E0AAEBB7E001900D92D7
:103FF0008A95E1F71092ED0278948091BA07E82F44
:10400000F0E0E454F84F863008F071C111928F5FF0
:10401000FACF8D3209F449C168F48B3209F43DC1FD
:1040200008F433C180E090E0892B09F463C061811A
:1040300084E020C18F3209F448C108F43EC18033C6
:1040400009F44BC1813309F091CF80E090E0892BD6
:1040500009F450C0618182E047C1803609F446C04E
:1040600058F5803509F4E8C078F4823409F4B1C019
:1040700008F4A7C0833409F079CF80E090E0892B61
:10408000C9F1618183E09AC08235A1F108F4DDC0F5
:104090008E3509F06BCFA381B4811097C1F18C915B
:1040A0008F3541F580E090E0892B21F111969C91AC
:1040B00081810E9400001EC0893640F48436D0F40D
:1040C000823679F158F1618183E012C08D3661F159
:1040D0008E3609F452C08C3609F048CF80E090E06B
:1040E000892B41F081810E94000004C0618180E041
:1040F0000E94D009D8015B96ED91FC915C97838179
:104100009481148303835C969C938E935B970E94A7
:10411000E5026B017C01BAE0BB8B1DCE618181E0C1
:10412000E7CF618182E0E4CF80E090E0892B11F35A
:104130006181862F8F77E1F4F12CE12C67FD0CC0B3
:10414000BFEFEB1AFB0AE0E8EE16F10499F260E02B
:10415000C7010E940000F4CFFFEFEF1AFF0A20E82A
:10416000E216F10439F261E0C7010E940000F4CFC9
:10417000607890E00E940000BDCFA381B4811097C9
:1041800031F28C918F3609F0B5CF80E090E0892B29
:1041900009F4B0CF2181622F661F6627661F119632
:1041A0008C9130E8839FC0011124822BE3CF80E003
:1041B00090E0892B09F49ECF618180E00E9400008D
:1041C00099CF80E090E0892B09F494CF618181E060
:1041D000F5CF80E090E0892B09F48CCF618182E0FB
:1041E000EDCF80E090E0892B09F484CF81810E949B
:1041F000000080CF80E090E0892B09F47BCF8181A3
:1042000087FD03C00E94000075CF819590E09195D5
:1042100081959109F7CF80E090E0892B09F46ACF6E
:10422000818187FD03C00E94000064CF819590E0EA
:10423000919581959109F7CF818160E087FF02C058
:1042400061E080580E94C60A55CF80E090E0892B3B
:1042500009F450CF818160E087FF02C061E080589F
:104260000E94000047CF80E090E0892B09F442CF04
:10427000618180E00E9400003DCF80E090E0892BCA
:1042800009F438CF618181E0F5CF80E090E0892B9F
:1042900009F430CF618182E0EDCF80E090E0892B9E
:1042A00009F428CF618183E0E5CF80E090E0892B9D
:1042B00009F420CF618185E0DDCF80E090E0892B9B
:1042C00009F418CF618186E0D5CF80E090E0892B9A
:1042D00009F410CF618187E0CDCF80E090E0892B99
:1042E00009F408CF618181E00E94000003CF80E0E3
:1042F00090E0892B21F08AEB97E00E9400008091EA
:10430000BC0781111BC09091BD07911117C080E0BF
:1043100090E0892B19F080E00E9400008091CF028C
:10432000882341F081E00E948A070E94E5026B0128
:104330007C0132C281E00E94B50AF7CF9091CF0292
:10434000992309F486C08057803108F07FC081E04E
:104350000E948A071091BA078091D60218130AC0EA
:10436000412F50E068ED72E08CEB97E00E94D72976
:10437000892B61F01092D50288E0EAEBF7E0A6ED18
:10438000B2E001900D928A95E1F7CFCF8091D502EE
:104390008F5F8093D502133009F040C09091BC0725
:1043A000892F8770F090BD07853029F4F092D402F0
:1043B0000E943D03BACF0DE110E0843091F0282F28
:1043C00030E08430F0F40091D4020023D1F00150A9
:1043D000110B000F111F000F111F020F131F0F5F92
:1043E0001F4F93FF10C061E0C8010E949011882305
:1043F00009F49BCF6F2DC8010E94FF11F81295CFD1
:10440000D7CF8901ECCF60E0C8010E9490118823CA
:1044100009F48BCFC8010E949B0BF0CF143009F038
:1044200084CF8091BC07682F70E0762F66276627BF
:1044300073709091BD07692B6F5F7F4F2BE433E062
:104440004091BE078C700E9467126FCF80E00E947F
:10445000B50AE091BC07EF3F61F48091BD0781117F
:1044600064CF80E090E0892B09F45FCF0E940000C8
:104470005CCFE7FD0DC00091BF072091BE074091C2
:10448000BD0770E060E08E2F90E00E94D5124DCF06
:10449000E03C08F058C13091CD0237FF46CF209163
:1044A000BD07822F90E08C0100951095000F111F21
:1044B000000F111F007C1170EF730E2B95958795DF
:1044C000F82FF370BF2E8091BA07853041F52C7814
:1044D0002C3029F50E949D0B8017910721F00F3F8A
:1044E000114009F022CF8091BD0790E0982F8827D6
:1044F000882793700091BE07080F192F111D0F5FB9
:104500001F4FF090BF0761E0C8010E9490116F2D0E
:10451000882309F40ACFC8010E94FF1106CF680161
:1045200041E0C41AD108CC0CDD1CCC0CDD1CCB281E
:1045300076018FEFE81AF80A8091E5028823F9F0F6
:1045400036FF41C0C70160E071E00E942928682F52
:1045500081E090E00E94FF11C701F7FE02C0815088
:104560009F4F692F89E090E00E94FF1180E090E06A
:10457000892B19F0C7010E9400001092E50280917A
:10458000CD0280FD39C08091BA07843009F04FC058
:104590008091BD078978813009F0C7CE80E090E036
:1045A000892B29F06091BE07C7010E94000080E0BE
:1045B00090E0892B09F4B9CE4091BE076B2DC7015D
:1045C0000E940000B2CEB8016F73772781E090E0BF
:1045D0000E94FF11B801E6E075956795EA95E1F74D
:1045E00089E090E00E94FF1180E090E0892B29F2A1
:1045F000C8010E940000C1CF86FF0DC00E949D0B24
:104600008E159F0509F4BFCF9DEFE91697E0F906D7
:104610000CF0B9CF8ACE0E949D0B8017910709F448
:10462000B2CF0F3FA1E01A0709F4ADCF7ECE8330A1
:1046300069F54091BD07B42FB170CB2E43FBDD244B
:10464000D0F880E090E0892B31F047702D2DB80133
:10465000C7010E9400008091CD0286FF0BC080E060
:1046600090E0892B09F461CE4D2D6C2DC7010E947D
:1046700000005BCE80E090E0892B09F456CE2D2D12
:104680004C2D6B2DC8010E9400004FCE863009F0E2
:104690004CCE8091BD07982F9978913021F08F787A
:1046A000803809F042CE8091CD0286FF28C00E945A
:1046B0009D0B8E159F05E9F48091BE0790E0382F81
:1046C0002227222733700091BF07020F132F111DDD
:1046D0000F5F1F4FF090C00795958795959587952B
:1046E000837099278230910599F0039709F40BCFD5
:1046F0001CCEEDEFEE16E7E0FE06F4F616CE0E94B5
:104700009D0B80179107C1F20F3F1140A9F20DCE0A
:10471000F4FE0BCE61E0C8010E949011882309F4D9
:1047200004CEC8010E949B0B9F2D977061E070E042
:1047300001C0660F9A95EAF7F3FE02C0682BEBCE34
:1047400060956823E8CEE83E08F0EFCDE05CFF0B13
:104750008091BD070091C0072091BF074091BE071F
:1047600061E070E09E2F91CE0E94E5026C197D09F8
:104770008E099F096132714A8740910568F041E0D6
:1047800050E063EC77E087E00E944D030E94E50271
:104790006B017C0132E03B8BA895A7C9809139025F
:1047A000811109C080E390E00E94C40A809338021E
:1047B00081E08093390280913002811109C081E04B
:1047C00090E00E94C40A80932F0281E0809330021F
:1047D0000DE014E09AE0892E912C5524539426E69E
:1047E000422E34E0332ED8011C968D919C91019776
:1047F00009F04FC1F801E654F109808191813296A8
:10480000A080B180A80EB91EF801148A158A1682FC
:10481000128616861786108A1782118A168A1186C2
:1048200015821482138A128A1386B50175956795CD
:10483000A8014C555109FA0121E030E08689978999
:10484000A32FA69566246394712C6C0E7D1E6A0EB0
:10485000711CD30122242394681779070CF0212CB2
:104860002C92313248F4A08DB18D8A0F9B1F8E5748
:104870009109C19708F420E03E5F34963432F1F696
:10488000FE013196489C3001499C700C11246DEA60
:1048900077E06619770990E080E03081311195C0AA
:1048A00031813111AFC0DA01A80FB91F1D961C92DA
:1048B000019632968930910581F7F80180819181C6
:1048C000A281B38185519540A109B10983359B40EF
:1048D000A105B10508F052C1222309F44FC181E0BE
:1048E00026E9A216B1040CF080E0D80154968C930E
:1048F000F801EC54F109808131979081B9E09B9FD8
:10490000902D1124EBE18E9F900D1124F801EF54AE
:10491000F1098081980F31962081822F880F820FB4
:10492000980FD80116969C933396B6E9AB16B1044E
:104930000CF4FDC081E09081913009F080E0F80135
:1049400086878989880F9F85890F880F9D85890FA4
:10495000880F9B85890F91E009F090E0D8011F96A0
:104960009C9391E0813009F090E0F801908B8111E7
:104970008150D80117968C93179755968C9155971F
:10498000882309F45CC08C85880F9E85890F880F69
:104990009889890F880F9A89890FEEEFE80FEE301A
:1049A00008F04DC0F0E0E952FB4D0C945F28112552
:1049B000112518251825852585251F251F258D25B9
:1049C0008D2590259025942594253130D9F421808A
:1049D000A1E02A1206C0DB01A80FB91F1D962C9278
:1049E00067CF21100FC0DA01A80FB91F68942224E5
:1049F00021F81D962C92853008F45ACFD80155968F
:104A00003C9356CF853058F0DB01A80FB91F33E037
:104A1000232E1D962C92D80155965C9249CF20E00A
:104A20004CCF92E0292EF80121868170868B07C039
:104A3000E1E0F0E0D8011596FC93EE93149789E03D
:104A400090E0FAE08F16910411F088199909E2E0DC
:104A5000F0E0D8011D96FC93EE931C97489EB001A0
:104A6000499E700D1124FB01E75EFB4F808191810F
:104A7000029779F462547C4F49E050E08AEB97E06A
:104A8000861997090E94D729E3E0F0E0892B09F401
:104A900077C0F1E08F1A91080A591F4F81149104D1
:104AA00009F0A1CEE9E1F4E090E080E020813181DD
:104AB0002330310509F06AC026E6289F8001299F2E
:104AC000100D1124F801E75EFB4F84E090E0918324
:104AD000808302541C4F0115110509F05FC01FEFC0
:104AE0000E94E5026C197D098E099F096132714AA5
:104AF0008740910508F450CE1111BAC10E942212CC
:104B00000E94E50231E03B8B10CCE3E01996EC9378
:104B10001997817056968C9392CFE2E0F0E08ACF9D
:104B200019965C921997F5CFF80131867ECF808176
:104B3000811124C02B858F85880F3D85830F880FB9
:104B4000820FD8011A968C931A9786958F5F915C85
:104B5000990F990F890F1B968C931B978989813028
:104B600009F06DCF51968C9382E090E0211102C044
:104B700081E090E0F801938B828B61CFE5E0F0E07B
:104B8000D8011D96FC93EE931C9783CF0196EA59AA
:104B9000FF4F8A30910509F089CFA1CF909138025B
:104BA00090FF61C1F801EB5AFF4FA081B0E0E090A7
:104BB0002F02F12C9D012E193F092130310509F4F6
:104BC00099C0DCF5232B09F0B0CB80912E02F801BF
:104BD000E35AFF4F9081992309F450C0806180937C
:104BE0002E0280912E02F801E85AFF4F90819230F8
:104BF00009F45FC008F044C0913009F44EC0209120
:104C00002E0241E050E070E060E0CD010E94ED0B2B
:104C1000F801ED5AFF4F808191818130910509F0B3
:104C20005EC033960DE110E021E030E0408170E09D
:104C300060E0C7010E94A00978CB2230310509F459
:104C40009FC02330310509F070CB93FF6ECB90915C
:104C50002B02F801E85AFF4F8081823009F4EDC041
:104C600008F0D2C0813009F4DCC020912B0244E06E
:104C700050E070E060E0CD01039751C08F7EAFCF70
:104C8000933009F1943009F0BACFF801EB59FF4F96
:104C90009081992311F1886007C0F801EB59FF4F0B
:104CA0009081992321F0816080932E02A8CF8E7F7E
:104CB000FBCFF801EB59FF4F9081992311F08260EF
:104CC000F3CF8D7FF1CFF801EB59FF4F90819923FE
:104CD00011F08460E9CF8B7FE7CF877FE5CF029724
:104CE00009F023CBF801EA5AFF4F0DE110E030E064
:104CF00020E09CCF91FF19CB80912D02F801E85A5A
:104D0000FF4F9081923031F168F49130B9F02091E9
:104D10002D0242E050E070E060E0CD0101970E947A
:104D2000ED0B03CB933001F1943089F7F801EB5987
:104D3000FF4F9081992311F1886007C0F801EB596A
:104D4000FF4F9081992321F0816080932D02DFCF66
:104D50008E7FFBCFF801EB59FF4F9081992311F023
:104D60008260F3CF8D7FF1CFF801EB59FF4F908137
:104D7000992311F08460E9CF8B7FE7CF877FE5CF60
:104D800092FFD3CA80912C02F801E85AFF4F90811C
:104D9000923021F158F49130A9F020912C0243E097
:104DA00050E070E060E0CD010297B9CF933001F19F
:104DB000943099F7F801EB59FF4F9081992311F145
:104DC000886007C0F801EB59FF4F9081992321F0CB
:104DD000816080932C02E1CF8E7FFBCFF801EB59ED
:104DE000FF4F9081992311F08260F3CF8D7FF1CF37
:104DF000F801EB59FF4F9081992311F08460E9CFBE
:104E00008B7FE7CF877FE5CF833009F1843009F0CE
:104E10002CCFF801EB59FF4F8081882311F1986066
:104E200007C0F801EB59FF4F8081882321F0916082
:104E300090932B021ACF9E7FFBCFF801EB59FF4FC7
:104E40008081882311F09260F3CF9D7FF1CFF8012C
:104E5000EB59FF4F8081882311F09460E9CF9B7F4D
:104E6000E7CF977FE5CF97FD0E94640910E038CE29
:104E70008DE190E00E94C40A82FF0AC041E050E048
:104E800067E778E087E00E944D0343E04B8B4DCA13
:104E90000E94221281E08B8B48CA20915A023091E5
:104EA0005B0240915C0250915D02A4E6B0E00E947A
:104EB000682820915E0230915F024091600250911B
:104EC00061020E943D2849015A0180914E028111E0
:104ED0000BC080924A0290924B02A0924C02B09278
:104EE0004D0281E080934E0280911201833059F58A
:104EF000C501B40124E630E040E050E00E943D28C6
:104F0000A5E0B0E00E94682800914A0210914B028F
:104F100020914C0230914D0224013501461A570A66
:104F2000680A790A041515052605370548F0680D45
:104F3000791D8A1D9B1D601771078207930718F45E
:104F400082E080931201109112011230C1F11330EE
:104F500009F441C01130A1F480914202811108C0CE
:104F600084E293E00E94A3058093410210934202E1
:104F700080914102813061F581E090E00E949209C8
:104F80000E9464096AE070E080E090E00E940B03F8
:104F900080924A0290924B02A0924C02B0924D0233
:104FA0000E94E5026C197D098E099F096132714AE0
:104FB0008740910508F4F0CBFFEFFB8BEDCBD501DB
:104FC000C401C897A109B1098C97A105B105A0F248
:104FD00090E080E0D3CF8EE193E00E94A305182FEC
:104FE000813071F680911101813069F490E080E0A8
:104FF0000E949209109211018EE193E00E94A30594
:105000008130D1F3BDCF81E090E00E9492091093EE
:105010001101F2CF60E08EE193E00E94B80560E0FC
:1050200084E293E00C94B805E199FECF9FBB8EBB60
:10503000E09A99278DB30895262FE199FECF9FBB63
:105040008EBB2DBB0FB6F894E29AE19A0FBE019683
:10505000089597FB072E16F4009407D077FD09D02A
:105060000E94732807FC05D03EF4909581959F4FD0
:105070000895709561957F4F0895A1E21A2EAA1B9D
:10508000BB1BFD010DC0AA1FBB1FEE1FFF1FA217F8
:10509000B307E407F50720F0A21BB30BE40BF50BF5
:1050A000661F771F881F991F1A9469F7609570957E
:1050B000809590959B01AC01BD01CF010895EE0F45
:1050C000FF1F0024001C0BBE0790F691E02D0994F1
:1050D0000E948728A59F900DB49F900DA49F800DDE
:1050E000911D11240895AA1BBB1B51E107C0AA1FE3
:1050F000BB1FA617B70710F0A61BB70B881F991F79
:105100005A95A9F780959095BC01CD010895A29F6D
:10511000B001B39FC001A39F700D811D1124911D8B
:10512000B29F700D811D1124911D08950F931F933F
:10513000CF93DF93869F8001879F100D969F100D60
:105140001124C8010E94B228EC01009729F0A8019F
:1051500070E060E00E94E429CE01DF91CF911F91C1
:105160000F9108950F931F93CF93DF938230910592
:1051700010F482E090E0E091C407F091C50730E0C0
:1051800020E0B0E0A0E0309799F42115310509F452
:105190004AC0281B390B24303105D8F58A819B8100
:1051A0006115710589F1FB0193838283FE0111C0B2
:1051B000408151810281138148175907E0F0481757
:1051C000590799F4109761F012960C931297139661
:1051D0001C933296CF01DF91CF911F910F910895CB
:1051E0000093C4071093C507F4CF2115310551F082
:1051F0004217530738F0A901DB019A01BD01DF0115
:10520000F801C1CFEF01F9CF9093C5078093C40790
:10521000CDCFFE01E20FF31F81939193225031090C
:1052200039832883D7CF2091C2073091C307232B1E
:1052300041F420911501309116013093C30720935A
:10524000C20720911301309114012115310541F459
:105250002DB73EB74091170150911801241B350B13
:10526000E091C207F091C307E217F307A0F42E1BE9
:105270003F0B2817390778F0AC014E5F5F4F2417BA
:10528000350748F04E0F5F1F5093C3074093C20786
:10529000819391939FCFF0E0E0E09CCFCF93DF9399
:1052A0000097E9F0FC01329713821282A091C407A3
:1052B000B091C507ED0130E020E01097A1F4208106
:1052C0003181820F931F2091C2073091C3072817A5
:1052D000390709F061C0F093C307E093C207DF917B
:1052E000CF910895EA01CE17DF07E8F54A815B8187
:1052F0009E0141155105B1F7E901FB83EA8349910C
:105300005991C40FD51FEC17FD0761F4808191817D
:105310000296840F951FE901998388838281938186
:105320009B838A83F0E0E0E012968D919C91139725
:105330000097B9F52D913C911197CD010296820FFE
:10534000931F2091C2073091C3072817390739F6F8
:10535000309751F51092C5071092C407B093C30758
:10536000A093C207BCCFD383C28340815181840FF5
:10537000951FC817D90761F44E5F5F4F88819981E7
:10538000480F591F518340838A819B819383828375
:105390002115310509F0B0CFF093C507E093C4079C
:1053A0009ECFFD01DC01C0CF13821282D7CFFB015B
:1053B000DC0104C08D910190801921F441505040CE
:1053C000C8F7881B990B0895DC0101C06D9341500B
:1053D0005040E0F7089511E0CDE6D1E004C0FE01B1
:1053E0000E945F282196CE36D107C9F7F894FFCFE7
:1053F000018F050000000000000000000000000018
:105400000001010000C60780001D00021D0022AC43
:1054100003A703A2039D03980393038E03890384C8
:10542000037F037A03750370036B03660361035CF8
:1054300003570352034D03480343033E0339033428
:10544000032F032A030000000079064C06C006293A
:0854500006900539062A06004A
:00000001FF
