:100000000C946E010C9414190C94E9180C94BE18FD
:100010000C9493180C9468180C943D180C941218B6
:100020000C94E7170C9498010C9498010C94980187
:100030000C94631A0C9498010C9498010C949801F8
:100040000C949D170C9498010C9467170C943D1711
:100050000C9498010C9498010C9498010C949801BC
:100060000C9498010C9498010C9498010C949801AC
:100070000C9498010C9498010C9498010C9498019C
:100080000C9498010C943F190C9498013F030000C4
:100090000000000A0D0000000000000101C0800007
:1000A000000000000000000000060000000000004A
:1000B0000000000000000000000000000000000040
:1000C000000000000000FF0300000000000000002E
:1000D0000000000000000000000000000000000020
:1000E0000000000000000000000000000000000010
:1000F0000000000000000000000000000100AA0055
:100100000200AA000300AA000400AA000500AA0039
:100110000600AA000700AA000800AA000900AA0019
:100120000A0080000B0080000C0080000D008000A1
:100130000E0080000F008000100080001100800081
:10014000120080001300AA001400AA000000AA00F8
:100150000000AA000000AA000000AA000000AA00F7
:100160001580FF001581FF00FF000000FF00000068
:10017000FF000000FF000000FF000000FF00000083
:10018000FF000000FF000000FF000000FF00000073
:10019000FF000000FF000000FF0000000000000062
:1001A000000000000000000000000000000000004F
:1001B00000000000000000000000003A003700349A
:1001C00000310022006100640000003B003800356F
:1001D0000032002300620065007000740078007C2B
:1001E000008000840088008C009000940098009C9F
:1001F00000A000A400A800AC00B000B400B800BC8F
:1002000000C000C400C800CC00D000D400D800DC7E
:1002100000E000E400E800EC00F000F400F800FC6E
:10022000000001040108010C010000390036003310
:1002300000300021002000630005050505050505C7
:100240000502020202020202020707040404040477
:100250000404040707030303030303030307010163
:100260000101010101010606060606060606010255
:10027000040810204080010204081020408008106B
:10028000010204081020408001020102040810202D
:10029000408004804020100804020101020408107C
:1002A0002040800000000A0B0C000000000000014C
:1002B000040506000000000000000000000000002F
:1002C000000000000000000000000000000000002E
:1002D0000000000000000000981BF82611241FBE3B
:1002E000CFEFD0E1DEBFCDBF11E0A0E0B1E0E8E9A3
:1002F000F1E500E00BBF02C007900D92AA37B107ED
:10030000D9F728E0AAE7B1E001C01D92A730B207F3
:10031000E1F711E0CDE6D1E004C02197FE010E9493
:100320004D27CC36D107C9F70E94251E0C94BF2853
:100330000C9400002091610730916207211531056E
:1003400049F090E0880F991F820F931FFC01808174
:100350009181089590E080E008959C0161157105F8
:1003600029F06130710571F080E0089580915607A1
:100370008217130681F09091590781E092171306B6
:1003800099F7089581E04091570750915807421717
:10039000530751F7F6CF81E0F4CFFF920F931F93ED
:1003A000CF93DF938C01F42EE9010E94AD018823E5
:1003B000B1F0809159078017110619F580915D07FA
:1003C00090915E078C179D0751F080915A07882302
:1003D00099F0219751F410925E0710925D07DF911A
:1003E000CF911F910F91FF90089581E090E090933D
:1003F0005E0780935D07F3CFD0935E07C0935D07E0
:10040000EECF80915B0790915C07C817D90739F34D
:10041000F0FE0EC0219729F410925C0710925B0742
:10042000DECF81E090E090935C0780935B07D7CFAD
:10043000D0935C07C0935B07D2CF089581E080938F
:1004400089020895FC01538D448D252F30E0842FBF
:1004500090E0821B930B541710F0CF9608950197EC
:100460000895FC01918D828D981761F0A28DAE0FD9
:10047000BF2FB11D5D968C91928D9F5F9F73928F60
:1004800090E008958FEF9FEF0895FC01918D828D8C
:10049000981731F0828DE80FF11D858D90E0089559
:1004A0008FEF9FEF0895FC01918D228D892F90E0B1
:1004B000805C9F4F821B91098F7399270895FC01DF
:1004C000A48DA80FB92FB11DA35ABF4F2C91848DB5
:1004D00090E001968F739927848FA689B7892C9312
:1004E000A089B1898C9180648C93938D848D9813AD
:1004F00006C00288F389E02D80818F7D8083089576
:10050000EF92FF920F931F93CF93DF93EC0181E063
:10051000888F9B8D8C8D981316C0E889F98980810E
:1005200085FF11C0EE89FF896083E889F9898081A0
:100530008064808381E090E0DF91CF911F910F91E3
:10054000FF90EF900895F62E0B8D10E00F5F1F4F78
:100550000F731127E02E8C8D8E110CC00FB607FC87
:10056000FACFE889F989808185FFF5CFCE010E9415
:100570005F02F1CFEB8DEC0FFD2FF11DE35AFF4F22
:10058000F0820B8FEA89FB8980818062D2CFCF9382
:10059000DF93EC01888D8823B9F0AA89BB89E889AB
:1005A000F9898C9185FD03C0808186FD0DC00FB651
:1005B00007FCF7CF8C9185FFF2CF808185FFEDCFCF
:1005C000CE010E945F02E9CFDF91CF91089582ECC6
:1005D00092E00E94530221E0892B09F420E0822F4F
:1005E000089580E090E0892B29F00E94E7028111B4
:1005F0000E94000080E090E0892B49F080E090E0CC
:10060000892B29F00E94000081110C9400000895AC
:100610000895E0914C02F0914D02309729F010922C
:1006200049021092480209940895CF93DF93AC01D8
:10063000E0914E02F0914F023097F1F090914B0211
:1006400080914A029817C0F090E0292F30E02617D9
:10065000370754F4D901A556BE4F240F351FE901C1
:1006600028812C939F5FF1CF10924B0260934A0236
:10067000CB01DF91CF910994DF91CF910895DC01F7
:100680001296ED91FC91139711969C911197808190
:1006900061110EC09095982390831496ED91FC9172
:1006A0001597908111968C91809589238083089568
:1006B000623061F49095982390831496ED91FC91AB
:1006C0001597808111969C91892BF0CF982B908360
:1006D0000895AF92BF92CF92DF92EF92FF920F9365
:1006E0001F93CF93DF936C017B018B01040F151FC8
:1006F000EB015E01AE18BF08C017D10759F0699130
:10070000D601ED91FC910190F081E02DC601099593
:10071000892B79F7C501DF91CF911F910F91FF9040
:10072000EF90DF90CF90BF90AF90089581508C30C4
:1007300088F5E82FF0E0E156FC4F0C944D27C703F5
:10074000C703CA03AB03AF03B203B503CA03CA03AB
:10075000B903BF03C3038FB58F778FBD08958FB5DE
:100760008F7DFBCF8FB5877FF8CF85B58F7D85BD1A
:10077000089580918B008F7780938B0008958091EE
:100780008B008F7DF9CF80918B00877FF5CF83B76A
:100790008F7D83BF08951F93CF93DF93282F30E081
:1007A000F901ED55FD4F8491F901E259FD4FD491C6
:1007B000F901E75CFD4FC491CC23A9F0162F8111FC
:1007C0000E949603EC2FF0E0EE0FFF1FE753FE4F61
:1007D000A591B4918FB7F894EC91111108C0D09500
:1007E000DE23DC938FBFDF91CF911F910895DE2B25
:1007F000F8CFCF93DF9390E0FC01E259FD4F2491B5
:10080000875C9D4FFC0184918823D1F090E0880F94
:10081000991FFC01E754FE4FA591B491FC01E753E9
:10082000FE4FC591D49161110EC09FB7F8948C9181
:10083000E22FE0958E238C932881E223E8839FBFEB
:10084000DF91CF9108958FB7F894EC91E22BEC9360
:100850008FBFF6CF3FB7F89480913B0290913C0256
:10086000A0913D02B0913E0222B706B600FE05C03F
:100870002F3F19F00196A11DB11D3FBFBA2FA92F1F
:10088000982F8827BC01CD01620F711D811D911D1C
:1008900042E0660F771F881F991F4A95D1F7089588
:1008A0008F929F92AF92BF92CF92DF92EF92FF9280
:1008B0004B015C010E942A046B017C010E942A0406
:1008C0006C197D098E099F09683E73408105910569
:1008D000A8F321E0821A9108A108B10888EEC80E99
:1008E00083E0D81EE11CF11C81149104A104B10421
:1008F00029F7FF90EF90DF90CF90BF90AF909F903F
:100900008F90089561E08BE00E94CB0364E070E07B
:1009100080E090E00E94500460E08BE00C94CB03F8
:100920000C9482042FB7F8946091370270913802CA
:100930008091390290913A022FBF0895E82FF0E09C
:10094000DF01AA0FBB1FA050BF4F11967C936E937F
:100950008830A8F4E255FB4F0C944D27B604C00430
:10096000CD04DB04E904F004FB04070580916A0070
:100970008C7F482B40936A0089B7816089BF0895B6
:1009800080916A00837F440F551F440F551F482BE9
:1009900040936A0089B78260F1CF80916A008F7CB2
:1009A00074E0440F551F7A95E1F7482B40936A0095
:1009B00089B78460E3CF80916A008F7366E0440F4B
:1009C000551F6A95E1F7482B40936A0089B7886004
:1009D000D5CF8AB78C7F482B4ABF89B78061CECFED
:1009E0008AB7837F440F551F440F551F482B4ABFBA
:1009F00089B78062C3CF8AB78F7C24E0440F551F2C
:100A00002A95E1F7482B4ABF89B78064B7CF8AB7E8
:100A10008F7396E0440F551F9A95E1F7482B4ABF14
:100A200089B78068ABCF883010F40C949E04089589
:100A30000E942A042091340230913502FB01E21B0E
:100A4000F30B2091A9023091AA02E217F30708F4F0
:100A500038C12091AB023091AC02709335026093A3
:100A600034024091AD025091AE024130510599F1EE
:100A700048F04230510509F4B9C04330510509F43A
:100A8000EFC00895E217F30708F0D4C08091B002D8
:100A90008F5F8093B0028B3008F413C181E090E047
:100AA0009093AE028093AD0241E050E068E175E0C2
:100AB0008091A3020E9413051092330282E590E018
:100AC0009093AC028093AB0283E290E09093AA02F1
:100AD0008093A9020895409133024130A9F038F083
:100AE000433009F449C0443009F47CC00895E2174A
:100AF000F30730F491E090933302E09332020895CB
:100B000084E0809333020895E217F30798F510927A
:100B100033029091B0029F5F9093B0028E2FEE0F40
:100B2000990B20913202821B910927FD939597FF23
:100B300003C091958195910949970CF4C2C0109218
:100B4000AE021092AD0282E990E09093AC028093E5
:100B5000AB0282E590E09093AA028093A9021092E2
:100B6000B0024091910250E068E175E08091A302EB
:100B70000C94130583E0C5CFE217F30700F38091CF
:100B80009102833061F582E08093910282E090E0EF
:100B90009093AE028093AD0282E990E09093AC0214
:100BA0008093AB0282E590E09093AA028093A90221
:100BB0001092B2021092B4021092B5021092B602D4
:100BC0001092B7021092B8021092B9028091B0024E
:100BD0008093B3021092B0021092B102C2CF409340
:100BE0009102D4CFE217F30788F6A9CF5091B00253
:100BF0005F5F5093B0024091B102440FE217F307D8
:100C0000E0F04093B102583009F05BC0E091B202CD
:100C1000E630A9F41092AE021092AD0282E990E0A3
:100C20009093AC028093AB0282E590E09093AA028D
:100C30008093A9021092B00208954160E2CF83E050
:100C400090E09093AE028093AD0281E08E0F80938E
:100C5000B202F0E0E355FD4F8091B1028783089521
:100C6000E217F307F8F41092AE021092AD02109260
:100C7000B00282E990E09093AC028093AB0282E5EF
:100C800090E09093AA028093A90288E0E2EBF2E060
:100C9000AAEBB2E001900D928A95E1F781E0809392
:100CA000AF0208958091B202863009F4B3CF82E09A
:100CB00090E09093AE028093AD021092B002109239
:100CC000B102089580E090E0892B29F08091A8027C
:100CD00083FD0C9400000895E82FF0E0EE5AFD4FDC
:100CE000608308950F931F93CF93DF93FC0182815C
:100CF000813089F040F0823009F47AC0DF91CF91E1
:100D00001F910F91089561E08081DF91CF911F9134
:100D10000F910C94CB030181C02FD0E0108161E0D2
:100D2000812F0E94F903209719F460E0812FEDCF05
:100D3000CF3FD10511F461E0F9CFE12FF0E0ED559F
:100D4000FD4FE491E150EC3008F04DC0F0E0E55586
:100D5000F94F0C944D27B706B706F306BC06C2063A
:100D6000C806D006F306F306D506DF06E90683B704
:100D7000806283BF01BFC2CF8FB580688FBDDBBDEE
:100D8000CABDBCCF8FB580628FBDD9BDC8BDB6CF3F
:100D90008FB588608FBDD0937900C0937800AECFB7
:100DA00085B5806285BD03BDA9CF80918B00806829
:100DB00080938B00D0938700C09386009FCF809153
:100DC0008B00806280938B00D0938500C093840059
:100DD00095CF80918B00886080938B00D0938300A7
:100DE000C09382008BCFC038D1050CF0A4CF9DCF2B
:100DF0008181E381F0E0EE5AFD4F80837FCF0F9336
:100E00001F93CF93DF93D62F8C01C0E0CD1741F015
:100E1000F801819191918F010E947206CF5FF6CF08
:100E2000DF91CF911F910F910895CF93DF93DC0154
:100E3000EC91F0E0EE0FFF1FE75DFD4FC591D491FF
:100E4000988111968C91982381E009F480E0DF91DC
:100E5000CF910895DC0170E0FB01E259FD4FE49170
:100E60001196EC931197675C7D4FFB0124912C93B5
:100E700030E0220F331FF901E754FE4F8591949122
:100E800013969C938E931297F901E753FE4F859129
:100E9000949115969C938E9314970895FC018081EC
:100EA000813089F4CB01845893408897C0F0613831
:100EB000F3E07F07A1F06C5F734081E0653071055E
:100EC00078F080E00895823021F4CB018C5A934071
:100ED000ECCF833061F7CB01845D9340E6CF81E0B6
:100EE0000895CF93DF93FC0121812F3FF9F0EC01AE
:100EF00061E0858D968D0E943F03AD8DBE8D149669
:100F0000ED91FC911597908111968C918095892394
:100F1000808361E070E080E090E00E94500460E037
:100F20008D8D9E8DDF91CF910C943F0380E090E0FA
:100F3000892B21F0DF91CF910C940000DF91CF91AC
:100F4000089585ED809374008091740084FDFCCF3A
:100F50001092470208952091DB01260F3327331F9B
:100F600021323105ECF420914702FC0190E080E051
:100F7000243069F082E00895A091DB012191AC0159
:100F800045545E4FA40FB52FB11D2C9301968617C3
:100F900098F38091DB01680F6093DB0180E0089596
:100FA00081E008950895E0914B0280914A02E8178C
:100FB00030F4F0E0E556FE4F808190E008958FEF29
:100FC0009FEF089590914B0280914A022FEF3FEFDF
:100FD000981748F4E92FF0E0E556FE4F208130E005
:100FE0009F5F90934B02C901089580914A029091AE
:100FF0004B02891B990B0895CF92DF92EF92FF92DB
:101000000F931F93CF93DF937C01CB018A01209133
:101010009A01222389F0EB016B01C40ED51ECC1579
:10102000DD0569F06991D701ED91FC910190F081A6
:10103000E02DC7010995F3CF642F0E94AB07C801CB
:10104000DF91CF911F910F91FF90EF90DF90CF90A4
:101050000895CF93DF931F92CDB7DEB769832091B8
:101060009A012223F9F020914802203258F021E021
:1010700030E0FC013383228390E080E00F90DF9129
:10108000CF91089580914902E82FF0E0E658FE4F95
:10109000998190838F5F809349028093480281E019
:1010A00090E0ECCF61E0CE0101960E94AB07F7CF54
:1010B00090E080E00895089508958F929F92AF92F6
:1010C000BF92CF92DF92EF92FF920F931F93CF9335
:1010D0000E942A04AB01BC0180916D0390916E03C4
:1010E000A0916F03B09170038A019B01081B190B3B
:1010F0002A0B3B0B80917503882309F47FC08091F4
:10110000770390917603E92FEE0FFF0BA82F082E9F
:10111000000CBB0BC3E68C02E00DF11D1124E55958
:10112000FC4F178B068B053F11402105310508F058
:1011300054C09F5F90937603909176039332C9F5E4
:1011400093E69A9F90019B9F300D112425593C4FA7
:10115000F901E45AFF4FC0907103D0907203E09000
:101160007303F09074034A015B018C189D08AE086C
:10117000BF0875016401C082D182E282F3822959DD
:101180003F4FE1E0F0E0D901ED93FC938F5F8A30AF
:1011900094F580937703E0917703B3E6EB02F001D7
:1011A0001124EE52FC4F118210821092750310929E
:1011B000760340936D0350936E0360936F037093B7
:1011C0007003CF911F910F91FF90EF90DF90CF9020
:1011D000BF90AF909F908F9008951092760391E00A
:1011E000909375034093710350937203609373035C
:1011F00070937403A1CF10927703CDCF053F1140B8
:1012000021053105B0F281E08093750340937103AD
:10121000509372036093730370937403CACFE82FE3
:10122000F0E0EE5AFD4F60830895CF93FC01828178
:10123000813051F020F0823079F0CF91089560E054
:101240008081CF910C94CB03C08161E08C2F0E94F0
:10125000F90360E08C2FF5CFE381F0E0EE5AFD4F0B
:101260001082EBCF80938A02882361F00FB6F89446
:10127000A89581B5886181BD11BC0FBE8EEF97E046
:101280000C9472068EEF97E00E94150988E19BE0AE
:101290000FB6F894A89581BD0FBE91BD0895CF9368
:1012A000C82F809194028C1731F081E0C11101C0E8
:1012B00080E00E943209C093940260E070E0CB01AC
:1012C000C1110E94920460939502709396028093DC
:1012D000970290939802809194028C1739F081E0E4
:1012E000C11101C080E0CF910C943209CF910895D3
:1012F000EF92FF920F931F93CF93DF938C01FC012A
:10130000C581D681209751F0E480F12CEF1431F0A3
:10131000899199910E941509F394F8CFF801C0853D
:10132000D185209751F0078110E0011731F08991A4
:1013300099910E9415091F5FF8CFDF91CF911F91FE
:101340000F91FF90EF90089520916107309162070F
:101350002115310551F090E0880F991F820F931FDE
:10136000FC01808191810C9478090895CF9380913C
:101370006307882369F18091640790916507892B41
:1013800029F1C0E080916007C81700F58C2F869581
:101390008695869590E0E0916407F0916507E80FE7
:1013A000F91F208130E043E0880F991F4A95E1F74B
:1013B0004C2F481B02C0359527954A95E2F720FF30
:1013C00003C08C2F0E94A409CF5FDCCF109263076B
:1013D000CF9108950F931F93CF938C01C42F0E9438
:1013E000AD018823E1F180915907482F50E0C031C9
:1013F00028F5882319F12C2F30E080916607909111
:1014000067070C2E02C0969587950A94E2F780FF35
:1014100015C00417150719F58091610790916207AF
:101420000097E9F0220F331F820F931FFC01808188
:101430009181CF911F910F910C9478090417150792
:1014400071F08091610790916207009741F04C2FF5
:1014500050E0440F551F480F591FFA01E8CFCF91B4
:101460001F910F9108950F931F93CF93DF93EC017A
:101470008B81882379F08B0189819A818617970760
:1014800029F0CE010E9478091A83098389819A8103
:10149000019731F48D819E81009769F06C8105C0C0
:1014A00088859985009739F06F81DF91CF911F91E1
:1014B0000F910C94FF06DF91CF911F910F9108952A
:1014C00020916107309162072115310571F060911B
:1014D0005B0770915C0790E0880F991F820F931F44
:1014E000FC01808191810C94330A0895CF938091FF
:1014F0006307811138C0C0E080916007C81728F4E5
:101500008C2F0E94A409CF5FF7CF80916407909140
:101510006507892B29F1C0E080916007C81700F5A5
:101520008C2F86958695869590E0E0916407F091E2
:101530006507E80FF91F208130E043E0880F991F0D
:101540004A95E1F74C2F481B02C0359527954A95DF
:10155000E2F720FF03C08C2F0E94600ACF5FDCCF30
:1015600081E080936307CF91089520915B073091CC
:101570005C072817390761F090935C0780935B073D
:1015800080916307882321F00E94B6090C94760AA3
:101590000895CF93C62F8230910509F456C020F4E8
:1015A000019769F1CF9108958330910509F48BC0BB
:1015B0000497C1F785E160FFC0C00E94600A86E120
:1015C000C1FFBEC00E94600A87E1C2FFBCC00E948A
:1015D000600A88E1C3FFBAC00E94600A89E1C4FFC3
:1015E000B8C00E94600A8AE1C5FFB6C00E94600AC6
:1015F0008BE1C6FFB4C00E94600A8CE14AC080E063
:1016000064FF17C00E94600A81E0C0FF15C00E94FD
:10161000600A82E0C1FF13C00E94600A83E0C2FF3B
:1016200011C00E94600A84E0C3FF35C0CF910C94C2
:10163000600A0E94A409E8CF0E94A409EACF0E9490
:10164000A409ECCF0E94A409EECF85E060FF26C07C
:101650000E94600A86E0C1FF24C00E94600A87E001
:10166000C2FF22C00E94600A88E0C3FF20C00E941F
:10167000600A89E0C4FF1EC00E94600A8AE0C5FFBC
:101680001CC00E94600A8BE0C6FF1AC00E94600A5C
:101690008CE0C7FDCBCFCF910C94A4090E94A40984
:1016A000D9CF0E94A409DBCF0E94A409DDCF0E94FC
:1016B000A409DFCF0E94A409E1CF0E94A409E3CFCF
:1016C0000E94A409E5CF8DE060FF22C00E94600A5D
:1016D0008EE0C1FF20C00E94600A8FE0C2FF1EC0E2
:1016E0000E94600A80E1C3FF1CC00E94600A81E181
:1016F000C4FF1AC00E94600A82E1C5FF18C00E94A0
:10170000600A83E1C6FF16C00E94600A84E1C1CF6F
:101710000E94A409DDCF0E94A409DFCF0E94A40982
:10172000E1CF0E94A409E3CF0E94A409E5CF0E9463
:10173000A409E7CF0E94A409E9CF0E94A4093FCFE2
:101740000E94A40941CF0E94A40943CF0E94A4098A
:1017500045CF0E94A40947CF0E94A40949CF0E9407
:10176000A4094BCF0F931F93CF938C01C42F0E94DA
:10177000AD01882309F444C080915907482F50E0F7
:10178000C03148F5882339F12C2F30E0809166076D
:10179000909167070C2E02C0969587950A94E2F700
:1017A00080FF19C00417150759F5809161079091C2
:1017B0006207009729F160915D0770915E07220F23
:1017C000331F820F931FFC0180819181CF911F9164
:1017D0000F910C94330A0417150791F0809161075B
:1017E00090916207009761F060915B0770915C07D0
:1017F0004C2F50E0440F551F480F591FFA01E4CFFA
:10180000CF911F910F9108950E944F09E2E9F2E0F4
:1018100081E087831086EBE9F2E088E0DF011D922A
:101820008A95E9F708950C9402270F931F93CF939D
:10183000C82F8B0181E090E00E94130C90E0209172
:1018400056072817190629F0209159072817190655
:1018500011F4C0935F078DE190E00E94130CC82F34
:1018600081E090E00E94130C90E021E030E0013034
:10187000110511F030E020E04C2F70E060E0CF91D6
:101880001F910F910C94CD01CF93863823E09207DE
:1018900019F130F481389340D1F08FEFCF91089552
:1018A000873823E09207D9F088389340B1F786E86B
:1018B00093E00E94130CC82F87E893E00E94130C5A
:1018C00090E02FEFC29F800D911D112402C081E88E
:1018D00093E0CF910C94130C86E893E0FACF87E85D
:1018E00093E0F7CFCF93C82F8FE290E00E94130CC4
:1018F000811109C085E190E0CC2311F086E190E0F0
:10190000CF910C94130C80E0CF910895CF93C82F02
:101910008FE290E00E94130C811106C08C2F90E0A2
:10192000CA96CF910C94130C80E0CF910895DF926A
:10193000EF92FF920F931F93CF93DF93509180020A
:1019400051111AC07901D42E8B01EC010E94AD0116
:101950008111D0925F078DE190E00E94130C9701F6
:10196000482FB801CE01DF91CF911F910F91FF90C9
:10197000EF90DF900C94CD01DF91CF911F910F91EB
:10198000FF90EF90DF9008951F93CF93DF93EC01CA
:1019900080918A02882359F08FE090E00E94130C16
:1019A000182F80E190E00E94130C181306C0CE019E
:1019B000DF91CF911F910C94130C8EEF97E00E9452
:1019C0001509FFCF0C94C40CCF93DF932091A5028F
:1019D0003091A6022F3F320721F0C901DF91CF914C
:1019E00008958091A80287FF2BC086FF0FC089E071
:1019F00090E00E94E20CC82F81E090E00E94E20C8F
:101A00009C2F9093A6028093A50215C089E090E0D8
:101A10000E94E20CC82F81E090E00E94E20C90E46A
:101A2000C99F90011124207C31708F73282B309333
:101A3000A6022093A5028091A5029091A602CECF86
:101A400085FF0CC081E190E00E94E20CC82F82E18A
:101A500090E00E94E20CC05CDD0BD2CF81E090E010
:101A60000E94E20C90E0CDCFFF920F931F93CF9393
:101A7000DF933091800231110FC0F22E8B01EC0107
:101A80004330510509F47EC068F441305105E9F056
:101A90004230510509F458C0DF91CF911F910F9149
:101AA000FF9008954530510509F4D4C008F488C06A
:101AB0004630510589F740E024FF2CC0DF91CF91DB
:101AC0001F910F91FF900C94B20B80917D028111B8
:101AD0002BC040E0B801CE01F4FE23C00E94B20B3F
:101AE00041E0B801CE01F0FE26C00E94B20B42E0F8
:101AF000B801CE01F1FE22C00E94B20B43E0B80152
:101B0000CE01F2FE1EC00E94B20B44E0B801CE012D
:101B1000F3FCD4CFDF91CF911F910F91FF900C94E4
:101B2000EA090E94EA09DCCF8DE190E00E94E20C14
:101B300081FDCFCFD5CF0E94EA09D9CF0E94EA0913
:101B4000DDCF0E94EA09E1CF45E020FF12C00E94EC
:101B5000B20B46E0B801CE01F1FE0EC00E94B20BFE
:101B600047E0B801CE01F2FE0AC00E94B20B48E085
:101B7000CDCF0E94EA09EDCF0E94EA09F1CF0E9481
:101B8000EA09F5CF49E020FF12C00E94B20B4AE0FB
:101B9000B801CE01F1FE0EC00E94B20B4BE0B801BD
:101BA000CE01F2FE0AC00E94B20B4CE0AFCF0E9401
:101BB000EA09EDCF0E94EA09F1CF0E94EA09F5CFC8
:101BC0004DE020FF32C00E94B20B4EE0B801CE01C2
:101BD000F1FE2EC00E94B20B4FE0B801CE01F2FE22
:101BE0002AC00E94B20B40E1B801CE01F3FE26C02C
:101BF0000E94B20B41E1B801CE01F4FE22C00E9466
:101C0000B20B42E1B801CE01F5FE1EC00E94B20B3C
:101C100043E1B801CE01F6FE1AC00E94B20B44E1C6
:101C2000B801CE01F7FE76CF49CF0E94EA09CDCFA9
:101C30000E94EA09D1CF0E94EA09D5CF0E94EA09A1
:101C4000D9CF0E94EA09DDCF0E94EA09E1CF0E94C4
:101C5000EA09E5CF45E120FF2EC00E94B20B46E124
:101C6000B801CE01F1FE2AC00E94B20B47E1B801D3
:101C7000CE01F2FE26C00E94B20B48E1B801CE01AF
:101C8000F3FE22C00E94B20B49E1B801CE01F4FE7E
:101C90001EC00E94B20B4AE1B801CE01F5FE1AC087
:101CA0000E94B20B4BE1B801CE01F6FE16C00E94B5
:101CB000B20B4CE1B5CF0E94EA09D1CF0E94EA09EC
:101CC000D5CF0E94EA09D9CF0E94EA09DDCF0E9450
:101CD000EA09E1CF0E94EA09E5CF0E94EA09E9CFCB
:101CE0001F93CF93DF93EC01162F0E940227181742
:101CF00021F0612FCE010E940A27CE01DF91CF9102
:101D00001F910C94130CCF93DF93863823E0920736
:101D100039F138F481389340E9F08FEFDF91CF91BA
:101D20000895873823E09207F1F088389340A9F7A7
:101D3000C62F86E893E00E94130CD82F87E893E023
:101D40000E94130C90E06C2F2FEFD29F800D911DFD
:101D5000112402C081E893E0DF91CF910C94700EC2
:101D600086E893E0F9CF87E893E0F6CF0F931F93CF
:101D7000CF93DF930FB7F894D0E0C0E0FE01E457B3
:101D8000FF4F1491CE010E940227181721F0612FF6
:101D9000CE010E940A272196CD3281E0D80771F743
:101DA00081E893E00E940227813029F061E081E818
:101DB00093E00E940A27CCE1D1E01FEF899199912D
:101DC000FC0111830E947206F1E0C235DF07B1F712
:101DD0000FBFDF91CF911F910F9108951F93CF9364
:101DE000DF93EC01162F089779F4662319F10E940E
:101DF000B60E80E090E0892BB9F0612FCE01DF9123
:101E0000CF911F910C94000080E090E0892BA9F7FE
:101E100081E0C11590E1D90708F080E0111105C0FB
:101E2000DF91CF911F91089581E027972297C0F706
:101E300080E0F6CF80E090E0892BF9F681E0F0CFEA
:101E40002F923F924F925F926F927F928F929F92CA
:101E5000AF92BF92CF92DF92EF92FF920F931F93B8
:101E6000CF93DF9300D000D0CDB7DEB78C01E0E098
:101E7000CE2EE0E0DE2EF0E02F2EF0E03F2E812C83
:101E8000912C54018394B0E0EB2EB0E0FB2ED801EE
:101E90005B96ED91FC91309709F416C25280B181A6
:101EA000BA838081803409F42DC108F044C089329E
:101EB00009F4A2C1F0F4843209F45BC180F48132E8
:101EC00009F438C1833209F43EC1811110C080E0A9
:101ED00090E0892B61F08A810E94000008C0863260
:101EE00009F460C108F44FC1883209F47BC180E075
:101EF000DBC18D3209F495C168F48B3209F48AC1D3
:101F000008F481C16A8185E090E0E114F10409F0F0
:101F100070C1EDCF8F3209F493C108F489C18033C9
:101F200009F495C1813319F7E0E0F0E0EF2BF9F205
:101F30006A8182E093C1813609F4A1C050F58035F1
:101F400009F446C170F4823409F4EDC008F4E4C029
:101F5000833469F6C114D10451F26A8184E090E0BF
:101F6000D8C08E3509F47DC1803609F482C0813530
:101F700009F0BDCF80E090E0892B09F4B8CF9A81B9
:101F800097FF0CC161E070E0892F80580E9400002B
:101F9000AECF8D3609F47FC088F4833609F477C05C
:101FA00008F471C08C3609F0A2CFE0E0F0E0EF2B2E
:101FB00009F49DCF8A810E94000099CF873709F4E8
:101FC00065C1E8F48E3609F092CF0380F481E02DEC
:101FD000309709F479C180818F3609F088CF2114B8
:101FE000310409F484CF6A81661F6627661F8181E8
:101FF000B0E88B9FC0011124EA818E2B80C08B3703
:1020000009F4A7C18F3709F072CFFA81EF2FF0E002
:10201000EF5FFC4FFC83EB83BF01C8010E944E07BA
:10202000882309F440C18B819C818538A3E09A07FD
:1020300009F439C18D3AB3E09B0709F446C2853DE6
:10204000E3E09E0709F441C28438F3E09F0741F0C2
:102050008C3A23E0920721F0843D934009F028C296
:1020600088E0581225C20E94B60EC8010E9471076E
:102070002CC26A8181E090E00E94C90A38CF6A814F
:1020800082E090E0F9CF6A8183E090E0F5CF6A8149
:1020900084E090E0F1CF8A818F778183211431042D
:1020A00009F425CF6A81661F6627661FD8015B96F3
:1020B000ED91FC918181811121C081E080933102F9
:1020C00061110EC08091310287FD11CF60E090E078
:1020D0000E940000809131028F5F80933102F2CF25
:1020E0008091310287FD03CF61E090E00E94000003
:1020F000809131028F5F80933102F2CF90E00E9495
:102100000000F5CE6A8181E090E0C114D10409F4A9
:10211000EECE0E940000EBCE6A8182E090E0C11416
:10212000D104B9F7E4CE6A8183E090E0C114D10410
:1021300081F7DDCE80E090E0892B09F4D8CE8A814A
:102140000E940000D4CEA0E0B0E0AB2B09F4CFCECB
:10215000BA818B2F90E0B7FF09C0EA81E1958E2FFD
:1021600090E09C838B839195819591090E9400005A
:10217000BECEAA8161E070E08A2FA7FD2FC070E07B
:1021800060E08A812CC0E0E0F0E0EF2B09F4AFCEF4
:10219000FA8161E070E08F2FF7FDF7CE70E060E02C
:1021A0008A81F4CE80E090E0892B09F4A0CE9A8158
:1021B00097FD05C0892F90E00E94000098CEAA816B
:1021C000A195EA2FF0E0CF01919581959109F4CF87
:1021D0002A8127FFD4CF61E070E0822F80580E94CF
:1021E000150C85CE6A8181E090E0E114F10409F4D8
:1021F0007ECE0E9400007BCE6A8182E090E0E114F6
:10220000F104B9F774CE6A8183E090E0E114F1043F
:1022100081F76DCE6A8184E090E0E114F10449F722
:1022200066CE6A8186E090E0E114F10411F75FCE9A
:10223000E114F10409F45BCE6A8187E090E0D9CF24
:102240006A8188E090E0E114F10499F650CEA0E0B4
:10225000B0E06A8181E0AB2B09F449CE0E94000016
:1022600046CE0380F481E02D309771F180818F3567
:1022700009F03DCEA0E0B0E0AB2B09F438CE81816F
:10228000BA81982F8B2F0E94000031CE9A81892F1E
:1022900090E08F5F9C4F9C838B83BC01C8010E94A0
:1022A0004E07811128C081E0D8015B96ED91FC9129
:1022B0005C9723813481148213825C963C932E9325
:1022C0005B97813009F4E3CD0F900F900F900F9042
:1022D000DF91CF911F910F91FF90EF90DF90CF9002
:1022E000BF90AF909F908F907F906F905F904F9036
:1022F0003F902F900895AB81BC81A138E3E0BE07E9
:10230000C9F0A438F3E0BF0711F1A53823E0B20704
:1023100079F0AC3A43E0B407D1F0AD3A83E0B807C6
:1023200039F0A43D93E0B90791F0A53DB34051F4D5
:102330008AE002C0D8018C915812B5CFC8010E9422
:102340007107B1CF8B819C810E94440CF5CF8DE049
:10235000F3CFBA816B2E712CEFEF6E1AECEF7E0A81
:10236000B301C8010E944E07882309F49CCF852D34
:1023700090E09C0144E0359527954A95E1F7F22FCE
:10238000F170F983F09330029C0153E03595279565
:102390005A95E1F7422F4170442E40932F029C0141
:1023A00035952795A22FA170AA0F9595879595959C
:1023B00087958170880F880F8A0FB52DB170B80F7F
:1023C000BB83B0932E02E1E86E16E3E07E06B1F423
:1023D000D8018C9180932D02F130A9F180912D02CA
:1023E00090E00B8002C0959587950A94E2F7817082
:1023F00099274816190609F056CFA0CFB4E86B16F6
:10240000B3E07B0651F0ECEA6E16E3E07E0629F0BD
:10241000F4ED6F16F3E07F0689F58DE080932D02D1
:1024200099819130D9F6C30184589340029708F4FA
:102430003ACF8A818B5A823008F435CFAA81A35DC6
:10244000A23008F430CFD501C4010B8004C0880F3E
:10245000991FAA1FBB1F0A94D2F720912D0253FE89
:1024600022C0822B80932D0260912D02C3010E9415
:10247000830E90912D02891316CF60CF25E8621646
:1024800023E0720651F04DEA641643E0740629F029
:1024900085ED681683E0780611F48AE0BFCFC301AA
:1024A0000E94440CBBCF482F4095822F8423DACF63
:1024B000652D8B819C810E94830ED8015B96ED91E6
:1024C000FC919281891709F4D0CDEB81FC81E13830
:1024D000F34009F0E8CE81E893E00E94130CD801A4
:1024E0008C93E1CEAF92BF92CF92DF92EF92FF92A8
:1024F0000F931F93CF93DF93C0913F02D09140027F
:1025000010912C0211111AC0FE0190E080E025818B
:102510003681232B09F05AC025E0289FF001299F1E
:10252000F00D11243296EC0FFD1FF0932B02E09377
:102530002A02309709F43FC014821382A0902A0225
:10254000B0902B02A114B104B1F10E949204C0908A
:102550002602D0902702E0902802F09029026C1900
:102560007D098E099F096A30710581059105C8F1C1
:1025700010922C020E94920460932602709327020C
:1025800080932802909329028D8D9E8D0E941507BD
:10259000F5019081882319F19160908381E0809307
:1025A0002C020E942A0460932202709323028093DB
:1025B000240290932502DF91CF911F910F91FF90FC
:1025C000EF90DF90CF90BF90AF9008950196359631
:1025D0008530910509F09BCFF0E0E0E0A6CF9E7F2B
:1025E000DCCF0E942A04C0902202D0902302E09007
:1025F0002402F09025026C197D098E099F0965312E
:10260000710581059105B8F20E942A046C197D09B3
:102610008E099F09643F71408105910560F68D8D9B
:102620009E8D212F2770C12CD12C7601C39404C01C
:10263000CC0CDD1CEE1CFF1C2A95D2F7103108F0E3
:1026400049C00E941507E12FE695E695E695EA0D4B
:10265000FB2DF11D8823D1F18081C82AC08201E0C1
:10266000010F00932C020E942A04609322027093AF
:1026700023028093240290932502177F173019F0CC
:10268000083109F098CF0E9492046093260270935B
:1026900027028093280290932902003141F10831EA
:1026A00009F089CF0B8D1C8D80912A0290912B020D
:1026B0009C8F8B8FCE010E94200FE0912A02F09117
:1026C0002B02148213821C8F0B8F2CC0C09480812C
:1026D000C822C4CF0E941507F5019281882319F002
:1026E000C92AC282BCCFC0949C219283B8CFA0914A
:1026F0002A02B0912B028C91982F977F973709F47B
:102700005ACF8B3709F457CFEB8DFC8D309721F4DE
:10271000BC8FAB8F07C0FC01838194810097D9F7F0
:10272000B483A38310922C0246CF0F931F93CF93B1
:10273000DF9320918A02222329F08F30910541F402
:102740008FE090E0DF91CF911F910F910C94700E6C
:10275000162FEC018FE090E00E94130C082F80E10F
:1027600090E00E94130C08130DC0C730D10531F062
:10277000C830D10521F4183031F0FFCFFFCF612FE1
:10278000CE01E0CFFFCF0E94B60E88E0DF91CF915F
:102790001F910F9108958331910588F4813191053E
:1027A00030F48130910519F08930910531F42FEF23
:1027B0003FEF3093A6022093A5020C9495138D3120
:1027C0009105D9F7677F6093A802209192022F7339
:1027D000362F307C232B20939202E9CFCF93DF93C7
:1027E000EDEAF2E095E1DF011D929A95E9F722E921
:1027F00030E03093AC022093AB0222E530E030931E
:10280000AA022093A902C2E9D2E0888319828FEF3D
:102810009FEF9C8B8B8B1D8A83E08093910243E01A
:1028200050E068E175E089890E9413058DE190E030
:102830000E94E20C682F6F738DE190E00E94CB1331
:102840008E8B6AE087E090E00E94CB136DE088E019
:1028500090E00E94CB1380E0DF91CF910C94040CA8
:1028600089B78F7789BF8DE192E090930F018093B4
:102870000E0181E00E94EE131092900210928F02DE
:1028800008950F931F930E942A0400918B021091C8
:102890008C0220918D0230918E02601B710B820B95
:1028A000930B613F79448240910508F456C08091B2
:1028B0008A0281110BC080918F0290919002813029
:1028C0009105B1F188F0029709F444C00E942A04EE
:1028D00060938B0270938C0280938D0290938E0292
:1028E00081E01F910F91089580E390E00E94C40C55
:1028F00080FF0EC041E050E06DE578E087E00E9487
:102900009E0481E090E09093900280938F02DECF4E
:102910008DE190E00E94C40C82FFD8CF41E050E0EE
:102920006EE172E087E00E949E0482E090E0EBCFCF
:1029300089B78F7789BF8DE192E090930F018093E3
:102940000E018DE190E00E94C40C82FDE7CF0E9451
:102950003014BCCF10928902FACF80E0C2CFBF9270
:10296000CF92DF92EF92FF920F931F93CF93DF935B
:102970008B01B42E690182FF23C083FF17C061E081
:10298000C8010E94EE0E8823D9F16B2DC8010E9468
:10299000CB138B1135C0F601DF91CF911F910F91B1
:1029A000FF90EF90DF90CF90BF90099460E0C80156
:1029B0000E94EE0E882321F1C8010E94E20CE9CFAB
:1029C000842F8770C1E0D0E07E0101C0EE0C8A95B3
:1029D000EAF7D42FD870CB010E94E20CC82FB4FEC6
:1029E0001CC061E0C8010E94EE0E882349F0DD237F
:1029F00089F0CE296C2FC8010E94CB138C1759F295
:102A0000DF91CF911F910F91FF90EF90DF90CF90CA
:102A1000BF900895E094CE21EDCF60E0C8010E9400
:102A2000EE0E882369F3CE21DD2319F0C111B3CF57
:102A3000E7CFCC2309F4AFCFE3CFCF92DF92EF9271
:102A4000FF920F931F93CF93DF937C016B01C42FF1
:102A5000122FD42FD07E8091920287FF2CC0D03EBF
:102A6000C1F5809193028823A1F190E00E94E20CCD
:102A7000D82F8091930290E001960E94E20C982F4B
:102A80008D2FE816F90629F56C2F70E0762F662752
:102A900066277370612B6F5F7F4F22E636E0402F11
:102AA0008C2FDF91CF911F910F91FF90EF90DF90CE
:102AB000CF900C94AF1480FD32C0D03609F464C0BE
:102AC00088F4D03209F447C0D03409F45DC0DD2366
:102AD00079F1DF91CF911F910F91FF90EF90DF90EF
:102AE000CF900895D03A09F483C090F42C2F2F7121
:102AF00041E050E0D03869F7B601C701DF91CF91CE
:102B00001F910F91FF90EF90DF90CF900C94340DB8
:102B1000D03C09F476C0D03E09F4B6CFDACF0E949B
:102B2000E40C8E159F0549F2E114F10431F2D1CF86
:102B30008C2F8E7071F680E090E0892B51F28C2FF3
:102B40008170DF91CF911F910F91FF90EF90DF90F7
:102B5000CF900C940000CF71CF3109F0BACF412F44
:102B60004F7771F0413071F0111F1127111F212F84
:102B700030E00FE710E0B601C7010E94970CA9CF23
:102B800041E0F2CF40E0F0CF2C2F30E08C2F8F715E
:102B9000813029F030F0803121F08131F9F440E0CA
:102BA00001C041E025FB222720F90DE110E030E0D3
:102BB000B601C7010E94970C80E090E0892B09F4D0
:102BC00088CF4C2FB601C701DF91CF911F910F9194
:102BD000FF90EF90DF90CF900C940000C901880F18
:102BE000991F8E71C4FB442740F9482B4250DACF1D
:102BF0002C2F2F7043E050E0C4FF7ECF42E050E026
:102C00007BCFCF71CE3139F0CF3109F062CF212F98
:102C100045E050E071CF212F44E050E06DCFCF92DE
:102C2000DF92EF92FF920F931F93CF93DF93EC010C
:102C30007B0141305105F9F4CD80DE802496C1142A
:102C4000D104E9F462E070E081E090E00E946A273C
:102C50008C01009731F0FC01F182E08288818F5F66
:102C60008883C801DF91CF911F910F91FF90EF9062
:102C7000DF90CF900895C884D9842796E0CF8881CB
:102C80008F5F8883C82FD0E062E070E0CE010E94A1
:102C90006A278C0120E0BE0161507109822F90E00B
:102CA0008617970774F4880F991FF601E80FF91F2C
:102CB00040815181800F911FFC01518340832F5F20
:102CC000EDCFC150D048CC0FDD1FC00FD11FF9820E
:102CD000E882C6010E942228C4CF4F925F926F9271
:102CE0007F92AF92BF92CF92DF92EF92FF920F93BB
:102CF0001F93CF93DF93CDB7DEB7C154D1090FB681
:102D0000F894DEBF0FBECDBF5C01F82E6E0182E2EB
:102D1000C80ED11C8601802F8C198F1540F48FE5C9
:102D200093E00E94E207F80181938F01F4CFF12C28
:102D30008AE0482E512C612C712CF5E0AF16B104BD
:102D400009F064C000915002109151020115110563
:102D5000A9F13CA14BA12AA1F80190E080E0658196
:102D60007681672B31F555E0589F7001599FF00C23
:102D70001124C7010296800F911FE00EF11EF7018A
:102D800016821582228343833483F801C38CD48C4A
:102D9000322F377F373741F5F801948F838FC80181
:102DA0000E94200FF70116821582F801D48EC38E7F
:102DB00005C0019635968530910589F6CF5BDF4FCA
:102DC0000FB6F894DEBF0FBECDBFDF91CF911F913C
:102DD0000F91FF90EF90DF90CF90BF90AF907F90DA
:102DE0006F905F904F9008952B37B1F2C114D104CA
:102DF00021F4948F838FE2CF6901F601238134811E
:102E000021153105C9F794838383D8CF8F2D90E0A6
:102E10008A159B059CF68C0D9D1DFC01208130E0E0
:102E200050E040E019A28E010F5D1F4FCA01B901A9
:102E3000A30192010E942B27605DF80162938F012C
:102E4000211531054105510589F7309761F0019051
:102E50000020E9F73197AF01401B510BB80182EC1C
:102E600092E00E94690342E050E066E771E082EC84
:102E700092E00E946903F394C9CF1F920F920FB69C
:102E80000F9211240BB60F922F933F934F935F93A2
:102E90006F937F938F939F93AF93BF93EF93FF9322
:102EA00082EC92E00E945F02FF91EF91BF91AF919F
:102EB0009F918F917F916F915F914F913F912F9152
:102EC0000F900BBE0F900FBE0F901F9018951F9282
:102ED0000F920FB60F9211240BB60F922F938F9370
:102EE0009F93EF93FF93E091D202F091D302808100
:102EF000E091D802F091D90282FD1DC090818091AD
:102F0000DB028F5F8F732091DC02821741F0E0912A
:102F1000DB02F0E0EE53FD4F958F8093DB02FF91D3
:102F2000EF919F918F912F910F900BBE0F900FBE3D
:102F30000F901F9018958081F2CF1F920F920FB6BD
:102F40000F9211242F933F938F939F93AF93BF932F
:102F50008091370290913802A0913902B0913A02E3
:102F60003091360223E0230F2D3768F126E8230F36
:102F70000296A11DB11D20933602809337029093D3
:102F80003802A0933902B0933A0280913B029091AB
:102F90003C02A0913D02B0913E020196A11DB11DDF
:102FA00080933B0290933C02A0933D02B0933E027B
:102FB000BF91AF919F918F913F912F910F900FBE35
:102FC0000F901F9018950196A11DB11DD4CF1F928F
:102FD0000F920FB60F9211240BB60F922F933F93BF
:102FE0004F935F936F937F938F939F93AF93BF9311
:102FF000EF93FF93E0910E01F0910F010995FF917E
:10300000EF91BF91AF919F918F917F916F915F9160
:103010004F913F912F910F900BBE0F900FBE0F90CD
:103020001F9018951F920F920FB60F9211240BB696
:103030000F922F933F934F935F936F937F938F9351
:103040009F93AF93BF93EF93FF93E0910C01F091A7
:103050000D010995FF91EF91BF91AF919F918F91D4
:103060007F916F915F914F913F912F910F900BBE88
:103070000F900FBE0F901F9018951F920F920FB6D2
:103080000F9211240BB60F922F933F934F935F93A0
:103090006F937F938F939F93AF93BF93EF93FF9320
:1030A000E0910A01F0910B010995FF91EF91BF9119
:1030B000AF919F918F917F916F915F914F913F91D0
:1030C0002F910F900BBE0F900FBE0F901F90189571
:1030D0001F920F920FB60F9211240BB60F922F93DF
:1030E0003F934F935F936F937F938F939F93AF9390
:1030F000BF93EF93FF93E0910801F09109010995C7
:10310000FF91EF91BF91AF919F918F917F916F91BF
:103110005F914F913F912F910F900BBE0F900FBE7B
:103120000F901F9018951F920F920FB60F921124B7
:103130000BB60F922F933F934F935F936F937F93B1
:103140008F939F93AF93BF93EF93FF93E09106010B
:10315000F09107010995FF91EF91BF91AF919F9178
:103160008F917F916F915F914F913F912F910F9030
:103170000BBE0F900FBE0F901F9018951F920F92CD
:103180000FB60F9211240BB60F922F933F934F93CC
:103190005F936F937F938F939F93AF93BF93EF93BF
:1031A000FF93E0910401F09105010995FF91EF91E2
:1031B000BF91AF919F918F917F916F915F914F914F
:1031C0003F912F910F900BBE0F900FBE0F901F904D
:1031D00018951F920F920FB60F9211240BB60F92F3
:1031E0002F933F934F935F936F937F938F939F930F
:1031F000AF93BF93EF93FF93E0910201F09103012E
:103200000995FF91EF91BF91AF919F918F917F9120
:103210006F915F914F913F912F910F900BBE0F9047
:103220000FBE0F901F9018951F920F920FB60F921E
:1032300011240BB60F922F933F934F935F936F938D
:103240007F938F939F93AF93BF93EF93FF93E091FF
:103250000001F09101010995FF91EF91BF91AF91AC
:103260009F918F917F916F915F914F913F912F919E
:103270000F900BBE0F900FBE0F901F9018951F92CE
:103280000F920FB60F9211240BB60F922F933F930C
:103290004F935F936F937F938F939F93AF93BF935E
:1032A000EF93FF9380917100887F803609F44DC0C1
:1032B00008F040C0883209F4A9C028F5803109F42B
:1032C0009DC0C8F4882309F4FBC0883009F496C077
:1032D000FF91EF91BF91AF919F918F917F916F91EE
:1032E0005F914F913F912F910F900BBE0F900FBEAA
:1032F0000F901F901895883109F488C0803241F7EB
:103300008093FE0114C0803409F49DC040F48033E2
:10331000B9F38833E9F68093FE0185ECB0C08035BF
:1033200009F485C0883509F496C0883489F60E946E
:10333000A107CECF883909F48CC038F5883729F039
:1033400050F4883611F0803719F683E080934702F5
:103350001092FD0157C0883809F47BC0803919F0FC
:10336000803809F0B5CF8091FD01803208F071C03E
:10337000E091FD0181E08E0F8093FD01809173004B
:10338000F0E0E352FE4F80833DC0803B39F0E0F433
:10339000803A09F479C0883A09F09ACF84E08093A2
:1033A00047021092DC011092DB01E0914302F091A0
:1033B000440209958091DB0181110FC081E0809367
:1033C000DB011092BB0109C0803C09F4A6CF883C08
:1033D00009F4A3CF883B09F07BCFE091DC0181E0C9
:1033E0008E0F8093DC01F0E0E554FE4F80818093E6
:1033F00073009091DC018091DB0129C08091210252
:103400008093730085EC8093740062CF90912002CA
:1034100080911F02981758F5E091200281E08E0FED
:1034200080932002F0E0E150FE4F8081E9CFE091EF
:10343000200281E08E0F8093200280917300F0E0E3
:10344000E150FE4F80839091200280911F029817D7
:10345000C8F285E8D8CFE091200281E08E0F8093FA
:10346000200280917300F0E0E150FE4F8083809154
:10347000460281115CCF81E08093450284EA80930B
:1034800074001092470224CF85EC80937400109250
:1034900047028091FD01803230F4E091FD01F0E0BF
:1034A000E352FE4F10826091FD0170E0E091410215
:1034B000F09142028DED91E009951092FD0108CF47
:1034C0001092FE0134CF1F920F920FB60F9211246B
:1034D0008F939F93789480916D0290916C028917DD
:1034E00008F0CFC09091620091609093620090913B
:1034F0006B02891708F0C9C0AD9A90916A028917CA
:1035000008F0C5C0969A90916902891708F0C1C069
:10351000979A90916802891708F0BDC09091650054
:1035200091609093650090916702891708F0B7C089
:103530009091650092609093650090916602891762
:1035400008F0B1C0A89A90916502891708F0ADC043
:103550001B9A90916402891708F0A9C090916200AB
:1035600094609093620090916302891708F0A3C061
:10357000C79A90916202891708F09FC0C59A9091EE
:103580006102891708F09BC0C49A90916002891764
:1035900008F097C0C69A90915F02891708F093C00F
:1035A000DB9A90915E02891708F08FC0DC9A9091A7
:1035B0005D02891708F08BC0DD9A90915C02891733
:1035C00008F087C0DE9A90915B02891708F083C0EB
:1035D000DF9A90915A02891708F07FC01C9A909147
:1035E0005902891708F07BC01D9A909158028917DB
:1035F00008F077C090916200926090936200909181
:103600005702891708F071C0C09A90915602891725
:1036100008F06DC090916200906890936200909164
:103620005502891708F067C09091620090649093EA
:10363000620090915402891708F061C09091620075
:1036400090629093620090915302891708F05BC0DA
:10365000909162009061909362009091520289175C
:1036600008F055C0909162009860909362008F5F5F
:1036700080936D029F918F910F900FBE0F901F90BE
:103680001895909162009E7F30CFAD9836CF969876
:103690003ACF97983ECF909165009E7F42CF909110
:1036A00065009D7F48CFA8984ECF1B9852CF909130
:1036B00062009B7F56CFC7985CCFC59860CFC498F7
:1036C00064CFC69868CFDB986CCFDC9870CFDD985C
:1036D00074CFDE9878CFDF987CCF1C9880CF1D9870
:1036E00084CF909162009D7F88CFC0988ECF9091BB
:1036F00062009F7792CF909162009F7B98CF9091CC
:1037000062009F7D9ECF909162009F7EA4CF90919A
:103710006200977FAACFCF93DF93EC0161E08881AD
:103720000E94F90360E08881DF91CF910C94CB0374
:10373000EF92FF920F931F93CF93DF931092C502E6
:103740001092C40288EE93E0A0E0B0E08093C6023D
:103750009093C702A093C802B093C90226E531E056
:103760003093C3022093C20220E930E03093CF02AD
:103770002093CE0229E230E03093D1022093D00290
:103780002BE230E03093D3022093D2022AE230E0E1
:103790003093D5022093D40225E930E03093D7024C
:1037A0002093D6022CE230E03093D9022093D80245
:1037B0001092DB021092DC021092DD021092DE0207
:1037C00010926203109261038093630390936403E9
:1037D000A0936503B093660388E691E0909360033D
:1037E00080935F0310926D0310926E0310926F032B
:1037F000109270031092710310927203109273036F
:10380000109274031092750310927603109277034E
:1038100087E090E090936C0380936B0383E190E0EA
:103820000E94130CC82F82E190E00E94130CD82F45
:1038300081E190E00E94130C182F81E090E00E943B
:10384000130C21E030E030935C0720935B0730934A
:103850005E0720935D0710925F0710926307109236
:1038600065071092640780935607212F205C330B65
:10387000C9012D2F382FC9019093580780935707FE
:10388000CF77C093590710925A078DE18093600754
:1038900062E070E08DE190E00E946A2790936207F9
:1038A000809361070097C9F0EC0110E0EE24E394E7
:1038B000F12C8AE090E00E948627FC01F282E182EE
:1038C0001382148216821582178211861086108345
:1038D000899399931F5F1D3161F767E086E797E051
:1038E0000E942A0763E280E797E00E942A0780E3AC
:1038F0008093FE07C2E0C093000810920108DFEF3A
:10390000D093FF07109202088EEF97E00E948B1B66
:1039100081E38093F907C093FB0781E08093FC0764
:10392000D093FA071092FD0789EF97E00E948B1B56
:1039300082E38093F407C093F607C093F707D09310
:10394000F5071092F80784EF97E00E948B1B83E342
:103950008093EF07C093F10713E01093F207D09321
:10396000F0071092F3078FEE97E00E948B1B84E321
:103970008093EA07C093EC0784E0F82EF092ED07FD
:10398000D093EB071092EE078AEE97E00E948B1B14
:1039900008E00093E507C093E70795E0E92EE09281
:1039A000E807D093E6071092E90785EE97E00E94BA
:1039B0008B1B8EE28093E007C093E20786E0809342
:1039C000E307D093E1071092E40780EE97E00E94AE
:1039D0008B1BE092DB07C093DD0787E08093DE0757
:1039E000D093DC071092DF078BED97E00E948B1BD2
:1039F000F092D607C093D8070093D907D093D70782
:103A00001092DA0786ED97E00E948B1B85E2809387
:103A1000D107C093D30789E08093D407D093D2070E
:103A20001092D50781ED97E00E948B1B86E2809370
:103A3000CC07C093CE078AE08093CF07D093CD0701
:103A40001092D0078CEC97E00E948B1B87E280934A
:103A5000C707C093C9078BE08093CA07D093C807F4
:103A60001092CB0787EC97E00E948B1B88E2809333
:103A7000C207C093C4070CE00093C507D093C307E7
:103A80001092C60782EC97E00E948B1B89E280931C
:103A9000BD07C093BF072DE0F22EF092C007D09370
:103AA000BE071092C1078DEB97E00E948B1B8EE042
:103AB0008093B807C093BA078093BB07D093B90728
:103AC0001092BC0788EB97E00E948B1B0093B30712
:103AD000C093B5070FE00093B607D093B4071092D8
:103AE000B70783EB97E00E948B1BF092AE07C09361
:103AF000B00780E18093B107D093AF071092B2076F
:103B00008EEA97E00E948B1B0093A907C093AB0736
:103B100081E18093AC07D093AA071092AD0789EAA0
:103B200097E00E948B1B8FE28093A407C093A607A7
:103B300082E18093A707D093A5071092A80784EA93
:103B400097E00E948B1B10939F07C093A10783E10E
:103B50008093A207D093A0071092A3078FE997E064
:103B60000E948B1B8CE180939A07C0939C0784E191
:103B700080939D07D0939B0710929E078AE997E058
:103B80000E948B1B8BE180939507C093970785E17B
:103B900080939807D09396071092990785E997E04C
:103BA0000E948B1B1AE110939007C093920786E145
:103BB00080939307D09391071092940780E997E040
:103BC0000E948B1B09E100938B07C0938D0787E14F
:103BD00080938E07D0938C0710928F078BE897E025
:103BE0000E948B1B88E180938607C093880780938F
:103BF0008907D093870710928A0786E897E00E948A
:103C00008B1B81E280938107C09383070093840715
:103C1000D09382071092850781E897E00E948B1B62
:103C20008DE280937C07C0937E0710937F07D0932B
:103C30007D07109280078CE797E0DF91CF911F916D
:103C40000F91FF90EF900C948B1BCF93DF93CDB728
:103C5000DEB762970FB6F894DEBF0FBECDBF789483
:103C600083B78C6483BF87B7816087BF82E08EBDD6
:103C70008EB581608EBD8FB581608FBD85B5846046
:103C800085BD85B5806485BD80918A008360809301
:103C90008A0080918B00816080938B0087E886B9D1
:103CA0001AB80FB6F894A89581B5886181BD11BC8A
:103CB0000FBE2FB7F89490E080E0FC01EE5AFD4F64
:103CC000108201968B319105C1F7809162008E7F41
:103CD00080936200AD9896989798809165008E7F4A
:103CE00080936500809165008D7F80936500A89822
:103CF0001B98809162008B7F80936200C798C59863
:103D0000C498C698DB98DC98DD98DE98DF981C98FC
:103D10001D98809162008D7F80936200C098809191
:103D200062008F7780936200809162008F7B809326
:103D30006200809162008F7D8093620080916200BA
:103D40008F7E8093620080916200877F8093620003
:103D50002FBF9FB7F89480916100816080936100CC
:103D6000A59A8E9A8F9A80916400816080936400F6
:103D700080916400826080936400A09A139A80917D
:103D80006100846080936100BF9ABD9ABC9ABE9A1C
:103D9000D39AD49AD59AD69AD79A149A159A80918A
:103DA0006100826080936100B89A809161008068B0
:103DB00080936100809161008064809361008091B4
:103DC00061008062809361008091610080618093D6
:103DD0006100809161008860809361009FBF1FBC7B
:103DE00089E08EBD8CE093E09BBD8ABD87B7806182
:103DF00087BF10926D0261E08BE00E94F90360E0E2
:103E000086E797E00E943F03E0917207F091730705
:103E1000908180917107809589238083E091740758
:103E2000F0917507808190917107892B808329ED2E
:103E3000A22E21E0B22E3CE1C32E31E0D32E9924F4
:103E40009394F501E490F12CC7010E94130C182FF4
:103E5000C70101960E94130C082FC70102960E9409
:103E6000130C882EC70103960E94130C90916007D3
:103E7000191710F5D601ED90FC90F701818284832B
:103E8000812F0111D2C00E949A013C0141E050E013
:103E9000B7010E940F16D30116969C938E93159727
:103EA000812F0E949A018C0150E040E0B7010E94EE
:103EB0000F16F80191878087A895B2E0AB0EB11C70
:103EC000E2E0CE0ED11CF2E5CF16F1E0DF0609F0FC
:103ED000B8CF61E070E084E090E00E946A279093A0
:103EE000650780936407892B91F010E000E0E09073
:103EF0006407F0906507E00EF11E802F0E94860C8B
:103F0000D7018C930F5F1F4F0430110581F780E0BC
:103F10000E94720C082F10E081E00E94720C282F82
:103F200030E0322F222722273E7F000F111F202B47
:103F3000312B309367072093660780FF05C021600F
:103F4000309367072093660760E08AE00E94F903D8
:103F5000EDEAF2E08491E8E7F2E00491E3E4F2E0D4
:103F6000149111117CC0FF24F394F09280028FE130
:103F700090E00E9486278C0186E0F801818386E02C
:103F800090E00E9486276C0166E10E942A07D80112
:103F90005E96DC92CE925D9710937F0200937E0234
:103FA00081E893E00E94130CF8018083843008F0CC
:103FB00024C1F80181818F3FF1F0109340020093FA
:103FC0003F0260E00E94F90360E0D8015D968D91A8
:103FD0009C910E943F03F80181819CEF980F9430DF
:103FE00020F08251843008F08FEF42E050E062E729
:103FF00072E10E941305D80116961C921E92159725
:104000001B961C921E921A9750961C921E921F97F6
:1040100055961C921E9254975A961C921E9259972E
:104020005C961C921E925B9729C00E949A01DC014B
:1040300013969C92003809F433CF013809F03CCF35
:10404000812F0E949A018C0141E050E0B7010E944B
:104050000F16D80116969C938E9315972DCF81112C
:104060000E949603E12FF0E0EE0FFF1FE75DFD4F8A
:10407000A591B491EC91E02309F475CF81E090E033
:104080000E94130C21E030E03093730220937202FF
:104090008093740281E190E00E94130C21E130E0F2
:1040A00030937602209375028093770282E190E04C
:1040B0000E94130C22E130E03093790220937802C1
:1040C00080937A028DE190E00E94C40C81FD97C03C
:1040D0008DE190E090937C0280937B0210927D02B0
:1040E00087E08093A3028093A40260E00E94F9031A
:1040F00061E087E00E94CB0380E00E94EE138DE632
:1041000096E190934F0280934E0288E093E0909363
:104110004D0280934C0210924B0210924A02109270
:104120004902109248021092470281E080934602B1
:104130001092450261E083E10E94CB0361E082E1DD
:104140000E94CB03809171008E7F809371008091DB
:1041500071008D7F8093710088E48093700085E406
:104160008093740089E093E090934402809343022B
:1041700085E193E0909342028093410282E0809334
:1041800072008CE0809370001092510210925002E5
:1041900088E19BE00FB6F894A89581BD0FBE91BD54
:1041A00072E0472E512C8091810281110DC00E9436
:1041B0002A0460938B0270938C0280938D029093FB
:1041C0008E0281E08093810280918F029091900213
:1041D0008130910509F4AEC260F1029709F4D8C5A7
:1041E000A895809180028823F1F280917E029091BF
:1041F0007F020E94200FA895D6CFF082DACE8DE103
:1042000090E00E94C40C85FD0DC080911601909134
:104210001701A091180180937B0290937C02A093D8
:104220007D025ECF8091190190911A01A0911B012E
:10423000F2CF809194028823B1F00E949204009101
:104240009502109196022091970230919802601B7E
:10425000710B820B930B653171058105910518F087
:1042600080E00E94040C8091AF02882309F445C0CD
:10427000F89488E0EAEBF2E0A8E6B7E001900D924E
:104280008A95E1F71092AF0278943091BA02ECEB84
:10429000F2E090E080E0391721F0219182279F5FC2
:1042A000FACF81112AC080E090E0892B21F088E6C6
:1042B00097E00E94000080916A07811125C09091CB
:1042C0006B07911121C080E090E0892B19F080E00C
:1042D0000E94000080919402882391F081E00E9466
:1042E0004F090E94B6090E942A0460938B027093C2
:1042F0008C0280938D0290938E020E94411470CFA5
:1043000081E00E94040CEDCF90919402992309F46E
:1043100086C08057803108F07FC081E00E944F093D
:104320001091680780919B0218130AC0412F50E03A
:104330006DE972E08AE697E00E94AB28892B61F074
:1043400010929A0288E0E8E6F7E0ABE9B2E001906B
:104350000D928A95E1F7C5CF80919A028F5F809385
:104360009A02133009F040C090916A07892F877034
:10437000F0906B07853029F4F09299020E94820434
:10438000B0CF0DE110E0843091F0282F30E0843080
:10439000F0F4009199020023D1F00150110B000FAD
:1043A000111F000F111F020F131F0F5F1F4F93FFED
:1043B00010C061E0C8010E94EE0E882309F491CF7D
:1043C0006F2DC8010E94CB13F8128BCFD7CF890174
:1043D000ECCF60E0C8010E94EE0E882309F481CF83
:1043E000C8010E94E20CF0CF143009F07ACF80911E
:1043F0006A07682F70E0762F6627662773709091A2
:104400006B07692B6F5F7F4F20E934E040916C07A9
:104410008C700E94AF1465CF80E00E94040CE09184
:104420006A07EF3F61F480916B0781115ACF80E0FA
:1044300090E0892B09F455CF0E94000052CFE7FD90
:104440000DC000916D0720916C0740916B0770E0E3
:1044500060E08E2F90E00E941D1543CFE03C08F0F5
:1044600058C13091920237FF3CCF20916B07822FC9
:1044700090E08C0100951095000F111F000F111F87
:10448000007C1170EF730E2B95958795B82FB37044
:10449000BB2E80916807853041F52C782C3029F5AA
:1044A0000E94E40C8017910721F00F3F114009F0A2
:1044B00018CF80916B0790E0982F882788279370FA
:1044C00000916C07080F192F111D0F5F1F4FF090FF
:1044D0006D0761E0C8010E94EE0E6F2D882309F47C
:1044E00000CFC8010E94CB13FCCE6801F1E0CF1AC7
:1044F000D108CC0CDD1CCC0CDD1CCB2876012FEFB9
:10450000E21AF20A8091A7028823F9F036FF41C02F
:10451000C70160E071E00E941727682F81E090E0FA
:104520000E94CB13C701F7FE02C081509F4F692F35
:1045300089E090E00E94CB1380E090E0892B19F095
:10454000C7010E9400001092A7028091920280FD94
:1045500039C080916807843009F04FC080916B07A3
:104560008978813009F0BDCE60916C0780E090E0E1
:10457000892B19F0C7010E94000080E090E0892B90
:1045800009F4AFCE40916C076B2DC7010E9400006B
:10459000A8CEB8016F73772781E090E00E94CB131B
:1045A000B801E6E075956795EA95E1F789E090E056
:1045B0000E94CB1380E090E0892B29F2C8010E9471
:1045C0000000C1CF86FF0DC00E94E40C8E159F0530
:1045D00009F4BFCF3DEFE31637E0F3060CF0B9CF97
:1045E00080CE0E94E40C8017910709F4B2CF0F3FF0
:1045F00041E0140709F4ADCF74CE833069F54091E2
:104600006B07542F5170C52E43FBDD24D0F880E09A
:1046100090E0892B31F047702D2DB801C7010E9421
:1046200000008091920286FF0BC080E090E0892B11
:1046300009F457CE4D2D6C2DC7010E94000051CEBC
:1046400080E090E0892B09F44CCE2D2D4C2D6B2D64
:10465000C8010E94000045CE863009F042CE80910C
:104660006B07982F9978913021F08F78803809F076
:1046700038CE8091920286FF28C00E94E40C8E15ED
:104680009F05E9F480916C0790E0382F22272227BC
:10469000337000916D07020F132F111D0F5F1F4F15
:1046A000F0906E07959587959595879583709927D6
:1046B0008230910599F0039709F40BCF12CE8DEF5C
:1046C000E81687E0F806F4F60CCE0E94E40C80179A
:1046D0009107C1F20F3F1140A9F203CEF4FE01CEC3
:1046E00061E0C8010E94EE0E882309F4FACDC801EA
:1046F0000E94E20C9F2D977061E070E001C0660F90
:104700009A95EAF7F3FE02C0682BEBCE609568231A
:10471000E8CEE83E08F0E5CDE05CFF0B80916B074A
:1047200000916E0720916D0740916C0761E070E089
:104730009E2F91CE07EC13E09AE0E92EF12CDD24B8
:10474000D39423E6C22E33E0B32E42E0A42E5BE1E5
:10475000352ED8011B968D919C91019709F03FC190
:10476000F801E654F1098081918132966080718070
:10477000680E791EF801118A128A16821286158631
:10478000168617861782108A138A1186158214825C
:104790009301359527954801FCE58F1A9108F4019E
:1047A00061E070E086899789A72FA69541E050E0E7
:1047B0004C0F5D1F4A0F511DDA0141E028173907E0
:1047C0000CF040E04C93713248F4408D518D840FD1
:1047D000951F8E579109C19708F460E07E5F34966B
:1047E000743201F7FE013196CE9C9001CF9C300DC2
:1047F000112449E457E0421B530B90E080E07081A4
:1048000071118FC071817111A6C0D401A80FB91F99
:104810001D961C92019632968930910581F7F80118
:1048200080819181A281B38185519540A109B1090F
:1048300083359B40A105B10508F070C1662309F4DA
:104840006DC181E046E9641671040CF080E0D80186
:1048500051968C93F801EC54F10990813197808145
:10486000B9E08B9F802D1124939D800D11243297E8
:104870009081890F31964081942F990F940F890F61
:10488000F8018683EB54F10946E9641671040CF4CF
:1048900030C181E09081913009F080E0D8011D960F
:1048A0008C938989880F9F85890F880F9D85890F33
:1048B000880F9B85890F91E009F090E0F8019687B9
:1048C00091E0813009F090E0D8011F969C9381110E
:1048D0008150F80187838289882309F456C08C852A
:1048E000880F9E85890F880F9889890F880F9A896C
:1048F000890FEEEFE80FEE3008F047C0F0E0ED571B
:10490000FB4D0C944D27B824B824C024C024652541
:104910006525C524C5246A256A256E256E2573255F
:1049200073257130C1F42180A1E02A1206C0DA019A
:10493000A80FB91F1D962C926DCF21100CC0D40169
:10494000A80FB91F1D96AC92853008F463CFD8012B
:1049500052967C935FCF853048F0DA01A80FB91FDB
:104960001D96BC92D8015296DC9254CF60E057CF8E
:10497000D8011996AC921997817053968C9305C003
:1049800041E050E0F8015583448389E090E0FAE08B
:10499000EF16F10411F08E199F09D8011C965C9254
:1049A0004E921B97C89EB001C99E700D1124FB0149
:1049B000EE52FC4F80819181029789F468587C4FB8
:1049C00049E050E086E597E0821B930B0E94AB28FC
:1049D000892B29F423E030E0F80134872387F1E0C4
:1049E000EF1AF1080D591F4FE114F10409F0B1CE8F
:1049F000E2EDF3E090E080E0208131812330310569
:104A000009F094C023E6289F8001299F100D1124EE
:104A1000F801EE52FC4F84E090E0918380830858C7
:104A20001C4F0115110509F468CC780125E5E20E4B
:104A3000F11CD701EC91F0E0809174029F01281BDA
:104A40003109C9012130310509F4DDC00CF076C00F
:104A5000892B09F046CC80917102D801A45ABF4F2E
:104A60009C91992309F491C0806180937102909187
:104A70007102D801A85ABF4F8C91823009F4A0C0AE
:104A800008F085C0813009F48FC02091710241E0A7
:104A900050E070E060E0CF010E94340DF801ED5A63
:104AA000FF4F808191818130910509F09FC033963D
:104AB000809174020DE110E021E030E0408170E06F
:104AC00060E090E00E94970C0CCCD8011996BC9243
:104AD000199752CFF8015582448257CFD8011996C1
:104AE000DC92199749CF44E0F80141878170838BAC
:104AF0004CCF8081811112C08F85880F9D85890FD1
:104B0000880F9B85890FD8011A968C9381E099892B
:104B1000913009F080E0F801808B37CFE5E0F0E0DC
:104B2000D8011C96FC93EE931B9759CF0196ED5933
:104B3000FF4F8A30910509F05FCFDFCB223031057E
:104B400009F4ADC02330310509F0CBCB80E390E010
:104B50000E94C40C83FFC5CB80916E02F801E85A15
:104B6000FF4F9081923009F4FDC008F0E2C091300F
:104B700009F4ECC0D7018C9120916E0244E050E022
:104B800070E060E08350990B59C08F7E6ECF833008
:104B900009F1843009F079CFD801AE59BF4F8C911B
:104BA000882311F1986007C0D801AE59BF4F8C918E
:104BB000882321F091609093710267CF9E7FFBCF95
:104BC000D801AE59BF4F8C91882311F09260F3CF7A
:104BD0009D7FF1CFD801AE59BF4F8C91882311F042
:104BE0009460E9CF9B7FE7CF977FE5CF029709F0ED
:104BF00078CBF801EA5AFF4F809174020DE110E082
:104C000030E020E05BCF80E390E00E94C40C81FFA5
:104C100068CB80917002F801E85AFF4F9081923082
:104C200041F178F49130C9F0D7018C912091700254
:104C300042E050E070E060E08150990B0E94340D3A
:104C400050CB933001F1943079F7F801EE59FF4FD2
:104C50009081992311F1886007C0F801EE59FF4F48
:104C60009081992321F0816080937002DDCF8E7F47
:104C7000FBCFF801EE59FF4F9081992311F082602C
:104C8000F3CF8D7FF1CFF801EE59FF4F908199233B
:104C900011F08460E9CF8B7FE7CF877FE5CF80E39A
:104CA00090E00E94C40C82FF1CCB80916F02F8013F
:104CB000E85AFF4F9081923031F168F49130B9F0A9
:104CC000F701808120916F0243E050E070E060E0E6
:104CD0008250990BB3CF933001F1943089F7F801EA
:104CE000EE59FF4F9081992311F1886007C0F801B8
:104CF000EE59FF4F9081992321F0816080936F02DC
:104D0000DFCF8E7FFBCFF801EE59FF4F90819923C3
:104D100011F08260F3CF8D7FF1CFF801EE59FF4F94
:104D20009081992311F08460E9CF8B7FE7CF877F53
:104D3000E5CF933009F1943009F01CCFF801EE591A
:104D4000FF4F9081992311F1886007C0F801EE5957
:104D5000FF4F9081992321F0816080936E020ACFEA
:104D60008E7FFBCFF801EE59FF4F9081992311F010
:104D70008260F3CF8D7FF1CFF801EE59FF4F908124
:104D8000992311F08460E9CF8B7FE7CF877FE5CF50
:104D90000E94760A809189028823E1F080E797E0FB
:104DA0000E9415078111A9CA80915B0790915C0749
:104DB000019769F490E080E00E94B50A0E94760AAB
:104DC00080E797E00E9415078823D1F396CA81E017
:104DD00090E0F2CF86E797E00E941507811105C0A9
:104DE00081E090E00E94B50A88CA90E080E0FACFA6
:104DF00060E080E797E00E943F0360E086E797E08D
:104E00000C943F03E199FECF9FBB8EBBE09A99279C
:104E10008DB30895262FE199FECF9FBB8EBB2DBB8E
:104E20000FB6F894E29AE19A0FBE0196089597FBA7
:104E3000072E16F4009407D077FD09D00E9456275C
:104E400007FC05D03EF4909581959F4F089570958D
:104E500061957F4F0895A1E21A2EAA1BBB1BFD018D
:104E60000DC0AA1FBB1FEE1FFF1FA217B307E40749
:104E7000F50720F0A21BB30BE40BF50B661F771FA1
:104E8000881F991F1A9469F7609570958095909581
:104E90009B01AC01BD01CF010895EE0FFF1F00245F
:104EA000001C0BBE0790F691E02D0994AA1BBB1BBA
:104EB00051E107C0AA1FBB1FA617B70710F0A61B1A
:104EC000B70B881F991F5A95A9F780959095BC013B
:104ED000CD0108950F931F93CF93DF93869F800199
:104EE000879F100D969F100D1124C8010E948627E0
:104EF000EC01009729F0A80170E060E00E94B8285A
:104F0000CE01DF91CF911F910F9108950F931F93C1
:104F1000CF93DF938230910510F482E090E0E0912E
:104F20000508F091060830E020E0B0E0A0E03097FE
:104F300099F42115310509F44AC0281B390B243096
:104F40003105D8F58A819B816115710589F1FB01D5
:104F500093838283FE0111C04081518102811381BC
:104F600048175907E0F04817590799F4109761F06E
:104F700012960C93129713961C933296CF01DF91E1
:104F8000CF911F910F910895009305081093060883
:104F9000F4CF2115310551F04217530738F0A9011C
:104FA000DB019A01BD01DF01F801C1CFEF01F9CFAB
:104FB0009093060880930508CDCFFE01E20FF31F02
:104FC000819391932250310939832883D7CF20913F
:104FD000030830910408232B41F4209112013091F1
:104FE000130130930408209303082091100130919D
:104FF00011012115310541F42DB73EB7409114013F
:1050000050911501241B350BE0910308F091040821
:10501000E217F307A0F42E1B3F0B2817390778F08F
:10502000AC014E5F5F4F2417350748F04E0F5F1FEE
:105030005093040840930308819391939FCFF0E02D
:10504000E0E09CCFCF93DF930097E9F0FC0132972B
:1050500013821282A0910508B0910608ED0130E09C
:1050600020E01097A1F420813181820F931F2091BD
:105070000308309104082817390709F061C0F0933C
:105080000408E0930308DF91CF910895EA01CE1759
:10509000DF07E8F54A815B819E0141155105B1F7B3
:1050A000E901FB83EA8349915991C40FD51FEC179D
:1050B000FD0761F4808191810296840F951FE901BB
:1050C00099838883828193819B838A83F0E0E0E0E7
:1050D00012968D919C9113970097B9F52D913C9163
:1050E0001197CD010296820F931F209103083091F2
:1050F00004082817390739F6309751F51092060839
:1051000010920508B0930408A0930308BCCFD38382
:10511000C28340815181840F951FC817D90761F45C
:105120004E5F5F4F88819981480F591F518340839B
:105130008A819B81938382832115310509F0B0CF49
:10514000F0930608E09305089ECFFD01DC01C0CF77
:1051500013821282D7CFFB01DC0104C08D91019034
:10516000801921F441505040C8F7881B990B0895CD
:10517000DC0101C06D9341505040E0F7089511E00B
:10518000CDE6D1E004C0FE010E944D272196CE3627
:08519000D107C9F7F894FFCF25
:105198001D020000000000000000000000000000E8
:1051A8000000070880001D00021D0022FE07F90705
:1051B800F407EF07EA07E507E007DB07D607D1079B
:1051C800CC07C707C207BD07B807B307AE07A907CB
:1051D800A4079F079A07950790078B0786078107FB
:1051E8007C0700000000800269032202C702530204
:1051F80031024502000000002908FC075808D207C0
:0A520800F507E207D3070D0A0000C6
:00000001FF
