:100000000C946E010C94E8130C94BD130C94921391
:100010000C9467130C943C130C9411130C94E6127B
:100020000C94BB120C9498010C9498010C949801B8
:100030000C9437150C9498010C9498010C94980129
:100040000C9471120C9498010C943B120C941112A4
:100050000C9498010C9498010C9498010C949801BC
:100060000C9498010C9498010C9498010C949801AC
:100070000C9498010C9498010C9498010C9498019C
:100080000C9498010C9413140C9498013F030000F5
:10009000000000080D0000000000000101C0800009
:1000A000000000000000000000060000000000004A
:1000B0000000000000000000000000000000000040
:1000C000000000000000FF0300000000000000002E
:1000D0000000000000000000000000000000000020
:1000E0000000000000000000000000000000000010
:1000F0000000000000000000000000000100AA0055
:100100000200AA000300AA000400AA000500AA0039
:100110000600AA000700AA000800AA000900AA0019
:100120000A0080000B0080000C0080000D008000A1
:100130000E0080000F008000100080001100800081
:10014000120080001300AA001400AA000000AA00F8
:100150000000AA000000AA000000AA000000AA00F7
:100160001580FF001581FF00FF000000FF00000068
:10017000FF000000FF000000FF000000FF00000083
:10018000FF000000FF000000FF000000FF00000073
:10019000FF000000FF000000FF0000000000000062
:1001A000000000000000000000000000000000004F
:1001B00000000000000000000000003A003700349A
:1001C00000310022006100640000003B003800356F
:1001D0000032002300620065007000740078007C2B
:1001E000008000840088008C009000940098009C9F
:1001F00000A000A400A800AC00B000B400B800BC8F
:1002000000C000C400C800CC00D000D400D800DC7E
:1002100000E000E400E800EC00F000F400F800FC6E
:10022000000001040108010C010000390036003310
:1002300000300021002000630005050505050505C7
:100240000502020202020202020707040404040477
:100250000404040707030303030303030307010163
:100260000101010101010606060606060606010255
:10027000040810204080010204081020408008106B
:10028000010204081020408001020102040810202D
:10029000408004804020100804020101020408107C
:1002A0002040800000000A0B0C000000000000014C
:1002B000040506000000000000000000000000002F
:1002C000000000000000000000000000000000002E
:1002D00000000000000000009016F72411241FBE4B
:1002E000CFEFD0E1DEBFCDBF11E0A0E0B1E0E0EFA5
:1002F000FDE400E00BBF02C007900D92A637B107E6
:10030000D9F727E0A6E7B1E001C01D92AF3EB207E2
:10031000E1F711E0CDE6D1E004C02197FE010E9493
:100320007925CC36D107C9F70E942C190C94EB26FD
:100330000C94000008959C016115710529F061304D
:10034000710571F080E0089580912B0782171306E4
:1003500081F090912E0781E09217130699F7089586
:1003600081E040912C0750912D074217530751F718
:10037000F6CF81E0F4CF81E080935E020895209172
:100380003607309137072115310549F090E0880F85
:10039000991F820F931FFC0180819181089590E045
:1003A00080E008952091D807213099F49C012458C9
:1003B000334028323105C8F0813823E09207A9F094
:1003C0009C012C5F334081E02530310578F080E0DE
:1003D0000895223021F49C012C5A3340EACF233077
:1003E00059F79C01245D3340E4CF81E00895FC017E
:1003F000538D448D252F30E0842F90E0821B930B8A
:10040000541710F0CF96089501970895FC01918D2F
:10041000828D981761F0A28DAE0FBF2FB11D5D9632
:100420008C91928D9F5F9F73928F90E008958FEFD4
:100430009FEF0895FC01918D828D981731F0828D88
:10044000E80FF11D858D90E008958FEF9FEF0895DF
:10045000FC01918D228D892F90E0805C9F4F821B43
:1004600091098F7399270895FC01A48DA80FB92FC6
:10047000B11DA35ABF4F2C91848D90E001968F73CC
:100480009927848FA689B7892C93A089B1898C91EB
:1004900080648C93938D848D981306C00288F389B1
:1004A000E02D80818F7D80830895EF92FF920F93DE
:1004B0001F93CF93DF93EC0181E0888F9B8D8C8D10
:1004C000981316C0E889F989808185FF11C0EE89EB
:1004D000FF896083E889F98980818064808381E075
:1004E00090E0DF91CF911F910F91FF90EF900895D1
:1004F000F62E0B8D10E00F5F1F4F0F731127E02EAC
:100500008C8D8E110CC00FB607FCFACFE889F989E3
:10051000808185FFF5CFCE010E943402F1CFEB8DB3
:10052000EC0FFD2FF11DE35AFF4FF0820B8FEA898C
:10053000FB8980818062D2CFCF93DF93EC01888DDD
:100540008823B9F0AA89BB89E889F9898C9185FD4E
:1005500003C0808186FD0DC00FB607FCF7CF8C91DC
:1005600085FFF2CF808185FFEDCFCE010E9434025E
:10057000E9CFDF91CF91089587E992E00E942802A8
:1005800021E0892B09F420E0822F089580E090E09B
:10059000892B29F00E94BC0281110E94000080E09A
:1005A00090E0892B49F080E090E0892B29F00E94AF
:1005B000000081110C9400000895E0911002F09168
:1005C0001102309729F010921A0210921902099420
:1005D0000895CF93DF93AC01E0910E02F0910F02EA
:1005E0003097F1F090911C0280911B029817C0F097
:1005F00090E0292F30E02617370754F4D901A2588C
:10060000BE4F240F351FE90128812C939F5FF1CF46
:1006100010921C0260931B02CB01DF91CF910994D1
:10062000DF91CF910895DC011296ED91FC91139723
:1006300011969C911197808161110EC0909598231D
:1006400090831496ED91FC911597908111968C9161
:100650008095892380830895623061F49095982372
:1006600090831496ED91FC911597808111969C9141
:10067000892BF0CF982B90830895AF92BF92CF92A1
:10068000DF92EF92FF920F931F93CF93DF936C0152
:100690007B018B01040F151FEB015E01AE18BF0833
:1006A000C017D10759F06991D601ED91FC910190E5
:1006B000F081E02DC6010995892B79F7C501DF91FD
:1006C000CF911F910F91FF90EF90DF90CF90BF904F
:1006D000AF90089581508C3088F5E82FF0E0ED5808
:1006E000FC4F0C9479259B039B039E037F0383039C
:1006F000860389039E039E038D03930397038FB59F
:100700008F778FBD08958FB58F7DFBCF8FB5877F96
:10071000F8CF85B58F7D85BD089580918B008F774B
:1007200080938B00089580918B008F7DF9CF80910D
:100730008B00877FF5CF83B78F7D83BF08951F938D
:10074000CF93DF93282F30E0F901ED55FD4F8491D1
:10075000F901E259FD4FD491F901E75CFD4FC491D5
:10076000CC23A9F0162F81110E946A03EC2FF0E030
:10077000EE0FFF1FE753FE4FA591B4918FB7F8948A
:10078000EC91111108C0D095DE23DC938FBFDF916F
:10079000CF911F910895DE2BF8CFCF93DF9390E098
:1007A000FC01E259FD4F2491875C9D4FFC0184912F
:1007B0008823D1F090E0880F991FFC01E754FE4F89
:1007C000A591B491FC01E753FE4FC591D4916111FD
:1007D0000EC09FB7F8948C91E22FE0958E238C93F6
:1007E0002881E223E8839FBFDF91CF9108958FB7DF
:1007F000F894EC91E22BEC938FBFF6CF3FB7F894CF
:1008000080910A0290910B02A0910C02B0910D020E
:1008100022B706B600FE05C02F3F19F00196A11DB4
:10082000B11D3FBFBA2FA92F982F8827BC01CD013A
:10083000620F711D811D911D42E0660F771F881F99
:10084000991F4A95D1F708958F929F92AF92BF92C8
:10085000CF92DF92EF92FF924B015C010E94FE0368
:100860006B017C010E94FE036C197D098E099F09B2
:10087000683E734081059105A8F321E0821A910832
:10088000A108B10888EEC80E83E0D81EE11CF11C57
:1008900081149104A104B10429F7FF90EF90DF9037
:1008A000CF90BF90AF909F908F90089561E08BE0C4
:1008B0000E949F0364E070E080E090E00E942404C6
:1008C00060E08BE00C949F030C9456042FB7F894CF
:1008D00060910602709107028091080290910902CE
:1008E0002FBF0895E82FF0E0DF01AA0FBB1FA05033
:1008F000BF4F11967C936E938830A8F4EE57FB4F50
:100900000C9479258A049404A104AF04BD04C404A2
:10091000CF04DB0480916A008C7F482B40936A00EF
:1009200089B7816089BF089580916A00837F440FF1
:10093000551F440F551F482B40936A0089B78260AA
:10094000F1CF80916A008F7C74E0440F551F7A9537
:10095000E1F7482B40936A0089B78460E3CF809128
:100960006A008F7366E0440F551F6A95E1F7482BC4
:1009700040936A0089B78860D5CF8AB78C7F482BAF
:100980004ABF89B78061CECF8AB7837F440F551F96
:10099000440F551F482B4ABF89B78062C3CF8AB71F
:1009A0008F7C24E0440F551F2A95E1F7482B4ABF5E
:1009B00089B78064B7CF8AB78F7396E0440F551F0D
:1009C0009A95E1F7482B4ABF89B78068ABCF88304A
:1009D00010F40C94720408950E94FE0320917C018F
:1009E00030917D01FB01E21BF30B20917E023091DF
:1009F0007F02E217F30708F438C12091800230919A
:100A0000810270937D0160937C014091820250913C
:100A100083024130510599F148F04230510509F403
:100A2000B9C04330510509F4EFC00895E217F30748
:100A300008F0D4C0809185028F5F809385028B304F
:100A400008F413C181E090E09093830280938202C6
:100A500041E050E06CEE74E0809178020E94E7047F
:100A600010927B0182E590E0909381028093800256
:100A700083E290E090937F0280937E0208954091FC
:100A80007B014130A9F038F0433009F449C04430CB
:100A900009F47CC00895E217F30730F491E09093D5
:100AA0007B01E0937A01089584E080937B010895AF
:100AB000E217F30798F510927B01909185029F5FF2
:100AC000909385028E2FEE0F990B20917A01821B55
:100AD000910927FD939597FF03C091958195910901
:100AE00049970CF4C2C0109283021092820282E9EC
:100AF00090E0909381028093800282E590E0909351
:100B00007F0280937E02109285024091660250E03F
:100B10006CEE74E0809178020C94E70483E0C5CF1A
:100B2000E217F30700F380916602833061F582E0FB
:100B30008093660282E090E0909383028093820229
:100B400082E990E0909381028093800282E590E0B8
:100B500090937F0280937E02109287021092890206
:100B600010928A0210928B0210928C0210928D02C7
:100B700010928E02809185028093880210928502E5
:100B800010928602C2CF40936602D4CFE217F307D9
:100B900088F6A9CF509185025F5F509385024091FE
:100BA0008602440FE217F307E0F0409386025830C4
:100BB00009F05BC0E0918702E630A9F4109283024D
:100BC0001092820282E990E09093810280938002E9
:100BD00082E590E090937F0280937E0210928502DE
:100BE00008954160E2CF83E090E090938302809388
:100BF000820281E08E0F80938702F0E0EE57FD4F76
:100C00008091860287830895E217F307F8F4109223
:100C10008302109282021092850282E990E0909302
:100C200081028093800282E590E090937F0280931E
:100C30007E0288E0E7E8F2E0AFE8B2E001900D92D2
:100C40008A95E1F781E0809384020895809187027C
:100C5000863009F4B3CF82E090E0909383028093D2
:100C600082021092850210928602089585ED80938B
:100C700074008091740084FDFCCF109218020895D6
:100C80002091BE01260F3327331F21323105ECF4AA
:100C900020911802FC0190E080E0243069F082E0AD
:100CA0000895A091BE012191AC0142565E4FA40F60
:100CB000B52FB11D2C930196861798F38091BE0134
:100CC000680F6093BE0180E0089581E00895089563
:100CD000E0911C0280911B02E81730F4F0E0E2582A
:100CE000FE4F808190E008958FEF9FEF08959091DF
:100CF0001C0280911B022FEF3FEF981748F4E92F59
:100D0000F0E0E258FE4F208130E09F5F90931C029C
:100D1000C901089580911B0290911C02891B990BB7
:100D20000895CF93DF93CB01EA01642F0E94400620
:100D3000CE01DF91CF91089544E050E066E771E085
:100D400084E393E00C949106CF93DF931F92CDB789
:100D5000DEB7698361E0CE0101960E94400681E022
:100D600090E00F90DF91CF91089590E080E008959A
:100D7000CF93DF93DC01EC91F0E0EE0FFF1FE75D16
:100D8000FD4FC591D491988111968C91982381E063
:100D900009F480E0DF91CF910895CF93DF93EC01C8
:100DA0008A819B810E94B806E9892889EC0FFD2F72
:100DB000F11D8823D1F081E090E0A0E0B0E004C014
:100DC000880F991FAA1FBB1F2A95D2F72485822B53
:100DD000848788898F5F888B0E94FE036887798764
:100DE0008A879B87DF91CF91089581E090E0A0E012
:100DF000B0E004C0880F991FAA1FBB1F2A95D2F725
:100E0000809594858923E4CF0F931F93CF93DF932D
:100E1000C0911D02D0911E028A8981114EC00E948C
:100E200066040C811D812E813F81601B710B820B3A
:100E3000930B6A3071058105910578F0188A198A3B
:100E40000E9466046C837D838E839F83CE01DF9135
:100E5000CF911F910F910C94CD060E94FE0308853F
:100E600019852A853B85601B710B820B930B6531BD
:100E700071058105910508F10E94FE030885198519
:100E80002A853B85601B710B820B930B643F71407D
:100E90008105910590F4CE010E94CD0688898830A5
:100EA00061F40E9466046C837D838E839F83188A1D
:100EB0008989811107C081E0898BDF91CF911F91D2
:100EC0000F910895813081F48C858E3611F08E3526
:100ED00011F482E0F1CF982F977F9737D1F38B37BA
:100EE000C1F381E08A8BE9CF8230D9F78C858E36C9
:100EF00011F08E35B1F783E0DFCF80E090E0892BF1
:100F000029F080917D0283FD0C9400000895E82F64
:100F1000F0E0E15EFD4F608308950F931F93CF9340
:100F2000DF93FC018281813089F040F0823009F446
:100F30007AC0DF91CF911F910F91089561E0808178
:100F4000DF91CF911F910F910C949F030181C02FCE
:100F5000D0E0108161E0812F0E94CD03209719F429
:100F600060E0812FEDCFCF3FD10511F461E0F9CFE3
:100F7000E12FF0E0ED55FD4FE491E150EC3008F049
:100F80004DC0F0E0EA53F84F0C947925D207D20710
:100F90000E08D707DD07E307EB070E080E08F0077A
:100FA000FA07040883B7806283BF01BFC2CF8FB541
:100FB00080688FBDDBBDCABDBCCF8FB580628FBDE1
:100FC000D9BDC8BDB6CF8FB588608FBDD09379002D
:100FD000C0937800AECF85B5806285BD03BDA9CF33
:100FE00080918B00806880938B00D0938700C093A2
:100FF00086009FCF80918B00806280938B00D0937E
:101000008500C093840095CF80918B008860809389
:101010008B00D0938300C09382008BCFC038D10562
:101020000CF0A4CF9DCF8181E381F0E0E15EFD4F24
:1010300080837FCF0F931F93CF93DF93D62F8C01A5
:10104000C0E0CD1741F0F801819191918F010E948C
:101050008D07CF5FF6CFDF91CF911F910F9108954C
:101060000F931F93CF93DF93162F082FEC0184E388
:1010700093E00E94770689938C2F801B8117B8F329
:10108000812FDF91CF911F910F9108958F929F92A1
:10109000AF92BF92CF92DF92EF92FF920F931F9386
:1010A000CF930E94FE03AB01BC018091420390915B
:1010B0004303A0914403B09145038A019B01081B9F
:1010C000190B2A0B3B0B80914A03882309F47FC03C
:1010D00080914C0390914B03E92FEE0FFF0BA82F4B
:1010E000082E000CBB0BC3E68C02E00DF11D112491
:1010F000E05CFC4F178B068B053F11402105310545
:1011000008F054C09F5F90934B0390914B03933230
:10111000C9F593E69A9F90019B9F300D1124205CA6
:101120003C4FF901E45AFF4FC0904603D09047036B
:10113000E0904803F09049034A015B018C189D0838
:10114000AE08BF0875016401C082D182E282F382D9
:1011500029593F4FE1E0F0E0D901ED93FC938F5F17
:101160008A3094F580934C03E0914C03B3E6EB0294
:10117000F0011124E955FC4F1182108210924A03AC
:1011800010924B03409342035093430360934403F4
:1011900070934503CF911F910F91FF90EF90DF90D7
:1011A000CF90BF90AF909F908F90089510924B0377
:1011B00091E090934A034093460350934703609312
:1011C000480370934903A1CF10924C03CDCF053F44
:1011D000114021053105B0F281E080934A0340932C
:1011E0004603509347036093480370934903CACF63
:1011F000E82FF0E0E15EFD4F60830895CF93DF9329
:10120000C8EDD7E061E08A819B810E941303AA8127
:10121000BB811496ED91FC911597908111968C915C
:1012200080958923808361E070E080E090E00E94F7
:101230002404AA81BB811496ED91FC9115978081BD
:1012400011969C91892B808360E08A819B81DF913C
:10125000CF910C941303CF93FC018281813051F024
:1012600020F0823079F0CF91089560E08081CF91B5
:101270000C949F03C08161E08C2F0E94CD0360E03D
:101280008C2FF5CFE381F0E0E15EFD4F1082EBCFD4
:1012900080935F02882321F087EC97E00C948D0700
:1012A00087EC97E00C942B09CF93C82F80916902AB
:1012B0008C1731F081E0C11101C080E00E94480923
:1012C000C093690260E070E0CB01C1110E94660426
:1012D00060936A0270936B0280936C0290936D022C
:1012E000809169028C1739F081E0C11101C080E062
:1012F000CF910C944809CF910895EF92FF920F93EC
:101300001F93CF93DF938C01FC01C581D681209779
:1013100051F0E480F12CEF1431F0899199910E9401
:101320002B09F394F8CFF801C085D185209751F0AF
:10133000078110E0011731F0899199910E942B09E2
:101340001F5FF8CFDF91CF911F910F91FF90EF902A
:1013500008950F931F93CF938C01C42F0E949B017C
:101360008823E1F180912E07482F50E0C03128F505
:10137000882319F12C2F30E080913B0790913C0796
:101380000C2E02C0969587950A94E2F780FF15C04F
:101390000417150719F580913607909137070097C4
:1013A000E9F0220F331F820F931FFC01808191818E
:1013B000CF911F910F910C947D090417150771F0BF
:1013C0008091360790913707009741F04C2F50E0FD
:1013D000440F551F480F591FFA01E8CFCF911F91B5
:1013E0000F910895CF938091390790913A07892BF7
:1013F000A1F1C0E080913507C81778F58C2F86954C
:101400008695869590E0E0913907F0913A07E80FCC
:10141000F91F208130E04C2F50E063E0880F991FC6
:101420006A95E1F7BA01681B790B02C035952795DB
:101430006A95E2F720FF0FC0809136079091370739
:10144000009749F0440F551F840F951FFC018081C0
:1014500091810E947D09CF5FCDCF10923807CF9147
:1014600008950F931F93CF93DF93EC018B81882313
:1014700079F08B0189819A818617970729F0CE012F
:101480000E947D091A83098389819A81019731F429
:101490008D819E81009769F06C8105C08885998552
:1014A000009739F06F81DF91CF911F910F910C94CC
:1014B0001A08DF91CF911F910F9108950F931F93F9
:1014C000CF938C01C42F0E949B01882309F444C050
:1014D00080912E07482F50E0C03148F5882339F11C
:1014E0002C2F30E080913B0790913C070C2E02C0DE
:1014F000969587950A94E2F780FF19C0041715079F
:1015000059F58091360790913707009729F160913E
:10151000320770913307220F331F820F931FFC0194
:1015200080819181CF911F910F910C94310A041702
:10153000150791F08091360790913707009761F079
:1015400060913007709131074C2F50E0440F551FC8
:10155000480F591FFA01E4CFCF911F910F910895C1
:10156000CF93C0E080913507C81798F48091360773
:1015700090913707009759F02C2F30E0220F331F3E
:10158000820F931FFC01808191810E947D09CF5FB2
:10159000E9CF8091390790913A07892BC1F1C0E0DA
:1015A00080913507C81798F58C2F86958695869576
:1015B00090E0E0913907F0913A07E80FF91F208198
:1015C00030E04C2F50E063E0880F991F6A95E1F7F7
:1015D000BA01681B790B02C0359527956A95E2F729
:1015E00020FF13C08091360790913707009769F06C
:1015F0006091300770913107440F551F840F951F7C
:10160000FC01808191810E94310ACF5FC9CF81E0C6
:1016100080933807CF910895CF92DF92EF92FF9297
:101620000F931F93CF93DF93EC017B014130510562
:10163000F9F4CD80DE802496C114D104E9F462E08F
:1016400070E081E090E00E9496258C01009731F0D7
:10165000FC01F182E08288818F5F8883C801DF917D
:10166000CF911F910F91FF90EF90DF90CF90089551
:10167000C884D9842796E0CF88818F5F8883C82F5C
:10168000D0E062E070E0CE010E9496258C0120E05F
:10169000BE0161507109822F90E08617970774F49C
:1016A000880F991FF601E80FF91F40815181800FC3
:1016B000911FFC01518340832F5FEDCFC150D04873
:1016C000CC0FDD1FC00FD11FF982E882C6010E9436
:1016D0004E26C4CF0E945409E7E6F2E081E08783FA
:1016E0001086E0E7F2E088E0DF011D928A95E9F7D5
:1016F00008950C945025CF93863823E0920719F172
:1017000030F481389340D1F08FEFCF91089587382E
:1017100023E09207D9F088389340B1F786E893E048
:101720000E94790BC82F87E893E00E94790B90E024
:101730002FEFC29F800D911D112402C081E893E01C
:10174000CF910C94790B86E893E0FACF87E893E089
:10175000F7CFCF93C82F8FE290E00E94790B8111D1
:1017600009C085E190E0CC2311F086E190E0CF91B3
:101770000C94790B80E0CF910895CF93C82F8FE21E
:1017800090E00E94790B811106C08C2F90E0CA96E0
:10179000CF910C94790B80E0CF910895DF92EF9276
:1017A000FF920F931F93CF93DF938C017B01D42E75
:1017B000E9010E949B018111D09234078DE190E0F4
:1017C0000E94790BD82EB701C8010E949B01882383
:1017D000B1F080912E078017110629F5809132070C
:1017E00090913307C817D90751F080912F078823AC
:1017F000A9F0219761F41092330710923207DF911C
:10180000CF911F910F91FF90EF90DF90089581E0AD
:1018100090E09093330780933207F1CFD093330752
:10182000C0933207ECCF8091300790913107C817F1
:10183000D90729F3D0FE0EC0219729F41092310761
:1018400010923007DCCF81E090E0909331078093D5
:101850003007D5CFD0933107C0933007D0CF0F9347
:101860001F93CF93C82F81E090E00E94790B0FE780
:1018700010E021E030E04C2F70E060E090E00E944A
:10188000CE0BCF911F910F9108950F931F93CF937C
:101890006130710529F4CF911F910F910C942F0C99
:1018A000C82F81E090E00E94790B0FE710E030E054
:1018B00020E04C2F70E060E090E00E94CE0BCF91D2
:1018C0001F910F9108951F93CF93DF93EC018091A7
:1018D0005F02882359F08FE090E00E94790B182F67
:1018E00080E190E00E94790B181306C0CE01DF91D1
:1018F000CF911F910C94790B87EC97E00E942B09F4
:101900000FB6F894A89581B5886181BD11BC0FBE52
:10191000FFCF0C94630CCF93DF9320917A02309128
:101920007B022F3F320721F0C901DF91CF9108954B
:1019300080917D0287FF2BC086FF0FC089E090E079
:101940000E94890CC82F81E090E00E94890C9C2F96
:1019500090937B0280937A0215C089E090E00E9408
:10196000890CC82F81E090E00E94890C90E4C99F07
:1019700090011124207C31708F73282B30937B02CF
:1019800020937A0280917A0290917B02CECF85FFDC
:101990000CC081E190E00E94890CC82F82E190E0A8
:1019A0000E94890CC05CDD0BD2CF81E090E00E94E8
:1019B000890C90E0CDCFFF920F931F93CF93DF93CD
:1019C000EC018B01F22E4330510509F47EC068F41E
:1019D00041305105E9F04230510509F458C0DF911A
:1019E000CF911F910F91FF9008954530510509F453
:1019F000D4C008F488C04630510589F740E024FF80
:101A00002CC0DF91CF911F910F91FF900C945E0A33
:101A10008091540281112BC040E0B801CE01F4FE48
:101A200023C00E945E0A41E0B801CE01F0FE26C04C
:101A30000E945E0A42E0B801CE01F1FE22C00E947F
:101A40005E0A43E0B801CE01F2FE1EC00E945E0AAB
:101A500044E0B801CE01F3FCD4CFDF91CF911F91C8
:101A60000F91FF900C94A9090E94A909DCCF8DE188
:101A700090E00E94890C81FDCFCFD5CF0E94A909AB
:101A8000D9CF0E94A909DDCF0E94A909E1CF45E085
:101A900020FF12C00E945E0A46E0B801CE01F1FEAE
:101AA0000EC00E945E0A47E0B801CE01F2FE0AC0F5
:101AB0000E945E0A48E0CDCF0E94A909EDCF0E94A6
:101AC000A909F1CF0E94A909F5CF49E020FF12C072
:101AD0000E945E0A4AE0B801CE01F1FE0EC00E94EB
:101AE0005E0A4BE0B801CE01F2FE0AC00E945E0A17
:101AF0004CE0AFCF0E94A909EDCF0E94A909F1CF18
:101B00000E94A909F5CF4DE020FF32C00E945E0A75
:101B10004EE0B801CE01F1FE2EC00E945E0A4FE0F9
:101B2000B801CE01F2FE2AC00E945E0A40E1B8016F
:101B3000CE01F3FE26C00E945E0A41E1B801CE014B
:101B4000F4FE22C00E945E0A42E1B801CE01F5FE19
:101B50001EC00E945E0A43E1B801CE01F6FE1AC023
:101B60000E945E0A44E1B801CE01F7FE76CF49CF6C
:101B70000E94A909CDCF0E94A909D1CF0E94A9092D
:101B8000D5CF0E94A909D9CF0E94A909DDCF0E9413
:101B9000A909E1CF0E94A909E5CF45E120FF2EC0A8
:101BA0000E945E0A46E1B801CE01F1FE2AC00E9401
:101BB0005E0A47E1B801CE01F2FE26C00E945E0A2D
:101BC00048E1B801CE01F3FE22C00E945E0A49E15D
:101BD000B801CE01F4FE1EC00E945E0A4AE1B801BF
:101BE000CE01F5FE1AC00E945E0A4BE1B801CE019B
:101BF000F6FE16C00E945E0A4CE1B5CF0E94A9090C
:101C0000D1CF0E94A909D5CF0E94A909D9CF0E949E
:101C1000A909DDCF0E94A909E1CF0E94A909E5CF5A
:101C20000E94A909E9CFCF93C82F81E090E00E94DC
:101C3000790B2C2F42E050E070E060E090E00E94D1
:101C4000DB0C81E090E00E94790B2C2F30E094E0D7
:101C5000359527959A95E1F743E050E070E060E014
:101C600090E0CF910C94DB0CCF938230910511F171
:101C7000C62F8330910520F4019779F0CF91089514
:101C800083309105D9F00497C9F781E090E00E9474
:101C9000790B2C2F45E050E007C081E090E00E94D6
:101CA000790B2C2F41E050E070E060E090E0CF91A4
:101CB0000C94DB0C862FCF910C94130E81E090E0F6
:101CC0000E94790B2C2F44E050E0EECF1F93CF936E
:101CD000DF93EC01162F0E945025181721F0612F79
:101CE000CE010E945825CE01DF91CF911F910C9417
:101CF000790BCF93DF93863823E0920739F138F4DC
:101D000081389340E9F08FEFDF91CF9108958738C4
:101D100023E09207F1F088389340A9F7C62F86E8B0
:101D200093E00E94790BD82F87E893E00E94790B0B
:101D300090E06C2F2FEFD29F800D911D112402C0D7
:101D400081E893E0DF91CF910C94660E86E893E0F2
:101D5000F9CF87E893E0F6CF0F931F93CF93DF93EC
:101D60000FB6F894A89581B5886181BD11BC0FBEEE
:101D70000FB7F894D0E0C0E0FE01E457FF4F149194
:101D8000CE010E945025181721F0612FCE010E942C
:101D900058252196CD3281E0D80771F781E893E08C
:101DA0000E945025813029F061E081E893E00E9493
:101DB0005825CCE1D1E01FEF89919991FC01118365
:101DC0000E948D07F1E0C235DF07B1F70FBF88E150
:101DD0009BE00FB6F894A89581BD0FBE91BDDF9131
:101DE000CF911F910F9108951F93CF93DF93EC0133
:101DF000162F089779F4662319F10E94AC0E80E043
:101E000090E0892BB9F0612FCE01DF91CF911F9126
:101E10000C94000080E090E0892BA9F781E0C115C7
:101E200090E1D90708F080E0111105C0DF91CF9152
:101E30001F91089581E027972297C0F780E0F6CFA1
:101E400080E090E0892BF9F681E0F0CF0F931F93AB
:101E5000CF93DF9320915F02222329F08F309105E9
:101E600041F48FE090E0DF91CF911F910F910C949E
:101E7000660E162FEC018FE090E00E94790B082F80
:101E800080E190E00E94790B08130CC0C730D105A7
:101E900029F0C830D10519F4183029F0FFCF612F8F
:101EA000CE01E1CFFFCF0E94AC0E88E0DF91CF9151
:101EB0001F910F9108958331910588F48131910527
:101EC00030F48130910519F08930910531F42FEF0C
:101ED0003FEF30937B0220937A020C94260F8D31D2
:101EE0009105D9F7677F60937D02209167022F7378
:101EF000362F307C232B20936702E9CF1F93CF939B
:101F0000DF93182FE2E8F2E085E1DF011D928A9568
:101F1000E9F782E990E0909381028093800282E564
:101F200090E090937F0280937E02C7E6D2E06883C0
:101F300019828FEF9FEF9C8B8B8B1D8A83E08093A0
:101F4000660243E050E06CEE74E089890E94E70489
:101F50008DE190E00E94890C682F6F738DE190E015
:101F60000E945B0F8E8B612F87E090E00E945B0FD9
:101F70006DE088E090E00E945B0F80E0DF91CF9100
:101F80001F910C946A0B89B78F7789BF8AE991E01A
:101F900090930F0180930E0161E08AE00E947E0F12
:101FA000109265021092640208950F931F930E948D
:101FB000FE03009160021091610220916202309153
:101FC0006302601B710B820B930B613F794482406B
:101FD000910508F456C080915F0281110BC0809179
:101FE00064029091650281309105B1F188F0029709
:101FF00009F444C00E94FE03609360027093610282
:10200000809362029093630281E01F910F91089583
:1020100080E390E00E94630C80FF0EC041E050E03E
:1020200066E478E087E00E94720481E090E090939B
:10203000650280936402DECF8DE190E00E94630C24
:1020400082FFD8CF41E050E06BEB71E087E00E9467
:10205000720482E090E0EBCF89B78F7789BF8AE97D
:1020600091E090930F0180930E018DE190E00E942A
:10207000630C82FDE7CF0E94C30FBCCF10925E02BB
:10208000FACF80E0C2CFBF92CF92DF92EF92FF9261
:102090000F931F93CF93DF938B01B42E690182FFBF
:1020A00023C083FF17C061E0C8010E94F40E88239B
:1020B000D9F16B2DC8010E945B0F8B1135C0F60161
:1020C000DF91CF911F910F91FF90EF90DF90CF9014
:1020D000BF90099460E0C8010E94F40E882321F1AA
:1020E000C8010E94890CE9CF842F8770C1E0D0E03D
:1020F0007E0101C0EE0C8A95EAF7D42FD870CB018F
:102100000E94890CC82FB4FE1CC061E0C8010E9467
:10211000F40E882349F0DD2389F0CE296C2FC80105
:102120000E945B0F8C1759F2DF91CF911F910F9195
:10213000FF90EF90DF90CF90BF900895E094CE2174
:10214000EDCF60E0C8010E94F40E882369F3CE2130
:10215000DD2319F0C111B3CFE7CFCC2309F4AFCF02
:10216000E3CFCF92DF92EF92FF920F931F93CF9323
:10217000DF937C016B01C42F122FD42FD07E80916E
:10218000670287FF2CC0D03EC1F58091680288238A
:10219000A1F190E00E94890CD82F8091680290E014
:1021A00001960E94890C982F8D2FE816F90629F5C3
:1021B0006C2F70E0762F662766277370612B6F5F38
:1021C0007F4F2DE737E0402F8C2FDF91CF911F916C
:1021D0000F91FF90EF90DF90CF900C94431080FD13
:1021E00032C0D03609F464C088F4D03209F447C054
:1021F000D03409F45DC0DD2379F1DF91CF911F91D7
:102200000F91FF90EF90DF90CF900895D03A09F4AE
:1022100083C090F42C2F2F7141E050E0D03869F743
:10222000B601C701DF91CF911F910F91FF90EF9001
:10223000DF90CF900C94DB0CD03C09F476C0D03EFC
:1022400009F4B6CFDACF0E948B0C8E159F0549F2A8
:10225000E114F10431F2D1CF8C2F8E7071F680E051
:1022600090E0892B51F28C2F8170DF91CF911F91DB
:102270000F91FF90EF90DF90CF900C940000CF7102
:10228000CF3109F0BACF412F4F7771F0413071F063
:10229000111F1127111F212F30E00FE710E0B601A9
:1022A000C7010E94CE0BA9CF41E0F2CF40E0F0CFB2
:1022B0002C2F30E08C2F8F71813029F030F080315D
:1022C00021F08131F9F440E001C041E025FB2227F3
:1022D00020F90DE110E030E0B601C7010E94CE0BFD
:1022E00080E090E0892B09F488CF4C2FB601C7011C
:1022F000DF91CF911F910F91FF90EF90DF90CF90E2
:102300000C940000C901880F991F8E71C4FB4427EB
:1023100040F9482B4250DACF2C2F2F7043E050E089
:10232000C4FF7ECF42E050E07BCFCF71CE3139F099
:10233000CF3109F062CF212F45E050E071CF212F3E
:1023400044E050E06DCF0F931F93CF93DF93CDB751
:10235000DEB729970FB6F894DEBF0FBECDBF1816B3
:1023600019069CF584E393E00E9477069927823052
:102370009105D9F08330910599F1019759F464E002
:1023800086E791E00E943008809179018823B9F1B5
:102390008130F1F190911B0280911C029817A9F0F5
:1023A00084E393E00E947706F5CF69E0CE010196C1
:1023B0000E943008088519852E813F816B817C81C0
:1023C0004D8189819A810E94CE0B29960FB6F8948F
:1023D000DEBF0FBECDBFDF91CF911F910F9108954A
:1023E00067E0CE0101960E9430084D815E816B81CD
:1023F0007C812F8189819A810E94DB0CE6CF8091BC
:102400007701909178010E94630C80937601C2CF8E
:102410006091760180917701909178010E94260F5A
:10242000F4CF1F920F920FB60F9211240BB60F929A
:102430002F933F934F935F936F937F938F939F93CC
:10244000AF93BF93EF93FF9387E992E00E9434022A
:10245000FF91EF91BF91AF919F918F917F916F917C
:102460005F914F913F912F910F900BBE0F900FBE38
:102470000F901F9018951F920F920FB60F92112474
:102480000BB60F922F938F939F93EF93FF93E0914F
:10249000A702F091A8028081E091AD02F091AE0216
:1024A00082FD1DC090818091B0028F5F8F7320915B
:1024B000B102821741F0E091B002F0E0E956FD4F21
:1024C000958F8093B002FF91EF919F918F912F9103
:1024D0000F900BBE0F900FBE0F901F90189580812C
:1024E000F2CF1F920F920FB60F9211242F933F93AA
:1024F0008F939F93AF93BF938091060290910702B1
:10250000A0910802B09109023091050223E0230F47
:102510002D3768F126E8230F0296A11DB11D2093E7
:1025200005028093060290930702A0930802B093DD
:10253000090280910A0290910B02A0910C02B091C5
:102540000D020196A11DB11D80930A0290930B020A
:10255000A0930C02B0930D02BF91AF919F918F9108
:102560003F912F910F900FBE0F901F9018950196DD
:10257000A11DB11DD4CF1F920F920FB60F9211243F
:102580000BB60F922F933F934F935F936F937F936D
:102590008F939F93AF93BF93EF93FF93E0910E01BF
:1025A000F0910F010995FF91EF91BF91AF919F912C
:1025B0008F917F916F915F914F913F912F910F90EC
:1025C0000BBE0F900FBE0F901F9018951F920F9289
:1025D0000FB60F9211240BB60F922F933F934F9388
:1025E0005F936F937F938F939F93AF93BF93EF937B
:1025F000FF93E0910C01F0910D010995FF91EF918E
:10260000BF91AF919F918F917F916F915F914F910A
:102610003F912F910F900BBE0F900FBE0F901F9008
:1026200018951F920F920FB60F9211240BB60F92AE
:102630002F933F934F935F936F937F938F939F93CA
:10264000AF93BF93EF93FF93E0910A01F0910B01D9
:102650000995FF91EF91BF91AF919F918F917F91DC
:102660006F915F914F913F912F910F900BBE0F9003
:102670000FBE0F901F9018951F920F920FB60F92DA
:1026800011240BB60F922F933F934F935F936F9349
:102690007F938F939F93AF93BF93EF93FF93E091BB
:1026A0000801F09109010995FF91EF91BF91AF9158
:1026B0009F918F917F916F915F914F913F912F915A
:1026C0000F900BBE0F900FBE0F901F9018951F928A
:1026D0000F920FB60F9211240BB60F922F933F93C8
:1026E0004F935F936F937F938F939F93AF93BF931A
:1026F000EF93FF93E0910601F09107010995FF9197
:10270000EF91BF91AF919F918F917F916F915F9169
:102710004F913F912F910F900BBE0F900FBE0F90D6
:102720001F9018951F920F920FB60F9211240BB69F
:102730000F922F933F934F935F936F937F938F935A
:102740009F93AF93BF93EF93FF93E0910401F091B8
:1027500005010995FF91EF91BF91AF919F918F91E5
:102760007F916F915F914F913F912F910F900BBE91
:102770000F900FBE0F901F9018951F920F920FB6DB
:102780000F9211240BB60F922F933F934F935F93A9
:102790006F937F938F939F93AF93BF93EF93FF9329
:1027A000E0910201F09103010995FF91EF91BF9132
:1027B000AF919F918F917F916F915F914F913F91D9
:1027C0002F910F900BBE0F900FBE0F901F9018957A
:1027D0001F920F920FB60F9211240BB60F922F93E8
:1027E0003F934F935F936F937F938F939F93AF9399
:1027F000BF93EF93FF93E0910001F09101010995E0
:10280000FF91EF91BF91AF919F918F917F916F91C8
:102810005F914F913F912F910F900BBE0F900FBE84
:102820000F901F9018951F920F920FB60F921124C0
:102830000BB60F922F933F934F935F936F937F93BA
:102840008F939F93AF93BF93EF93FF93809171000A
:10285000887F803609F44DC008F040C0883209F402
:10286000A9C028F5803109F49DC0C8F4882309F473
:10287000FBC0883009F496C0FF91EF91BF91AF91F2
:102880009F918F917F916F915F914F913F912F9188
:102890000F900BBE0F900FBE0F901F9018958831B0
:1028A00009F488C0803241F78093E10114C080347C
:1028B00009F49DC040F48033B9F38833E9F680937E
:1028C000E10185ECB0C0803509F485C0883509F494
:1028D00096C0883489F60E943606CECF883909F42E
:1028E0008CC038F5883729F050F4883611F08037DD
:1028F00019F683E0809318021092E00157C08838DF
:1029000009F47BC0803919F0803809F0B5CF809187
:10291000E001803208F071C0E091E00181E08E0FAB
:102920008093E00180917300F0E0E054FE4F8083DB
:102930003DC0803B39F0E0F4803A09F479C0883A30
:1029400009F09ACF84E0809318021092BF01109290
:10295000BE01E0911402F091150209958091BE012B
:1029600081110FC081E08093BE0110929E0109C0C9
:10297000803C09F4A6CF883C09F4A3CF883B09F03A
:102980007BCFE091BF0181E08E0F8093BF01F0E02B
:10299000E256FE4F8081809373009091BF01809139
:1029A000BE0129C0809104028093730085EC80935E
:1029B000740062CF9091030280910202981758F53B
:1029C000E091030281E08E0F80930302F0E0EE516C
:1029D000FE4F8081E9CFE091030281E08E0F80936A
:1029E000030280917300F0E0EE51FE4F80839091DE
:1029F0000302809102029817C8F285E8D8CFE091CF
:102A0000030281E08E0F8093030280917300F0E057
:102A1000EE51FE4F80838091170281115CCF81E0DF
:102A20008093160284EA809374001092180224CFD7
:102A300085EC80937400109218028091E00180323E
:102A400030F4E091E001F0E0E054FE4F108260913C
:102A5000E00170E0E0911202F091130280EC91E04D
:102A600009951092E00108CF1092E10134CF1F9236
:102A70000F920FB60F9211248F939F9378948091A9
:102A80003A0290913902891708F0CFC09091620004
:102A900091609093620090913802891708F0C9C044
:102AA000AD9A90913702891708F0C5C0969A909117
:102AB0003602891708F0C1C0979A9091350289179C
:102AC00008F0BDC090916500916090936500909171
:102AD0003402891708F0B7C0909165009260909316
:102AE000650090913302891708F0B1C0A89A9091BF
:102AF0003202891708F0ADC01B9A909131028917F4
:102B000008F0A9C090916200946090936200909147
:102B10003002891708F0A3C0C79A90912F02891735
:102B200008F09FC0C59A90912E02891708F09BC0AB
:102B3000C49A90912D02891708F097C0C69A909177
:102B40002C02891708F093C0DB9A90912B02891709
:102B500008F08FC0DC9A90912A02891708F08BC088
:102B6000DD9A90912902891708F087C0DE9A90912A
:102B70002802891708F083C0DF9A909127028917ED
:102B800008F07FC01C9A90912602891708F07BC03C
:102B90001D9A90912502891708F077C090916200E4
:102BA00092609093620090912402891708F071C09E
:102BB000C09A90912302891708F06DC0909162002D
:102BC00090689093620090912202891708F067C084
:102BD0009091620090649093620090912102891715
:102BE00008F061C0909162009062909362009091B1
:102BF0002002891708F05BC0909162009061909369
:102C0000620090911F02891708F055C090916200F0
:102C10009860909362008F5F80933A029F918F91AA
:102C20000F900FBE0F901F901895909162009E7F9D
:102C300030CFAD9836CF96983ACF97983ECF9091B7
:102C400065009E7F42CF909165009D7F48CFA898F8
:102C50004ECF1B9852CF909162009B7F56CFC79862
:102C60005CCFC59860CFC49864CFC69868CFDB9816
:102C70006CCFDC9870CFDD9874CFDE9878CFDF987A
:102C80007CCF1C9880CF1D9884CF909162009D7F4F
:102C900088CFC0988ECF909162009F7792CF90910D
:102CA00062009F7B98CF909162009F7D9ECF909114
:102CB00062009F7EA4CF90916200977FAACFDC0133
:102CC00070E0FB01E259FD4FE4911196EC931197EE
:102CD000675C7D4FFB0124912C9330E0220F331F62
:102CE000F901E754FE4F8591949113969C938E932E
:102CF0001297F901E753FE4F8591949115969C9395
:102D00008E9314970895CF93DF93EC0161E088814F
:102D10000E94CD0360E08881DF91CF910C949F03E6
:102D2000EF92FF920F931F93CF93DF9310929A022B
:102D30001092990288EE93E0A0E0B0E080939B02AD
:102D400090939C02A0939D02B0939E0226E531E0F1
:102D5000309398022093970220E930E03093A40248
:102D60002093A30229E230E03093A6022093A5022B
:102D70002BE230E03093A8022093A7022AE230E051
:102D80003093AA022093A90225E930E03093AC02E7
:102D90002093AB022CE230E03093AE022093AD02E0
:102DA0001092B0021092B1021092B2021092B302CD
:102DB00010923703109236038093380390933903AF
:102DC000A0933A03B0933B0388E691E090933503D8
:102DD0008093340386E08093D90786E090E00E94D8
:102DE000B225EC0166E10E945F16D093DB07C09329
:102DF000DA07109242031092430310924403109298
:102E00004503109246031092470310924803109214
:102E1000490310924A0310924B0310924C0387E02F
:102E200090E0909341038093400383E190E00E94FF
:102E3000790BC82F82E190E00E94790BD82F81E1B5
:102E400090E00E94790B182F81E090E00E94790BAE
:102E500021E030E03093310720933007309333077F
:102E600020933207109234071092380710923A07D5
:102E70001092390780932B07212F205C330BC90157
:102E80002D2F382FC90190932D0780932C07CF77D2
:102E9000C0932E0710922F078DE18093350762E0D3
:102EA00070E08DE190E00E94962590933707809323
:102EB00036070097C9F0EC0110E0EE24E394F12C02
:102EC0008AE090E00E94B225FC01F282E182138246
:102ED00014821682158217821186108610838993B8
:102EE00099931F5F1D3161F767E08CEC97E00E94BA
:102EF0005F1663E282ED97E00E945F1680E38093A5
:102F0000C707C2E0C093C9071092CA07DFEFD0938A
:102F1000C8071092CB0787EC97E00E94831681E3E5
:102F20008093C207C093C40781E08093C507D09304
:102F3000C3071092C60782EC97E00E94831682E3D3
:102F40008093BD07C093BF07C093C007D093BE074F
:102F50001092C1078DEB97E00E94831683E3809364
:102F6000B807C093BA0713E01093BB07D093B90713
:102F70001092BC0788EB97E00E94831684E380934D
:102F8000B307C093B50784E0F82EF092B607D0934C
:102F9000B4071092B70783EB97E00E94831608E00E
:102FA0000093AE07C093B00795E0E92EE092B10719
:102FB000D093AF071092B2078EEA97E00E94831673
:102FC0008EE28093A907C093AB0786E08093AC079D
:102FD000D093AA071092AD0789EA97E00E94831662
:102FE000E092A407C093A60787E08093A707D09339
:102FF000A5071092A80784EA97E00E948316F09232
:103000009F07C093A1070093A207D093A007109237
:10301000A3078FE997E00E94831685E280939A07C1
:10302000C0939C0789E080939D07D0939B071092E3
:103030009E078AE997E00E94831686E280939507AF
:10304000C09397078AE080939807D09396071092D1
:10305000990785E997E00E94831687E2809390079D
:10306000C09392078BE080939307D09391071092BF
:10307000940780E997E00E94831688E280938B078B
:10308000C0938D070CE000938E07D0938C071092AD
:103090008F078BE897E00E94831689E2809386076A
:1030A000C09388072DE0F22EF0928907D09387070E
:1030B00010928A0786E897E00E9483168EE080933C
:1030C0008107C093830780938407D093820710926F
:1030D000850781E897E00E94831600937C07C093E0
:1030E0007E070FE000937F07D0937D071092800743
:1030F0008CE797E00E948316F0927707C0937907D8
:1031000080E180937A07D093780710927B0787E756
:1031100097E00E94831600937207C093740781E1C1
:1031200080937507D09373071092760782E797E034
:103130000E9483168FE280936D07C0936F0782E130
:1031400080937007D0936E07109271078DE697E019
:103150000E94831610936807C0936A0783E18093E7
:103160006B07D093690710926C0788E697E00E947E
:1031700083168CE180936307C093650784E1809395
:103180006607D09364071092670783E697E00E9472
:1031900083168BE180935E07C093600785E180937F
:1031A0006107D0935F07109262078EE597E00E9457
:1031B00083161AE110935907C0935B0786E1809349
:1031C0005C07D0935A0710925D0789E597E00E944B
:1031D000831609E100935407C093560787E1809353
:1031E0005707D09355071092580784E597E00E943F
:1031F000831688E180934F07C0935107809352074D
:10320000D0935007109253078FE497E00E948316E3
:1032100081E280934A07C0934C0700934D07D093F7
:103220004B0710924E078AE497E00E9483168DE2C6
:1032300080934507C093470710934807D0934607EC
:103240001092490785E497E0DF91CF911F910F918C
:10325000FF90EF900C948316CF93DF93CDB7DEB73A
:1032600062970FB6F894DEBF0FBECDBF789483B7D8
:103270008C6483BF87B7816087BF82E08EBD8EB5C7
:1032800081608EBD8FB581608FBD85B5846085BD41
:1032900085B5806485BD80918A00836080938A00B3
:1032A00080918B00816080938B0087E886B91AB883
:1032B0000FB6F894A89581B5886181BD11BC0FBE89
:1032C0002FB7F89490E080E0FC01E15EFD4F1082A2
:1032D00001968B319105C1F7809162008E7F8093BA
:1032E0006200AD9896989798809165008E7F809344
:1032F0006500809165008D7F80936500A8981B987C
:10330000809162008B7F80936200C798C598C498B3
:10331000C698DB98DC98DD98DE98DF981C981D989D
:10332000809162008D7F80936200C09880916200DE
:103330008F7780936200809162008F7B8093620020
:10334000809162008F7D80936200809162008F7E09
:103350008093620080916200877F809362002FBF1C
:103360009FB7F89480916100816080936100A59A75
:103370008E9A8F9A8091640081608093640080911E
:103380006400826080936400A09A139A8091610027
:10339000846080936100BF9ABD9ABC9ABE9AD39A0A
:1033A000D49AD59AD69AD79A149A159A8091610090
:1033B000826080936100B89A8091610080688093F8
:1033C0006100809161008064809361008091610060
:1033D00080628093610080916100806180936100D0
:1033E000809161008860809361009FBF1FBC89E06D
:1033F0008EBD8CE093E09BBD8ABD87B7806187BF9F
:1034000010923A0261E08BE00E94CD0360E08CEC08
:1034100097E00E941303E091D407F091D5079081C3
:103420008091D307809589238083E091D607F0911E
:10343000D70780819091D307892B8083D12CC12C11
:10344000BB24B394F601E752FE4FE4910E2F10E037
:10345000C8010E94790BF82EC80101960E94790BD1
:10346000E82EC80102960E94790BA82EC801039687
:103470000E94790B90913507F91638F5F601E45E54
:10348000FE4F00811181D8011196AC9211971496CC
:103490008C938F2DE11032C10E94BF014C0141E09D
:1034A00050E0B8010E940C0BF401968385838F2DA8
:1034B0000E94BF017C0150E040E0B8010E940C0B6B
:1034C000D70119969C938E931897A895F2E0CF0E8A
:1034D000D11C26E3C216D10409F0B4CF61E070E03C
:1034E00084E090E00E94962590933A0780933907F4
:1034F000892B91F010E000E0E0903907F0903A0756
:10350000E00EF11E802F0E94BD0BD7018C930F5F40
:103510001F4F0430110581F780E00E94A90B082F8E
:1035200010E081E00E94A90B282F30E0322F2227E3
:1035300022273E7F000F111F202B312B30933C0799
:1035400020933B0780FF05C0216030933C07209308
:103550003B0783EA91E190930F0280930E028CE97E
:1035600096E0909311028093100210921C02109228
:103570001B0210921A02109219021092180281E096
:10358000809317021092160261E083E10E949F036C
:1035900061E082E10E949F03809171008E7F8093A1
:1035A0007100809171008D7F8093710088E4809319
:1035B000700085E4809374008DED92E09093150285
:1035C0008093140289EE92E090931302809312028A
:1035D00082E0809372008CE08093700060E08AE06B
:1035E0000E94CD03EDEAF2E08491E8E7F2E0049175
:1035F000E3E4F2E01491111199C081E080935D023F
:1036000080915D028111BCC081E090E00E94790B45
:1036100021E030E030934A022093490280934B022C
:1036200081E190E00E94790B21E130E030934D027E
:1036300020934C0280934E0282E190E00E94790B2D
:1036400022E130E03093500220934F0280935102E8
:103650008DE190E00E94630C81FD78C08DE190E0E7
:1036600090935302809352021092540287E0809309
:1036700078028093790260E00E94CD0361E087E0E8
:103680000E949F0360E088E00E947E0F88E19BE03B
:103690000FB6F894A89581BD0FBE91BDB2E04B2E38
:1036A000512C80915D02882309F495C38091EA072B
:1036B000882309F4B8C08091E407803409F4C1C1BB
:1036C00008F0D9C0893209F42DC208F0B0C08432A4
:1036D00009F405C208F099C0813209F4D2C18332DD
:1036E00009F4D9C1811199C080E090E0892B09F4D7
:1036F00094C08091E5070E9400008FC00E94BF0126
:10370000FC01B382F0E8EF1609F4D1CEB1E8EB1278
:10371000DCCE8F2D0E94BF017C0141E050E0B8015A
:103720000E940C0BF70196838583CFCE81110E94F6
:103730006A03E12FF0E0EE0FFF1FE75DFD4FA5915B
:10374000B491EC91E02309F458CF5ACF8DE190E089
:103750000E94630C85FD0DC08091160190911701A8
:10376000A09118018093520290935302A0935402A7
:103770007DCF8091190190911A01A0911B01F2CF88
:1037800081E893E00E94790B8093D80781508330C1
:1037900018F081E08093D80788ED97E090931E029F
:1037A00080931D0260E08091D9070E94CD0360E004
:1037B0008091DA079091DB070E9413031092E807CB
:1037C0001092E9071092EA071092E0071092E107C1
:1037D0001092E2071092E3071092DC071092DD07C7
:1037E0001092DE071092DF078091D9079CEF980FA7
:1037F000943020F08251843008F08FEF42E050E0A6
:1038000064E077E00E94E70441CF863209F455C1B5
:1038100008F453C0883209F479C11092E807109275
:10382000E9071092EA07A8950E94C6023ACF8D32A6
:1038300009F496C170F48B3209F488C108F47CC194
:1038400080E090E0892B49F36091E50785E090E006
:1038500066C18F3209F498C108F48CC1803309F431
:103860009DC18133D1F680E090E0892BB1F2609167
:10387000E50782E09BC1813609F49FC038F58035A9
:1038800009F42DC188F4823409F4F1C008F4E5C0CC
:10389000833419F680E090E0892B09F4BECF609163
:1038A000E50784E090E0D6C08E3509F482C1803609
:1038B00009F47CC0813509F0B0CF9091E50780E82C
:1038C000890F97FF1EC10E942F0CA7CF8D3609F4D8
:1038D00083C090F4833609F47AC008F473C08C3640
:1038E00009F09BCF80E090E0892B09F496CF80917E
:1038F000E5070E94000091CF873709F46BC1D8F427
:103900008E3609F08ACF8091E6078F3609F085CF91
:1039100080E090E0892B09F480CF2091E507622FA9
:10392000661F6627661F8091E707B0E88B9FC0017E
:103930001124822B83C08B3709F487C18F3709F09C
:103940006CCF0091E50710E00F5F1C4F10933C0215
:1039500000933B02C8010E94D201882309F45DCF85
:103960000538B3E01B0709F458CF0D3AE3E01E0712
:1039700009F453CF053DF3E01F0709F44ECF043897
:1039800023E0120749F00C3A33E0130729F0043D15
:1039900043E0140709F006C28091E607883009F079
:1039A00001C20E94AC0E0E94FE0806C26091E507AB
:1039B00081E090E00E94340E30CF8091E5070E94B4
:1039C000130E2BCF6091E50783E090E0F3CF609179
:1039D000E50784E090E0EECF6091E507862F8F77D2
:1039E0008093E50720E030E0232B09F416CF661F13
:1039F0006627661F811121C081E080934402611116
:103A00000EC08091440287FD08CF60E090E00E94E4
:103A10000000809144028F5F80934402F2CF809136
:103A2000440287FDFACE61E090E00E9400008091A0
:103A300044028F5F80934402F2CF90E00E94000026
:103A4000ECCE80E090E0892B09F4E7CE6091E507A9
:103A500081E090E00E940000E0CE80E090E0892BC1
:103A600009F4DBCE6091E50782E090E0F3CF80E0DF
:103A700090E0892B09F4D1CE6091E50783E090E0D6
:103A8000E9CF80E090E0892B09F4C7CE8091E5076B
:103A90000E940000C2CE80E090E0892B09F4BDCEE8
:103AA0008091E50790E087FF05C0819590E09195B2
:103AB000819591090E940000B0CE80E090E0892BB2
:103AC00009F4ABCE8091E50790E087FF05C08195B2
:103AD00090E09195819591090E9400009ECE80E032
:103AE00090E0892B09F499CE9091E50780E8890F41
:103AF00070E060E097FF02C061E070E00E940000AB
:103B00008CCE70E060E00E94450C87CE80E090E0B3
:103B1000892B09F482CE6091E50781E090E00E9454
:103B200000007BCE80E090E0892B09F476CE609196
:103B3000E50782E090E0F3CF80E090E0892B09F484
:103B40006CCE6091E50783E090E0E9CF80E090E003
:103B5000892B09F462CE6091E50784E090E0DFCF25
:103B600080E090E0892B09F458CE6091E50786E06B
:103B700090E0D5CF80E090E0892B09F44ECE6091A3
:103B8000E50787E090E0CBCF80E090E0892B09F457
:103B900044CE6091E50788E090E0C1CF80E090E0FE
:103BA000892B09F43ACE6091E50781E00E9400007C
:103BB00034CE8091E6078F3509F02FCE80E090E07B
:103BC000892B09F42ACE9091E7078091E5070E949E
:103BD000000023CE0091E50710E00F5F1C4FC801E5
:103BE0000E94D201882309F418CE8091D8070138A9
:103BF000E3E01E07D9F00438F3E01F07B1F0053801
:103C000023E0120781F00C3A33E0130771F00D3A0C
:103C100043E0140741F0043D53E0150731F0053D42
:103C200083E0180771F48AE001C08DE080934302BD
:103C30009091E607809143029813EFCD0E94FE0811
:103C4000ECCDC8010E947B0BF1CFE090E5070E2D73
:103C500010E00F5F1C4F1093420200934102C80115
:103C60000E94D201882309F4D8CDB090E6078B2DAD
:103C700090E09C0174E0359527957A95E1F7A22FA5
:103C8000A170DA2EA09340029C01E3E035952795C0
:103C9000EA95E1F7B22FB170CB2EB0933F029C01B1
:103CA000359527952170F22EFF0C95958795959562
:103CB00087958170880F880F8F0D9B2D9170F82E3E
:103CC000F90EF0923E020138E3E01E07B1F4809154
:103CD000D80780933D02F1E0DF1689F180913D0223
:103CE00090E002C095958795FA94E2F78170992744
:103CF000C816190609F091CDA1CF043823E01207A8
:103D000041F00C3A33E0130721F0043D43E014077F
:103D100091F58DE080933D02A1E0DA12DFCFC8017A
:103D200084589340029708F478CD85E58E0D823053
:103D300008F473CD8DE28E0D823008F46ECD81E0F3
:103D400090E0A0E0B0E004C0880F991FAA1FBB1F3D
:103D5000FA94D2F720913D02B3FE1FC0822B8093CC
:103D60003D0260913D02C8010E94790E90913D0292
:103D7000891353CD63CF053853E0150741F00D3A51
:103D800083E0180721F0053D93E0190711F48AE05C
:103D9000C1CFC8010E947B0BBDCF482F4095822F19
:103DA0008423DDCF6091E607C8010E94790E9091CF
:103DB000E607891709F4F7CD80913B0290913C0208
:103DC0008138934009F029CD81E893E00E94790B76
:103DD0008093D80722CD8091550281110DC00E9499
:103DE000FE0360936002709361028093620290937D
:103DF000630281E080935502809164029091650294
:103E00008130910509F4B1C260F1029709F00BCD40
:103E100080913807811102C00E94B00A80915E0231
:103E2000882309F4D2C582ED97E00E94B80681117B
:103E30007FC08091300790913107019709F0BEC58E
:103E4000109231071092300780913807811102C01B
:103E50000E94B00A82ED97E00E94B8068823D1F351
:103E600067C0809169028823B1F00E9466040091C6
:103E70006A0210916B0220916C0230916D02601BFE
:103E8000710B820B930B653171058105910518F05B
:103E900080E00E946A0B80918402882309F448C064
:103EA000F89488E0EFE8F2E0ADE3B7E001900D921E
:103EB0008A95E1F710928402789430918F02E1E9BB
:103EC000F2E090E080E0391721F0219182279F5F96
:103ED000FACF81112DC080E090E0892B21F08DE395
:103EE00097E00E94000080913F07811128C09091C7
:103EF0004007911124C080E090E0892B19F080E008
:103F00000E940000809169028823A9F081E00E944C
:103F100054098091380781110E94F2090E94FE0322
:103F200060936002709361028093620290936302D7
:103F30000E94D50F78CC81E00E946A0BEACF909165
:103F40006902992309F486C08057803108F07FC048
:103F500081E00E94540910913D078091700218136E
:103F60000AC0412F50E062E772E08FE397E00E94C1
:103F7000D726892B61F010926F0288E0EDE3F7E01D
:103F8000A0E7B2E001900D928A95E1F7C2CF80914F
:103F90006F028F5F80936F02133009F040C09091E1
:103FA0003F07892F8770F0904007853029F4F09201
:103FB0006E020E945604ADCF0DE110E0843091F006
:103FC000282F30E08430F0F400916E020023D1F00D
:103FD0000150110B000F111F000F111F020F131FB3
:103FE0000F5F1F4F93FF10C061E0C8010E94F40EE5
:103FF000882309F48ECF6F2DC8010E945B0FF81241
:1040000088CFD7CF8901ECCF60E0C8010E94F40EC1
:10401000882309F47ECFC8010E94890CF0CF1430A8
:1040200009F077CF80913F07682F70E0762F6627E1
:104030006627737090914007692B6F5F7F4F24E66E
:1040400034E0409141078C700E94431062CF80E0C1
:104050000E946A0BE0913F07EF3F61F480914007B7
:10406000811157CF80E090E0892B09F452CF0E9454
:1040700000004FCFE7FD0DC000914207209141079E
:104080004091400770E060E08E2F90E00E94B110F8
:1040900040CFE03C08F058C13091670237FF39CF7C
:1040A00020914007822F90E08C0100951095000F21
:1040B000111F000F111F007C1170EF730E2B9595CF
:1040C0008795A82FA370BA2E80913D07853041F5C2
:1040D0002C782C3029F50E948B0C8017910721F049
:1040E0000F3F114009F015CF8091400790E0982FC5
:1040F00088278827937020914107820F911D8C019A
:104100000F5F1F4FF090420761E0C8010E94F40E5C
:104110006F2D882309F4FDCEC8010E945B0FF9CEF4
:104120006801E1E0CE1AD108CC0CDD1CCC0CDD1C02
:10413000CB287601FFEFEF1AFF0A80917C028823DB
:10414000F9F036FF41C0C70160E071E00E946525CB
:10415000682F81E090E00E945B0FC701F7FE02C06C
:1041600081509F4F692F89E090E00E945B0F80E0B3
:1041700090E0892B19F0C7010E94000010927C0288
:104180008091670280FD39C080913D07843009F03D
:104190004FC0809140078978813009F0BACE609194
:1041A000410780E090E0892B19F0C7010E940000D0
:1041B00080E090E0892B09F4ACCE409141076B2D53
:1041C000C7010E940000A5CEB8016F73772781E078
:1041D00090E00E945B0FB801E6E075956795EA955F
:1041E000E1F789E090E00E945B0F80E090E0892B8E
:1041F00029F2C8010E940000C1CF86FF0DC00E94B5
:104200008B0C8E159F0509F4BFCF2DEFE21627E02A
:10421000F2060CF0B9CF7DCE0E948B0C801791076F
:1042200009F4B2CF0F3F31E0130709F4ADCF71CEDF
:10423000833069F540914007542F5170C52E43FBE0
:10424000DD24D0F880E090E0892B31F047702D2DEF
:10425000B801C7010E9400008091670286FF0BC071
:1042600080E090E0892B09F454CE4D2D6C2DC701D0
:104270000E9400004ECE80E090E0892B09F449CEE8
:104280002D2D4C2D6B2DC8010E94000042CE863092
:1042900009F03FCE80914007982F9978913021F016
:1042A0008F78803809F035CE8091670286FF28C06C
:1042B0000E948B0C8E159F05E9F48091410790E0D8
:1042C000382F22272227337000914207020F132F25
:1042D000111D0F5F1F4FF09043079595879595959A
:1042E0008795837099278230910599F0039709F497
:1042F0000BCF0FCE8DEFE81687E0F806F4F609CE67
:104300000E948B0C80179107C1F20F3F1140A9F258
:1043100000CEF4FEFECD61E0C8010E94F40E8823B9
:1043200009F4F7CDC8010E94890C9F2D977061E0B8
:1043300070E001C0660F9A95EAF7F3FE02C0682BA1
:10434000EBCE60956823E8CEE83E08F0E2CDE05C75
:10435000FF0B809140070091430720914207409155
:10436000410761E070E09E2F91CE0CE913E09AE0E6
:10437000E92EF12CDD24D39423E6C22E33E0B32EB4
:1043800042E0A42E5BE1352ED8011B968D919C91C5
:10439000019709F03FC1F801E654F109808191814C
:1043A000329660807180680E791EF801118A128A37
:1043B000168212861586168617861782108A138A29
:1043C0001186158214829301359527954801FCE5E5
:1043D0008F1A9108F40161E070E086899789A72F10
:1043E000A69541E050E04C0F5D1F4A0F511DDA01C8
:1043F00041E0281739070CF040E04C93713248F443
:10440000408D518D840F951F8E579109C19708F4E7
:1044100060E07E5F3496743201F7FE013196CE9CE7
:104420009001CF9C300D11244EE157E0421B530BFD
:1044300090E080E0708171118FC071817111A6C010
:10444000D401A80FB91F1D961C920196329689308F
:10445000910581F7F80180819181A281B381855115
:104460009540A109B10983359B40A105B10508F02C
:104470006EC1662309F46BC181E046E964167104DC
:104480000CF080E0D80151968C93F801EC54F109BE
:10449000908131978081B9E08B9F802D1124939D6D
:1044A000800D112432979081890F31964081942F8D
:1044B000990F940F890FF8018683EB54F10946E9AF
:1044C000641671040CF42EC181E09081913009F0E2
:1044D00080E0D8011D968C938989880F9F85890F6C
:1044E000880F9D85890F880F9B85890F91E009F0C2
:1044F00090E0F801968791E0813009F090E0D801D2
:104500001F969C9381118150F801878382898823AB
:1045100009F456C08C85880F9E85890F880F98896D
:10452000890F880F9A89890FEEEFE80FEE3008F0B7
:1045300047C0F0E0E256FD4D0C947925D322D322FA
:10454000DB22DB227E237E23E022E02283238323DF
:10455000872387238C238C237130C1F42180A1E031
:104560002A1206C0DA01A80FB91F1D962C926DCF32
:1045700021100CC0D401A80FB91F1D96AC92853034
:1045800008F463CFD80152967C935FCF853048F012
:10459000DA01A80FB91F1D96BC92D8015296DC9281
:1045A00054CF60E057CFD8011996AC92199781701B
:1045B00053968C9305C041E050E0F8015583448345
:1045C00089E090E0FAE0EF16F10411F08E199F09EE
:1045D000D8011C965C924E921B97C89EB001C99E52
:1045E000700D1124FB01E955FC4F808191810297E8
:1045F00089F4635B7C4F49E050E08BE297E0821BDB
:10460000930B0E94D726892B29F423E030E0F80190
:1046100034872387F1E0EF1AF1080D591F4FE11499
:10462000F10409F0B1CEE7EAF3E090E080E0208108
:1046300031812330310509F092C023E6289F8001A3
:10464000299F100D1124F801E955FC4F84E090E0FA
:1046500091838083035B1C4F0115110509F468CC1D
:10466000680125E5C20ED11CD601EC91E0904B0209
:10467000F0E0F12CCF018E199F098130910509F4EA
:10468000D8C00CF074C0892B09F043CC809148024B
:10469000D801A45ABF4F9C91992309F48EC0806120
:1046A0008093480290914802D801A85ABF4F8C913C
:1046B000823009F49DC008F082C0813009F48CC0BA
:1046C0002091480241E050E070E060E0CF010E949C
:1046D000DB0CF801ED5AFF4F80819181813091050B
:1046E00009F09CC033960DE110E021E030E04081FC
:1046F00070E060E0C7010E94CE0B0BCCD801199688
:10470000BC92199754CFF8015582448259CFD801F1
:104710001996DC9219974BCF44E0F80141878170DC
:10472000838B4ECF8081811112C08F85880F9D852C
:10473000890F880F9B85890FD8011A968C9381E089
:104740009989913009F080E0F801808B39CFE5E05C
:10475000F0E0D8011C96FC93EE931B975BCF01967B
:10476000ED59FF4F8A30910509F061CFE1CB8230DE
:10477000910509F4AAC0039709F0CBCB80E390E040
:104780000E94630C83FFC5CB80914502F801E85A73
:10479000FF4F9081923009F4FBC008F0E0C09130E7
:1047A00009F4EAC0F60180812091450244E050E01E
:1047B00070E060E08350990B57C08F7E71CF8330DB
:1047C00009F1843009F07CCFD801AE59BF4F8C91EC
:1047D000882311F1986007C0D801AE59BF4F8C9162
:1047E000882321F09160909348026ACF9E7FFBCF8F
:1047F000D801AE59BF4F8C91882311F09260F3CF4E
:104800009D7FF1CFD801AE59BF4F8C91882311F015
:104810009460E9CF9B7FE7CF977FE5CF029709F0C0
:1048200078CBF801EA5AFF4F0DE110E030E020E0CC
:104830005ECF80E390E00E94630C81FF6ACB8091A1
:104840004702F801E85AFF4F9081923041F178F425
:104850009130C9F0F60180812091470242E050E09A
:1048600070E060E08150990B0E94DB0C52CB9330DA
:1048700001F1943079F7F801EE59FF4F90819923B7
:1048800011F1886007C0F801EE59FF4F908199231C
:1048900021F0816080934702DDCF8E7FFBCFF8014E
:1048A000EE59FF4F9081992311F08260F3CF8D7FF5
:1048B000F1CFF801EE59FF4F9081992311F08460F8
:1048C000E9CF8B7FE7CF877FE5CF80E390E00E9441
:1048D000630C82FF1ECB80914602F801E85AFF4F1D
:1048E0009081923031F168F49130B9F0D6018C9119
:1048F0002091460243E050E070E060E08250990B66
:10490000B3CF933001F1943089F7F801EE59FF4F9E
:104910009081992311F1886007C0F801EE59FF4F8B
:104920009081992321F0816080934602DFCF8E7FB2
:10493000FBCFF801EE59FF4F9081992311F082606F
:10494000F3CF8D7FF1CFF801EE59FF4F908199237E
:1049500011F08460E9CF8B7FE7CF877FE5CF93307D
:1049600009F1943009F01ECFF801EE59FF4F908104
:10497000992311F1886007C0F801EE59FF4F90812B
:10498000992321F08160809345020CCF8E7FFBCF6D
:10499000F801EE59FF4F9081992311F08260F3CF17
:1049A0008D7FF1CFF801EE59FF4F9081992311F0DF
:1049B0008460E9CF8B7FE7CF877FE5CF81E090E010
:1049C00090933107809330073FCA8CEC97E00E94A8
:1049D000B806811107C081E090E090933107809381
:1049E0003007A6CA1092310710923007A1CACF93A0
:1049F000DF9360E082ED97E00E94130360E08CECAF
:104A000097E00E9413038091D9079CEF980F943090
:104A100098F18251843080F160E08091D9070E9442
:104A2000CD03C091DA07D091DB072097B1F160E0A8
:104A3000CE010E941303CE01DF91CF910C944E263C
:104A400099B79E7F99BFE82FF0E0EE0FFF1FE0506F
:104A5000FF4F8AE991E091838083DECF9D7FF2CF83
:104A60009B7FF0CF977FEECF9F7EECCF9F7DEACFED
:104A70009F7BE8CF9F77E6CFEFEFE80FE73000F7B7
:104A8000F0E0EA5BFA4D99B70C9479252E25302594
:104A900032253425362538253A25DF91CF910895E2
:104AA000E199FECF9FBB8EBBE09A99278DB3089505
:104AB000262FE199FECF9FBB8EBB2DBB0FB6F8947E
:104AC000E29AE19A0FBE0196089597FB072E16F41D
:104AD000009407D077FD09D00E94822507FC05D0FD
:104AE0003EF4909581959F4F0895709561957F4F05
:104AF0000895EE0FFF1F0024001C0BBE0790F691D7
:104B0000E02D0994AA1BBB1B51E107C0AA1FBB1FC4
:104B1000A617B70710F0A61BB70B881F991F5A9549
:104B2000A9F780959095BC01CD0108950F931F932F
:104B3000CF93DF93869F8001879F100D969F100D66
:104B40001124C8010E94B225EC01009729F0A801A8
:104B500070E060E00E94E426CE01DF91CF911F91CA
:104B60000F9108950F931F93CF93DF938230910598
:104B700010F482E090E0E091ED07F091EE0730E074
:104B800020E0B0E0A0E0309799F42115310509F458
:104B90004AC0281B390B24303105D8F58A819B8106
:104BA0006115710589F1FB0193838283FE0111C0B8
:104BB000408151810281138148175907E0F048175D
:104BC000590799F4109761F012960C931297139667
:104BD0001C933296CF01DF91CF911F910F910895D1
:104BE0000093ED071093EE07F4CF2115310551F036
:104BF0004217530738F0A901DB019A01BD01DF011B
:104C0000F801C1CFEF01F9CF9093EE078093ED0744
:104C1000CDCFFE01E20FF31F819391932250310912
:104C200039832883D7CF2091EB073091EC07232BD2
:104C300041F420911201309113013093EC0720933D
:104C4000EB0720911001309111012115310541F43C
:104C50002DB73EB74091140150911501241B350B1F
:104C6000E091EB07F091EC07E217F307A0F42E1B9D
:104C70003F0B2817390778F0AC014E5F5F4F2417C0
:104C8000350748F04E0F5F1F5093EC074093EB073A
:104C9000819391939FCFF0E0E0E09CCFCF93DF939F
:104CA0000097E9F0FC01329713821282A091ED0780
:104CB000B091EE07ED0130E020E01097A1F42081E3
:104CC0003181820F931F2091EB073091EC07281759
:104CD000390709F061C0F093EC07E093EB07DF912F
:104CE000CF910895EA01CE17DF07E8F54A815B818D
:104CF0009E0141155105B1F7E901FB83EA83499112
:104D00005991C40FD51FEC17FD0761F48081918183
:104D10000296840F951FE90199838883828193818C
:104D20009B838A83F0E0E0E012968D919C9113972B
:104D30000097B9F52D913C911197CD010296820F04
:104D4000931F2091EB073091EC072817390739F6AC
:104D5000309751F51092EE071092ED07B093EC07E3
:104D6000A093EB07BCCFD383C28340815181840FD2
:104D7000951FC817D90761F44E5F5F4F88819981ED
:104D8000480F591F518340838A819B81938382837B
:104D90002115310509F0B0CFF093EE07E093ED0750
:104DA0009ECFFD01DC01C0CF13821282D7CFFB0161
:104DB000DC0104C08D910190801921F441505040D4
:104DC000C8F7881B990B0895DC0101C06D93415011
:104DD0005040E0F7089511E0CDE6D1E004C0FE01B7
:104DE0000E9479252196CE36D107C9F7F894FFCFD6
:104DF0009A01000000000000000000000000000018
:104E00000000EF0780001D00021D0022C707C20737
:104E1000BD07B807B307AE07A907A4079F079A07FE
:104E2000950790078B07860781077C07770772072E
:104E30006D07680763075E07590754074F074A075E
:104E400045070000000055023D03F7019C022802BF
:104E500006021A0200000000A4069106B5066706C5
:064E60008A0677066806D1
:00000001FF
