:100000000C946E010C9405130C94DA120C94AF123C
:100010000C9484120C9459120C942E120C9403120A
:100020000C94D8110C9498010C9498010C9498019C
:100030000C94F1140C9498010C9498010C94980170
:100040000C948E110C9498010C9498010C949801C6
:100050000C9498010C9498010C9498010C949801BC
:100060000C9498010C9498010C9498010C949801AC
:100070000C9498010C9454140C9498010C949801CD
:100080000C9498010C9430130C9498013F030000D9
:100090000000000B0D0000000000000101C0800006
:1000A000000000000000000000060000000000004A
:1000B0000000000000000000000000000000000040
:1000C000000000000000FF0300000000000000002E
:1000D0000000000000000000000000000000000020
:1000E0000000000000000000000000000000000010
:1000F0000000000000000000000000000100AA0055
:100100000200AA000300AA000400AA000500AA0039
:100110000600AA000700AA000800AA000900AA0019
:100120000A0080000B0080000C0080000D008000A1
:100130000E0080000F008000100080001100800081
:10014000120080001300AA001400AA000000AA00F8
:100150000000AA000000AA000000AA000000AA00F7
:100160001580FF001581FF00FF000000FF00000068
:10017000FF000000FF000000FF000000FF00000083
:10018000FF000000FF000000FF000000FF00000073
:10019000FF000000FF000000FF0000000000000062
:1001A000000000000000000000000000000000004F
:1001B00000000000000000000000003A003700349A
:1001C00000310022006100640000003B003800356F
:1001D0000032002300620065000000000A0B0C00E2
:1001E00000000000000104050600000000000000FF
:1001F00000000000000000000000000000000000FF
:10020000000000000000000000000000000070007E
:10021000740078007C008000840088008C009000CE
:10022000940098009C00A000A400A800AC00B000BE
:10023000B400B800BC00C000C400C800CC00D000AE
:10024000D400D800DC00E000E400E800EC00F0009E
:10025000F400F800FC000001040108010C01010297
:10026000040810204080010204081020408008107B
:10027000010204081020408001020102040810203D
:10028000408004804020100804020101020408108C
:10029000204080000039003600330030002100206B
:1002A00000630005050505050505050202020202B9
:1002B00002020207070404040404040404070703F9
:1002C000030303030303030701010101010101010A
:1002D00006060606060606064416842311241FBEDB
:1002E000CFEFD0E1DEBFCDBF11E0A0E0B1E0E0EEA6
:1002F000FAE400E00BBF02C007900D92A836B107E8
:10030000D9F727E0A8E6B1E001C01D92A73AB207ED
:10031000E1F711E0CDE6D1E004C02197FE010E9493
:10032000D723CC36D107C9F70E9492180C946325C5
:100330000C9400002091F9023091FA022115310548
:1003400049F090E0880F991F820F931FFC01808174
:100350009181089590E080E008952091AB0281E0C2
:10036000213208F044C0809187028111FCCF809136
:10037000AA0292E09093870291E0909386029FEF09
:10038000909385021092840220938302AAE8B2E03F
:10039000E3E6F2E090E0291331C0109262029091FE
:1003A0006202880F892B8093620280916102813002
:1003B00049F51092610280916202809373008091EE
:1003C000740083FDF8CF85EC8093740080918702E0
:1003D0008230E1F3809185028F3FB1F080918502F8
:1003E0008032A1F080918502803391F084E01092F8
:1003F00089021092AB021092880208953D913193C8
:100400009F5FC9CF85EEE0CF80E0F1CF82E0EFCFF4
:1004100083E0EDCFE82FF0E0EB5BFD4F60830895C4
:10042000E091FA01F091FB01309729F010928902D6
:100430001092AB0209940895CF93DF93AC01E09141
:10044000F801F091F9013097F1F09091F701809166
:10045000F6019817C0F090E0292F30E026173707F3
:1004600054F4D901AD58BE4F240F351FE90128813E
:100470002C939F5FF1CF1092F7016093F601CB01AF
:10048000DF91CF910994DF91CF91089581508C3005
:1004900088F5E82FF0E0E15BFD4F0C94D72377025D
:1004A00077027A025B025F02620265027A027A02D6
:1004B00069026F0273028FB58F778FBD08958FB574
:1004C0008F7DFBCF8FB5877FF8CF85B58F7D85BDBD
:1004D000089580918B008F7780938B000895809191
:1004E0008B008F7DF9CF80918B00877FF5CF83B70D
:1004F0008F7D83BF08951F93CF93DF93282F30E024
:10050000F901E752FE4F8491F901E25AFD4FD4916F
:10051000F901ED55FD4FC491CC23A9F0162F81119F
:100520000E944602EC2FF0E0EE0FFF1FE753FE4F54
:10053000A591B4918FB7F894EC91111108C0D095A2
:10054000DE23DC938FBFDF91CF911F910895DE2BC7
:10055000F8CFCF93DF9390E0FC01E25AFD4F249156
:100560008D559D4FFC0184918823C9F090E0880F40
:10057000991FFC01E754FE4FA591B491FC01E7538C
:10058000FE4FC591D49161110DC09FB7F8948C9125
:10059000209582238C938881282328839FBFDF9115
:1005A000CF910895623051F49FB7F8943C91822F17
:1005B000809583238C93E8812E2BEFCF8FB7F8940F
:1005C000EC912E2B2C938FBFEACF3FB7F8948091FC
:1005D000EE019091EF01A091F001B091F10122B7ED
:1005E00006B600FE05C02F3F19F00196A11DB11DF2
:1005F0003FBFBA2FA92F982F8827BC01CD01620FCA
:10060000711D811D911D42E0660F771F881F991F84
:100610004A95D1F708958F929F92AF92BF92CF9251
:10062000DF92EF92FF924B015C010E94E5026B01A9
:100630007C010E94E5026C197D098E099F09683EC4
:10064000734081059105A8F321E0821A9108A10861
:10065000B10888EEC80E83E0D81EE11CF11C81149D
:100660009104A104B10429F7FF90EF90DF90CF909F
:10067000BF90AF909F908F90089561E08BE00E94B3
:100680007B0264E070E080E090E00E940B0360E099
:100690008BE00C947B020C943D03E82FF0E0DF012B
:1006A000AA0FBB1FAF5FBE4F11967C936E9388302D
:1006B000A8F4E35AFC4F0C94D72365036F037C0323
:1006C0008A0398039F03AA03B60380916A008C7F74
:1006D000482B40936A0089B7816089BF0895809153
:1006E0006A00837F440F551F440F551F482B4093CA
:1006F0006A0089B78260F1CF80916A008F7C74E0D4
:10070000440F551F7A95E1F7482B40936A0089B74B
:100710008460E3CF80916A008F7366E0440F551FB9
:100720006A95E1F7482B40936A0089B78860D5CF76
:100730008AB78C7F482B4ABF89B78061CECF8AB7F2
:10074000837F440F551F440F551F482B4ABF89B75D
:100750008062C3CF8AB78F7C24E0440F551F2A954F
:10076000E1F7482B4ABF89B78064B7CF8AB78F7348
:1007700096E0440F551F9A95E1F7482B4ABF89B779
:100780008068ABCF883010F40C944D030895FF922D
:100790000F931F93CF93DF930E94E5022091710185
:1007A00030917201EB01C21BD30B2091C802309132
:1007B000C902C217D30708F461C04091CC0250911E
:1007C000CD024130510561F0E091C102F091C202C9
:1007D00020813091C30223233091AC0223134EC0F9
:1007E00070937201609371010091CA021091CB0263
:1007F0004230510509F419C14330510509F454C17F
:100800004130510561F480917001813009F449C093
:10081000D8F1833009F486C0843009F4CFC08091C8
:10082000CC029091CD02019749F1C017D10708F091
:1008300073C180916E018F5F80936E018B30F0F0F9
:1008400081E090E09093CD028093CC0241E050E0B3
:1008500067EC73E08091BF020E94C2031092AC0269
:100860001092700182E590E09093CB028093CA02CF
:1008700083E290E09093C9028093C802DF91CF9108
:100880001F910F91FF900895C017D10730F481E0B8
:1008900080937001C0936F01C2CF84E08093700198
:1008A000BECFC017D107E0F51092700180916E01A4
:1008B0008F5F80936E0120916F018C2F0C2E000CA6
:1008C000990B821B910927FD939597FF03C0919582
:1008D00081959109499794F21092CD021092CC0221
:1008E00082E990E09093CB028093CA0282E590E087
:1008F0009093C9028093C80210926E01F090AD02ED
:100900004F2D50E067EC73E08091BF020E94C2035C
:100910008091C30293E0F91229C08093AC027FCF8B
:1009200083E0BCCFC017D10718F51092CD0210920A
:10093000CC0282E990E09093CB028093CA0282E5D8
:1009400090E09093C9028093C80210926E01F090DB
:10095000AD024F2D50E067EC73E08091BF020E9422
:10096000C2038091C30233E0F316B9F280E0D5CF21
:100970009091AD02933009F482E08093AD0282E061
:1009800090E09093CD028093CC0282E990E0909326
:10099000CB028093CA0282E590E09093C9028093D3
:1009A000C8021092D20280916E018093D3021092FD
:1009B000CF021092D1021092D002C9CFC017D10736
:1009C000A8F41092CD021092CC0282E990E09093AC
:1009D000CB028093CA0282E590E09093C902809393
:1009E000C80210926E011092CF0288CF82E090E090
:1009F0009093CD028093CC0282E990E09093CB0259
:100A00008093CA0282E590E09093C9028093C80265
:100A10001092D20280916E018093D3021092CF0285
:100A20001092D1021092D00269CF9091CF029F5FB5
:100A30009093CF028091D002880FC017D107E0F0C9
:100A40008093D002983009F0F0CEE091D202E630E7
:100A5000A9F41092CD021092CC0282E990E090931A
:100A6000CB028093CA0282E590E09093C902809302
:100A7000C8021092CF02D3CE8160E2CF83E090E033
:100A80009093CD028093CC029091D00281E08E0FA2
:100A90008093D202F0E0E453FD4F90878091D10221
:100AA00089278093D102BBCEC017D10728F51092B9
:100AB000CD021092CC021092CF0282E990E0909386
:100AC000CB028093CA0282E590E09093C9028093A2
:100AD000C8028091D1028111ACCE88E0E2EDF2E053
:100AE000AAEDB2E001900D928A95E1F781E0809342
:100AF000CE0210926E0193CE8091D202863009F41C
:100B0000A8CF82E090E09093CD028093CC02109227
:100B1000CF021092D00283CE10926E01AFCE089514
:100B20008091F6019091F701891B990B0895CF935D
:100B3000DF93DC01EC91F0E0EE0FFF1FED56FD4F6F
:100B4000C591D491988111968C91982381E009F4F4
:100B500080E0DF91CF91089585ED809374008091BE
:100B6000740084FDFCCF1092870208952091B30198
:100B7000260F3327331F21323105ECF420918702F1
:100B8000FC0190E080E0243069F082E00895A091BB
:100B9000B3012191AC014D565E4FA40FB52FB11D8D
:100BA0002C930196861798F38091B301680F609398
:100BB000B30180E0089581E008950895E091F70180
:100BC0008091F601E81730F4F0E0ED58FE4F808197
:100BD00090E008958FEF9FEF08959091F701809135
:100BE000F6012FEF3FEF981748F4E92FF0E0ED58AA
:100BF000FE4F208130E09F5F9093F701C901089577
:100C0000CF92DF92EF92FF920F931F93CF93DF93D8
:100C10007C01CB018A0120918802222389F0EB011B
:100C20006B01C40ED51ECC15DD0569F06991D701A5
:100C3000ED91FC910190F081E02DC7010995F3CF72
:100C4000642F0E94B605C801DF91CF911F910F91CB
:100C5000FF90EF90DF90CF900895CF93DF931F9296
:100C6000CDB7DEB76983209188022223F9F0209165
:100C7000AB02203258F021E030E0FC0133832283C4
:100C800090E080E00F90DF91CF91089580918902EC
:100C9000E82FF0E0E657FD4F998190838F5F8093B6
:100CA00089028093AB0281E090E0ECCF61E0CE015D
:100CB00001960E94B605F7CF1F93CF93DF93CAEE3C
:100CC000D1E01881698182EE92E00E942D06612FA9
:100CD00082EE92E00E942D066A8182EE92E0DF9120
:100CE000CF911F910C942D0690E080E0089580E054
:100CF00090E0892B29F08091C70283FD0C940000BD
:100D000008950F931F93CF93DF93FC01828181306D
:100D100089F040F0823009F47AC0DF91CF911F91C1
:100D20000F91089561E08081DF91CF911F910F9124
:100D30000C947B020181C02FD0E0108161E0812FF3
:100D40000E94A902209719F460E0812FEDCFCF3FD8
:100D5000D10511F461E0F9CFE12FF0E0E752FE4F49
:100D6000E491E150EC3008F04DC0F0E0E654F94F6A
:100D70000C94D723C606C6060207CB06D106D706B3
:100D8000DF0602070207E406EE06F80683B7806274
:100D900083BF01BFC2CF8FB580688FBDDBBDCABD29
:100DA000BCCF8FB580628FBDD9BDC8BDB6CF8FB562
:100DB00088608FBDD0937900C0937800AECF85B5A1
:100DC000806285BD03BDA9CF80918B008068809330
:100DD0008B00D0938700C09386009FCF80918B00BB
:100DE000806280938B00D0938500C093840095CF60
:100DF00080918B00886080938B00D0938300C09398
:100E000082008BCFC038D1050CF0A4CF9DCF81815B
:100E1000E381F0E0EB5BFD4F80837FCF0F931F9367
:100E2000CF93DF93D62F8C01C0E0CD1741F0F801AE
:100E3000819191918F010E948106CF5FF6CFDF9162
:100E4000CF911F910F91089580936B01882351F0EA
:100E50008DE893E00E94810680918A00887F8093CC
:100E60008A0008958DE893E00E9481061092880020
:100E70001092890080918A008460F1CFCF93C82FAF
:100E80008091B0028C1731F081E0C11101C080E087
:100E90000E942407C093B002CC2311F12FB7F8941D
:100EA00080910A0290910B02A0910C02B0910D0268
:100EB0002FBF482F392F2A2F8B2F4093B102309309
:100EC000B2022093B3028093B4028091B0028C17D7
:100ED00061F081E0C11101C080E0CF910C94240742
:100EE00040E030E020E080E0E8CFCF9108958F929D
:100EF0009F92AF92BF92CF92DF92EF92FF920F93A9
:100F00001F93CF930E94E502AB01BC018091940333
:100F100090919503A0919603B09197038A019B014C
:100F2000081B190B2A0B3B0B80919C03882309F4A7
:100F300081C080919E0390919D03A82F082E000CE4
:100F4000BB0BC3E38C02F0011124E90FF11D97FDE7
:100F5000FA95EE0FFF1FE855FC4F11830083053F04
:100F600011402105310508F054C09F5F90939D0307
:100F700090919D039332C9F596E69A9F90019B9FAD
:100F8000300D11242E563C4FF901E45AFF4FC0900A
:100F90009803D0909903E0909A03F0909B034A0144
:100FA0005B018C189D08AE08BF0875016401C08202
:100FB000D182E282F38228593F4FE1E0F0E0D9018B
:100FC000ED93FC938F5F8A3094F580939E03E091BC
:100FD0009E03B6E6EB02F0011124E650FC4F1182AD
:100FE000108210929C0310929D034093940350939F
:100FF00095036093960370939703CF911F910F9180
:10100000FF90EF90DF90CF90BF90AF909F908F9028
:10101000089510929D0391E090939C034093980350
:101020005093990360939A0370939B03A1CF1092FE
:101030009E03CDCF053F114021053105B0F281E07F
:1010400080939C03409398035093990360939A0371
:1010500070939B03CACFCF92DF92EF92FF92CF9310
:10106000DF930E94E5026B017C01809112018130C7
:1010700019F483E080931201E0EEF1E08491E5E65B
:10108000F2E0D491EAEAF2E0C491CC2369F1811153
:101090000E944602EC2FF0E0EE0FFF1FED56FD4FD1
:1010A000A591B491EC918091390290913A02A0916E
:1010B0003B02B0913C02A7019601281B390B4A0B59
:1010C0005B0BDA01C901DE2379F080933D02909336
:1010D0003E02A0933F02B0934002DF91CF91FF9078
:1010E000EF90DF90CF9008958091390290913A026D
:1010F000A0913B02B0913C02A7019601281B390B3D
:101100004A0B5B0BDA01C9018093410290934202C2
:10111000A0934302B0934402C0923902D0923A02A3
:10112000E0923B02F0923C02D8CFFC01A281B38155
:101130008C919181909598239C93A481B5819C91E9
:101140008181809589238C930895FF920F931F933B
:10115000CF93DF93F62E8C01C0E0CF15F9F0D801C4
:10116000ED91FD918D018281813051F020F082302E
:1011700079F0CF5FF2CF60E080810E947B02F9CFEF
:10118000D08161E08D2F0E94A90260E08D2FF5CF04
:10119000E381F0E0EB5BFD4F1082EBCFDF91CF916D
:1011A0001F910F91FF900895CF93DF93EC018D81F4
:1011B0009E81009719F06C810E94A5088885998509
:1011C000009729F06F81DF91CF910C94A508DF91F2
:1011D000CF9108950F931F93CF93DF932091F9023E
:1011E0003091FA022115310571F190E0880F991FB5
:1011F000820F931FFC01C081D1818B81882391F0E4
:101200000091F3021091F40289819A81081719075D
:1012100029F0CE010E94D4081A83098389819A811A
:10122000019731F48D819E81009769F06C8105C032
:1012300088859985009739F06F81DF91CF911F9153
:101240000F910C940E07DF91CF911F910F9108958C
:10125000CF938091FB029091FC02892B29F1C0E091
:101260008091F802C81700F58C2F86958695869593
:1012700090E0E091FB02F091FC02E80FF91F208161
:1012800030E043E0880F991F4A95E1F74C2F481B47
:1012900002C0359527954A95E2F720FF03C08C2FB1
:1012A0000E94EA08CF5FDCCFCF9108952091F3022E
:1012B0003091F4022817390731F09093F4028093AB
:1012C000F3020C94280908956115710521F061302D
:1012D000710581F008955091EE025817190629F012
:1012E0005091F1025817190661F44093F702C901B1
:1012F0000C9456096091EF027091F00286179707DF
:10130000A1F308952091F9023091FA0221153105D7
:1013100051F090E0880F991F820F931FFC0180818C
:1013200091810C94D4080895CF93C62F813079F120
:1013300040F0823009F469C0833009F4A0C0CF9135
:10134000089580E064FF17C00E94EA0881E0C0FFB2
:1013500015C00E94EA0882E0C1FF13C00E94EA089B
:1013600083E0C2FF11C00E94EA0884E0C3FF35C0D9
:10137000CF910C94EA080E948209E8CF0E9482096A
:10138000EACF0E948209ECCF0E948209EECF85E06D
:1013900060FF26C00E94EA0886E0C1FF24C00E94C8
:1013A000EA0887E0C2FF22C00E94EA0888E0C3FF83
:1013B00020C00E94EA0889E0C4FF1EC00E94EA081B
:1013C0008AE0C5FF1CC00E94EA088BE0C6FF1AC075
:1013D0000E94EA088CE0C7FDCBCFCF910C94820924
:1013E0000E948209D9CF0E948209DBCF0E94820924
:1013F000DDCF0E948209DFCF0E948209E1CF0E94E7
:101400008209E3CF0E948209E5CF8DE060FF22C010
:101410000E94EA088EE0C1FF20C00E94EA088FE027
:10142000C2FF1EC00E94EA0880E1C3FF1CC00E94E8
:10143000EA0881E1C4FF1AC00E94EA0882E1C5FF00
:1014400018C00E94EA0883E1C6FF16C00E94EA089D
:1014500084E1C1CF0E948209DDCF0E948209DFCFE3
:101460000E948209E1CF0E948209E3CF0E94820993
:10147000E5CF0E948209E7CF0E948209E9CF85E18A
:1014800060FF22C00E94EA0886E1C1FF20C00E94DE
:10149000EA0887E1C2FF1EC00E94EA0888E1C3FF94
:1014A0001CC00E94EA0889E1C4FF1AC00E94EA0831
:1014B0008AE1C5FF18C00E94EA088BE1C6FF16C08A
:1014C0000E94EA088CE187CF0E948209DDCF0E944A
:1014D0008209DFCF0E948209E1CF0E948209E3CF17
:1014E0000E948209E5CF0E948209E7CF0E9482090B
:1014F000E9CF0E943E07EEEAF2E081E087831086A2
:10150000E7EBF2E088E0DF011D928A95E9F70895A4
:101510000C948C23EF92FF920F931F93CF93DF9342
:10152000E82EF62E81E090E00E94880A90E000917B
:10153000EE0210E0C091F102D0E08017910721F097
:101540008C179D0709F04EC0E092F70281E0F81277
:101550004CC08DE190E00E94880AF82E81E090E076
:101560000E94880A90E00817190721F08C179D0740
:1015700099F4CE018C179D07B1F48091F5029091FA
:10158000F602019749F08091F202882309F448C0DD
:101590001092F6021092F502DF91CF911F910F91F8
:1015A000FF90EF9008958091F3029091F4020197DB
:1015B00099F3F0FE10C01092F4021092F302ECCFF7
:1015C0000C171D0711F18091F3029091F402892B01
:1015D00019F3F0FEF0CF81E090E09093F402809355
:1015E000F302DACF81E0F816B9F28DE190E00E94C3
:1015F000880AF82E81E090E00E94880A90E0801727
:101600009107F1F28C179D0739F68091F5029091C0
:10161000F602892B09F28091F202882309F4B8CFEF
:1016200081E090E09093F6028093F502B5CFCF93DE
:10163000863823E0920719F138F4813823E09207C5
:10164000D9F0CF910C94880A873823E09207D1F023
:10165000883823E09207A9F786E893E00E94880A79
:10166000C82F87E893E00E94880A90E02FEFC29F7E
:10167000800D911D1124E5CF81E893E0E2CF86E84B
:1016800093E0DFCF87E893E0DCCF1F93CF93DF9326
:10169000EC0180916B01882359F08FE090E00E946B
:1016A000880A182F80E190E00E94880A181306C06B
:1016B000CE01DF91CF911F910C94880AFFCF0C943B
:1016C000450BCF93DF932091C4023091C5022F3F89
:1016D000320721F0C901DF91CF9108958091C702AF
:1016E00087FF2BC086FF0FC089E090E00E945F0B50
:1016F000C82F81E090E00E945F0B9C2F9093C50261
:101700008093C40215C089E090E00E945F0BC82F4F
:1017100081E090E00E945F0B90E4C99F900111244A
:10172000207C31708F73282B3093C5022093C40224
:101730008091C4029091C502CECF85FF0CC081E19B
:1017400090E00E945F0BC82F82E190E00E945F0B47
:10175000C05CDD0BD2CF81E090E00E945F0B90E097
:10176000CDCFEF92FF920F931F93CF93DF9361152D
:10177000710559F06130710509F45DC0DF91CF91B9
:101780001F910F91FF90EF9008953091EE0238175E
:10179000190629F03091F1023817190679F7C22F8E
:1017A0004330510509F4F4C008F04EC041305105F2
:1017B00009F463C04230510509F7822F8170F82E79
:1017C00085E020FFD1C00E94EA080C2F027086E05D
:1017D000C1FFCDC00E94EA081C2F147087E0C2FF31
:1017E000C9C00E94EA08DC2FD87088E0C3FFC5C0DA
:1017F0000E94EA0880916C01FF2009F4C1C0816059
:1018000080936C0180916C01002309F4BBC082605D
:1018100080936C0180916C01112309F4B5C0846040
:1018200080936C0180916C01DD2309F4AFC0886066
:1018300080936C01A3CF6091EF027091F002861744
:10184000970709F4ACCF9ACF4530510509F42FC161
:1018500008F4EAC04630510509F090CFD0916D01EF
:1018600080E024FF06C00E94EA08D061D0936D0199
:1018700085CF0E948209DF7EF9CF122F1071D0919F
:101880006D018091070281114FC0112309F447C0F7
:101890000E94EA08D061D0936D018C2F8170E82EF0
:1018A00081E0C0FF4BC00E94EA088C2F8270F82EA6
:1018B00082E0C1FF46C00E94EA080C2F047083E05A
:1018C000C2FF42C00E94EA08DC2FD87084E0C3FF48
:1018D0003EC00E94EA0880916D011123D9F1806118
:1018E00080936D0180916D01EE20B1F18160809354
:1018F0006D0180916D01FF2089F1826080936D01FF
:1019000080916D01002361F1846080936D0180916D
:101910006D01DD2339F1886080936D012FCF80E068
:101920000E948209DF7EB7CF8DE190E00E94880A95
:1019300081FFB3CF80E0112399F3AACF0E948209DF
:10194000B4CF0E948209B9CF0E948209BDCF0E9404
:101950008209C1CF8F7EC4CF8E7FC9CF8D7FCECF7E
:101960008B7FD3CF877FD8CF0E9482092ECF0E9452
:10197000820932CF0E94820936CF0E9482093ACF73
:101980008E7F3ECF8D7F44CF8B7F4ACF877F50CFD6
:10199000822F8170F82E89E020FF32C00E94EA0871
:1019A0000C2F02708AE0C1FF2EC00E94EA081C2F93
:1019B00014708BE0C2FF2AC00E94EA08DC2FD870A6
:1019C0008CE0C3FF26C00E94EA0880916C01FF20D2
:1019D00019F1806180936C0180916C010023F1F01A
:1019E000806280936C0180916C011123C9F0806446
:1019F00080936C0180916C01DD23A1F0806818CF89
:101A00000E948209CDCF0E948209D1CF0E94820913
:101A1000D5CF0E948209D9CF8F7EDCCF8F7DE1CFD9
:101A20008F7BE6CF8F7704CF8DE020FF2BC00E9405
:101A3000EA088EE0C1FF29C00E94EA088FE0C2FFD9
:101A400027C00E94EA0880E1C3FF25C00E94EA087F
:101A500081E1C4FF23C00E94EA0882E1C5FF21C0E2
:101A60000E94EA0883E1C6FF1FC00E94EA0884E1E1
:101A7000C7FF57C0DF91CF911F910F91FF90EF905B
:101A80000C94EA080E948209D4CF0E948209D6CF22
:101A90000E948209D8CF0E948209DACF0E9482096F
:101AA000DCCF0E948209DECF0E948209E0CF85E16F
:101AB00020FF22C00E94EA0886E1C1FF20C00E94E8
:101AC000EA0887E1C2FF1EC00E94EA0888E1C3FF5E
:101AD0001CC00E94EA0889E1C4FF1AC00E94EA08FB
:101AE0008AE1C5FF18C00E94EA088BE1C6FF16C054
:101AF0000E94EA088CE1BCCF0E948209DDCF0E94DF
:101B00008209DFCF0E948209E1CF0E948209E3CFE0
:101B10000E948209E5CF0E948209E7CF0E948209D4
:101B2000E9CFDF91CF911F910F91FF90EF900C942F
:101B30008209CF93C82F8FE290E00E94880A81111A
:101B400009C085E190E0CC2311F086E190E0CF91CF
:101B50000C94880A80E0CF910895CF93C82F8FE22C
:101B600090E00E94880A811106C08C2F90E0CA96EE
:101B7000CF910C94880A80E0CF9108951F93CF9362
:101B8000DF93EC01162F0E948C23181739F0612F78
:101B9000CE01DF91CF911F910C949423DF91CF91CF
:101BA0001F9108950F931F93CF93DF93EC01162F8E
:101BB000C63883E0D80781F150F4C13883E0D807F4
:101BC000F9F0612FCE010E94BE0DCE011FC0C738B3
:101BD00083E0D80741F1C83883E0D80791F786E859
:101BE00093E00E94880A082F87E893E00E94880A01
:101BF000C82FD0E08FEF089FC00DD11D1124E1CF79
:101C000081E893E00E94BE0D81E893E0DF91CF91DF
:101C10001F910F910C94880A86E893E00E94BE0DF4
:101C200086E893E0F3CF87E893E00E94BE0D87E853
:101C300093E0ECCF1F93CF93DF93209100012223F9
:101C4000C1F02FEF3FEF3093D9012093D8013093AB
:101C5000DD012093DC013093E1012093E00130931A
:101C6000E5012093E4013093E9012093E80110920B
:101C7000000182309105C9F08330910509F458C004
:101C800020E030E0232B11F00E9400008091F6014B
:101C90009091F701891B990B181619060CF044C096
:101CA00082EE92E00E94ED05F1CFE6EDF1E0D0E0AA
:101CB000C0E0828193810196E9F4CC0FDD1FCC0F47
:101CC000DD1FCA52DE4F1B821A8282EE92E00E9412
:101CD000ED05888382EE92E00E94ED058983E09114
:101CE0000802F09109023097C9F4D0930902C09319
:101CF00008021AC021963496C530D105D1F68091DC
:101D0000F6019091F701891B990B1816190664F4D6
:101D100082EE92E00E94ED05F2CFFC018281938178
:101D20000097D9F7D383C283DF91CF911F91089594
:101D300082EE92E00E94ED05182F82EE92E00E9462
:101D4000ED05D12F90E0C92FC80FD11DD093EB0125
:101D5000C093EA0182EE92E00E94ED058093EC01CF
:101D6000D7FF0CC0DF77D093EB01C093EA01682F57
:101D7000CE010E94D20D8093EC01D6CFCE010E94FD
:101D8000170BF9CFFF920F931F93CF93DF930FB6EB
:101D9000F894A89581B5886181BD11BC0FBED0E0D3
:101DA000C0E0FE01E457FF4F6491CE010E94BE0DDA
:101DB0002196CD3281E0D807A1F7CFE1D1E005E54A
:101DC00011E0FF24FA9489919991FC01F1820E941B
:101DD00081060C171D07B9F788E19BE00FB6F89450
:101DE000A89581BD0FBE91BDDF91CF911F910F913D
:101DF000FF9008951F93CF93DF93EC01162F089760
:101E000079F4662319F10E94C20E80E090E0892BDC
:101E1000B9F0612FCE01DF91CF911F910C9400009A
:101E200080E090E0892BA9F781E0C11590E1D90706
:101E300008F080E0111105C0DF91CF911F91089546
:101E400081E027972297C0F780E0F6CF80E090E00E
:101E5000892BF9F681E0F0CF0F931F93CF93DF9397
:101E6000EC01162F80916B01882329F1CF30D10529
:101E700061F48FE090E00E94BE0D8FE090E0DF9172
:101E8000CF911F910F910C94880A8FE090E00E94EF
:101E9000880A082F80E190E00E94880A08130AC08F
:101EA000C730D10531F0C830D10529F4183049F0D8
:101EB000FFCFFFCFFFCF612FCE010E94BE0DCE011D
:101EC000DECF0E94C20E88E0DF91CF911F910F916B
:101ED00008958331910588F48131910530F4813082
:101EE000910519F08930910531F42FEF3FEF3093D0
:101EF000C5022093C4020C942C0F8D319105D9F7A3
:101F0000677F6093C7022091AE022F73362F307C1B
:101F1000232B2093AE02E9CFCF93DF93ECECF2E0DA
:101F200086E1DF011D928A95E9F782E990E09093BE
:101F3000CB028093CA0282E590E09093C90280931D
:101F4000C802CEEAD2E0188219828FEF9FEF9F8BF2
:101F50008E8B188E83E08093AD028D898093AC02C6
:101F600043E050E067EC73E089890E94C2038DE191
:101F700090E00E945F0B682F6F738DE190E00E94EC
:101F8000690F898F6BE087E090E00E94690F6DE038
:101F900088E090E00E94690F80E0DF91CF910C947F
:101FA000790ABF92CF92DF92EF92FF920F931F9325
:101FB000CF93DF938B01B42E690182FF23C083FF8F
:101FC00017C061E0C8010E94FA0E8823D9F16B2D79
:101FD000C8010E94690F8B1135C0F601DF91CF91C6
:101FE0001F910F91FF90EF90DF90CF90BF900994D9
:101FF00060E0C8010E94FA0E882321F1C8010E9406
:102000005F0BE9CF842F8770C1E0D0E07E0101C073
:10201000EE0C8A95EAF7D42FD870CB010E945F0BA3
:10202000C82FB4FE1CC061E0C8010E94FA0E8823CC
:1020300049F0DD2389F0CE296C2FC8010E94690F79
:102040008C1759F2DF91CF911F910F91FF90EF9074
:10205000DF90CF90BF900895E094CE21EDCF60E067
:10206000C8010E94FA0E882369F3CE21DD2319F0FE
:10207000C111B3CFE7CFCC2309F4AFCFE3CFCF92D9
:10208000DF92EF92FF920F931F93CF93DF937C0128
:102090006B01C42F122FD42FD07E8091AE0287FF08
:1020A0002BC0D03EB9F5C090AF02CC2099F1D12C15
:1020B000C6010E945F0BD82FC60101960E945F0BDC
:1020C000982F8D2FE816F90629F56C2F70E0762FE2
:1020D000662766277370612B6F5F7F4F27E736E0B7
:1020E000402F8C2FDF91CF911F910F91FF90EF9098
:1020F000DF90CF900C94D10F80FD32C0D03609F420
:1021000064C088F4D03209F447C0D03409F45DC00B
:10211000DD2379F1DF91CF911F910F91FF90EF9027
:10212000DF90CF900895D03A09F483C090F42C2F1B
:102130002F7141E050E0D03869F7B601C701DF9157
:10214000CF911F910F91FF90EF90DF90CF900C9463
:10215000B10BD03C09F476C0D03E09F4B6CFDACF4B
:102160000E94610B8E159F0549F2E114F10431F2D2
:10217000D1CF8C2F8E7071F680E090E0892B51F2D8
:102180008C2F8170DF91CF911F910F91FF90EF9075
:10219000DF90CF900C940000CF71CF3109F0BACF0F
:1021A000412F4F7771F0413071F0111F1127111F2E
:1021B000212F30E00FE710E0B601C7010E9464094B
:1021C000A9CF41E0F2CF40E0F0CF2C2F30E08C2FB0
:1021D0008F71813029F030F0803121F08131F9F4B4
:1021E00040E001C041E025FB222720F90DE110E08D
:1021F00030E0B601C7010E94640980E090E0892BBD
:1022000009F488CF4C2FB601C701DF91CF911F9100
:102210000F91FF90EF90DF90CF900C940000C901D8
:10222000880F991F8E71C4FB442740F9482B4250F8
:10223000DACF2C2F2F7043E050E0C4FF7ECF42E076
:1022400050E07BCFCF71CE3139F0CF3109F062CF82
:10225000212F45E050E071CF212F44E050E06DCFB9
:10226000CF92DF92EF92FF920F931F93CF93DF9362
:10227000EC017B0141305105F9F4CD80DE802496DC
:10228000C114D104E9F462E070E081E090E00E94C2
:102290000E248C01009731F0FC01F182E0828881EC
:1022A0008F5F8883C801DF91CF911F910F91FF90BD
:1022B000EF90DF90CF900895C884D9842796E0CF1F
:1022C00088818F5F8883C82FD0E062E070E0CE0104
:1022D0000E940E248C0120E0BE0161507109822F02
:1022E00090E08617970774F4880F991FF601E80F9E
:1022F000F91F40815181800F911FFC015183408360
:102300002F5FEDCFC150D048CC0FDD1FC00FD11FC4
:10231000F982E882C6010E94C624C4CF1F920F92A0
:102320000FB60F9211242F933F938F939F93AF93E8
:10233000BF9380910A0290910B02A0910C02B09180
:102340000D023091ED0123E0230F2D3768F126E8CF
:10235000230F0296A11DB11D2093ED0180930A0267
:1023600090930B02A0930C02B0930D028091EE01AA
:102370009091EF01A091F001B091F1010196A11DA2
:10238000B11D8093EE019093EF01A093F001B09303
:10239000F101BF91AF919F918F913F912F910F903C
:1023A0000FBE0F901F9018950196A11DB11DD4CF9F
:1023B0001F920F920FB60F9211240BB60F922F930C
:1023C0003F934F935F936F937F938F939F93AF93BD
:1023D000BF93EF93FF93E0910F01F09110010995E6
:1023E000FF91EF91BF91AF919F918F917F916F91ED
:1023F0005F914F913F912F910F900BBE0F900FBEA9
:102400000F901F9018951F920F920FB60F921124E4
:102410000BB60F922F933F934F935F936F937F93DE
:102420008F939F93AF93BF93EF93FF93E0910D0131
:10243000F0910E010995FF91EF91BF91AF919F919E
:102440008F917F916F915F914F913F912F910F905D
:102450000BBE0F900FBE0F901F9018951F920F92FA
:102460000FB60F9211240BB60F922F933F934F93F9
:102470005F936F937F938F939F93AF93BF93EF93EC
:10248000FF93E0910B01F0910C010995FF91EF9101
:10249000BF91AF919F918F917F916F915F914F917C
:1024A0003F912F910F900BBE0F900FBE0F901F907A
:1024B00018951F920F920FB60F9211240BB60F9220
:1024C0002F933F934F935F936F937F938F939F933C
:1024D000AF93BF93EF93FF93E0910901F0910A014D
:1024E0000995FF91EF91BF91AF919F918F917F914E
:1024F0006F915F914F913F912F910F900BBE0F9075
:102500000FBE0F901F9018951F920F920FB60F924B
:1025100011240BB60F922F933F934F935F936F93BA
:102520007F938F939F93AF93BF93EF93FF93E0912C
:102530000701F09108010995FF91EF91BF91AF91CB
:102540009F918F917F916F915F914F913F912F91CB
:102550000F900BBE0F900FBE0F901F9018951F92FB
:102560000F920FB60F9211240BB60F922F933F9339
:102570004F935F936F937F938F939F93AF93BF938B
:10258000EF93FF93E0910501F09106010995FF910A
:10259000EF91BF91AF919F918F917F916F915F91DB
:1025A0004F913F912F910F900BBE0F900FBE0F9048
:1025B0001F9018951F920F920FB60F9211240BB611
:1025C0000F922F933F934F935F936F937F938F93CC
:1025D0009F93AF93BF93EF93FF93E0910301F0912B
:1025E00004010995FF91EF91BF91AF919F918F9158
:1025F0007F916F915F914F913F912F910F900BBE03
:102600000F900FBE0F901F9018951F920F920FB64C
:102610000F9211240BB60F922F933F934F935F931A
:102620006F937F938F939F93AF93BF93EF93FF939A
:10263000E0910101F09102010995FF91EF91BF91A5
:10264000AF919F918F917F916F915F914F913F914A
:102650002F910F900BBE0F900FBE0F901F901895EB
:102660001F920F920FB60F9211240BB60F922F9359
:102670003F934F935F936F937F938F939F93AF930A
:10268000BF93EF93FF9380917100887F803609F4A8
:102690004DC008F040C0883209F4A9C028F5803147
:1026A00009F49DC0C8F4882309F4FBC0883009F4FC
:1026B00096C0FF91EF91BF91AF919F918F917F91C4
:1026C0006F915F914F913F912F910F900BBE0F90A3
:1026D0000FBE0F901F901895883109F488C0803282
:1026E00041F78093850214C0803409F49DC040F402
:1026F0008033B9F38833E9F68093850285ECB0C066
:10270000803509F485C0883509F496C0883489F687
:102710000E94AC05CECF883909F48CC038F58837D3
:1027200029F050F4883611F0803719F683E0809351
:1027300087021092D50157C0883809F47BC08039D0
:1027400019F0803809F0B5CF8091D501803208F0BA
:1027500071C0E091D50181E08E0F8093D501809109
:102760007300F0E0EB54FE4F80833DC0803B39F0B6
:10277000E0F4803A09F479C0883A09F09ACF84E00D
:10278000809387021092B4011092B301E091F4019A
:10279000F091F50109958091B30181110FC081E09D
:1027A0008093B3011092930109C0803C09F4A6CF35
:1027B000883C09F4A3CF883B09F07BCFE091B401BA
:1027C00081E08E0F8093B401F0E0ED56FE4F8081E2
:1027D000809373009091B4018091B30129C08091DE
:1027E00062028093730085EC8093740062CF9091B5
:1027F000840280918302981758F5E091840281E069
:102800008E0F80938402F0E0ED59FD4F8081E9CF77
:10281000E091840281E08E0F8093840280917300A6
:10282000F0E0ED59FD4F8083909184028091830206
:102830009817C8F285E8D8CFE091840281E08E0F26
:102840008093840280917300F0E0ED59FD4F808306
:102850008091860281115CCF81E08093610284EADD
:10286000809374001092870224CF85EC80937400CB
:10287000109287028091D501803230F4E091D50129
:10288000F0E0EB54FE4F10826091D50170E0E091D2
:10289000F201F091F30185EB91E009951092D501D9
:1028A00008CF1092850234CF1F920F920FB60F926D
:1028B00011240BB60F92EF92FF920F931F932F9359
:1028C0003F934F935F936F937F938F939F93AF93B8
:1028D000BF93CF93DF93EF93FF930FB6F894A89530
:1028E00081B5886181BD11BC0FBE789410926A01D8
:1028F000C1E0D1E0D0938802C093AA02109289026D
:102900001092AB020E94AD01811105C080916A0155
:102910008F5F80936A01CF5FCF3761F78091680145
:1029200090916901009731F00E94C62410926901CC
:1029300010926801D0916A01DD2371F161E070E0CD
:102940008D2F90E00E940E247C019093690180936A
:10295000680110E0C1E001E000938802C093AA0280
:10296000109289021092AB020E94AD01811105C044
:10297000F701E10FF11DC0831F5FCF5FCF3761F714
:10298000D23050F080918A00887F80938A008091B5
:102990007D008B7F80937D001092880010928900CB
:1029A00088E19BE00FB6F894A89581BD0FBE91BD5C
:1029B000FF91EF91DF91CF91BF91AF919F918F9157
:1029C0007F916F915F914F913F912F911F910F9147
:1029D000FF90EF900F900BBE0F900FBE0F901F90C7
:1029E00018951F920F920FB60F9211248F939F93F9
:1029F00078948091600290915F02891708F0CBC0B3
:102A00009091620091609093620090915E028917AC
:102A100008F0C5C0AD9A90915D02891708F0C1C059
:102A2000969A90915C02891708F0BDC0979A909190
:102A30005B02891708F0B9C090916500916090938E
:102A4000650090915A02891708F0B3C09091650013
:102A500092609093650090915902891708F0ADC07B
:102A6000A89A90915802891708F0A9C01B9A9091D2
:102A70005702891708F0A5C0909162009460909366
:102A8000620090915602891708F09FC0C79A9091F2
:102A90005502891708F09BC0C59A90915402891776
:102AA00008F097C0C49A90915302891708F093C018
:102AB000C69A90915202891708F08FC0DB9A9091C4
:102AC0005102891708F08BC0DC9A90915002891747
:102AD00008F087C0DD9A90914F02891708F083C0F3
:102AE000DE9A90914E02891708F07FC0DF9A90918C
:102AF0004D02891708F07BC01C9A90914C028917EF
:102B000008F077C01D9A90914B02891708F073C0A6
:102B10009091620092609093620090914A028917AE
:102B200008F06DC0C09A90914902891708F069C0F9
:102B3000D89A90914802891708F065C09091620078
:102B400090649093620090914702891708F05FC0EB
:102B50009091620090629093620090914602891772
:102B600008F059C09091620090619093620090913A
:102B70004502891708F053C09091620098609093C5
:102B800062008F5F809360029F918F910F900FBEC4
:102B90000F901F901895909162009E7F34CFAD9852
:102BA0003ACF96983ECF979842CF909165009E7FFE
:102BB00046CF909165009D7F4CCFA89852CF1B982F
:102BC00056CF909162009B7F5ACFC79860CFC5982F
:102BD00064CFC49868CFC6986CCFDB9870CFDC9870
:102BE00074CFDD9878CFDE987CCFDF9880CF1C98AB
:102BF00084CF1D9888CF909162009D7F8CCFC09824
:102C000092CFD89896CF909162009F7B9ACF909167
:102C100062009F7DA0CF909162009F7EA6CF909191
:102C20006200977FACCFDC0170E0FB01E25AFD4F00
:102C3000E4911196EC9311976D557D4FFB01249112
:102C40002C9330E0220F331FF901E754FE4F85919A
:102C5000949113969C938E931297F901E753FE4F2C
:102C60008591949115969C938E9314970895CF9384
:102C7000DF93EC0161E088810E94A90260E0888115
:102C8000DF91CF910C947B02EF92FF920F931F93F1
:102C9000CF93DF931092E5021092E40288EE93E066
:102CA000A0E0B0E08093E6029093E702A093E802F0
:102CB000B093E90289E591E09093E3028093E20208
:102CC00083E190E00E94880AC82F82E190E00E9490
:102CD000880AD82F81E190E00E94880A182F81E0AD
:102CE00090E00E94880A21E030E03093F4022093C3
:102CF000F3023093F6022093F5021092F70210923D
:102D0000FC021092FB028093EE02212F205C330B19
:102D1000C9012D2F382FC9019093F0028093EF0243
:102D2000CF77C093F1021092F2028DE18093F80206
:102D300062E070E08DE190E00E940E249093FA0230
:102D40008093F9020097C9F0EC0110E0EE24E394BF
:102D5000F12C8AE090E00E942A24FC01F282E182B8
:102D600013821482168215821782118610861083B0
:102D7000899399931F5F1D3161F767E085E093E0C8
:102D80000E94131663E28FEF92E00E94131680E315
:102D900080938D03C2E0C0938F0310929003DFEF06
:102DA000D0938E03109291038DE893E00E94371622
:102DB00081E380938803C0938A0381E080938B032F
:102DC000D093890310928C0388E893E00E94371611
:102DD00082E380938303C0938503C0938603D093DB
:102DE00084031092870383E893E00E94371683E3FD
:102DF00080937E03C093800313E010938103D093EC
:102E00007F03109282038EE793E00E9437168CE2D4
:102E100080937903C0937B0384E0F82EF0927C03C7
:102E2000D0937A0310927D0389E793E00E943716CE
:102E300008E000937403C093760395E0E92EE092D6
:102E40007703D09375031092780384E793E00E9490
:102E500037168EE280936F03C093710386E08093F0
:102E60007203D0937003109273038FE693E00E9475
:102E70003716E0926A03C0936C0387E080936D037A
:102E8000D0936B0310926E038AE693E00E9437168C
:102E9000F0926503C093670300936803D0936603C1
:102EA0001092690385E693E00E94371685E28093CD
:102EB0006003C093620389E080936303D09361034E
:102EC0001092640380E693E00E94371686E28093B6
:102ED0005B03C0935D038AE080935E03D0935C0341
:102EE00010925F038BE593E00E94371687E2809390
:102EF0005603C09358038BE080935903D093570334
:102F000010925A0386E593E00E94371688E2809378
:102F10005103C09353030CE000935403D093520326
:102F20001092550381E593E00E94371689E2809361
:102F30004C03C0934E032DE0F22EF0924F03D0933A
:102F40004D03109250038CE493E00E9437168EE0FC
:102F500080934703C093490380934A03D093480367
:102F600010924B0387E493E00E94371600934203CC
:102F7000C09344030FE000934503D09343031092A2
:102F8000460382E493E00E943716F0923D03C0931B
:102F90003F0380E180934003D0933E0310924103AE
:102FA0008DE393E00E94371600933803C0933A03F1
:102FB00081E180933B03D093390310923C0388E373
:102FC00093E00E9437168FE280933303C09335035A
:102FD00082E180933603D09334031092370383E366
:102FE00093E00E94371610932E03C093300383E1C1
:102FF00080933103D0932F03109232038EE293E03B
:103000000E9437168CE180932903C0932B0384E13F
:1030100080932C03D0932A0310922D0389E293E02E
:103020000E9437168BE180932403C093260385E129
:1030300080932703D09325031092280384E293E022
:103040000E9437161AE110931F03C093210386E1F3
:1030500080932203D0932003109223038FE193E007
:103060000E94371609E100931A03C0931C0387E1FD
:1030700080931D03D0931B0310921E038AE193E0FB
:103080000E94371688E180931503C093170380933D
:103090001803D09316031092190385E193E00E9460
:1030A000371681E280931003C09312030093130339
:1030B000D09311031092140380E193E00E9437161D
:1030C0008DE280930B03C0930D0310930E03D093F6
:1030D0000C0310920F038BE093E00E9437161092BE
:1030E00094031092950310929603109297031092F6
:1030F00098031092990310929A0310929B031092D6
:103100009C0310929D0310929E0387E090E09093A1
:10311000930380939203DF91CF911F910F91FF90C2
:10312000EF900895CF93DF93CDB7DEB763970FB6D7
:10313000F894DEBF0FBECDBF789483B78C6483BF95
:1031400087B7816087BF82E08EBD8EB581608EBDFE
:103150008FB581608FBD85B5846085BD85B5806480
:1031600085BD80918A00836080938A0080918B0066
:10317000816080938B0087E886B91AB80FB6F894FF
:10318000A89581B5886181BD11BC0FBE2FB7F89499
:1031900090E080E0FC01EB5BFD4F108201968B31EB
:1031A0009105C1F7809162008E7F80936200AD9897
:1031B00096989798809165008E7F809365008091A6
:1031C00065008D7F80936500A8981B9880916200B0
:1031D0008B7F80936200C798C598C498C698DB9887
:1031E000DC98DD98DE98DF981C981D98809162002D
:1031F0008D7F80936200C098D898809162008F7B09
:1032000080936200809162008F7D80936200809144
:1032100062008F7E8093620080916200877F80933E
:1032200062002FBF9FB7F894809161008160809306
:103230006100A59A8E9A8F9A809164008160809334
:10324000640080916400826080936400A09A139A65
:1032500080916100846080936100BF9ABD9ABC9A9E
:10326000BE9AD39AD49AD59AD69AD79A149A159A7E
:1032700080916100826080936100B89AD09A8091B9
:10328000610080648093610080916100806280931E
:103290006100809161008061809361008091610094
:1032A0008860809361009FBF1FBC89E08EBD81E173
:1032B00094E09BBD8ABD87B7806187BF1092600292
:1032C00061E08BE00E94A90285E093E00E949508EE
:1032D000D12CC12CBB24B394F601E25FFD4FE491E5
:1032E0000E2F10E0C8010E94880AF82EC80101962E
:1032F0000E94880AE82EC80102960E94880AA82E19
:10330000C80103960E94880A9091F802F91638F5D0
:10331000F601E15EFE4F00811181D8011196AC9259
:10332000119714968C938F2DE11046C10E949A013B
:103330004C0141E050E0B8010E943011F401968345
:1033400085838F2D0E949A017C0150E040E0B801F6
:103350000E943011D70119969C938E931897A895C7
:10336000F2E0CF0ED11C26E3C216D10409F0B4CF8F
:1033700061E070E084E090E00E940E249093FC02F3
:103380008093FB02892B91F010E000E0E090FB02BB
:10339000F090FC02E00EF11E802F0E94AD0DD701CF
:1033A0008C930F5F1F4F0430110581F780E00E945E
:1033B000990D082F10E081E00E94990D282F30E030
:1033C000322F222722273E7F000F111F202B312B67
:1033D0003093FE022093FD0280FF05C021603093F0
:1033E000FE022093FD021092F7011092F601109256
:1033F00089021092AB021092870281E080938602CC
:103400001092610261E083E10E947B0261E082E14F
:103410000E947B02809171008E7F80937100809169
:1034200071008D7F8093710088E48093700085E443
:103430008093740080E192E09093F5018093F40111
:103440008CE192E09093F3018093F20182E080930B
:1034500072008CE0809370008AE19EE09093F90105
:103460008093F8018CE596E09093FB018093FA013C
:1034700081E090E00E94880A21E030E03093FD0175
:103480002093FC018093FE0181E190E00E94880A74
:1034900021E130E0309300022093FF01809301028C
:1034A00082E190E00E94880A22E130E0309303023A
:1034B00020930202809304028DE190E00E94450B6C
:1034C00081FD92C08DE190E0909306028093050209
:1034D0001092070287E08093BF028093C002EAEA5D
:1034E000F2E0E491F0E0EE0FFF1FED56FD4F859105
:1034F00094919093C2028093C102E5E6F2E0E491D8
:10350000E093C30260E087E00E94A9020E948C0F52
:10351000109288001092890010928A0010928B00FD
:1035200080918A00846080938A0080917D0084600D
:1035300080937D0088E19BE00FB6F894A89581BD4B
:103540000FBE91BD0E94E5026B017C01B1E0BB8B17
:10355000E0910802F0910902309709F46DC080E013
:1035600090E0892B21F0618180810E940000E09130
:103570000802F09109028081803409F48CC108F0BE
:10358000C9C0893209F4F3C108F0A0C0843209F43B
:10359000CDC108F03FC0813209F497C1833209F4EC
:1035A0009DC181113FC080E090E0892B09F402C1E8
:1035B00081810E940000FEC00E949A01FC01B3823A
:1035C000F0E8EF1609F4BDCEB1E8EB12C8CE8F2DAE
:1035D0000E949A017C0141E050E0B8010E94301144
:1035E000F70196838583BBCE85FD0DC080911901BF
:1035F00090911A01A0911B018093050290930602FD
:10360000A093070267CF80911C0190911D01A091AA
:103610001E01F2CF863209F475C108F490C18832D8
:1036200009F49BC1828193812FEF3FEF3383228383
:1036300090930902809308022B89223009F428C450
:10364000233009F4A4C7213009F0C8C08091B0022A
:103650008823F1F02FB7F89480910A0290910B0221
:10366000A0910C02B0910D022FBF4091B102509178
:10367000B2026091B3027091B402841B950BA60B49
:10368000B70B4597A105B10518F080E00E94790AB3
:103690008091CE02882309F4E1C3F89488E0EAED32
:1036A000F2E0ABE9B7E001900D928A95E1F7109254
:1036B000CE02789480919B07E82FF0E0E356F84F14
:1036C000863008F08EC111928F5FFACF8D3209F4E7
:1036D00066C168F48B3209F45AC108F450C180E025
:1036E00090E0892B09F466C0618184E03DC18F328E
:1036F00009F465C108F45BC1803309F468C1813302
:1037000009F090CF80E090E0892B09F453C06181EB
:1037100082E064C1803609F449C058F5803509F467
:1037200005C178F4823409F4C8C008F4BEC08334FB
:1037300009F078CF80E090E0892BE1F1618183E0AE
:10374000B1C08235B9F108F4FAC08E3509F06ACFFC
:10375000A281B3811097E1F18C918F3559F580E00A
:1037600090E0892B39F111969C9181810E94000093
:1037700021C0893650F48436E8F4823609F446C014
:1037800008F441C0618183E013C08D3609F441C063
:103790008E3609F465C08C3609F044CF80E090E0A5
:1037A000892B41F081810E94000004C0618180E08A
:1037B0000E949409E0910802F091090282819381AC
:1037C0002FEF3FEF33832283909309028093080207
:1037D0000E94E5026B017C01FBE0FB8B0E94E5028D
:1037E0006C197D098E099F096132714A87409105E4
:1037F00008F44CC30E948C0F0E94E5026B017C010F
:10380000E1E0EB8B43C3618181E0D2CF618182E053
:10381000CFCF80E090E0892B69F26181862F8F778E
:10382000D1F410E000E067FD0BC00F5F1F4F0038C0
:10383000110509F4BFCF60E0C8010E940000F5CF78
:103840000F5F1F4F0038110509F4B4CF61E0C801C4
:103850000E940000F5CF607890E00E940000AACF9F
:10386000A281B381109709F4B3CF8C918F3609F000
:10387000A1CF80E090E0892B09F49CCF2181622FB9
:10388000661F6627661F11968C91E0E88E9FC00127
:103890001124822BE2CF80E090E0892B09F48ACFBB
:1038A000618180E00E94000085CF80E090E0892B5C
:1038B00009F480CF618181E0F5CF80E090E0892B31
:1038C00009F478CF618182E0EDCF80E090E0892B30
:1038D00009F470CF81810E9400006CCF80E090E0FD
:1038E000892B09F467CF818187FD06C0082E000C63
:1038F000990B0E9400005ECF819590E09195819593
:103900009109F7CF80E090E0892B09F453CF8181B2
:1039100087FD06C0082E000C990B0E9400004ACFBC
:10392000819590E0919581959109F7CF818160E033
:1039300087FF02C061E080580E948A0A3BCF80E086
:1039400090E0892B09F436CF818160E087FF02C0C7
:1039500061E080580E9400002DCF80E090E0892B2C
:1039600009F428CF618180E00E94000023CF80E02D
:1039700090E0892B09F41ECF618181E0F5CF80E0D2
:1039800090E0892B09F416CF618182E0EDCF80E0D1
:1039900090E0892B09F40ECF618183E0E5CF80E0D0
:1039A00090E0892B09F406CF618185E0DDCF80E0CE
:1039B00090E0892B09F4FECE618186E0D5CF80E0CE
:1039C00090E0892B09F4F6CE618187E0CDCF80E0CD
:1039D00090E0892B09F4EECE618181E00E94000025
:1039E000E9CE80E090E0892B21F08BE997E00E94FE
:1039F000000080919D0781111BC090919E0791113D
:103A000017C080E090E0892B19F080E00E94000050
:103A10008091B002882341F081E00E943E070E941D
:103A2000E5026B017C0132C281E00E94790AF7CF86
:103A30009091B002992309F486C08057803108F034
:103A40007FC081E00E943E0710919B078091B702E2
:103A500018130AC0412F50E069EB72E08DE997E03E
:103A60000E944F25892B61F01092B60288E0EBE9A5
:103A7000F7E0A7EBB2E001900D928A95E1F7CFCF86
:103A80008091B6028F5F8093B602133009F040C078
:103A900090919D07892F8770F0909E07853029F4BB
:103AA000F092B5020E943D03BACF0DE110E08430E0
:103AB00091F0282F30E08430F0F40091B50200231B
:103AC000D1F00150110B000F111F000F111F020F39
:103AD000131F0F5F1F4F93FF10C061E0C8010E94CA
:103AE000FA0E882309F49BCF6F2DC8010E94690F3D
:103AF000F81295CFD7CF8901ECCF60E0C8010E94C2
:103B0000FA0E882309F48BCFC8010E945F0BF0CF17
:103B1000143009F084CF80919D07682F70E0762FD4
:103B200066276627737090919E07692B6F5F7F4FA2
:103B30002BE433E040919F078C700E94D10F6FCF30
:103B400080E00E94790AE0919D07EF3F61F4809147
:103B50009E07811164CF80E090E0892B09F45FCF4C
:103B60000E9400005CCFE7FD0DC00091A0072091EE
:103B70009F0740919E0770E060E08E2F90E00E94CA
:103B80003F104DCFE03C08F058C13091AE0237FFF6
:103B900046CF20919E07822F90E08C0100951095D2
:103BA000000F111F000F111F007C1170EF730E2BFF
:103BB00095958795482F4370B42E80919B0785304B
:103BC00041F52C782C3029F50E94610B8017910764
:103BD00021F00F3F114009F022CF80919E0790E025
:103BE000982F88278827937000919F07080F192F17
:103BF000111D0F5F1F4FF090A00761E0C8010E94E8
:103C0000FA0E6F2D882309F40ACFC8010E94690FAC
:103C100006CF680191E0C91AD108CC0CDD1CCC0C90
:103C2000DD1CCB287601AFEFEA1AFA0A8091C602B2
:103C30008823F9F036FF41C0C70160E071E00E94BF
:103C4000A123682F81E090E00E94690FC701F7FE71
:103C500002C081509F4F692F89E090E00E94690F58
:103C600080E090E0892B19F0C7010E9400001092BB
:103C7000C6028091AE0280FD39C080919B078430DE
:103C800009F04FC080919E078978813009F0C7CE36
:103C900080E090E0892B29F060919F07C7010E9486
:103CA000000080E090E0892B09F4B9CE40919F0795
:103CB0006B2DC7010E940000B2CEB8016F73772749
:103CC00081E090E00E94690FB801E6E07595679584
:103CD000EA95E1F789E090E00E94690F80E090E0CA
:103CE000892B29F2C8010E940000C1CF86FF0DC0B8
:103CF0000E94610B8E159F0509F4BFCFBDEFEB1637
:103D0000B7E0FB060CF0B9CF8ACE0E94610B80179A
:103D1000910709F4B2CF0F3FE1E01E0709F4ADCFE0
:103D20007ECE833069F540919E07F42FF170CF2E3F
:103D300043FBDD24D0F880E090E0892B31F0477020
:103D40002D2DB801C7010E9400008091AE0286FFB0
:103D50000BC080E090E0892B09F461CE4D2D6C2DD5
:103D6000C7010E9400005BCE80E090E0892B09F43F
:103D700056CE2D2D4C2D6B2DC8010E9400004FCE2C
:103D8000863009F04CCE80919E07982F997891301B
:103D900021F08F78803809F042CE8091AE0286FF04
:103DA00028C00E94610B8E159F05E9F480919F0742
:103DB00090E0382F2227222733700091A007020FAE
:103DC000132F111D0F5F1F4FF090A1079595879539
:103DD00095958795837099278230910599F003977F
:103DE00009F40BCF1CCE2DEFE21627E0F206F4F615
:103DF00016CE0E94610B80179107C1F20F3F114050
:103E0000A9F20DCEF4FE0BCE61E0C8010E94FA0EBD
:103E1000882309F404CEC8010E945F0B9F2D977080
:103E200061E070E001C0660F9A95EAF7F3FE02C008
:103E3000682BEBCE60956823E8CEE83E08F0EFCD26
:103E4000E05CFF0B80919E070091A1072091A007E5
:103E500040919F0761E070E09E2F91CE0E94E502A5
:103E60006C197D098E099F096132714A874091055D
:103E700068F041E050E067E777E087E00E944D039B
:103E80000E94E5026B017C0182E08B8BA89560CBE0
:103E900080911C02811109C080E390E00E94880A91
:103EA00080931B0281E080931C0280911302811198
:103EB00009C081E090E00E94880A8093120281E0AC
:103EC000809313020EEE13E09AE0892E912C552474
:103ED000539426E6422E34E0332ED8011C968D9161
:103EE0009C91019709F04FC1F801E654F1098081D6
:103EF00091813296A080B180A80EB91EF801148A73
:103F0000158A1682128616861786108A1782118ADB
:103F1000168A118615821482138A128A1386B501B5
:103F200075956795A8014C555109FA0121E030E0DB
:103F300086899789A32FA69566246394712C6C0EAD
:103F40007D1E6A0E711CD301222423946817790701
:103F50000CF0212C2C92313248F4A08DB18D8A0FB7
:103F60009B1F8E579109C19708F420E03E5F34965D
:103F70003432F1F6FE013196489C3001499C700CB8
:103F800011246EE877E06619770990E080E03081CF
:103F9000311195C031813111AFC0DA01A80FB91FBD
:103FA0001D961C92019632968930910581F7F80191
:103FB00080819181A281B38185519540A109B10988
:103FC00083359B40A105B10508F052C1222309F4B5
:103FD0004FC181E026E9A216B1040CF080E0D801BF
:103FE00054968C93F801EC54F109808131979081BB
:103FF000B9E09B9F902D1124EBE18E9F900D112431
:10400000F801EF54F1098081980F31962081822FB9
:10401000880F820F980FD80116969C933396B6E9B5
:10402000AB16B1040CF4FDC081E09081913009F031
:1040300080E0F80186878989880F9F85890F880F1E
:104040009D85890F880F9B85890F91E009F090E08D
:10405000D8011F969C9391E0813009F090E0F8011F
:10406000908B81118150D80117968C931797559694
:104070008C915597882309F45CC08C85880F9E85A8
:10408000890F880F9889890F880F9A89890FEEEF19
:10409000E80FEE3008F04DC0F0E0EF5AFF4D0C9401
:1040A000D7238B208B2092209220FF20FF20992065
:1040B0009920072107210A210A210E210E213130E2
:1040C000D9F42180A1E02A1206C0DB01A80FB91F94
:1040D0001D962C9267CF21100FC0DA01A80FB91FCF
:1040E0006894222421F81D962C92853008F45ACF2A
:1040F000D80155963C9356CF853058F0DB01A80F78
:10410000B91F33E0232E1D962C92D80155965C9250
:1041100049CF20E04CCF92E0292EF8012186817012
:10412000868B07C0E1E0F0E0D8011596FC93EE9392
:10413000149789E090E0FAE08F16910411F0881945
:104140009909E2E0F0E0D8011D96FC93EE931C97EC
:10415000489EB001499E700D1124FB01E650FC4FB2
:1041600080819181029779F461567C4F49E050E05B
:104170008BE997E0861997090E944F25E3E0F0E06C
:10418000892B09F477C0F1E08F1A91080A591F4F63
:104190008114910409F0A1CEEAEFF3E090E080E011
:1041A000208131812330310509F06AC026E6289F3D
:1041B0008001299F100D1124F801E650FC4F84E086
:1041C00090E09183808301561C4F0115110509F081
:1041D0005FC01FEF0E94E5026C197D098E099F09DF
:1041E0006132714A8740910508F450CE1111BAC16D
:1041F0000E948C0F0E94E50231E03B8B10CCE3E083
:104200001996EC931997817056968C9392CFE2E0B1
:10421000F0E08ACF19965C921997F5CFF8013186B4
:104220007ECF8081811124C02B858F85880F3D85AD
:10423000830F880F820FD8011A968C931A97869550
:104240008F5F915C990F990F890F1B968C931B9729
:104250008989813009F06DCF51968C9382E090E08E
:10426000211102C081E090E0F801938B828B61CF35
:10427000E5E0F0E0D8011D96FC93EE931C9783CF08
:104280000196EA59FF4F8A30910509F089CFA1CFF5
:1042900090911B0290FF61C1F801EB5AFF4FA08182
:1042A000B0E0E0901202F12C9D012E193F0921305F
:1042B000310509F499C0DCF5232B09F0B0CB8091CE
:1042C0001102F801E35AFF4F9081992309F450C07D
:1042D00080618093110280911102F801E85AFF4F2A
:1042E0009081923009F45FC008F044C0913009F425
:1042F0004EC02091110241E050E070E060E0CD013D
:104300000E94B10BF801ED5AFF4F808191818130FD
:10431000910509F05EC033960DE110E021E030E038
:10432000408170E060E0C7010E94640978CB2230D0
:10433000310509F49FC02330310509F070CB93FF9C
:104340006ECB90910E02F801E85AFF4F80818230C7
:1043500009F4EDC008F0D2C0813009F4DCC020912E
:104360000E0244E050E070E060E0CD01039751C0E0
:104370008F7EAFCF933009F1943009F0BACFF801B6
:10438000EB59FF4F9081992311F1886007C0F80124
:10439000EB59FF4F9081992321F0816080931102A6
:1043A000A8CF8E7FFBCFF801EB59FF4F9081992367
:1043B00011F08260F3CF8D7FF1CFF801EB59FF4F01
:1043C0009081992311F08460E9CF8B7FE7CF877FBD
:1043D000E5CF029709F023CBF801EA5AFF4F0DE130
:1043E00010E030E020E09CCF91FF19CB80911002CB
:1043F000F801E85AFF4F9081923031F168F4913022
:10440000B9F02091100242E050E070E060E0CD0190
:1044100001970E94B10B03CB933001F1943089F7DF
:10442000F801EB59FF4F9081992311F1886007C083
:10443000F801EB59FF4F9081992321F0816080931F
:104440001002DFCF8E7FFBCFF801EB59FF4F908139
:10445000992311F08260F3CF8D7FF1CFF801EB59F2
:10446000FF4F9081992311F08460E9CF8B7FE7CFD4
:10447000877FE5CF92FFD3CA80910F02F801E85AF7
:10448000FF4F9081923021F158F49130A9F02091A2
:104490000F0243E050E070E060E0CD010297B9CF39
:1044A000933001F1943099F7F801EB59FF4F908167
:1044B000992311F1886007C0F801EB59FF4F9081F3
:1044C000992321F0816080930F02E1CF8E7FFBCF93
:1044D000F801EB59FF4F9081992311F08260F3CFDF
:1044E0008D7FF1CFF801EB59FF4F9081992311F0A7
:1044F0008460E9CF8B7FE7CF877FE5CF833009F1F9
:10450000843009F02CCFF801EB59FF4F80818823CC
:1045100011F1986007C0F801EB59FF4F80818823A3
:1045200021F0916090930E021ACF9E7FFBCFF8018D
:10453000EB59FF4F8081882311F09260F3CF9D7F6C
:10454000F1CFF801EB59FF4F8081882311F094607F
:10455000E9CF9B7FE7CF977FE5CF97FD0E942809A2
:1045600010E038CE8DE190E00E94880A82FF0AC0F8
:1045700041E050E06BE278E087E00E944D0343E0C9
:104580004B8B4DCA0E948C0F81E08B8B48CA2091C7
:104590003D0230913E0240913F0250914002A4E61C
:1045A000B0E00E94E023209141023091420240910C
:1045B0004302509144020E94B52349015A0180915F
:1045C000310281110BC080922D0290922E02A09296
:1045D0002F02B092300281E080933102809112016B
:1045E000833059F5C501B40124E630E040E050E0E5
:1045F0000E94B523A5E0B0E00E94E02300912D02C7
:1046000010912E0220912F023091300224013501A9
:10461000461A570A680A790A04151505260537054A
:1046200048F0680D791D8A1D9B1D60177107820770
:10463000930718F482E08093120110911201123056
:10464000C1F1133009F441C01130A1F48091250269
:10465000811108C085E093E00E94970580932402B1
:104660001093250280912402813061F581E090E071
:104670000E9456090E9428096AE070E080E090E0FC
:104680000E940B0380922D0290922E02A0922F0284
:10469000B09230020E94E5026C197D098E099F09D3
:1046A0006132714A8740910508F4F0CBFFEFFB8B34
:1046B000EDCBD501C401C897A109B1098C97A1051B
:1046C000B105A0F290E080E0D3CF8FEF92E00E949E
:1046D0009705182F813071F680911101813069F4AE
:1046E00090E080E00E945609109211018FEF92E055
:1046F0000E9497058130D1F3BDCF81E090E00E9408
:10470000560910931101F2CF8FEF92E00E949508A5
:1047100085E093E00C949508E199FECF9FBB8EBB9A
:10472000E09A99278DB30895262FE199FECF9FBB7C
:104730008EBB2DBB0FB6F894E29AE19A0FBE01969C
:10474000089597FB072E16F4009407D077FD09D043
:104750000E94EB2307FC05D03EF4909581959F4F76
:104760000895709561957F4F0895A1E21A2EAA1BB6
:10477000BB1BFD010DC0AA1FBB1FEE1FFF1FA21711
:10478000B307E407F50720F0A21BB30BE40BF50B0E
:10479000661F771F881F991F1A9469F76095709597
:1047A000809590959B01AC01BD01CF010895EE0F5E
:1047B000FF1F0024001C0BBE0790F691E02D09940A
:1047C0000E94FF23A59F900DB49F900DA49F800D84
:1047D000911D11240895AA1BBB1B51E107C0AA1FFC
:1047E000BB1FA617B70710F0A61BB70B881F991F92
:1047F0005A95A9F780959095BC01CD010895A29F87
:10480000B001B39FC001A39F700D811D1124911DA4
:10481000B29F700D811D1124911D08950F931F9358
:10482000CF93DF93869F8001879F100D969F100D79
:104830001124C8010E942A24EC01009729F0A80144
:1048400070E060E00E945C25CE01DF91CF911F9166
:104850000F9108950F931F93CF93DF9382309105AB
:1048600010F482E090E0E091A507F091A60730E017
:1048700020E0B0E0A0E0309799F42115310509F46B
:104880004AC0281B390B24303105D8F58A819B8119
:104890006115710589F1FB0193838283FE0111C0CB
:1048A000408151810281138148175907E0F0481770
:1048B000590799F4109761F012960C93129713967A
:1048C0001C933296CF01DF91CF911F910F910895E4
:1048D0000093A5071093A607F4CF2115310551F0D9
:1048E0004217530738F0A901DB019A01BD01DF012E
:1048F000F801C1CFEF01F9CF9093A6078093A507E8
:10490000CDCFFE01E20FF31F819391932250310925
:1049100039832883D7CF2091A3073091A407232B75
:1049200041F420911501309116013093A407209392
:10493000A30720911301309114012115310541F491
:104940002DB73EB74091170150911801241B350B2C
:10495000E091A307F091A407E217F307A0F42E1B40
:104960003F0B2817390778F0AC014E5F5F4F2417D3
:10497000350748F04E0F5F1F5093A4074093A307DD
:10498000819391939FCFF0E0E0E09CCFCF93DF93B2
:104990000097E9F0FC01329713821282A091A507DB
:1049A000B091A607ED0130E020E01097A1F420813E
:1049B0003181820F931F2091A3073091A4072817FC
:1049C000390709F061C0F093A407E093A307DF91D2
:1049D000CF910895EA01CE17DF07E8F54A815B81A0
:1049E0009E0141155105B1F7E901FB83EA83499125
:1049F0005991C40FD51FEC17FD0761F48081918197
:104A00000296840F951FE90199838883828193819F
:104A10009B838A83F0E0E0E012968D919C9113973E
:104A20000097B9F52D913C911197CD010296820F17
:104A3000931F2091A3073091A4072817390739F64F
:104A4000309751F51092A6071092A507B093A407CE
:104A5000A093A307BCCFD383C28340815181840F2D
:104A6000951FC817D90761F44E5F5F4F8881998100
:104A7000480F591F518340838A819B81938382838E
:104A80002115310509F0B0CFF093A607E093A507F3
:104A90009ECFFD01DC01C0CF13821282D7CFFB0174
:104AA000DC0104C08D910190801921F441505040E7
:104AB000C8F7881B990B0895DC0101C06D93415024
:104AC0005040E0F7089511E0CDE6D1E004C0FE01CA
:104AD0000E94D7232196CE36D107C9F7F894FFCF8D
:104AE000018F050000000000000000000000000031
:104AF0000001010000A70780001D00021D00228D9B
:104B000003880383037E03790374036F036A0365D9
:104B10000360035B03560351034C03470342033D09
:104B200003380333032E03290324031F031A031539
:104B30000310030B03000000002D0600067406DDC1
:084B4000059005ED05DE0500FE
:00000001FF
