:100000000C9446010C9402120C94D7110C94AC1170
:100010000C9481110C9456110C942B110C9400111A
:100020000C94D5100C9470010C9470010C94700118
:100030000C944D130C9470010C9470010C9470018D
:100040000C948B100C9470010C9455100C942B1084
:100050000C9470010C9470010C9470010C9470015C
:100060000C9470010C9470010C9470010C9470014C
:100070000C9470010C9470010C9470010C9470013C
:100080000C9470010C942D120C9470013F0300002D
:10009000000000080D0000000000000101C0800009
:1000A000000000000000000000060000000000004A
:1000B0000000000000000000000000000000000040
:1000C000000000000000FF0300000000000000002E
:1000D0000000000000000000000000000000000020
:1000E0000000000000000000000000000000000010
:1000F0000000000000000000000000000100AA0055
:100100000200AA000300AA000400AA000500AA0039
:100110000600AA000700AA000800AA000900AA0019
:100120000A0080000B0080000C0080000D008000A1
:100130000E0080000F008000100080001100800081
:10014000120080001300AA001400AA000000AA00F8
:100150000000AA000000AA000000AA000000AA00F7
:100160001580FF001581FF00FF000000FF00000068
:10017000FF000000FF000000FF000000FF00000083
:10018000FF000000FF000000FF000000FF00000073
:10019000FF000000FF000000FF0000000000000062
:1001A000000000000000000000000000000000004F
:1001B000000000000000000000000039003600339D
:1001C00000300021002000630000003A00370034B6
:1001D00000310022006100640000003B003800355F
:1001E00000320023006200650005050505050505D0
:1001F00005020202020202020207070404040404C8
:1002000004040407070303030303030303070101B3
:1002100001010101010106060606060606060102A5
:1002200004081020408001020408102040800810BB
:10023000010204081020408001020102040810207D
:1002400040800480402010080402010102040810CC
:100250002040800000000A0B0C000000000000019C
:10026000040506000000000000000000000000007F
:10027000000000000000000000000000000000007E
:100280000000000000000000A6141B1811241FBE6F
:10029000CFEFD0E1DEBFCDBF11E0A0E0B1E0EEECEA
:1002A000F3E300E00BBF02C007900D92AE35B1073B
:1002B000D9F727E0AEE5B1E001C01D92A138B20741
:1002C000E1F711E0C5E4D1E004C02197FE010E94EE
:1002D0008918C434D107C9F70E9430170C94DA1971
:1002E0000C94000008959C016115710529F061309E
:1002F000710571F080E008958091B90682171306A8
:1003000081F09091BC0681E09217130699F7089549
:1003100081E04091BA065091BB064217530751F74E
:10032000F6CF81E0F4CF81E08093F301089520912E
:100330005E07213099F49C0124583340283231055E
:10034000C8F0813823E09207A9F09C012C5F33406C
:1003500081E02530310578F080E00895223021F4E5
:100360009C012C5A3340EACF233059F79C01245D7D
:100370003340E4CF81E00895FC01538D448D252F57
:1003800030E0842F90E0821B930B541710F0CF962F
:10039000089501970895FC01918D828D981761F061
:1003A000A28DAE0FBF2FB11D5D968C91928D9F5F78
:1003B0009F73928F90E008958FEF9FEF0895FC0157
:1003C000918D828D981731F0828DE80FF11D858D0A
:1003D00090E008958FEF9FEF0895FC01918D228D9D
:1003E000892F90E0805C9F4F821B91098F73992722
:1003F0000895FC01A48DA80FB92FB11DA35ABF4FBA
:100400002C91848D90E001968F739927848FA68913
:10041000B7892C93A089B1898C9180648C93938D3A
:10042000848D981306C00288F389E02D80818F7D2A
:1004300080830895EF92FF920F931F93CF93DF93E2
:10044000EC0181E0888F9B8D8C8D981316C0E88914
:10045000F989808185FF11C0EE89FF896083E88971
:10046000F98980818064808381E090E0DF91CF9181
:100470001F910F91FF90EF900895F62E0B8D10E0D5
:100480000F5F1F4F0F731127E02E8C8D8E110CC044
:100490000FB607FCFACFE889F989808185FFF5CF8F
:1004A000CE010E94F901F1CFEB8DEC0FFD2FF11D74
:1004B000E35AFF4FF0820B8FEA89FB8980818062CB
:1004C000D2CFCF93DF93EC01888D8823B9F0AA892E
:1004D000BB89E889F9898C9185FD03C0808186FDFF
:1004E0000DC00FB607FCF7CF8C9185FFF2CF80814E
:1004F00085FFEDCFCE010E94F901E9CFDF91CF91C9
:10050000089581E392E00E94ED0121E0892B09F436
:1005100020E0822F089580E090E0892B29F00E944E
:10052000810281110E94000080E090E0892B49F057
:1005300080E090E0892B29F00E94000081110C944A
:1005400000000895DC011296ED91FC91139711962D
:100550009C911197808161110EC090959823908392
:100560001496ED91FC911597908111968C91809540
:10057000892380830895623061F490959823908355
:100580001496ED91FC911597808111969C91892B81
:10059000F0CF982B90830895AF92BF92CF92DF92C5
:1005A000EF92FF920F931F93CF93DF936C017B0128
:1005B0008B01040F151FEB015E01AE18BF08C017B9
:1005C000D10759F06991D601ED91FC910190F0812C
:1005D000E02DC6010995892B79F7C501DF91CF91EF
:1005E0001F910F91FF90EF90DF90CF90BF90AF9051
:1005F000089590E0FC01ED5AFD4F2491FC01E25E6C
:10060000FD4F349187519E4FFC018491882359F10D
:100610002223C1F021502C30A8F4E22FF0E0ED5E4F
:10062000FC4F0C9489184C034C0322031F03340322
:1006300037033A03220322033E03440348039FB5D2
:100640009F779FBDE82FF0E0EE0FFF1FE752FE4FB0
:10065000A591B4918FB7F894EC91611121C03095B8
:100660003E233C938FBF08959FB59F7DEACF9FB5F2
:10067000977FE7CF95B59F7D95BDE4CF90918B0097
:100680009F7790938B00DECF90918B009F7DF9CF69
:1006900090918B00977FF5CF93B79F7D93BFD2CF7B
:1006A0003E2BDFCFCF93DF9390E0FC01E25EFD4F66
:1006B000249187519E4FFC0184918823D1F090E0D2
:1006C000880F991FFC01E753FE4FA591B491FC01DF
:1006D000E752FE4FC591D49161110EC09FB7F894B7
:1006E0008C91E22FE0958E238C932881E223E8837E
:1006F0009FBFDF91CF9108958FB7F894EC91E22BD3
:10070000EC938FBFF6CF3FB7F8948091CF019091D3
:10071000D001A091D101B091D20122B706B600FE5E
:1007200005C02F3F19F00196A11DB11D3FBFBA2F83
:10073000A92F982F8827BC01CD01620F711D811D43
:10074000911D42E0660F771F881F991F4A95D1F7C8
:1007500008958F929F92AF92BF92CF92DF92EF92C5
:10076000FF924B015C010E9483036B017C010E949C
:1007700083036C197D098E099F09683E73408105CA
:100780009105A8F321E0821A9108A108B10888EE2A
:10079000C80E83E0D81EE11CF11C81149104A10451
:1007A000B10429F7FF90EF90DF90CF90BF90AF900A
:1007B0009F908F900895CF93DF93CEE5D7E061E0CF
:1007C0008D8D9E8D0E94A202AD8DBE8D1496ED91F1
:1007D000FC911597908111968C9180958923808347
:1007E00061E070E080E090E00E94A90360E08D8D00
:1007F0009E8DDF91CF910C94A20261E08BE00E946C
:10080000F90264E070E080E090E00E94A90360E0FB
:100810008BE00C94F9020C94FD03E82FF0E0DF016B
:10082000AA0FBB1FA050BF4F11967C936E938830C8
:10083000A8F4E35EFB4F0C94891825042F043C04B4
:100840004A0458045F046A04760480916A008C7F2D
:10085000482B40936A0089B7816089BF08958091D1
:100860006A00837F440F551F440F551F482B409348
:100870006A0089B78260F1CF80916A008F7C74E052
:10088000440F551F7A95E1F7482B40936A0089B7CA
:100890008460E3CF80916A008F7366E0440F551F38
:1008A0006A95E1F7482B40936A0089B78860D5CFF5
:1008B0008AB78C7F482B4ABF89B78061CECF8AB771
:1008C000837F440F551F440F551F482B4ABF89B7DC
:1008D0008062C3CF8AB78F7C24E0440F551F2A95CE
:1008E000E1F7482B4ABF89B78064B7CF8AB78F73C7
:1008F00096E0440F551F9A95E1F7482B4ABF89B7F8
:100900008068ABCF883010F40C940D040895FF92EA
:100910000F931F93CF93DF930E9483032091610174
:1009200030916201EB01C21BD30B20911502309173
:100930001602C217D30708F461C040911902509102
:100940001A024130510561F0E0910E02F0910F0260
:1009500020813091100223233091F90123134EC0DE
:100960007093620160936101009117021091180267
:100970004230510509F419C14330510509F454C1FD
:100980004130510561F480916001813009F449C022
:10099000D8F1833009F486C0843009F4CFC0809147
:1009A000190290911A02019749F1C017D10708F076
:1009B00073C180915E018F5F80935E018B30F0F098
:1009C00081E090E090931A028093190241E050E098
:1009D00067E874E080910C020E9482041092F90191
:1009E0001092600182E590E09093180280931702C4
:1009F00083E290E09093160280931502DF91CF91ED
:100A00001F910F91FF900895C017D10730F481E036
:100A100080936001C0935F01C2CF84E08093600146
:100A2000BECFC017D107E0F51092600180915E0142
:100A30008F5F80935E0120915F018C2F0C2E000C44
:100A4000990B821B910927FD939597FF03C0919500
:100A500081959109499794F210921A021092190205
:100A600082E990E0909318028093170282E590E06B
:100A7000909316028093150210925E01F090FA0195
:100A80004F2D50E067E874E080910C020E948204D0
:100A90008091100293E0F91229C08093F9017FCF71
:100AA00083E0BCCFC017D10718F510921A0210923C
:100AB000190282E990E0909318028093170282E570
:100AC00090E0909316028093150210925E01F090D0
:100AD000FA014F2D50E067E874E080910C020E940B
:100AE00082048091100233E0F316B9F280E0D5CF92
:100AF0009091FA01933009F482E08093FA0182E048
:100B000090E090931A028093190282E990E090930A
:100B100018028093170282E590E09093160280936A
:100B2000150210921F0280915E01809320021092A4
:100B30001C0210921E0210921D02C9CFC017D107CD
:100B4000A8F410921A021092190282E990E0909390
:100B500018028093170282E590E09093160280932A
:100B6000150210925E0110921C0288CF82E090E084
:100B700090931A028093190282E990E090931802F0
:100B80008093170282E590E09093160280931502FD
:100B900010921F0280915E018093200210921C022D
:100BA00010921E0210921D0269CF90911C029F5F4D
:100BB00090931C0280911D02880FC017D107E0F0AE
:100BC00080931D02983009F0F0CEE0911F02E630CC
:100BD000A9F410921A021092190282E990E09093FF
:100BE00018028093170282E590E09093160280939A
:100BF000150210921C02D3CE8160E2CF83E090E018
:100C000090931A028093190281E08E0F80931F0245
:100C100090911D02F0E0E75EFD4F908780911E02EB
:100C2000892780931E02BBCEC017D10728F51092EA
:100C30001A021092190210921C0282E990E090931D
:100C400018028093170282E590E090931602809339
:100C5000150280911E028111ACCE88E0EFE1F2E036
:100C6000A7E2B2E001900D928A95E1F781E08093CE
:100C70001B0210925E0193CE80911F02863009F410
:100C8000A8CF82E090E090931A028093190210920C
:100C90001C0210921D0283CE10925E01AFCE85ED34
:100CA000809374008091740084FDFCCF1092A801A1
:100CB000089520918401260F3327331F21323105F7
:100CC000ECF42091A801FC0190E080E0243069F070
:100CD00082E00895A09184012191AC014C595E4FAE
:100CE000A40FB52FB11D2C930196861798F3809110
:100CF0008401680F6093840180E0089581E0089585
:100D000008958FEF9FEF08958FEF9FEF08958091E3
:100D1000630190E09195819591090895CF93DF93B8
:100D2000CB01EA01642F0E945906CE01DF91CF91D9
:100D30000895CF93DF931F92CDB7DEB7698361E04B
:100D4000CE0101960E94590681E090E00F90DF915C
:100D5000CF91089590E080E00895CF93DF93DC0178
:100D6000EC91F0E0EE0FFF1FE754FE4FC591D491D8
:100D7000988111968C91982381E009F480E0DF91AD
:100D8000CF91089580E090E0892B29F080911402A2
:100D900083FD0C9400000895E82FF0E0ED52FE4F23
:100DA000608308950F931F93CF93DF93FC0182819B
:100DB000813089F040F0823009F47AC0DF91CF9120
:100DC0001F910F91089561E08081DF91CF911F9174
:100DD0000F910C94F9020181C02FD0E0108161E0E5
:100DE000812F0E945203209719F460E0812FEDCFEC
:100DF000CF3FD10511F461E0F9CFE12FF0E0ED5ADA
:100E0000FD4FE491E150EC3008F04DC0F0E0E55FBB
:100E1000F84F0C9489181707170753071C07220768
:100E2000280730075307530735073F07490783B79C
:100E3000806283BF01BFC2CF8FB580688FBDDBBD2D
:100E4000CABDBCCF8FB580628FBDD9BDC8BDB6CF7E
:100E50008FB588608FBDD0937900C0937800AECFF6
:100E600085B5806285BD03BDA9CF80918B00806868
:100E700080938B00D0938700C09386009FCF809192
:100E80008B00806280938B00D0938500C093840098
:100E900095CF80918B00886080938B00D0938300E6
:100EA000C09382008BCFC038D1050CF0A4CF9DCF6A
:100EB0008181E381F0E0ED52FE4F80837FCF0F937D
:100EC0001F93CF93DF93D62F8C01C0E0CD1741F055
:100ED000F801819191918F010E94D206CF5FF6CFE8
:100EE000DF91CF911F910F9108958F929F92AF92B2
:100EF000BF92CF92DF92EF92FF920F931F93CF9307
:100F00000E948303AB01BC018091D0029091D10279
:100F1000A091D202B091D3028A019B01081B190B48
:100F20002A0B3B0B8091D802882309F47FC0809163
:100F3000DA029091D902E92FEE0FFF0BA82F082EAD
:100F4000000CBB0BC3E68C02E00DF11D1124E25333
:100F5000FD4F178B068B053F11402105310508F029
:100F600054C09F5F9093D9029091D9029332C9F5F2
:100F700093E69A9F90019B9F300D112422533D4F81
:100F8000F901E45AFF4FC090D402D090D502E0900E
:100F9000D602F090D7024A015B018C189D08AE087A
:100FA000BF0875016401C082D182E282F3822959AF
:100FB0003F4FE1E0F0E0D901ED93FC938F5F8A3081
:100FC00094F58093DA02E091DA02B3E6EB02F001E5
:100FD0001124EB5CFC4F118210821092D802109207
:100FE000D9024093D0025093D1026093D202709301
:100FF000D302CF911F910F91FF90EF90DF90CF9090
:10100000BF90AF909F908F9008951092D90291E079
:101010009093D8024093D4025093D5026093D602A5
:101020007093D702A1CF1092DA02CDCF053F1140C5
:1010300021053105B0F281E08093D8024093D402BB
:101040005093D5026093D6027093D702CACF1F93F4
:10105000CF93DF93C6E1D1E01FEF89919991FC0115
:1010600011830E94D206F1E0CC34DF07B1F7DF91A3
:10107000CF911F910895E82FF0E0ED52FE4F60836D
:101080000895CF93FC018281813051F020F08230AD
:1010900079F0CF91089560E08081CF910C94F902AE
:1010A000C08161E08C2F0E94520360E08C2FF5CF4D
:1010B000E381F0E0ED52FE4F1082EBCF8093F4011C
:1010C000882321F08DE497E00C94D2068DE497E01C
:1010D0000C944108CF93C82F8091FD018C1731F0FB
:1010E00081E0C11101C080E00E945E08C093FD0153
:1010F000CC2311F12FB7F8948091EF019091F0017A
:10110000A091F101B091F2012FBF482F392F2A2F62
:101110008B2F4093FE013093FF01209300028093B8
:1011200001028091FD018C1761F081E0C11101C0C5
:1011300080E0CF910C945E0840E030E020E080E059
:10114000E8CFCF910895EF92FF920F931F93CF9323
:10115000DF938C01FC01C581D681209751F0E4809A
:10116000F12CEF1431F0899199910E944108F39488
:10117000F8CFF801C085D185209751F0078110E0A4
:10118000011731F0899199910E9441081F5FF8CFB2
:10119000DF91CF911F910F91FF90EF9008950F93E2
:1011A0001F93CF938C01C42F0E9473018823E1F118
:1011B0008091BC06482F50E0C03128F5882319F1F2
:1011C0002C2F30E08091C9069091CA060C2E02C0E7
:1011D000969587950A94E2F780FF15C004171507C6
:1011E00019F58091C4069091C5060097E9F0220F89
:1011F000331F820F931FFC0180819181CF911F913A
:101200000F910C94A3080417150771F08091C40680
:101210009091C506009741F04C2F50E0440F551FA8
:10122000480F591FFA01E8CFCF911F910F910895F0
:10123000CF938091C7069091C806892BA1F1C0E099
:101240008091C306C81778F58C2F8695869586956C
:1012500090E0E091C706F091C806E80FF91F2081E1
:1012600030E04C2F50E063E0880F991F6A95E1F75A
:10127000BA01681B790B02C0359527956A95E2F78C
:1012800020FF0FC08091C4069091C506009749F0D9
:10129000440F551F840F951FFC01808191810E948E
:1012A000A308CF5FCDCF1092C606CF9108950F93BC
:1012B0001F93CF93DF93EC018B81882379F08B010F
:1012C00089819A818617970729F0CE010E94A30889
:1012D0001A83098389819A81019731F48D819E81D6
:1012E000009769F06C8105C088859985009739F071
:1012F0006F81DF91CF911F910F910C945F07DF9168
:10130000CF911F910F9108950F931F93CF938C014D
:10131000C42F0E947301882309F444C08091BC0645
:10132000482F50E0C03148F5882339F12C2F30E0A8
:101330008091C9069091CA060C2E02C09695879599
:101340000A94E2F780FF19C00417150759F5809138
:10135000C4069091C506009729F16091C00670916E
:10136000C106220F331F820F931FFC0180819181E0
:10137000CF911F910F910C9457090417150791F005
:101380008091C4069091C506009761F06091BE06F9
:101390007091BF064C2F50E0440F551F480F591F46
:1013A000FA01E4CFCF911F910F910895CF93C0E040
:1013B0008091C306C81798F48091C4069091C50621
:1013C000009759F02C2F30E0220F331F820F931F0C
:1013D000FC01808191810E94A308CF5FE9CF8091B9
:1013E000C7069091C806892BC1F1C0E08091C30661
:1013F000C81798F58C2F86958695869590E0E09194
:10140000C706F091C806E80FF91F208130E04C2F85
:1014100050E063E0880F991F6A95E1F7BA01681BF5
:10142000790B02C0359527956A95E2F720FF13C026
:101430008091C4069091C506009769F06091BE0640
:101440007091BF06440F551F840F951FFC018081CA
:1014500091810E945709CF5FC9CF81E08093C60672
:10146000CF9108950E946A08EBEFF1E081E0878355
:101470001086E4E0F2E088E0DF011D928A95E9F74A
:1014800008950C947418CF93863823E0920719F1CD
:1014900030F481389340D1F08FEFCF9108958738A1
:1014A00023E09207D9F088389340B1F786E893E0BB
:1014B0000E94410AC82F87E893E00E94410A90E009
:1014C0002FEFC29F800D911D112402C081E893E08F
:1014D000CF910C94410A86E893E0FACF87E893E035
:1014E000F7CFDF92EF92FF920F931F93CF93DF938B
:1014F0008C017B01D42EE9010E9473018111D092ED
:10150000C2068DE190E00E94410AD82EB701C801C1
:101510000E9473018823B1F08091BC0680171106E8
:1015200029F58091C0069091C106C817D90751F0DE
:101530008091BD068823A9F0219761F41092C1061D
:101540001092C006DF91CF911F910F91FF90EF9005
:10155000DF90089581E090E09093C1068093C006EB
:10156000F1CFD093C106C093C006ECCF8091BE06E8
:101570009091BF06C817D90729F3D0FE0EC0219756
:1015800029F41092BF061092BE06DCCF81E090E0F5
:101590009093BF068093BE06D5CFD093BF06C0936D
:1015A000BE06D0CF0F931F93CF93C82F81E090E05A
:1015B0000E94410A0FE710E021E030E04C2F70E07C
:1015C00060E090E00E94710ACF911F910F91089501
:1015D0000F931F93CF936130710529F4CF911F9121
:1015E0000F910C94D20AC82F81E090E00E94410A2A
:1015F0000FE710E030E020E04C2F70E060E090E07A
:101600000E94710ACF911F910F9108951F93CF935C
:10161000DF93EC018091F401882359F08FE090E092
:101620000E94410A182F80E190E00E94410A18139D
:1016300006C0CE01DF91CF911F910C94410A8DE439
:1016400097E00E9441080FB6F894A89581B588618B
:1016500081BD11BC0FBEFFCF0C94060BCF93DF935F
:1016600020911102309112022F3F320721F0C9015F
:10167000DF91CF9108958091140287FF2BC086FFE0
:101680000FC089E090E00E942C0BC82F81E090E011
:101690000E942C0B9C2F909312028093110215C074
:1016A00089E090E00E942C0BC82F81E090E00E941E
:1016B0002C0B90E4C99F90011124207C31708F7312
:1016C000282B3093120220931102809111029091E5
:1016D0001202CECF85FF0CC081E190E00E942C0B5E
:1016E000C82F82E190E00E942C0BC05CDD0BD2CFB2
:1016F00081E090E00E942C0B90E0CDCFFF920F9301
:101700001F93CF93DF93EC018B01F22E43305105F1
:1017100009F471C068F441305105E9F042305105D7
:1017200009F44BC0DF91CF911F910F91FF90089565
:101730004530510509F4C7C008F47BC04630510557
:1017400089F740E024FF26C0DF91CF911F910F91D0
:10175000FF900C94840940E024FF23C00E94840978
:1017600041E0B801CE01F0FE1FC00E94840942E0B2
:10177000B801CE01F1FE1BC00E94840943E0B8010C
:10178000CE01F2FE17C00E94840944E0B801CE01E8
:10179000F3FCDACFDF91CF911F910F91FF900C9462
:1017A000CF080E94CF08DCCF0E94CF08E0CF0E9474
:1017B000CF08E4CF0E94CF08E8CF45E020FF12C059
:1017C0000E94840946E0B801CE01F1FE0EC00E94DD
:1017D000840947E0B801CE01F2FE0AC00E948409E4
:1017E00048E0D4CF0E94CF08EDCF0E94CF08F1CFC0
:1017F0000E94CF08F5CF49E020FF12C00E94840963
:101800004AE0B801CE01F1FE0EC00E9484094BE00F
:10181000B801CE01F2FE0AC00E9484094CE0B6CFA6
:101820000E94CF08EDCF0E94CF08F1CF0E94CF08D1
:10183000F5CF4DE020FF32C00E9484094EE0B80190
:10184000CE01F1FE2EC00E9484094FE0B801CE0106
:10185000F2FE2AC00E94840940E1B801CE01F3FEE5
:1018600026C00E94840941E1B801CE01F4FE22C0E5
:101870000E94840942E1B801CE01F5FE1EC00E941B
:10188000840943E1B801CE01F6FE1AC00E94840922
:1018900044E1B801CE01F7FE7DCF56CF0E94CF08BC
:1018A000CDCF0E94CF08D1CF0E94CF08D5CF0E94C4
:1018B000CF08D9CF0E94CF08DDCF0E94CF08E1CF5B
:1018C0000E94CF08E5CF45E120FF2EC00E94840989
:1018D00046E1B801CE01F1FE2AC00E94840947E129
:1018E000B801CE01F2FE26C00E94840948E1B80189
:1018F000CE01F3FE22C00E94840949E1B801CE0165
:10190000F4FE1EC00E9484094AE1B801CE01F5FE32
:101910001AC00E9484094BE1B801CE01F6FE16C040
:101920000E9484094CE1B5CF0E94CF08D1CF0E941C
:10193000CF08D5CF0E94CF08D9CF0E94CF08DDCFE6
:101940000E94CF08E1CF0E94CF08E5CF0E94CF08C8
:10195000E9CFCF93C82F81E090E00E94410A2C2F5D
:1019600042E050E070E060E090E00E947E0B81E099
:1019700090E00E94410A2C2F30E094E035952795A5
:101980009A95E1F743E050E070E060E090E0CF919D
:101990000C947E0BCF938230910511F1C62F8330CA
:1019A000910520F4019779F0CF9108958330910546
:1019B000D9F00497C9F781E090E00E94410A2C2FEA
:1019C00045E050E007C081E090E00E94410A2C2FE2
:1019D00041E050E070E060E090E0CF910C947E0B2D
:1019E000862FCF910C94A90C81E090E00E94410ACF
:1019F0002C2F44E050E0EECF1F93CF93DF93EC0108
:101A0000162F0E947418181721F0612FCE010E9422
:101A10007C18CE01DF91CF911F910C94410ACF9396
:101A2000DF93863823E0920739F138F48138934008
:101A3000E9F08FEFDF91CF910895873823E0920787
:101A4000F1F088389340A9F7C62F86E893E00E940A
:101A5000410AD82F87E893E00E94410A90E06C2F5A
:101A60002FEFD29F800D911D112402C081E893E0D9
:101A7000DF91CF910C94FC0C86E893E0F9CF87E8D6
:101A800093E0F6CF0F931F93CF93DF930FB6F894A5
:101A9000A89581B5886181BD11BC0FBE0FB7F894C0
:101AA000D0E0C0E0FE01E457FF4F1491CE010E9448
:101AB0007418181721F0612FCE010E947C1821960E
:101AC000CD3281E0D80771F781E893E00E94741865
:101AD000813029F061E081E893E00E947C180E9447
:101AE00027080FBF88E19BE00FB6F894A89581BD49
:101AF0000FBE91BDDF91CF911F910F9108951F935C
:101B0000CF93DF93EC01162F089779F4662319F130
:101B10000E94420D80E090E0892BB9F0612FCE0148
:101B2000DF91CF911F910C94000080E090E0892B11
:101B3000A9F781E0C11590E1D90708F080E0111103
:101B400005C0DF91CF911F91089581E027972297DB
:101B5000C0F780E0F6CF80E090E0892BF9F681E0D5
:101B6000F0CF0F931F93CF93DF932091F4012223A3
:101B700029F08F30910541F48FE090E0DF91CF9113
:101B80001F910F910C94FC0C162FEC018FE090E04C
:101B90000E94410A082F80E190E00E94410A081348
:101BA0000CC0C730D10529F0C830D10519F4183060
:101BB00029F0FFCF612FCE01E1CFFFCF0E94420D70
:101BC00088E0DF91CF911F910F91089583319105A6
:101BD00088F48131910530F48130910519F0893014
:101BE000910531F42FEF3FEF309312022093110251
:101BF0000C94B10D8D319105D9F7677F6093140274
:101C00002091FB012F73362F307C232B2093FB0177
:101C1000E9CFCF93DF9389B78F7789BF82E791E0D0
:101C200090930F0180930E01E9E1F2E086E1DF017C
:101C30001D928A95E9F782E990E0909318028093CB
:101C4000170282E590E09093160280931502CBEF85
:101C5000D1E081E0888319828FEF9FEF9F8B8E8B7D
:101C6000188E83E08093FA018D898093F90143E017
:101C700050E067E874E089890E9482048DE190E079
:101C80000E942C0B682F6F738DE190E00E94E60D8F
:101C9000898F6AE087E090E00E94E60D6DE088E0C1
:101CA00090E00E94E60D80E00E94320A109230021D
:101CB00010922F02DF91CF9108950F931F930E94EE
:101CC00083030091F5011091F6012091F701309105
:101CD000F801601B710B820B930B613F79448240CA
:101CE000910508F456C08091F40181110BC08091D8
:101CF0002F029091300281309105B1F188F0029766
:101D000009F444C00E9483036093F5017093F601C7
:101D10008093F7019093F80181E01F910F9108954E
:101D200080E390E00E94060B80FF0EC041E050E08F
:101D300065E777E087E00E940D0481E090E09093F2
:101D4000300280932F02DECF8DE190E00E94060BDF
:101D500082FFD8CF41E050E063E971E087E00E9464
:101D60000D0482E090E0EBCF89B78F7789BF82E7DF
:101D700091E090930F0180930E018DE190E00E941D
:101D8000060B82FDE7CF0E94090EBCCF1092F30133
:101D9000FACF80E0C2CFBF92CF92DF92EF92FF9254
:101DA0000F931F93CF93DF938B01B42E690182FFB2
:101DB00023C083FF17C061E0C8010E947F0D882304
:101DC000D9F16B2DC8010E94E60D8B1135C0F601CB
:101DD000DF91CF911F910F91FF90EF90DF90CF9007
:101DE000BF90099460E0C8010E947F0D882321F113
:101DF000C8010E942C0BE9CF842F8770C1E0D0E08E
:101E00007E0101C0EE0C8A95EAF7D42FD870CB0181
:101E10000E942C0BC82FB4FE1CC061E0C8010E94B8
:101E20007F0D882349F0DD2389F0CE296C2FC8016E
:101E30000E94E60D8C1759F2DF91CF911F910F91FF
:101E4000FF90EF90DF90CF90BF900895E094CE2167
:101E5000EDCF60E0C8010E947F0D882369F3CE2199
:101E6000DD2319F0C111B3CFE7CFCC2309F4AFCFF5
:101E7000E3CFCF92DF92EF92FF920F931F93CF9316
:101E8000DF937C016B01C42F122FD42FD07E809161
:101E9000FB0187FF2CC0D03EC1F58091FC01882357
:101EA000A1F190E00E942C0BD82F8091FC0190E0D2
:101EB00001960E942C0B982F8D2FE816F90629F514
:101EC0006C2F70E0762F662766277370612B6F5F2B
:101ED0007F4F22EC36E0402F8C2FDF91CF911F9166
:101EE0000F91FF90EF90DF90CF900C94CB0E80FD80
:101EF00032C0D03609F464C088F4D03209F447C047
:101F0000D03409F45DC0DD2379F1DF91CF911F91C9
:101F10000F91FF90EF90DF90CF900895D03A09F4A1
:101F200083C090F42C2F2F7141E050E0D03869F736
:101F3000B601C701DF91CF911F910F91FF90EF90F4
:101F4000DF90CF900C947E0BD03C09F476C0D03E4D
:101F500009F4B6CFDACF0E942E0B8E159F0549F2F9
:101F6000E114F10431F2D1CF8C2F8E7071F680E044
:101F700090E0892B51F28C2F8170DF91CF911F91CE
:101F80000F91FF90EF90DF90CF900C940000CF71F5
:101F9000CF3109F0BACF412F4F7771F0413071F056
:101FA000111F1127111F212F30E00FE710E0B6019C
:101FB000C7010E94710AA9CF41E0F2CF40E0F0CF03
:101FC0002C2F30E08C2F8F71813029F030F0803150
:101FD00021F08131F9F440E001C041E025FB2227E6
:101FE00020F90DE110E030E0B601C7010E94710A4E
:101FF00080E090E0892B09F488CF4C2FB601C7010F
:10200000DF91CF911F910F91FF90EF90DF90CF90D4
:102010000C940000C901880F991F8E71C4FB4427DE
:1020200040F9482B4250DACF2C2F2F7043E050E07C
:10203000C4FF7ECF42E050E07BCFCF71CE3139F08C
:10204000CF3109F062CF212F45E050E071CF212F31
:1020500044E050E06DCF1F920F920FB60F92112403
:102060000BB60F922F933F934F935F936F937F9392
:102070008F939F93AF93BF93EF93FF9381E392E08E
:102080000E94F901FF91EF91BF91AF919F918F91C4
:102090007F916F915F914F913F912F910F900BBE68
:1020A0000F900FBE0F901F9018951F920F920FB6B2
:1020B0000F9211240BB60F922F938F939F93EF9350
:1020C000FF93E0914102F09142028081E09147024A
:1020D000F091480282FD1DC0908180914A028F5F7D
:1020E0008F7320914B02821741F0E0914A02F0E099
:1020F000EF5CFD4F958F80934A02FF91EF919F9186
:102100008F912F910F900BBE0F900FBE0F901F90CD
:1021100018958081F2CF1F920F920FB60F92112463
:102120002F933F938F939F93AF93BF938091EF0132
:102130009091F001A091F101B091F2013091CE01A6
:1021400023E0230F2D3768F126E8230F0296A11D07
:10215000B11D2093CE018093EF019093F001A093E5
:10216000F101B093F2018091CF019091D001A09143
:10217000D101B091D2010196A11DB11D8093CF0173
:102180009093D001A093D101B093D201BF91AF91B0
:102190009F918F913F912F910F900FBE0F901F90A5
:1021A00018950196A11DB11DD4CF1F920F920FB6A5
:1021B0000F9211240BB60F922F933F934F935F937F
:1021C0006F937F938F939F93AF93BF93EF93FF93FF
:1021D000E0910E01F0910F010995FF91EF91BF91F0
:1021E000AF919F918F917F916F915F914F913F91AF
:1021F0002F910F900BBE0F900FBE0F901F90189550
:102200001F920F920FB60F9211240BB60F922F93BD
:102210003F934F935F936F937F938F939F93AF936E
:10222000BF93EF93FF93E0910C01F0910D0109959D
:10223000FF91EF91BF91AF919F918F917F916F919E
:102240005F914F913F912F910F900BBE0F900FBE5A
:102250000F901F9018951F920F920FB60F92112496
:102260000BB60F922F933F934F935F936F937F9390
:102270008F939F93AF93BF93EF93FF93E0910A01E6
:10228000F0910B010995FF91EF91BF91AF919F9153
:102290008F917F916F915F914F913F912F910F900F
:1022A0000BBE0F900FBE0F901F9018951F920F92AC
:1022B0000FB60F9211240BB60F922F933F934F93AB
:1022C0005F936F937F938F939F93AF93BF93EF939E
:1022D000FF93E0910801F09109010995FF91EF91B9
:1022E000BF91AF919F918F917F916F915F914F912E
:1022F0003F912F910F900BBE0F900FBE0F901F902C
:1023000018951F920F920FB60F9211240BB60F92D1
:102310002F933F934F935F936F937F938F939F93ED
:10232000AF93BF93EF93FF93E0910601F091070104
:102330000995FF91EF91BF91AF919F918F917F91FF
:102340006F915F914F913F912F910F900BBE0F9026
:102350000FBE0F901F9018951F920F920FB60F92FD
:1023600011240BB60F922F933F934F935F936F936C
:102370007F938F939F93AF93BF93EF93FF93E091DE
:102380000401F09105010995FF91EF91BF91AF9183
:102390009F918F917F916F915F914F913F912F917D
:1023A0000F900BBE0F900FBE0F901F9018951F92AD
:1023B0000F920FB60F9211240BB60F922F933F93EB
:1023C0004F935F936F937F938F939F93AF93BF933D
:1023D000EF93FF93E0910201F09103010995FF91C2
:1023E000EF91BF91AF919F918F917F916F915F918D
:1023F0004F913F912F910F900BBE0F900FBE0F90FA
:102400001F9018951F920F920FB60F9211240BB6C2
:102410000F922F933F934F935F936F937F938F937D
:102420009F93AF93BF93EF93FF93E0910001F091DF
:1024300001010995FF91EF91BF91AF919F918F910C
:102440007F916F915F914F913F912F910F900BBEB4
:102450000F900FBE0F901F9018951F920F920FB6FE
:102460000F9211240BB60F922F933F934F935F93CC
:102470006F937F938F939F93AF93BF93EF93FF934C
:1024800080917100887F803609F44DC008F040C00B
:10249000883209F4A7C028F5803109F49BC0C8F43C
:1024A000882309F4F7C0883009F494C0FF91EF91B4
:1024B000BF91AF919F918F917F916F915F914F915C
:1024C0003F912F910F900BBE0F900FBE0F901F905A
:1024D0001895883109F486C0803241F78093A701AE
:1024E00014C0803409F49BC040F48033B9F38833BE
:1024F000E9F68093A70185ECAEC0803509F483C06E
:10250000883509F494C0883489F60E944F06CECFEE
:10251000883909F48AC038F5883729F050F48836AC
:1025200011F0803719F683E08093A8011092A6017C
:1025300055C0883809F479C0803919F0803809F01D
:10254000B5CF8091A601803208F06FC0E091A6015E
:1025500081E08E0F8093A60180917300F0E0EA572E
:10256000FE4F80833BC0803B39F0D0F4803A09F4C1
:1025700077C0883A09F09ACF84E08093A80110923E
:10258000850110928401F0E0E0E0099580918401DA
:1025900081110FC081E0809384011092640109C011
:1025A000803C09F4A8CF883C09F4A5CF883B09F00A
:1025B0007DCFE091850181E08E0F80938501F0E071
:1025C000EC59FE4F8081809373009091850180913A
:1025D000840129C08091CD018093730085EC8093A4
:1025E000740064CF9091CC018091CB01981758F57D
:1025F000E091CC0181E08E0F8093CC01F0E0E555B5
:10260000FE4F8081E9CFE091CC0181E08E0F809375
:10261000CC0180917300F0E0E555FE4F80839091EE
:10262000CC018091CB019817C8F285E8D8CFE09112
:10263000CC0181E08E0F8093CC0180917300F0E09B
:10264000E555FE4F80838091AA0181115ECF81E024
:102650008093A90184EA809374001092A80126CF88
:1026600085EC809374001092A8018091A6018032BD
:1026700030F4E091A601F0E0EA57FE4F108260913D
:10268000A60170E086E891E0F0E0E0E009951092A4
:10269000A6010CCF1092A70138CF1F920F920FB650
:1026A0000F9211248F939F9378948091EE019091D3
:1026B000ED01891708F0CFC090916200916090936E
:1026C00062009091EC01891708F0C9C0AD9A909111
:1026D000EB01891708F0C5C0969A9091EA01891715
:1026E00008F0C1C0979A9091E901891708F0BDC020
:1026F000909165009160909365009091E801891731
:1027000008F0B7C090916500926090936500909139
:10271000E701891708F0B1C0A89A9091E6018917DE
:1027200008F0ADC01B9A9091E501891708F0A9C087
:10273000909162009460909362009091E4018917F7
:1027400008F0A3C0C79A9091E301891708F09FC0D1
:10275000C59A9091E201891708F09BC0C49A9091A4
:10276000E101891708F097C0C69A9091E001891796
:1027700008F093C0DB9A9091DF01891708F08FC0B1
:10278000DC9A9091DE01891708F08BC0DD9A909158
:10279000DD01891708F087C0DE9A9091DC01891766
:1027A00008F083C0DF9A9091DB01891708F07FC0A1
:1027B0001C9A9091DA01891708F07BC01D9A9091BC
:1027C000D901891708F077C09091620092609093C8
:1027D00062009091D801891708F071C0C09A909159
:1027E000D701891708F06DC09091620090689093AE
:1027F00062009091D601891708F067C0909162003D
:102800009064909362009091D501891708F061C09F
:10281000909162009062909362009091D401891728
:1028200008F05BC09091620090619093620090917B
:10283000D301891708F055C0909162009860909379
:1028400062008F5F8093EE019F918F910F900FBE7A
:102850000F901F901895909162009E7F30CFAD9899
:1028600036CF96983ACF97983ECF909165009E7F4D
:1028700042CF909165009D7F48CFA8984ECF1B987E
:1028800052CF909162009B7F56CFC7985CCFC5987E
:1028900060CFC49864CFC69868CFDB986CCFDC98C3
:1028A00070CFDD9874CFDE9878CFDF987CCF1C98FE
:1028B00080CF1D9884CF909162009D7F88CFC09873
:1028C0008ECF909162009F7792CF909162009F7B14
:1028D00098CF909162009F7D9ECF909162009F7EE5
:1028E000A4CF90916200977FAACFDC0170E0FB013A
:1028F000E25EFD4FE4911196EC93119767517E4F84
:10290000FB0124912C9330E0220F331FF901E75390
:10291000FE4F8591949113969C938E931297F90193
:10292000E752FE4F8591949115969C938E93149740
:102930000895CF93DF93EC0161E088810E945203F8
:1029400060E08881DF91CF910C94F902EF92FF92C1
:102950000F931F93CF93DF931092340210923302A0
:1029600088EE93E0A0E0B0E08093350290933602C9
:10297000A0933702B093380280E591E09093320241
:102980008093310280E990E090933E0280933D0273
:1029900089E290E09093400280933F028BE290E0C6
:1029A00090934202809341028AE290E09093440225
:1029B0008093430285E990E090934602809345021C
:1029C0008CE290E0909348028093470210924A0272
:1029D00010924B0210924C0210924D0286E08093AE
:1029E0005F0786E090E00E94AE18EC0166E10E946D
:1029F0007514D0937C07C0937B071092D00210927D
:102A0000D1021092D2021092D3021092D4021092EC
:102A1000D5021092D6021092D7021092D8021092CC
:102A2000D9021092DA0287E090E09093CF0280936F
:102A3000CE0283E190E00E94410AC82F82E190E03B
:102A40000E94410AD82F81E190E00E94410A182F8C
:102A500081E090E00E94410A21E030E03093BF061F
:102A60002093BE063093C1062093C0061092C20682
:102A70001092C6061092C8061092C7068093B90637
:102A8000212F205C330BC9012D2F382FC9019093C2
:102A9000BB068093BA06CF77C093BC061092BD06E2
:102AA0008DE18093C30662E070E08DE190E00E94CA
:102AB00092189093C5068093C4060097C9F0EC0164
:102AC00010E0EE24E394F12C8AE090E00E94AE182E
:102AD000FC01F282E182138214821682158217822F
:102AE000118610861083899399931F5F1D3161F7BA
:102AF00067E082E597E00E94751463E288E597E05D
:102B00000E94751480E380934D07C2E0C0934F0785
:102B100010925007DFEFD0934E07109251078DE4CB
:102B200097E00E94991481E380934807C0934A0775
:102B300081E080934B07D093490710924C0788E4BB
:102B400097E00E94991482E380934307C09345075E
:102B5000C0934607D09344071092470783E497E059
:102B60000E94991483E380933E07C093400713E0CB
:102B700010934107D0933F07109242078EE397E0EE
:102B80000E94991484E380933907C0933B0784E043
:102B9000F82EF0923C07D0933A0710923D0789E354
:102BA00097E00E94991408E000933407C093360719
:102BB00095E0E92EE0923707D09335071092380759
:102BC00084E397E00E9499148EE280932F07C093CC
:102BD000310786E080933207D09330071092330795
:102BE0008FE297E00E949914E0922A07C0932C0785
:102BF00087E080932D07D0932B0710922E078AE24F
:102C000097E00E949914F0922507C093270700933C
:102C10002807D09326071092290785E297E00E94A3
:102C2000991485E280932007C093220789E080935E
:102C30002307D09321071092240780E297E00E9497
:102C4000991486E280931B07C0931D078AE0809346
:102C50001E07D0931C0710921F078BE197E00E947C
:102C6000991487E280931607C09318078BE080932E
:102C70001907D093170710921A0786E197E00E9470
:102C8000991488E280931107C09313070CE0009316
:102C90001407D09312071092150781E197E00E9464
:102CA000991489E280930C07C0930E072DE0F22E51
:102CB000F0920F07D0930D07109210078CE097E069
:102CC0000E9499148EE080930707C09309078093B0
:102CD0000A07D093080710920B0787E097E00E943D
:102CE000991400930207C09304070FE000930507AF
:102CF000D09303071092060782E097E00E94991490
:102D0000F092FD06C093FF0680E180930007D09308
:102D1000FE06109201078DEF96E00E949914009331
:102D2000F806C093FA0681E18093FB06D093F9067A
:102D30001092FC0688EF96E00E9499148FE280932F
:102D4000F306C093F50682E18093F606D093F4066D
:102D50001092F70683EF96E00E9499141093EE0606
:102D6000C093F00683E18093F106D093EF061092B2
:102D7000F2068EEE96E00E9499148CE18093E906AB
:102D8000C093EB0684E18093EC06D093EA061092A0
:102D9000ED0689EE96E00E9499148BE18093E4069B
:102DA000C093E60685E18093E706D093E50610928E
:102DB000E80684EE96E00E9499141AE11093DF066B
:102DC000C093E10686E18093E206D093E00610927C
:102DD000E3068FED96E00E94991409E10093DA066C
:102DE000C093DC0687E18093DD06D093DB0610926A
:102DF000DE068AED96E00E94991488E18093D5065C
:102E0000C093D7068093D806D093D6061092D906E1
:102E100085ED96E00E94991481E28093D006C093DC
:102E2000D2060093D306D093D1061092D40680ED3B
:102E300096E00E9499148DE28093CB06C093CD0654
:102E40001093CE06D093CC061092CF068BEC96E072
:102E5000DF91CF911F910F91FF90EF900C949914F7
:102E6000789483B78C6483BF87B7816087BF82E023
:102E70008EBD8EB581608EBD8FB581608FBD85B5ED
:102E8000846085BD85B5806485BD80918A0083603E
:102E900080938A0080918B00816080938B0087E80B
:102EA00086B91AB80FB6F894A89581B5886181BD26
:102EB00011BC0FBE2FB7F89490E080E0FC01ED52FA
:102EC000FE4F108201968B319105C1F7809162000F
:102ED0008E7F80936200AD98969897988091650058
:102EE0008E7F80936500809165008D7F8093650063
:102EF000A8981B98809162008B7F80936200C7988E
:102F0000C598C498C698DB98DC98DD98DE98DF9861
:102F10001C981D98809162008D7F80936200C098FC
:102F2000809162008F7780936200809162008F7B36
:102F300080936200809162008F7D80936200809117
:102F400062008F7E8093620080916200877F809311
:102F500062002FBF9FB7F8948091610081608093D9
:102F60006100A59A8E9A8F9A809164008160809307
:102F7000640080916400826080936400A09A139A38
:102F800080916100846080936100BF9ABD9ABC9A71
:102F9000BE9AD39AD49AD59AD69AD79A149A159A51
:102FA00080916100826080936100B89A8091610095
:102FB00080688093610080916100806480936100EB
:102FC00080916100806280936100809161008061E6
:102FD00080936100809161008860809361009FBF51
:102FE0001FBC89E08EBD8CE093E09BBD8ABD87B796
:102FF000806187BF1092EE0161E08BE00E94520376
:1030000060E082E597E00E94A202E0915A07F09109
:103010005B07908180915907809589238083E09197
:103020005C07F0915D07808190915907892B80831F
:103030000E942708FFCFCF93DF9360E088E597E0F9
:103040000E94A20260E082E597E00E94A2028091C5
:103050005F079CEF980F943098F18251843080F193
:1030600060E080915F070E945203C0917B07D0917E
:103070007C072097B1F160E0CE010E94A202CE0150
:10308000DF91CF910C944A1999B79E7F99BFE82F91
:10309000F0E0EE0FFF1FE050FF4F82E791E09183D9
:1030A0008083DECF9D7FF2CF9B7FF0CF977FEECFE7
:1030B0009F7EECCF9F7DEACF9F7BE8CF9F77E6CFC7
:1030C000EFEFE80FE73000F7F0E0E659F74E99B779
:1030D0000C94891852185418561858185A185C1815
:1030E0005E18DF91CF910895E199FECF9FBB8EBB13
:1030F000E09A99278DB30895262FE199FECF9FBBC3
:103100008EBB2DBB0FB6F894E29AE19A0FBE0196E2
:103110000895EE0FFF1F0024001C0BBE0790F691D0
:10312000E02D09940F931F93CF93DF93869F800127
:10313000879F100D969F100D1124C8010E94AE1894
:10314000EC01009729F0A80170E060E00E94D3191B
:10315000CE01DF91CF911F910F9108950F931F938F
:10316000CF93DF938230910510F482E090E0E091FC
:103170007F07F091800730E020E0B0E0A0E03097DA
:1031800099F42115310509F44AC0281B390B243064
:103190003105D8F58A819B816115710589F1FB01A3
:1031A00093838283FE0111C040815181028113818A
:1031B00048175907E0F04817590799F4109761F03C
:1031C00012960C93129713961C933296CF01DF91AF
:1031D000CF911F910F91089500937F07109380075F
:1031E000F4CF2115310551F04217530738F0A901EA
:1031F000DB019A01BD01DF01F801C1CFEF01F9CF79
:103200009093800780937F07CDCFFE01E20FF31FDD
:10321000819391932250310939832883D7CF20910C
:103220007D0730917E07232B41F4209112013091CC
:10323000130130937E0720937D0720911001309178
:1032400011012115310541F42DB73EB7409114010C
:1032500050911501241B350BE0917D07F0917E07FD
:10326000E217F307A0F42E1B3F0B2817390778F05D
:10327000AC014E5F5F4F2417350748F04E0F5F1FBC
:1032800050937E0740937D07819391939FCFF0E009
:10329000E0E09CCFCF93DF930097E9F0FC013297F9
:1032A00013821282A0917F07B0918007ED0130E078
:1032B00020E01097A1F420813181820F931F20918B
:1032C0007D0730917E072817390709F061C0F09318
:1032D0007E07E0937D07DF91CF910895EA01CE1735
:1032E000DF07E8F54A815B819E0141155105B1F781
:1032F000E901FB83EA8349915991C40FD51FEC176B
:10330000FD0761F4808191810296840F951FE90188
:1033100099838883828193819B838A83F0E0E0E0B4
:1033200012968D919C9113970097B9F52D913C9130
:103330001197CD010296820F931F20917D07309146
:103340007E072817390739F6309751F51092800714
:1033500010927F07B0937E07A0937D07BCCFD383E5
:10336000C28340815181840F951FC817D90761F42A
:103370004E5F5F4F88819981480F591F5183408369
:103380008A819B81938382832115310509F0B0CF17
:10339000F0938007E0937F079ECFFD01DC01C0CF53
:1033A00013821282D7CFDC0101C06D93415050408F
:1033B000E0F7089511E0C5E4D1E004C0FE010E94E9
:0E33C00089182196C634D107C9F7F894FFCFBB
:1033CE00720100000000000000000000000000007C
:1033DE000000810780004D07480743073E07390765
:1033EE0034072F072A07250720071B071607110783
:1033FE000C0707070207FD06F806F306EE06E906B8
:10340E00E406DF06DA06D506D006CB06000000007D
:0E341E001A02CC02BC016102ED01CB01DF01FC
:00000001FF
