:100000000C946E010C948B190C9460190C94351996
:100010000C940A190C94DF180C94B4180C948918D9
:100020000C945E180C9498010C9498010C9498010F
:100030000C94DA1A0C9498010C9498010C94980181
:100040000C9414180C9498010C9498010C94980139
:100050000C9498010C9498010C9498010C949801BC
:100060000C9498010C9498010C9498010C949801AC
:100070000C9498010C9498010C9498010C9498019C
:100080000C9498010C94B6190C9498013F0300004D
:100090000000000A0D0000000000000101C0800007
:1000A000000000000000000000060000000000004A
:1000B0000000000000000000000000000000000040
:1000C000000000000000FF0300000000000000002E
:1000D0000000000000000000000000000000000020
:1000E0000000000000000000000000000000000010
:1000F0000000000000000000000000000100AA0055
:100100000200AA000300AA000400AA000500AA0039
:100110000600AA000700AA000800AA000900AA0019
:100120000A0080000B0080000C0080000D008000A1
:100130000E0080000F008000100080001100800081
:10014000120080001300AA001400AA000000AA00F8
:100150000000AA000000AA000000AA000000AA00F7
:100160001580FF001581FF00FF000000FF00000068
:10017000FF000000FF000000FF000000FF00000083
:10018000FF000000FF000000FF000000FF00000073
:10019000FF000000FF000000FF0000000000000062
:1001A000000000000000000000000000000000004F
:1001B00000000000000000000000003A003700349A
:1001C00000310022006100640000003B003800356F
:1001D0000032002300620065007000740078007C2B
:1001E000008000840088008C009000940098009C9F
:1001F00000A000A400A800AC00B000B400B800BC8F
:1002000000C000C400C800CC00D000D400D800DC7E
:1002100000E000E400E800EC00F000F400F800FC6E
:10022000000001040108010C010000390036003310
:1002300000300021002000630005050505050505C7
:100240000502020202020202020707040404040477
:100250000404040707030303030303030307010163
:100260000101010101010606060606060606010255
:10027000040810204080010204081020408008106B
:10028000010204081020408001020102040810202D
:10029000408004804020100804020101020408107C
:1002A0002040800000000A0B0C000000000000014C
:1002B000040506000000000000000000000000002F
:1002C000000000000000000000000000000000002E
:1002D00000000000000000000F1C5D2711241FBE5D
:1002E000CFEFD0E1DEBFCDBF11E0A0E0B1E0EEE1A5
:1002F000F2E500E00BBF02C007900D92A636B107F1
:10030000D9F727E0A6E6B1E001C01D92A836B207F2
:10031000E1F711E0CDE6D1E004C02197FE010E9493
:100320009027CC36D107C9F70E945E1E0C94022993
:100330000C9400002091BF0281E0213208F044C0FB
:1003400080919B028111FCCF8091BE0292E090933C
:100350009B0291E090939A029FEF909399021092E2
:10036000980220939702AEE9B2E0E7E7F2E090E06E
:10037000291331C01092760290917602880F892B52
:100380008093760280917502813049F51092750252
:1003900080917602809373008091740083FDF8CF82
:1003A00085EC8093740080919B028230E1F3809110
:1003B00099028F3FB1F0809199028032A1F0809133
:1003C0009902803391F084E010929D021092BF0256
:1003D00010929C0208953D9131939F5FC9CF85EEA5
:1003E000E0CF80E0F1CF82E0EFCF83E0EDCF20914E
:1003F000C2063091C3062115310549F090E0880FFF
:10040000991F820F931FFC0180819181089590E0D4
:1004100080E008959C016115710529F06130710536
:1004200071F080E008958091B7068217130681F07D
:100430009091BA0681E09217130699F7089581E02A
:100440004091B8065091B9064217530751F7F6CFBD
:1004500081E0F4CFFF920F931F93CF93DF938C0132
:10046000F42EE9010E940A028823B1F08091BA06B5
:100470008017110619F58091BE069091BF068C1762
:100480009D0751F08091BB06882399F0219751F484
:100490001092BF061092BE06DF91CF911F910F916F
:1004A000FF90089581E090E09093BF068093BE0690
:1004B000F3CFD093BF06C093BE06EECF8091BC06AB
:1004C0009091BD06C817D90739F3F0FE0EC02197E9
:1004D00029F41092BD061092BC06DECF81E090E0B8
:1004E0009093BD068093BC06D7CFD093BD06C09332
:1004F000BC06D2CF089581E080933C020895E0913C
:10050000F501F091F601309729F010929D021092BA
:10051000BF0209940895CF93DF93AC01E091F701F6
:10052000F091F8013097F1F09091F4018091F3018E
:100530009817C0F090E0292F30E02617370754F4C1
:10054000D901A359BE4F240F351FE90128812C93EF
:100550009F5FF1CF1092F4016093F301CB01DF9123
:10056000CF910994DF91CF910895DC011296ED911E
:10057000FC91139711969C911197808161110EC087
:100580009095982390831496ED91FC911597908106
:1005900011968C918095892380830895623061F44F
:1005A0009095982390831496ED91FC9115978081F6
:1005B00011969C91892BF0CF982B908308958150B0
:1005C0008C3088F5E82FF0E0E851FD4F0C9490272F
:1005D000100310031303F402F802FB02FE021303DC
:1005E0001303020308030C038FB58F778FBD0895A3
:1005F0008FB58F7DFBCF8FB5877FF8CF85B58F7D8A
:1006000085BD089580918B008F7780938B0008952E
:1006100080918B008F7DF9CF80918B00877FF5CF04
:1006200083B78F7D83BF08951F93CF93DF93282FC8
:1006300030E0F901ED55FD4F8491F901E259FD4F8C
:10064000D491F901E75CFD4FC491CC23A9F0162F9A
:1006500081110E94DF02EC2FF0E0EE0FFF1FE75345
:10066000FE4FA591B4918FB7F894EC91111108C089
:10067000D095DE23DC938FBFDF91CF911F9108953A
:10068000DE2BF8CFCF93DF9390E0FC01E259FD4FD2
:100690002491875C9D4FFC0184918823D1F090E0E8
:1006A000880F991FFC01E754FE4FA591B491FC01FE
:1006B000E753FE4FC591D49161110EC09FB7F894D6
:1006C0008C91E22FE0958E238C932881E223E8839E
:1006D0009FBFDF91CF9108958FB7F894EC91E22BF3
:1006E000EC938FBFF6CF3FB7F8948091E9019091DA
:1006F000EA01A091EB01B091EC0122B706B600FE31
:1007000005C02F3F19F00196A11DB11D3FBFBA2FA3
:10071000A92F982F8827BC01CD01620F711D811D63
:10072000911D42E0660F771F881F991F4A95D1F7E8
:1007300008958F929F92AF92BF92CF92DF92EF92E5
:10074000FF924B015C010E9473036B017C010E94CC
:1007500073036C197D098E099F09683E73408105FA
:100760009105A8F321E0821A9108A108B10888EE4A
:10077000C80E83E0D81EE11CF11C81149104A10471
:10078000B10429F7FF90EF90DF90CF90BF90AF902A
:100790009F908F90089561E08BE00E94140364E0C5
:1007A00070E080E090E00E94990360E08BE00C94A0
:1007B00014030C94CB032FB7F8946091E50170916A
:1007C000E6018091E7019091E8012FBF0895E82F9D
:1007D000F0E0DF01AA0FBB1FAF5FBE4F11967C9305
:1007E0006E938830A8F4E950FC4F0C949027FF03D7
:1007F000090416042404320439044404500480918A
:100800006A008C7F482B40936A0089B7816089BF5A
:10081000089580916A00837F440F551F440F551F30
:10082000482B40936A0089B78260F1CF80916A00BB
:100830008F7C74E0440F551F7A95E1F7482B409365
:100840006A0089B78460E3CF80916A008F7366E0A5
:10085000440F551F6A95E1F7482B40936A0089B70A
:100860008860D5CF8AB78C7F482B4ABF89B7806113
:10087000CECF8AB7837F440F551F440F551F482B97
:100880004ABF89B78062C3CF8AB78F7C24E0440F08
:10089000551F2A95E1F7482B4ABF89B78064B7CF27
:1008A0008AB78F7396E0440F551F9A95E1F7482B4E
:1008B0004ABF89B78068ABCF883010F40C94E70347
:1008C00008950E9473032091D2013091D301FB015E
:1008D000E21BF30B20915C0230915D02E217F307FB
:1008E00008F438C120915E0230915F027093D30109
:1008F0006093D201409160025091610241305105F4
:1009000099F148F04230510509F4B9C0433051051E
:1009100009F4EFC00895E217F30708F0D4C08091FE
:1009200063028F5F809363028B3008F413C181E010
:1009300090E0909361028093600241E050E061E6B4
:1009400074E0809156020E945C041092D10182E50D
:1009500090E090935F0280935E0283E290E0909338
:100960005D0280935C0208954091D1014130A9F06D
:1009700038F0433009F449C0443009F47CC008958C
:10098000E217F30730F491E09093D101E093D001A6
:10099000089584E08093D1010895E217F30798F554
:1009A0001092D101909163029F5F909363028E2F0A
:1009B000EE0F990B2091D001821B910927FD939591
:1009C00097FF03C091958195910949970CF4C2C096
:1009D000109261021092600282E990E090935F02AF
:1009E00080935E0282E590E090935D0280935C02CA
:1009F000109263024091440250E061E674E08091FD
:100A000056020C945C0483E0C5CFE217F30700F3B1
:100A100080914402833061F582E08093440282E059
:100A200090E0909361028093600282E990E090935D
:100A30005F0280935E0282E590E090935D02809376
:100A40005C02109265021092670210926802109286
:100A5000690210926A0210926B0210926C028091ED
:100A60006302809366021092630210926402C2CF06
:100A700040934402D4CFE217F30788F6A9CF5091F0
:100A800063025F5F5093630240916402440FE21778
:100A9000F307E0F040936402583009F05BC0E09146
:100AA0006502E630A9F4109261021092600282E9B8
:100AB00090E090935F0280935E0282E590E09093D5
:100AC0005D0280935C021092630208954160E2CF60
:100AD00083E090E0909361028093600281E08E0F4A
:100AE00080936502F0E0E05AFD4F809164028783B5
:100AF0000895E217F307F8F4109261021092600271
:100B00001092630282E990E090935F0280935E020C
:100B100082E590E090935D0280935C0288E0E5E6D8
:100B2000F2E0ADE6B2E001900D928A95E1F781E046
:100B300080936202089580916502863009F4B3CFF4
:100B400082E090E0909361028093600210926302D1
:100B5000109264020895CF93DF93DC01EC91F0E0F2
:100B6000EE0FFF1FE75DFD4FC591D491988111965F
:100B70008C91982381E009F480E0DF91CF91089572
:100B8000DC0170E0FB01E259FD4FE4911196EC931A
:100B90001197675C7D4FFB0124912C9330E0220F6D
:100BA000331FF901E754FE4F8591949113969C935E
:100BB0008E931297F901E753FE4F85919491159604
:100BC0009C938E9314970895FC018081813089F461
:100BD000CB01845893408897C0F06138F3E07F07D9
:100BE000A1F06C5F734081E06530710578F080E0C2
:100BF0000895823021F4CB018C5A9340ECCF83309E
:100C000061F7CB01845D9340E6CF81E00895CF93F7
:100C1000DF93EC0161E08D8D9E8D0E94B502AD8D5C
:100C2000BE8D1496ED91FC911597908111968C9143
:100C300080958923808361E070E080E090E00E94ED
:100C4000990360E08D8D9E8DDF91CF910C94B5025C
:100C500080E090E0892B29F080915B0283FD0C9469
:100C60000000089585ED809374008091740084FDE8
:100C7000FCCF10929B0208952091AD01260F3327DF
:100C8000331F21323105ECF420919B02FC0190E0EE
:100C900080E0243069F082E00895A091AD012191B7
:100CA000AC0143575E4FA40FB52FB11D2C93019695
:100CB000861798F38091AD01680F6093AD0180E0D5
:100CC000089581E008950895E091F4018091F30181
:100CD000E81730F4F0E0E359FE4F808190E008958A
:100CE0008FEF9FEF08959091F4018091F3012FEF22
:100CF0003FEF981748F4E92FF0E0E359FE4F2081C9
:100D000030E09F5F9093F401C90108958091F30151
:100D10009091F401891B990B0895CF92DF92EF9285
:100D2000FF920F931F93CF93DF937C01CB018A0136
:100D300020919C02222389F0EB016B01C40ED51E89
:100D4000CC15DD0569F06991D701ED91FC91019019
:100D5000F081E02DC7010995F3CF642F0E943C0676
:100D6000C801DF91CF911F910F91FF90EF90DF901D
:100D7000CF90089544E050E069E671E080EC92E0A5
:100D80000C948D06CF93DF931F92CDB7DEB76983A6
:100D900020919C022223F9F02091BF02203258F0CA
:100DA00021E030E0FC013383228390E080E00F906B
:100DB000DF91CF91089580919D02E82FF0E0E256F7
:100DC000FD4F998190838F5F80939D028093BF0236
:100DD00081E090E0ECCF61E0CE0101960E943C06FC
:100DE000F7CF90E080E00895E82FF0E0E750FE4F65
:100DF000608308950F931F93CF93DF93FC0182814B
:100E0000813089F040F0823009F47AC0DF91CF91CF
:100E10001F910F91089561E08081DF91CF911F9123
:100E20000F910C9414030181C02FD0E0108161E078
:100E3000812F0E944203209719F460E0812FEDCFAB
:100E4000CF3FD10511F461E0F9CFE12FF0E0ED558E
:100E5000FD4FE491E150EC3008F04DC0F0E0ED5C66
:100E6000F84F0C9490273F073F077B0744074A073A
:100E7000500758077B077B075D076707710783B734
:100E8000806283BF01BFC2CF8FB580688FBDDBBDDD
:100E9000CABDBCCF8FB580628FBDD9BDC8BDB6CF2E
:100EA0008FB588608FBDD0937900C0937800AECFA6
:100EB00085B5806285BD03BDA9CF80918B00806818
:100EC00080938B00D0938700C09386009FCF809142
:100ED0008B00806280938B00D0938500C093840048
:100EE00095CF80918B00886080938B00D093830096
:100EF000C09382008BCFC038D1050CF0A4CF9DCF1A
:100F00008181E381F0E0E750FE4F80837FCF0F9334
:100F10001F93CF93DF93D62F8C01C0E0CD1741F004
:100F2000F801819191918F010E94FA06CF5FF6CF6F
:100F3000DF91CF911F910F9108950F931F93CF933E
:100F4000DF93162F082FEC0180EC92E00E947306CD
:100F500089938C2F801B8117B8F3812FDF91CF915C
:100F60001F910F9108950F931F93CF938A01C22F62
:100F700091E090939C028093BE0210929D02109289
:100F8000BF0280EC92E00E94C2064C2F50E0B801F4
:100F900080EC92E00E948D06CF911F910F910C94EE
:100FA0009A011F93CF93DF9300D01F92CDB7DEB786
:100FB000209168012223C1F09A8389836B8310E01A
:100FC00080916801181780F4E0916601F091670143
:100FD000E10FF11D23E0AE014F5F5F4F66E08081BE
:100FE0000E94B3071F5FECCF0F900F900F90DF911F
:100FF000CF911F9108958F929F92AF92BF92CF92FF
:10100000DF92EF92FF920F931F93CF930E9473038F
:10101000AB01BC018091CE029091CF02A091D00291
:10102000B091D1028A019B01081B190B2A0B3B0BC3
:101030008091D602882309F47FC08091D8029091D4
:10104000D702E92FEE0FFF0BA82F082E000CBB0BC9
:10105000C3E68C02E00DF11D1124E453FD4F178B04
:10106000068B053F11402105310508F054C09F5FF4
:101070009093D7029091D7029332C9F593E69A9F45
:1010800090019B9F300D112424533D4FF901E45AE8
:10109000FF4FC090D202D090D302E090D402F090E3
:1010A000D5024A015B018C189D08AE08BF08750186
:1010B0006401C082D182E282F38229593F4FE1E08C
:1010C000F0E0D901ED93FC938F5F8A3094F5809323
:1010D000D802E091D802B3E6EB02F0011124ED5CF6
:1010E000FC4F118210821092D6021092D7024093C8
:1010F000CE025093CF026093D0027093D102CF9171
:101100001F910F91FF90EF90DF90CF90BF90AF9025
:101110009F908F9008951092D70291E09093D602FD
:101120004093D2025093D3026093D4027093D502BD
:10113000A1CF1092D802CDCF053F11402105310536
:10114000B0F281E08093D6024093D2025093D30252
:101150006093D4027093D502CACFE82FF0E0E75035
:10116000FE4F60830895CF93FC018281813051F05E
:1011700020F0823079F0CF91089560E08081CF91A6
:101180000C941403C08161E08C2F0E94420360E044
:101190008C2FF5CFE381F0E0E750FE4F1082EBCFCC
:1011A00080933D02882361F00FB6F894A89581B52D
:1011B000886181BD11BC0FBE8FE597E00C94FA06E3
:1011C0008FE597E00E94B30888E19BE00FB6F894A2
:1011D000A89581BD0FBE91BD0895CF93C82F809172
:1011E00047028C1731F081E0C11101C080E00E94FC
:1011F000D008C093470260E070E0CB01C1110E94AB
:10120000DB03609348027093490280934A029093F3
:101210004B02809147028C1739F081E0C11101C067
:1012200080E0CF910C94D008CF910895EF92FF9277
:101230000F931F93CF93DF938C01FC01C581D6815F
:10124000209751F0E480F12CEF1431F089919991BD
:101250000E94B308F394F8CFF801C085D185209798
:1012600051F0078110E0011731F0899199910E94A6
:10127000B3081F5FF8CFDF91CF911F910F91FF90BF
:10128000EF9008952091C2063091C30621153105D3
:1012900051F090E0880F991F820F931FFC0180810D
:1012A00091810C9416090895CF938091C4068823E8
:1012B00069F18091C5069091C606892B29F1C0E09D
:1012C0008091C106C81700F58C2F86958695869566
:1012D00090E0E091C506F091C606E80FF91F208165
:1012E00030E043E0880F991F4A95E1F74C2F481BE7
:1012F00002C0359527954A95E2F720FF03C08C2F51
:101300000E944209CF5FDCCF1092C406CF910895AE
:101310000F931F93CF938C01C42F0E940A0288233E
:10132000E1F18091BA06482F50E0C03128F58823BA
:1013300019F12C2F30E08091C7069091C8060C2E31
:1013400002C0969587950A94E2F780FF15C00417AE
:10135000150719F58091C2069091C3060097E9F030
:10136000220F331F820F931FFC0180819181CF9147
:101370001F910F910C9416090417150771F08091B5
:10138000C2069091C306009741F04C2F50E0440FE5
:10139000551F480F591FFA01E8CFCF911F910F91A8
:1013A00008950F931F93CF93DF93EC018B818823D4
:1013B00079F08B0189819A818617970729F0CE01F0
:1013C0000E9416091A83098389819A81019731F451
:1013D0008D819E81009769F06C8105C08885998513
:1013E000009739F06F81DF91CF911F910F910C948D
:1013F0008707DF91CF911F910F9108952091C20629
:101400003091C3062115310571F06091BC067091D1
:10141000BD0690E0880F991F820F931FFC01808109
:1014200091810C94D1090895CF938091C4068111C4
:1014300038C0C0E08091C106C81728F48C2F0E94E4
:101440004209CF5FF7CF8091C5069091C606892BE0
:1014500029F1C0E08091C106C81700F58C2F869550
:101460008695869590E0E091C506F091C606E80F56
:10147000F91F208130E043E0880F991F4A95E1F77A
:101480004C2F481B02C0359527954A95E2F720FF5F
:1014900003C08C2F0E94FE09CF5FDCCF81E08093D8
:1014A000C406CF9108952091BC063091BD0628173F
:1014B000390761F09093BD068093BC068091C40605
:1014C000882321F00E9454090C94140A08950F9364
:1014D0001F93CF938C01C62F8230910509F45BC016
:1014E00048F4019791F16C2FC801CF911F910F9192
:1014F0000C94D1078330910509F48BC0049799F7B8
:1015000085E160FFC0C00E94FE0986E1C1FFBEC048
:101510000E94FE0987E1C2FFBCC00E94FE0988E16B
:10152000C3FFBAC00E94FE0989E1C4FFB8C00E948F
:10153000FE098AE1C5FFB6C00E94FE098BE1C6FF25
:10154000B4C00E94FE098CE14AC080E064FF17C06D
:101550000E94FE0981E0C0FF15C00E94FE0982E0E2
:10156000C1FF13C00E94FE0983E0C2FF11C00E94A8
:10157000FE0984E0C3FF35C00E94FE09B4CF0E947B
:101580004209E8CF0E944209EACF0E944209ECCF0B
:101590000E944209EECF85E060FF26C00E94FE094E
:1015A00086E0C1FF24C00E94FE0987E0C2FF22C07E
:1015B0000E94FE0988E0C3FF20C00E94FE0989E066
:1015C000C4FF1EC00E94FE098AE0C5FF1CC00E9425
:1015D000FE098BE0C6FF1AC00E94FE098CE0C7FD21
:1015E000CBCF0E9442097FCF0E944209D9CF0E94EF
:1015F0004209DBCF0E944209DDCF0E944209DFCFC2
:101600000E944209E1CF0E944209E3CF0E944209B1
:10161000E5CF8DE060FF22C00E94FE098EE0C1FF91
:1016200020C00E94FE098FE0C2FF1EC00E94FE097A
:1016300080E1C3FF1CC00E94FE0981E1C4FF1AC003
:101640000E94FE0982E1C5FF18C00E94FE0983E1E5
:10165000C6FF16C00E94FE0984E1C1CF0E94420964
:10166000DDCF0E944209DFCF0E944209E1CF0E94F4
:101670004209E3CF0E944209E5CF0E944209E7CF29
:101680000E944209E9CF0E9442093FCF0E944209CD
:1016900041CF0E94420943CF0E94420945CF0E9498
:1016A000420947CF0E94420949CF0E9442094BCFCD
:1016B0000F931F93CF938C01C42F0E940A0288239B
:1016C00009F444C08091BA06482F50E0C03148F573
:1016D000882339F12C2F30E08091C7069091C806FD
:1016E0000C2E02C0969587950A94E2F780FF19C0E8
:1016F0000417150759F58091C2069091C30600970B
:1017000029F16091BE067091BF06220F331F820F30
:10171000931FFC0180819181CF911F910F910C94B7
:10172000D1090417150791F08091C2069091C30664
:10173000009761F06091BC067091BD064C2F50E09F
:10174000440F551F480F591FFA01E4CFCF911F9145
:101750000F910895EF92FF920F931F93CF93DF9312
:10176000C0E0D1E0D0939C02C093BE0210929D02D3
:101770001092BF020E949A01811105C080916801F8
:101780008F5F80936801CF5FCF3761F7D091680199
:10179000DD2311F161E070E08D2F90E00E94AD2714
:1017A0007C019093670180936601C0E010E001E046
:1017B00000939C02C093BE0210929D021092BF0241
:1017C0000E949A01811105C0F701E10FF11DC0834C
:1017D0001F5FCF5FCF3761F78D2FDF91CF911F91C3
:1017E0000F91FF90EF9008950E94ED08E5E4F2E07C
:1017F00081E087831086EEE4F2E088E0DF011D924D
:101800008A95E9F708950C946727EF92FF920F935A
:101810001F93CF93DF9300D01F92CDB7DEB7F82E82
:101820008B0181E090E00E94030C90E02091B706CC
:101830002817190629F02091BA062817190611F45D
:10184000F092C0068DE190E00E94030CE82E81E04A
:1018500090E00E94030C90E021E030E0013011059F
:1018600011F030E020E04E2D70E060E00E942A028E
:10187000809168018823C1F0F9821B830A8310E0FC
:1018800080916801181780F4E0916601F09167017A
:10189000E10FF11D23E0AE014F5F5F4F65E08081F6
:1018A0000E94B3071F5FECCF0F900F900F90DF9156
:1018B000CF911F910F91FF90EF900895CF938638AD
:1018C00023E0920719F130F481389340D1F08FEF83
:1018D000CF910895873823E09207D9F08838934054
:1018E000B1F786E893E00E94030CC82F87E893E0E5
:1018F0000E94030C90E02FEFC29F800D911D1124D8
:1019000002C081E893E0CF910C94030C86E893E049
:10191000FACF87E893E0F7CFCF93C82F8FE290E01C
:101920000E94030C811109C085E190E0CC2311F0E5
:1019300086E190E0CF910C94030C80E0CF91089564
:10194000CF93C82F8FE290E00E94030C811106C054
:101950008C2F90E0CA96CF910C94030C80E0CF912D
:1019600008951F93CF93DF93EC0180913D0288236C
:1019700059F08FE090E00E94030C182F80E190E076
:101980000E94030C181306C0CE01DF91CF911F9166
:101990000C94030C8FE597E00E94B308FFCF0C94E2
:1019A000B10CCF93DF9320915802309159022F3F11
:1019B000320721F0C901DF91CF91089580915B0238
:1019C00087FF2BC086FF0FC089E090E00E94CF0CFC
:1019D000C82F81E090E00E94CF0C9C2F9093590279
:1019E0008093580215C089E090E00E94CF0CC82F68
:1019F00081E090E00E94CF0C90E4C99F90011124F7
:101A0000207C31708F73282B309359022093580219
:101A10008091580290915902CECF85FF0CC081E190
:101A200090E00E94CF0CC82F82E190E00E94CF0C82
:101A3000C05CDD0BD2CF81E090E00E94CF0C90E043
:101A4000CDCFBF92CF92DF92EF92FF920F931F9371
:101A5000CF93DF9300D01F92CDB7DEB7309127022E
:101A6000311150C1B22E6A017B018C014330510506
:101A700009F497C060F541305105C9F14230510574
:101A800009F470C0B701C8010E940A02882309F452
:101A900039C180916801882309F434C1DA82C9828E
:101AA000BB8210E080916801181708F02BC1E0910B
:101AB0006601F0916701E10FF11D23E0AE014F5F78
:101AC0005F4F63E080810E94B3071F5FEBCF45301B
:101AD000510509F4D0C008F483C04630510591F691
:101AE00040E0C80124FF28C00E94580BCBCF809152
:101AF0002402811127C040E0B701C801B4FE1FC015
:101B00000E94580B41E0B701C801B0FE22C00E94FC
:101B1000580B42E0B701C801B1FE1EC00E94580B2D
:101B200043E0B701C801B2FE1AC00E94580B44E05E
:101B3000B701C801B3FCD8CF0E948809A3CF0E9487
:101B40008809E0CF8DE190E00E94CF0C81FDD3CFDA
:101B5000D9CF0E948809DDCF0E948809E1CF0E9479
:101B60008809E5CF45E0C80120FF12C00E94580B4C
:101B700046E0B701C801B1FE0EC00E94580B47E015
:101B8000B701C801B2FE0AC00E94580B48E0D0CF8E
:101B90000E948809EDCF0E948809F1CF0E94880930
:101BA000F5CF49E0C80120FF12C00E94580B4AE05F
:101BB000B701C801B1FE0EC00E94580B4BE0B7013F
:101BC000C801B2FE0AC00E94580B4CE0B1CF0E947F
:101BD0008809EDCF0E948809F1CF0E948809F5CFCE
:101BE0004DE0C80120FF32C00E94580B4EE0B70103
:101BF000C801B1FE2EC00E94580B4FE0B701C801CA
:101C0000B2FE2AC00E94580B40E1B701C801B3FEE2
:101C100026C00E94580B41E1B701C801B4FE22C0A2
:101C20000E94580B42E1B701C801B5FE1EC00E94D8
:101C3000580B43E1B701C801B6FE1AC00E94580B09
:101C400044E1B701C801B7FE77CF4ECF0E948809A3
:101C5000CDCF0E948809D1CF0E948809D5CF0E949C
:101C60008809D9CF0E948809DDCF0E948809E1CF79
:101C70000E948809E5CF45E1C80120FF2EC00E94DF
:101C8000580B46E1B701C801B1FE2AC00E94580BAB
:101C900047E1B701C801B2FE26C00E94580B48E1D7
:101CA000B701C801B3FE22C00E94580B49E1B70139
:101CB000C801B4FE1EC00E94580B4AE1B701C8011A
:101CC000B5FE1AC00E94580B4BE1B701C801B6FE21
:101CD00016C00E94580B4CE1B4CF0E948809D1CFA6
:101CE0000E948809D5CF0E948809D9CF0E9488090F
:101CF000DDCF0E948809E1CF0E948809E5CF0E94CC
:101D00008809E9CF0F900F900F90DF91CF911F912D
:101D10000F91FF90EF90DF90CF90BF9008958F923A
:101D20009F92AF92BF92CF92DF92EF92FF920F936A
:101D30001F93CF93DF9300D000D01F92CDB7DEB7B3
:101D400050912702511138C048015901142F6B01DD
:101D50007C010E940A0281111093C0068DE190E07F
:101D60000E94030C9501482FB601C7010E942A0268
:101D7000B601C7010E940A028823F1F08091680130
:101D80008823D1F01983BB82AA829D828C82F12C98
:101D900080916801F81680F4E0916601F091670186
:101DA000EF0DF11D25E0AE014F5F5F4F62E08081D6
:101DB0000E94B307F394ECCF0F900F900F900F9009
:101DC0000F90DF91CF911F910F91FF90EF90DF90D7
:101DD000CF90BF90AF909F908F9008951F93CF9317
:101DE000DF93EC01162F0E946727181721F0612F4F
:101DF000CE010E946F27CE01DF91CF911F910C94ED
:101E0000030CCF93DF93863823E0920739F138F43F
:101E100081389340E9F08FEFDF91CF9108958738B3
:101E200023E09207F1F088389340A9F7C62F86E89F
:101E300093E00E94030CD82F87E893E00E94030CE4
:101E400090E06C2F2FEFD29F800D911D112402C0C6
:101E500081E893E0DF91CF910C94EE0E86E893E059
:101E6000F9CF87E893E0F6CF0F931F93CF93DF93DB
:101E70000FB7F894D0E0C0E0FE01E457FF4F149193
:101E8000CE010E946727181721F0612FCE010E9412
:101E90006F272196CD3281E0D80771F781E893E072
:101EA0000E946727813029F061E081E893E00E9479
:101EB0006F27CDE1D1E01FEF89919991FC0111834A
:101EC0000E94FA06F1E0C335DF07B1F70FBFDF91DB
:101ED000CF911F910F9108952F923F924F925F9251
:101EE0006F927F928F929F92AF92BF92CF92DF922A
:101EF000EF92FF920F931F93CF93DF9300D000D008
:101F000000D0CDB7DEB78C01E0E0AE2EE0E0BE2E13
:101F1000F0E02F2EF0E03F2E412C512C3201439463
:101F2000B0E08B2EB0E09B2E80E0C82E80E0D82E53
:101F3000D8015B960D90BC91A02DBD83AC8310970A
:101F400009F48DC28C91823409F4A7C108F053C002
:101F50008A3209F418C220F5843209F4DCC198F4FD
:101F6000813209F4A4C1833209F4ADC1811116C0D4
:101F7000E0E0F0E0EF2B91F0AC81BD8111968C9107
:101F80000E9400000BC0863209F4B1C108F4D1C12F
:101F9000883209F4E1C1893209F4EAC180E04FC214
:101FA0008F3209F41AC298F48C3209F401C208F491
:101FB000F4C18D3209F406C28E3281F7C114D10406
:101FC00069F3EC81FD81618187E090E0CEC18133CE
:101FD00009F41BC208F40CC2803409F452C18134E4
:101FE000E9F6A114B104D1F2AC81BD8111966C91D6
:101FF00082E090E04FC1853609F4E8C008F045C0A2
:10200000803609F4C7C070F5803509F484C160F4E6
:10201000833421F6A114B10409F2AC81BD8111967B
:102020006C9184E090E036C1813509F482C18E352F
:1020300009F0B4CFAC81BD811396ED91FC9114975A
:10204000309709F40CC280818F3509F0A7CF20E0CA
:1020500030E0232B09F4A2CF918111968C910E943C
:1020600000009CCF823609F4A4C008F49BC08336DC
:1020700009F4A5C0843609F091CFEC81FD8161811E
:1020800085E090E00E94D10789CF8D3609F4B8C071
:10209000B8F4873609F4A7C008F49FC0883609F45D
:1020A000A9C08C3609F07ACF80E090E0892B09F442
:1020B00075CFAC81BD8111968C910E9400006ECFCE
:1020C000873709F4ADC108F58E3609F067CFAC81CA
:1020D000BD811396ED91FC911497309709F4BFC11F
:1020E00080818F3609F05ACF2114310409F456CF7C
:1020F00011962C91622F661F6627661F8181B0E8BA
:102100008B9FC0011124822BB9C08B3709F4F7C112
:102110008F3709F043CFAC81BD811196EC90F12C43
:10212000BFEFEB1ABCEFFB0AB701C8010E94E40540
:10213000882309F483C1E5E8EE16E3E0FE0609F41E
:102140007DC1FDEAEF16F3E0FF0609F49EC225ED1E
:10215000E21623E0F20609F498C234E8E31633E00D
:10216000F30659F04CEAE41643E0F40631F084ED4E
:10217000E81683E0F80609F07AC2AC81BD811296B8
:102180008C91883009F073C20E94340FC8010E94FC
:1021900007067BC2EC81FD81618181E090E00E94B5
:1021A000670AFCCEAC81BD8111966C9182E090E013
:1021B000F6CFEC81FD81618183E090E0F0CFAC81CE
:1021C000BD8111966C9184E090E0E9CFAC81BD8136
:1021D00011966C9186E090E055CFEC81FD81618194
:1021E00087E090E04FCFAC81BD8111966C9188E083
:1021F00090E048CFEC81FD81618189E090E042CFA1
:10220000AC81BD8111966C911197862F8F771196B5
:102210008C93D8015B96ED91FC915C97818321149E
:10222000310409F4BBCE661F6627661F5B96ED91ED
:10223000FC918181811121C081E08093E3016111D2
:102240000EC08091E30187FDA9CE60E090E00E947E
:1022500000008091E3018F5F8093E301F2CF8091D2
:10226000E30187FD9BCE61E090E00E940000809139
:10227000E3018F5F8093E301F2CF90E00E940000C2
:102280008DCEA114B10409F489CEEC81FD81618168
:1022900081E090E00E94000081CEA114B10409F415
:1022A0007DCEEC81FD81618183E090E0F3CFE0E0C1
:1022B000F0E0EF2B09F472CEAC81BD8111968C91C8
:1022C0000E9400006BCEE0E0F0E0EF2B09F466CE58
:1022D000AC81BD8111968C9190E087FF05C08195FE
:1022E00090E09195819591090E94000057CEE0E021
:1022F000F0E0EF2B09F452CEAC81BD8111968C91A8
:1023000090E087FF05C0819590E0919581959109B6
:102310000E94000043CEEC81FD81918180E8890F0D
:1023200070E060E097FF02C061E070E00E94050C81
:1023300035CE8114910409F431CEAC81BD81119662
:102340009C9180E8890F61E070E097FD02C070E029
:1023500060E00E94000022CEC114D10409F41ECE18
:10236000EC81FD81618181E090E00E94000016CE49
:10237000C114D10409F412CEAC81BD8111966C91C7
:1023800082E090E0F2CFC114D10409F407CEEC81D1
:10239000FD81618183E090E0E8CFC114D10409F4AC
:1023A000FDCDAC81BD8111966C9184E090E0DDCFD4
:1023B000C114D10409F4F2CDEC81FD81618185E085
:1023C00090E0D3CFC114D10409F4E8CDAC81BD8134
:1023D00011966C9186E090E0C8CFC114D10409F445
:1023E000DDCDAC81BD8111966C9188E090E0BDCFD0
:1023F000E0E0F0E0EF2B09F4D1CDAC81BD81119686
:102400006C9181E00E940000C9CDE0E0F0E0EF2B8C
:1024100009F4C4CDAC81BD8111966C9182E0F2CFFC
:10242000EC81FD81E180F12CFFEFEF1AFCEFFF0A58
:10243000B701C8010E94E40581112AC081E0D801DA
:102440005B96ED91FC915C97238134811482138219
:102450005C963C932E935B97813009F469CD269668
:102460000FB6F894DEBF0FBECDBFDF91CF911F91A5
:102470000F91FF90EF90DF90CF90BF90AF909F9023
:102480008F907F906F905F904F903F902F90089526
:1024900021E8E21623E0F20601F134E8E31633E026
:1024A000F30659F145E8E41643E0F406A1F08CEA9E
:1024B000E81683E0F80609F19DEAE91693E0F906CB
:1024C00051F0A4EDEA16A3E0FA06B9F0B5EDEB166B
:1024D000B3E0FB0671F48AE002C0F8018081AC81B0
:1024E000BD8112969C919813A9CFC8010E9407063E
:1024F000A5CFC7010E945E0CF2CF8DE0F0CFEC813A
:10250000FD81F181F983EF2EF12C2FEFE21A2CEFF0
:10251000F20AB701C8010E94E405882309F48ECFAE
:10252000AC81BD811296BC91BA838B2F90E09C0147
:1025300044E0359527954A95E1F7E22FE170EE8367
:10254000E093E2019C0153E0359527955A95E1F718
:10255000F22FF170FB83F093E1019C0135952795F3
:10256000422F4170440F9595879595958795817079
:10257000880F880F840FB170B80FBC83B093E0014F
:1025800081E8E81683E0F806B9F4D8018C918093CD
:10259000DF01E130B1F18091DF0190E00C8002C0F9
:1025A000959587950A94E2F781709927BB81B817B2
:1025B000190609F043CF99CFE4E8EE16E3E0FE06F2
:1025C00051F0FCEAEF16F3E0FF0629F024EDE216E5
:1025D00023E0F20691F58DE08093DF019E8191303A
:1025E000D1F6C70184589340029708F427CF898118
:1025F0008B5A823008F422CF8981835D823008F4BF
:102600001DCFD301C2010C8004C0880F991FAA1FDF
:10261000BB1F0A94D2F72091DF01EA81E3FF22C0B9
:10262000822B8093DF016091DF01C7010E94010FBF
:102630009091DF01891302CF58CF35E8E31633E0DC
:10264000F30651F04DEAE41643E0F40629F085ED77
:10265000E81683E0F80611F48AE0BECFC7010E94B5
:102660005E0CBACF482F4095822F8423DACFEC81BD
:10267000FD816281C7010E94010FD8015B96ED9137
:10268000FC919281891709F481CDB1E8EB16B3E092
:10269000FB0609F0D3CE81E893E00E94030CF80119
:1026A0008083CCCEAF92BF92CF92DF92EF92FF9217
:1026B0000F931F93CF93DF93C091ED01D091EE0163
:1026C0001091DE0111111AC0FE0190E080E0258119
:1026D0003681232B09F05AC025E0289FF001299F5D
:1026E000F00D11243296EC0FFD1FF093DD01E09305
:1026F000DC01309709F43FC014821382A090DC0102
:10270000B090DD01A114B104B1F10E94DB03C090CF
:10271000D801D090D901E090DA01F090DB016C197A
:102720007D098E099F096A30710581059105C8F1FF
:102730001092DE010E94DB036093D8017093D901EF
:102740008093DA019093DB018D8D9E8D0E94AB0505
:10275000F5019081882319F19160908381E0809345
:10276000DE010E9473036093D4017093D5018093BE
:10277000D6019093D701DF91CF911F910F91FF90D8
:10278000EF90DF90CF90BF90AF900895019635966F
:102790008530910509F09BCFF0E0E0E0A6CF9E7F69
:1027A000DCCF0E947303C090D401D090D501E0909B
:1027B000D601F090D7016C197D098E099F0965310A
:1027C000710581059105B8F20E9473036C197D09AA
:1027D0008E099F09643F71408105910560F68D8DDA
:1027E0009E8D212F2770C12CD12C7601C39404C05B
:1027F000CC0CDD1CEE1CFF1C2A95D2F7103108F022
:1028000049C00E94AB05E12FE695E695E695EA0DF5
:10281000FB2DF11D8823D1F18081C82AC08201E0FF
:10282000010F0093DE010E9473036093D401709343
:10283000D5018093D6019093D701177F173019F0F7
:10284000083109F098CF0E94DB036093D8017093A0
:10285000D9018093DA019093DB01003141F1083115
:1028600009F089CF0B8D1C8D8091DC019091DD01E9
:102870009C8F8B8FCE010E946C0FE091DC01F09158
:10288000DD01148213821C8F0B8F2CC0C0948081B9
:10289000C822C4CF0E94AB05F5019281882319F0AC
:1028A000C92AC282BCCFC0949C219283B8CFA09188
:1028B000DC01B091DD018C91982F977F973709F457
:1028C0005ACF8B3709F457CFEB8DFC8D309721F41D
:1028D000BC8FAB8F07C0FC01838194810097D9F72F
:1028E000B483A3831092DE0146CF1F93CF93DF936F
:1028F000EC01162F089779F4662319F10E94340F22
:1029000080E090E0892BB9F0612FCE01DF91CF916B
:102910001F910C94000080E090E0892BA9F781E0E2
:10292000C11590E1D90708F080E0111105C0DF91D1
:10293000CF911F91089581E027972297C0F780E0FB
:10294000F6CF80E090E0892BF9F681E0F0CF0F938D
:102950001F93CF93DF9320913D02222329F08F30E4
:10296000910541F48FE090E0DF91CF911F910F919D
:102970000C94EE0E162FEC018FE090E00E94030CF9
:10298000082F80E190E00E94030C08130DC0C730AF
:10299000D10531F0C830D10521F4183031F0FFCF26
:1029A000FFCF612FCE01E0CFFFCF0E94340F88E030
:1029B000DF91CF911F910F9108958331910588F494
:1029C0008131910530F48130910519F089309105FC
:1029D00031F42FEF3FEF30935902209358020C94BB
:1029E000A7148D319105D9F7677F60935B02209121
:1029F00045022F73362F307C232B20934502E9CFDD
:102A0000CF93DF93E0E6F2E095E1DF011D929A9526
:102A1000E9F722E930E030935F0220935E0222E57D
:102A200030E030935D0220935C02C5E4D2E08883FD
:102A300019828FEF9FEF9C8B8B8B1D8A83E0809395
:102A4000440243E050E061E674E089890E945C043E
:102A50008DE190E00E94CF0C682F6F738DE190E0C4
:102A60000E94DD148E8B6AE087E090E00E94DD1406
:102A70006DE088E090E00E94DD1480E0DF91CF916E
:102A80000C94F40B89B78F7789BF8AE792E0909313
:102A9000100180930F0181E00E9400151092430203
:102AA0001092420208950F931F930E9473030091A6
:102AB0003E0210913F022091400230914102601B82
:102AC000710B820B930B613F79448240910508F4AE
:102AD00056C080913D0281110BC0809142029091BD
:102AE000430281309105B1F188F0029709F444C0A6
:102AF0000E94730360933E0270933F0280934002F2
:102B00009093410281E01F910F91089580E390E03E
:102B10000E94B10C80FF0EC041E050E06BEF77E007
:102B200087E00E94E70381E090E090934302809366
:102B30004202DECF8DE190E00E94B10C82FFD8CF3F
:102B400041E050E06BE772E087E00E94E70382E03B
:102B500090E0EBCF89B78F7789BF8AE792E09093B7
:102B6000100180930F018DE190E00E94B10C82FD75
:102B7000E7CF0E944215BCCF10923C02FACF80E012
:102B8000C2CFBF92CF92DF92EF92FF920F931F932B
:102B9000CF93DF938B01B42E690182FF23C083FFA3
:102BA00017C061E0C8010E9475148823D9F16B2D0C
:102BB000C8010E94DD148B1135C0F601DF91CF9161
:102BC0001F910F91FF90EF90DF90CF90BF900994ED
:102BD00060E0C8010E947514882321F1C8010E9499
:102BE000CF0CE9CF842F8770C1E0D0E07E0101C017
:102BF000EE0C8A95EAF7D42FD870CB010E94CF0C47
:102C0000C82FB4FE1CC061E0C8010E94751488235F
:102C100049F0DD2389F0CE296C2FC8010E94DD1414
:102C20008C1759F2DF91CF911F910F91FF90EF9088
:102C3000DF90CF90BF900895E094CE21EDCF60E07B
:102C4000C8010E947514882369F3CE21DD2319F091
:102C5000C111B3CFE7CFCC2309F4AFCFE3CFCF92ED
:102C6000DF92EF92FF920F931F93CF93DF937C013C
:102C70006B01C42F122FD42FD07E8091450287FF85
:102C80002CC0D03EC1F5809146028823A1F190E08E
:102C90000E94CF0CD82F8091460290E001960E94AE
:102CA000CF0C982F8D2FE816F90629F56C2F70E0C0
:102CB000762F662766277370612B6F5F7F4F28E240
:102CC00036E0402F8C2FDF91CF911F910F91FF9015
:102CD000EF90DF90CF900C94C11580FD32C0D036BC
:102CE00009F464C088F4D03209F447C0D03409F440
:102CF0005DC0DD2379F1DF91CF911F910F91FF909E
:102D0000EF90DF90CF900895D03A09F483C090F40B
:102D10002C2F2F7141E050E0D03869F7B601C70180
:102D2000DF91CF911F910F91FF90EF90DF90CF90A7
:102D30000C94210DD03C09F476C0D03E09F4B6CFF6
:102D4000DACF0E94D10C8E159F0549F2E114F104EF
:102D500031F2D1CF8C2F8E7071F680E090E0892B0C
:102D600051F28C2F8170DF91CF911F910F91FF90C5
:102D7000EF90DF90CF900C940000CF71CF3109F02D
:102D8000BACF412F4F7771F0413071F0111F1127E9
:102D9000111F212F30E00FE710E0B601C7010E949C
:102DA0008F0EA9CF41E0F2CF40E0F0CF2C2F30E0E2
:102DB0008C2F8F71813029F030F0803121F08131FA
:102DC000F9F440E001C041E025FB222720F90DE1A4
:102DD00010E030E0B601C7010E948F0E80E090E065
:102DE000892B09F488CF4C2FB601C701DF91CF9111
:102DF0001F910F91FF90EF90DF90CF900C94000007
:102E0000C901880F991F8E71C4FB442740F9482BD4
:102E10004250DACF2C2F2F7043E050E0C4FF7ECF1A
:102E200042E050E07BCFCF71CE3139F0CF3109F0A5
:102E300062CF212F45E050E071CF212F44E050E0D8
:102E40006DCFCF93DF9300D000D01F92CDB7DEB708
:102E500018161906E4F580EC92E00E947306992793
:102E600083309105E1F18CF48130910509F460C063
:102E70000297E9F09091F3018091F401981739F1EC
:102E800080EC92E00E947306F5CF8530910509F43D
:102E900044C0A4F1069771F763E0CE0101960E9449
:102EA0009D076B8189819A810E94670A10C065E045
:102EB000CE0101960E949D0780E090E0892B39F0B9
:102EC0004C815D816A817B8189810E9400000F9025
:102ED0000F900F900F900F90DF91CF91089563E0C6
:102EE000CE0101960E949D0780E090E0892B79F346
:102EF0006B8189819A810E940000E9CF63E0CE0155
:102F000001960E949D0780E090E0892B01F36A8181
:102F10007B8189810E940000DACF63E0CE010196B7
:102F20000E949D076A817B8189810E94050CCFCF19
:102F300064E089E691E00E949D0780916C018823FE
:102F400061F0813009F096CF6091690180916A014A
:102F500090916B010E94A71406C080916A01909124
:102F60006B010E94B10C8093690184CFCF92DF92F4
:102F7000EF92FF920F931F93CF93DF93EC017B01AE
:102F800041305105F9F4CD80DE802496C114D1047E
:102F9000E9F462E070E081E090E00E94AD278C01EE
:102FA000009731F0FC01F182E08288818F5F888395
:102FB000C801DF91CF911F910F91FF90EF90DF90AB
:102FC000CF900895C884D9842796E0CF88818F5FF9
:102FD0008883C82FD0E062E070E0CE010E94AD2768
:102FE0008C0120E0BE0161507109822F90E08617AC
:102FF000970774F4880F991FF601E80FF91F4081B5
:103000005181800F911FFC01518340832F5FEDCFD1
:10301000C150D048CC0FDD1FC00FD11FF982E8820C
:10302000C6010E946528C4CF1F920F920FB60F925F
:1030300011242F933F938F939F93AF93BF938091CE
:10304000E5019091E601A091E701B091E80130918E
:10305000E40123E0230F2D3768F126E8230F0296C1
:10306000A11DB11D2093E4018093E5019093E60139
:10307000A093E701B093E8018091E9019091EA0102
:10308000A091EB01B091EC010196A11DB11D8093BF
:10309000E9019093EA01A093EB01B093EC01BF9199
:1030A000AF919F918F913F912F910F900FBE0F90F5
:1030B0001F9018950196A11DB11DD4CF1F920F929C
:1030C0000FB60F9211240BB60F922F933F934F938D
:1030D0005F936F937F938F939F93AF93BF93EF9380
:1030E000FF93E0910F01F09110010995FF91EF918D
:1030F000BF91AF919F918F917F916F915F914F9110
:103100003F912F910F900BBE0F900FBE0F901F900D
:1031100018951F920F920FB60F9211240BB60F92B3
:103120002F933F934F935F936F937F938F939F93CF
:10313000AF93BF93EF93FF93E0910D01F0910E01D8
:103140000995FF91EF91BF91AF919F918F917F91E1
:103150006F915F914F913F912F910F900BBE0F9008
:103160000FBE0F901F9018951F920F920FB60F92DF
:1031700011240BB60F922F933F934F935F936F934E
:103180007F938F939F93AF93BF93EF93FF93E091C0
:103190000B01F0910C010995FF91EF91BF91AF9157
:1031A0009F918F917F916F915F914F913F912F915F
:1031B0000F900BBE0F900FBE0F901F9018951F928F
:1031C0000F920FB60F9211240BB60F922F933F93CD
:1031D0004F935F936F937F938F939F93AF93BF931F
:1031E000EF93FF93E0910901F0910A010995FF9196
:1031F000EF91BF91AF919F918F917F916F915F916F
:103200004F913F912F910F900BBE0F900FBE0F90DB
:103210001F9018951F920F920FB60F9211240BB6A4
:103220000F922F933F934F935F936F937F938F935F
:103230009F93AF93BF93EF93FF93E0910701F091BA
:1032400008010995FF91EF91BF91AF919F918F91E7
:103250007F916F915F914F913F912F910F900BBE96
:103260000F900FBE0F901F9018951F920F920FB6E0
:103270000F9211240BB60F922F933F934F935F93AE
:103280006F937F938F939F93AF93BF93EF93FF932E
:10329000E0910501F09106010995FF91EF91BF9131
:1032A000AF919F918F917F916F915F914F913F91DE
:1032B0002F910F900BBE0F900FBE0F901F9018957F
:1032C0001F920F920FB60F9211240BB60F922F93ED
:1032D0003F934F935F936F937F938F939F93AF939E
:1032E000BF93EF93FF93E0910301F09104010995DF
:1032F000FF91EF91BF91AF919F918F917F916F91CE
:103300005F914F913F912F910F900BBE0F900FBE89
:103310000F901F9018951F920F920FB60F921124C5
:103320000BB60F922F933F934F935F936F937F93BF
:103330008F939F93AF93BF93EF93FF93E09101011E
:10334000F09102010995FF91EF91BF91AF919F918B
:103350008F917F916F915F914F913F912F910F903E
:103360000BBE0F900FBE0F901F9018951F920F92DB
:103370000FB60F9211240BB60F922F933F934F93DA
:103380005F936F937F938F939F93AF93BF93EF93CD
:10339000FF9380917100887F803609F44DC008F05A
:1033A00040C0883209F4A9C028F5803109F49DC0D5
:1033B000C8F4882309F4FBC0883009F496C0FF9153
:1033C000EF91BF91AF919F918F917F916F915F919D
:1033D0004F913F912F910F900BBE0F900FBE0F900A
:1033E0001F901895883109F488C0803241F7809386
:1033F000990214C0803409F49DC040F48033B9F3BD
:103400008833E9F68093990285ECB0C0803509F4E1
:1034100085C0883509F496C0883489F60E94320642
:10342000CECF883909F48CC038F5883729F050F4AC
:10343000883611F0803719F683E080939B02109252
:10344000CF0157C0883809F47BC0803919F0803823
:1034500009F0B5CF8091CF01803208F071C0E091C2
:10346000CF0181E08E0F8093CF0180917300F0E057
:10347000E155FE4F80833DC0803B39F0E0F4803A57
:1034800009F479C0883A09F09ACF84E080939B02CE
:103490001092AE011092AD01E091F101F091F201B4
:1034A00009958091AD0181110FC081E08093AD013C
:1034B00010928D0109C0803C09F4A6CF883C09F424
:1034C000A3CF883B09F07BCFE091AE0181E08E0F66
:1034D0008093AE01F0E0E357FE4F8081809373004C
:1034E0009091AE018091AD0129C0809176028093C8
:1034F000730085EC8093740062CF90919802809164
:103500009702981758F5E091980281E08E0F80930A
:103510009802F0E0E958FD4F8081E9CFE0919802F0
:1035200081E08E0F8093980280917300F0E0E9585B
:10353000FD4F808390919802809197029817C8F26E
:1035400085E8D8CFE091980281E08E0F80939802B1
:1035500080917300F0E0E958FD4F808380919A02DA
:1035600081115CCF81E08093750284EA80937400BE
:1035700010929B0224CF85EC8093740010929B02E2
:103580008091CF01803230F4E091CF01F0E0E1553D
:10359000FE4F10826091CF0170E0E091EF01F09159
:1035A000F0018FEA91E009951092CF0108CF1092B7
:1035B000990234CF1F920F920FB60F9211248F935E
:1035C0009F9378948091140290911302891708F0C8
:1035D000CFC090916200916090936200909112022E
:1035E000891708F0C9C0AD9A90911102891708F0A7
:1035F000C5C0969A90911002891708F0C1C0979A99
:1036000090910F02891708F0BDC0909165009160FC
:103610009093650090910E02891708F0B7C09091C1
:10362000650092609093650090910D02891708F0F3
:10363000B1C0A89A90910C02891708F0ADC01B9AEE
:1036400090910B02891708F0A9C0909162009460D4
:103650009093620090910A02891708F0A3C0C79A5C
:1036600090910902891708F09FC0C59A90910802AD
:10367000891708F09BC0C49A90910702891708F037
:1036800097C0C69A90910602891708F093C0DB9AFA
:1036900090910502891708F08FC0DC9A909104027E
:1036A000891708F08BC0DD9A90910302891708F002
:1036B00087C0DE9A90910202891708F083C0DF9AD2
:1036C00090910102891708F07FC01C9A9091000226
:1036D000891708F07BC01D9A9091FF01891708F0A7
:1036E00077C0909162009260909362009091FE0189
:1036F000891708F071C0C09A9091FD01891708F0F0
:103700006DC0909162009068909362009091FC016E
:10371000891708F067C090916200906490936200EE
:103720009091FB01891708F061C09091620090624E
:10373000909362009091FA01891708F05BC0909114
:1037400062009061909362009091F901891708F0EE
:1037500055C0909162009860909362008F5F809353
:1037600014029F918F910F900FBE0F901F9018958C
:10377000909162009E7F30CFAD9836CF96983ACF29
:1037800097983ECF909165009E7F42CF90916500C3
:103790009D7F48CFA8984ECF1B9852CF9091620042
:1037A0009B7F56CFC7985CCFC59860CFC49864CF35
:1037B000C69868CFDB986CCFDC9870CFDD9874CF5B
:1037C000DE9878CFDF987CCF1C9880CF1D9884CF6F
:1037D000909162009D7F88CFC0988ECF90916200BB
:1037E0009F7792CF909162009F7B98CF90916200DB
:1037F0009F7D9ECF909162009F7EA4CF90916200AA
:10380000977FAACFCF93DF93EC0161E088810E947C
:10381000420360E08881DF91CF910C941403EF9212
:10382000FF920F931F93CF93DF931092C3021092D6
:10383000C20288EE93E0A0E0B0E08093C4029093CF
:10384000C502A093C602B093C70287E591E09093AA
:10385000C1028093C0021092CE021092CF02109249
:10386000D0021092D1021092D2021092D302109282
:10387000D4021092D5021092D6021092D702109262
:10388000D80287E090E09093CD028093CC0283E150
:1038900090E00E94030CC82F82E190E00E94030C8C
:1038A000D82F81E190E00E94030C182F81E090E076
:1038B0000E94030C21E030E03093BD062093BC064B
:1038C0003093BF062093BE061092C0061092C40625
:1038D0001092C6061092C5068093B706212F205C71
:1038E000330BC9012D2F382FC9019093B90680934E
:1038F000B806CF77C093BA061092BB068DE18093CD
:10390000C10662E070E08DE190E00E94AD279093E7
:10391000C3068093C2060097C9F0EC0110E0EE24C4
:10392000E394F12C8AE090E00E94C927FC01F28226
:10393000E182138214821682158217821186108604
:103940001083899399931F5F1D3161F767E087EDBD
:1039500096E00E94C00563E281ED96E00E94C005FA
:1039600080E380935F07C2E0C09361071092620713
:10397000DFEFD0936007109263078FE597E00E9416
:10398000021C81E380935A07C0935C0781E0809317
:103990005D07D0935B0710925E078AE597E00E946F
:1039A000021C82E380935507C0935707C0935807C2
:1039B000D09356071092590785E597E00E94021CA4
:1039C00083E380935007C093520713E0109353078B
:1039D000D09351071092540780E597E00E94021C93
:1039E00084E380934B07C0934D0784E0F82EF09258
:1039F0004E07D0934C0710924F078BE497E00E943C
:103A0000021C08E000934607C093480795E0E92EA2
:103A1000E0924907D093470710924A0786E497E05F
:103A20000E94021C8EE280934107C093430786E008
:103A300080934407D09342071092450781E497E0B2
:103A40000E94021CE0923C07C0933E0787E08093EF
:103A50003F07D0933D07109240078CE397E00E9408
:103A6000021CF0923707C093390700933A07D093AE
:103A7000380710923B0787E397E00E94021C85E21B
:103A800080933207C093340789E080933507D09341
:103A900033071092360782E397E00E94021C86E209
:103AA00080932D07C0932F078AE080933007D0932F
:103AB0002E07109231078DE297E00E94021C87E2E8
:103AC00080932807C0932A078BE080932B07D0931D
:103AD000290710922C0788E297E00E94021C88E2D6
:103AE00080932307C09325070CE000932607D0930B
:103AF00024071092270783E297E00E94021C89E2C4
:103B000080931E07C09320072DE0F22EF09221072C
:103B1000D0931F07109222078EE197E00E94021CAB
:103B20008EE080931907C0931B0780931C07D093E6
:103B30001A0710921D0789E197E00E94021C00936A
:103B40001407C09316070FE000931707D0931507CB
:103B50001092180784E197E00E94021CF0920F0770
:103B6000C093110780E180931207D0931007109241
:103B700013078FE097E00E94021C00930A07C0938E
:103B80000C0781E180930D07D0930B0710920E076D
:103B90008AE097E00E94021C8FE280930507C093A1
:103BA000070782E180930807D09306071092090760
:103BB00085E097E00E94021C10930007C093020763
:103BC00083E180930307D09301071092040780E0FC
:103BD00097E00E94021C8CE18093FB06C093FD06D7
:103BE00084E18093FE06D093FC061092FF068BEFD3
:103BF00096E00E94021C8BE18093F606C093F806C3
:103C000085E18093F906D093F7061092FA0686EFC5
:103C100096E00E94021C1AE11093F106C093F3068D
:103C200086E18093F406D093F2061092F50681EFB8
:103C300096E00E94021C09E10093EC06C093EE0698
:103C400087E18093EF06D093ED061092F0068CEE9C
:103C500096E00E94021C88E18093E706C093E90683
:103C60008093EA06D093E8061092EB0687EE96E082
:103C70000E94021C81E28093E206C093E406009356
:103C8000E506D093E3061092E60682EE96E00E94E7
:103C9000021C8DE28093DD06C093DF061093E006E0
:103CA000D093DE061092E1068DED96E0DF91CF9184
:103CB0001F910F91FF90EF900C94021CCF93DF9314
:103CC000CDB7DEB762970FB6F894DEBF0FBECDBF9B
:103CD000789483B78C6483BF87B7816087BF82E0A5
:103CE0008EBD8EB581608EBD8FB581608FBD85B56F
:103CF000846085BD85B5806485BD80918A008360C0
:103D000080938A0080918B00816080938B0087E88C
:103D100086B91AB80FB6F894A89581B5886181BDA7
:103D200011BC0FBE2FB7F89490E080E0FC01E75083
:103D3000FE4F108201968B319105C1F78091620090
:103D40008E7F80936200AD989698979880916500D9
:103D50008E7F80936500809165008D7F80936500E4
:103D6000A8981B98809162008B7F80936200C7980F
:103D7000C598C498C698DB98DC98DD98DE98DF98E3
:103D80001C981D98809162008D7F80936200C0987E
:103D9000809162008F7780936200809162008F7BB8
:103DA00080936200809162008F7D80936200809199
:103DB00062008F7E8093620080916200877F809393
:103DC00062002FBF9FB7F89480916100816080935B
:103DD0006100A59A8E9A8F9A809164008160809389
:103DE000640080916400826080936400A09A139ABA
:103DF00080916100846080936100BF9ABD9ABC9AF3
:103E0000BE9AD39AD49AD59AD69AD79A149A159AD2
:103E100080916100826080936100B89A8091610016
:103E2000806880936100809161008064809361006C
:103E30008091610080628093610080916100806167
:103E400080936100809161008860809361009FBFD2
:103E50001FBC89E08EBD8CE093E09BBD8ABD87B717
:103E6000806187BF1092140261E08BE00E944203E0
:103E700060E087ED96E00E94B502E091D306F091F4
:103E8000D40690818091D206809589238083E09129
:103E9000D506F091D60680819091D206892B808339
:103EA00029EDC22E21E0D22E3DE1E32E31E0F32EAA
:103EB00043E5842E41E0942E77247394F601049117
:103EC00010E0C8010E94030C682EC80101960E94F0
:103ED000030CB82EC80102960E94030CA82EC8013C
:103EE00003960E94030C9091C106691610F5D70144
:103EF0000D911C91F801A1828483862DB110C1C05F
:103F00000E94F7015C0141E050E0B8010E94B61741
:103F1000D50116969C938E931597862D0E94F701D6
:103F20005C0150E040E0B8010E94B617F5019187AE
:103F30008087A895B2E0CB0ED11CE2E0EE0EF11C1A
:103F40008E149F0409F0BACF61E070E084E090E045
:103F50000E94AD279093C6068093C506892B91F0E9
:103F600010E000E0E090C506F090C606E00EF11EFD
:103F7000802F0E94A00CD7018C930F5F1F4F04303D
:103F8000110581F780E00E948C0C082F10E081E081
:103F90000E948C0C282F30E0322F222722273E7FD0
:103FA000000F111F202B312B3093C8062093C7061A
:103FB00080FF05C021603093C8062093C70660E0EB
:103FC0008AE00E944203EDEAF2E08491E8E7F2E041
:103FD0000491E3E4F2E0149111116EC0FF24F39414
:103FE000F09227028FE190E00E94C9278C0186E0C1
:103FF000F801818386E090E00E94C9276C0166E1A8
:104000000E94C005D8015E96DC92CE925D97109317
:1040100026020093250281E893E00E94030CF80138
:104020008083843008F04EC11093EE010093ED01BF
:1040300060E0F80181810E94420360E0D8015D9652
:104040008D919C910E94B502F8011682158213860B
:104050001286108A1786158A148A128E118E148E73
:10406000138E81819CEF980F943020F08251843020
:1040700008F08FEF42E050E062E573E10E945C04DB
:104080002AC00E94F701DC0113967C92B0E8BB16AF
:1040900009F443CFF1E8BF124CCF862D0E94F701FF
:1040A0005C0141E050E0B8010E94B617D5011696B8
:1040B0009C938E9315973DCF81110E94DF02E12FD3
:1040C000F0E0EE0FFF1FE75DFD4FA591B491EC917D
:1040D000E02309F483CF81E090E00E94030C21E00B
:1040E00030E030931A022093190280931B0281E181
:1040F00090E00E94030C21E130E030931D022093F8
:104100001C0280931E0282E190E00E94030C22E1D7
:1041100030E03093200220931F02809321028DE132
:1041200090E00E94B10C81FDCFC08DE190E09093B2
:104130002302809322021092240287E08093560289
:104140008093570260E00E94420361E087E00E9492
:10415000140380E00E94001581E297E19093F8013A
:104160008093F7018AEB96E09093F6018093F50136
:104170001092F4011092F30110929D021092BF026E
:1041800010929B0281E080939A021092750261E086
:1041900083E10E94140361E082E10E941403809194
:1041A00071008E7F80937100809171008D7F80936C
:1041B000710088E48093700085E4809374008FE739
:1041C00092E09093F2018093F1018BE892E090935A
:1041D000F0018093EF0182E0809372008CE0809385
:1041E00070000E94AA0B88E19BE00FB6F894A89596
:1041F00081BD0FBE91BD72E0472E512C80913402DB
:1042000081110DC00E94730360933E0270933F02C0
:10421000809340029093410281E080933402809128
:104220002C0281110DC00E94DB0360932802709361
:10423000290280932A0290932B0281E080932C0222
:1042400080914202909143028130910509F4D7C2D6
:1042500008F454C0029709F400C6A895809127027B
:10426000882339F080912502909126020E946C0FDC
:10427000A89580910001882309F4C0CF0E94DB0338
:10428000009128021091290220912A0230912B02DC
:10429000601B710B820B930B693E73408105910586
:1042A00008F4ACCF0E94AA0B8111109200010E9469
:1042B000DB03609328027093290280932A02909373
:1042C0002B0299CFF082B0CE8DE190E00E94B10C2C
:1042D00085FD0DC08091170190911801A0911901E1
:1042E0008093220290932302A093240226CF8091F0
:1042F0001A0190911B01A0911C01F2CF80914702FD
:104300008823B1F00E94DB0300914802109149021A
:1043100020914A0230914B02601B710B820B930B70
:10432000653171058105910518F080E00E94F40B5C
:1043300080916202882309F445C0F89488E0EDE694
:10434000F2E0A9ECB6E001900D928A95E1F71092A7
:104350006202789430916D02EFE6F2E090E080E046
:10436000391721F0219182279F5FFACF81112AC04E
:1043700080E090E0892B21F089EC96E00E9400001B
:104380008091CB06811125C09091CC06911121C05E
:1043900080E090E0892B19F080E00E94000080917D
:1043A0004702882391F081E00E94ED080E945409A1
:1043B0000E94730360933E0270933F028093400219
:1043C000909341020E94531548CF81E00E94F40B64
:1043D000EDCF90914702992309F486C08057803130
:1043E00008F07FC081E00E94ED081091C90680911D
:1043F0004E0218130AC0412F50E060E572E08BECCA
:1044000096E00E94EE28892B61F010924D0288E020
:10441000E9ECF6E0AEE4B2E001900D928A95E1F7A6
:10442000C5CF80914D028F5F80934D02133009F00C
:1044300040C09091CB06892F8770F090CC068530D4
:1044400029F4F0924C020E94CB03B0CF0DE110E0B2
:10445000843091F0282F30E08430F0F400914C0249
:104460000023D1F00150110B000F111F000F111F7D
:10447000020F131F0F5F1F4F93FF10C061E0C801B1
:104480000E947514882309F491CF6F2DC8010E94F2
:10449000DD14F8128BCFD7CF8901ECCF60E0C801D3
:1044A0000E947514882309F481CFC8010E94CF0CA3
:1044B000F0CF143009F07ACF8091CB06682F70E0EE
:1044C000762F6627662773709091CC06692B6F5FF5
:1044D0007F4F29ED33E04091CD068C700E94C115CD
:1044E00065CF80E00E94F40BE091CB06EF3F61F4D2
:1044F0008091CC0681115ACF80E090E0892B09F49D
:1045000055CF0E94000052CFE7FD0DC00091CE06AE
:104510002091CD064091CC0670E060E08E2F90E0B7
:104520000E942F1643CFE03C08F058C1309145025D
:1045300037FF3CCF2091CC06822F90E08C01009574
:104540001095000F111F000F111F007C1170EF73E9
:104550000E2B95958795F82FF370BF2E8091C90685
:10456000853041F52C782C3029F50E94D10C80172C
:10457000910721F00F3F114009F018CF8091CC0630
:1045800090E0982F8827882793700091CD06080F18
:10459000192F111D0F5F1F4FF090CE0661E0C8016B
:1045A0000E9475146F2D882309F400CFC8010E9462
:1045B000DD14FCCE680141E0C41AD108CC0CDD1C2E
:1045C000CC0CDD1CCB2876015FEFE51AF50A809153
:1045D0005A028823F9F036FF41C0C70160E071E05C
:1045E0000E947C27682F81E090E00E94DD14C701C3
:1045F000F7FE02C081509F4F692F89E090E00E9432
:10460000DD1480E090E0892B19F0C7010E940000C2
:1046100010925A028091450280FD39C08091C906EE
:10462000843009F04FC08091CC068978813009F040
:10463000BDCE6091CD0680E090E0892B19F0C701D6
:104640000E94000080E090E0892B09F4AFCE4091F9
:10465000CD066B2DC7010E940000A8CEB8016F7374
:10466000772781E090E00E94DD14B801E6E07595BF
:104670006795EA95E1F789E090E00E94DD1480E01B
:1046800090E0892B29F2C8010E940000C1CF86FF6B
:104690000DC00E94D10C8E159F0509F4BFCF8DEF80
:1046A000E81687E0F8060CF0B9CF80CE0E94D10C56
:1046B0008017910709F4B2CF0F3F91E0190709F471
:1046C000ADCF74CE833069F54091CC06A42FA17094
:1046D000CA2E43FBDD24D0F880E090E0892B31F036
:1046E00047702D2DB801C7010E940000809145023E
:1046F00086FF0BC080E090E0892B09F457CE4D2D4A
:104700006C2DC7010E94000051CE80E090E0892B03
:1047100009F44CCE2D2D4C2D6B2DC8010E940000AC
:1047200045CE863009F042CE8091CC06982F9978FC
:10473000913021F08F78803809F038CE8091450291
:1047400086FF28C00E94D10C8E159F05E9F4809148
:10475000CD0690E0382F2227222733700091CE0615
:10476000020F132F111D0F5F1F4FF090CF0695956D
:10477000879595958795837099278230910599F053
:10478000039709F40BCF12CEBDEFEB16B7E0FB0693
:10479000F4F60CCE0E94D10C80179107C1F20F3FA6
:1047A0001140A9F203CEF4FE01CE61E0C8010E94DF
:1047B0007514882309F4FACDC8010E94CF0C9F2DEF
:1047C000977061E070E001C0660F9A95EAF7F3FE1A
:1047D00002C0682BEBCE60956823E8CEE83E08F077
:1047E000E5CDE05CFF0B8091CC060091CF062091D7
:1047F000CE064091CD0661E070E09E2F91CE08E29A
:1048000013E09AE0E92EF12CDD24D39423E6C22EA6
:1048100033E0B32E42E0A42E5BE1352ED8011B9687
:104820008D919C91019709F03FC1F801E654F1097F
:1048300080819181329660807180680E791EF801C6
:10484000118A128A16821286158616861786178294
:10485000108A138A11861582148293013595279543
:104860004801FCE58F1A9108F40161E070E0868947
:104870009789A72FA69541E050E04C0F5D1F4A0F86
:10488000511DDA0141E0281739070CF040E04C9344
:10489000713248F4408D518D840F951F8E579109C8
:1048A000C19708F460E07E5F3496743201F7FE0130
:1048B0003196CE9C9001CF9C300D11244AEA56E0EF
:1048C000421B530B90E080E0708171118FC07181A9
:1048D0007111A6C0D401A80FB91F1D961C92019694
:1048E00032968930910581F7F80180819181A2810A
:1048F000B38185519540A109B10983359B40A1053C
:10490000B10508F070C1662309F46DC181E046E984
:10491000641671040CF080E0D80151968C93F80174
:10492000EC54F109908131978081B9E08B9F802D03
:104930001124939D800D112432979081890F319617
:104940004081942F990F940F890FF8018683EB54BF
:10495000F10946E9641671040CF430C181E09081DC
:10496000913009F080E0D8011D968C938989880FD9
:104970009F85890F880F9D85890F880F9B85890FDB
:1049800091E009F090E0F801968791E0813009F01C
:1049900090E0D8011F969C9381118150F801878384
:1049A0008289882309F456C08C85880F9E85890FDB
:1049B000880F9889890F880F9A89890FEEEFE80F81
:1049C000EE3008F047C0F0E0E851FB4D0C94902722
:1049D0001D251D2525252525CA25CA252A252A2543
:1049E000CF25CF25D325D325D825D8257130C1F49F
:1049F0002180A1E02A1206C0DA01A80FB91F1D9676
:104A00002C926DCF21100CC0D401A80FB91F1D9698
:104A1000AC92853008F463CFD80152967C935FCF77
:104A2000853048F0DA01A80FB91F1D96BC92D80155
:104A30005296DC9254CF60E057CFD8011996AC92D1
:104A40001997817053968C9305C041E050E0F801AE
:104A50005583448389E090E0FAE0EF16F10411F009
:104A60008E199F09D8011C965C924E921B97C89E86
:104A7000B001C99E700D1124FB01ED5CFC4F8081DB
:104A80009181029789F467527D4F49E050E087EBAE
:104A900096E0821B930B0E94EE28892B29F423E0D9
:104AA00030E0F80134872387F1E0EF1AF1080D595F
:104AB0001F4FE114F10409F0B1CEE3E3F3E090E01D
:104AC00080E0208131812330310509F094C023E654
:104AD000289F8001299F100D1124F801ED5CFC4FE7
:104AE00084E090E09183808307521D4F01151105EA
:104AF00009F468CC780125E5E20EF11CD701EC91B0
:104B0000F0E080911B029F01281B3109C90121306F
:104B1000310509F4DDC00CF076C0892B09F046CCD4
:104B200080911802D801A45ABF4F9C91992309F48F
:104B300091C080618093180290911802D801A85A00
:104B4000BF4F8C91823009F4A0C008F085C081303D
:104B500009F48FC02091180241E050E070E060E05D
:104B6000CF010E94210DF801ED5AFF4F8081918104
:104B70008130910509F09FC0339680911B020DE1B1
:104B800010E021E030E0408170E060E090E00E94C1
:104B90008F0E0CCCD8011996BC92199752CFF80100
:104BA0005582448257CFD8011996DC92199749CF84
:104BB00044E0F80141878170838B4CCF8081811163
:104BC00012C08F85880F9D85890F880F9B85890F5F
:104BD000D8011A968C9381E09989913009F080E090
:104BE000F801808B37CFE5E0F0E0D8011C96FC930C
:104BF000EE931B9759CF0196ED59FF4F8A309105DF
:104C000009F05FCFDFCB2230310509F4ADC023308E
:104C1000310509F0CBCB80E390E00E94B10C83FF1B
:104C2000C5CB80911502F801E85AFF4F9081923070
:104C300009F4FDC008F0E2C0913009F4ECC0D701DE
:104C40008C912091150244E050E070E060E08350C8
:104C5000990B59C08F7E6ECF833009F1843009F0F3
:104C600079CFD801AE59BF4F8C91882311F198604C
:104C700007C0D801AE59BF4F8C91882321F09160B5
:104C80009093180267CF9E7FFBCFD801AE59BF4FDC
:104C90008C91882311F09260F3CF9D7FF1CFD801E2
:104CA000AE59BF4F8C91882311F09460E9CF9B7F60
:104CB000E7CF977FE5CF029709F078CBF801EA5A62
:104CC000FF4F80911B020DE110E030E020E05BCF50
:104CD00080E390E00E94B10C81FF68CB80911702C5
:104CE000F801E85AFF4F9081923041F178F4913009
:104CF000C9F0D7018C912091170242E050E070E09A
:104D000060E08150990B0E94210D50CB933001F14E
:104D1000943079F7F801EE59FF4F9081992311F102
:104D2000886007C0F801EE59FF4F9081992321F068
:104D3000816080931702DDCF8E7FFBCFF801EE59A3
:104D4000FF4F9081992311F08260F3CF8D7FF1CFD7
:104D5000F801EE59FF4F9081992311F08460E9CF5B
:104D60008B7FE7CF877FE5CF80E390E00E94B10C97
:104D700082FF1CCB80911602F801E85AFF4F908108
:104D8000923031F168F49130B9F0F70180812091CF
:104D9000160243E050E070E060E08250990BB3CF20
:104DA000933001F1943089F7F801EE59FF4F90816B
:104DB000992311F1886007C0F801EE59FF4F9081E7
:104DC000992321F0816080931602DFCF8E7FFBCF85
:104DD000F801EE59FF4F9081992311F08260F3CFD3
:104DE0008D7FF1CFF801EE59FF4F9081992311F09B
:104DF0008460E9CF8B7FE7CF877FE5CF933009F1E0
:104E0000943009F01CCFF801EE59FF4F908199239F
:104E100011F1886007C0F801EE59FF4F9081992386
:104E200021F08160809315020ACF8E7FFBCFF801BD
:104E3000EE59FF4F9081992311F08260F3CF8D7F5F
:104E4000F1CFF801EE59FF4F9081992311F0846062
:104E5000E9CF8B7FE7CF877FE5CF0E94140A80914F
:104E60003C028823E1F081ED96E00E94AB058111C0
:104E7000A9CA8091BC069091BD06019769F490E0A3
:104E800080E00E94530A0E94140A81ED96E00E947D
:104E9000AB058823D1F396CA81E090E0F2CF87ED8D
:104EA00096E00E94AB05811105C081E090E00E9470
:104EB000530A88CA90E080E0FACF60E081ED96E086
:104EC0000E94B50260E087ED96E00C94B502E1998E
:104ED000FECF9FBB8EBBE09A99278DB30895262FF6
:104EE000E199FECF9FBB8EBB2DBB0FB6F894E29A23
:104EF000E19A0FBE0196089597FB072E16F40094D1
:104F000007D077FD09D00E94992707FC05D03EF411
:104F1000909581959F4F0895709561957F4F089565
:104F2000EE0FFF1F0024001C0BBE0790F691E02D32
:104F30000994AA1BBB1B51E107C0AA1FBB1FA617E0
:104F4000B70710F0A61BB70B881F991F5A95A9F732
:104F500080959095BC01CD0108950F931F93CF9339
:104F6000DF93869F8001879F100D969F100D11245F
:104F7000C8010E94C927EC01009729F0A80170E040
:104F800060E00E94FB28CE01DF91CF911F910F912D
:104F900008950F931F93CF93DF938230910510F400
:104FA00082E090E0E0916607F091670730E020E052
:104FB000B0E0A0E0309799F42115310509F44AC01A
:104FC000281B390B24303105D8F58A819B81611566
:104FD000710589F1FB0193838283FE0111C0408139
:104FE00051810281138148175907E0F0481759078A
:104FF00099F4109761F012960C93129713961C93E4
:105000003296CF01DF91CF911F910F9108950093B8
:10501000660710936707F4CF2115310551F0421749
:10502000530738F0A901DB019A01BD01DF01F80146
:10503000C1CFEF01F9CF9093670780936607CDCF7B
:10504000FE01E20FF31F81939193225031093983BE
:105050002883D7CF2091640730916507232B41F433
:105060002091130130911401309365072093640758
:1050700020911101309112012115310541F42DB714
:105080003EB74091150150911601241B350BE0915C
:105090006407F0916507E217F307A0F42E1B3F0B9E
:1050A0002817390778F0AC014E5F5F4F241735079A
:1050B00048F04E0F5F1F509365074093640781933C
:1050C00091939FCFF0E0E0E09CCFCF93DF930097E8
:1050D000E9F0FC01329713821282A0916607B09129
:1050E0006707ED0130E020E01097A1F420813181C5
:1050F000820F931F209164073091650728173907A5
:1051000009F061C0F0936507E0936407DF91CF91E8
:105110000895EA01CE17DF07E8F54A815B819E0119
:1051200041155105B1F7E901FB83EA834991599192
:10513000C40FD51FEC17FD0761F4808191810296A1
:10514000840F951FE90199838883828193819B83D2
:105150008A83F0E0E0E012968D919C91139700977E
:10516000B9F52D913C911197CD010296820F931FB5
:1051700020916407309165072817390739F6309771
:1051800051F51092670710926607B0936507A093D8
:105190006407BCCFD383C28340815181840F951FA4
:1051A000C817D90761F44E5F5F4F88819981480F16
:1051B000591F518340838A819B8193838283211568
:1051C000310509F0B0CFF0936707E09366079ECFF3
:1051D000FD01DC01C0CF13821282D7CFFB01DC01BD
:1051E00004C08D910190801921F441505040C8F7BE
:1051F000881B990B0895DC0101C06D93415050400C
:10520000E0F7089511E0CDE6D1E004C0FE010E9470
:0E52100090272196CE36D107C9F7F894FFCF2C
:10521E00017A020000000000000000000000000003
:10522E00000000680780001D00021D00225F075A63
:10523E0007550750074B07460741073C073707320C
:10524E00072D07280723071E07190714070F070A3C
:10525E000705070007FB06F606F106EC06E706E271
:10526E0006DD0600000000C2068D06F10663068606
:06527E0006730664060041
:00000001FF
