:100000000C946E010C94D7180C94AC180C948118B5
:100010000C9456180C942B180C9400180C94D517AB
:100020000C94AA170C9498010C9498010C949801C4
:100030000C94261A0C9498010C9498010C94980135
:100040000C9460170C9498010C9498010C949801EE
:100050000C9498010C9498010C9498010C949801BC
:100060000C9498010C9498010C9498010C949801AC
:100070000C9498010C9498010C9498010C9498019C
:100080000C9498010C9402190C9498013F03000001
:100090000000000A0D0000000000000101C0800007
:1000A000000000000000000000060000000000004A
:1000B0000000000000000000000000000000000040
:1000C000000000000000FF0300000000000000002E
:1000D0000000000000000000000000000000000020
:1000E0000000000000000000000000000000000010
:1000F0000000000000000000000000000100AA0055
:100100000200AA000300AA000400AA000500AA0039
:100110000600AA000700AA000800AA000900AA0019
:100120000A0080000B0080000C0080000D008000A1
:100130000E0080000F008000100080001100800081
:10014000120080001300AA001400AA000000AA00F8
:100150000000AA000000AA000000AA000000AA00F7
:100160001580FF001581FF00FF000000FF00000068
:10017000FF000000FF000000FF000000FF00000083
:10018000FF000000FF000000FF000000FF00000073
:10019000FF000000FF000000FF0000000000000062
:1001A000000000000000000000000000000000004F
:1001B00000000000000000000000003A003700349A
:1001C00000310022006100640000003B003800356F
:1001D0000032002300620065007000740078007C2B
:1001E000008000840088008C009000940098009C9F
:1001F00000A000A400A800AC00B000B400B800BC8F
:1002000000C000C400C800CC00D000D400D800DC7E
:1002100000E000E400E800EC00F000F400F800FC6E
:10022000000001040108010C010000390036003310
:1002300000300021002000630005050505050505C7
:100240000502020202020202020707040404040477
:100250000404040707030303030303030307010163
:100260000101010101010606060606060606010255
:10027000040810204080010204081020408008106B
:10028000010204081020408001020102040810202D
:10029000408004804020100804020101020408107C
:1002A0002040800000000A0B0C000000000000014C
:1002B000040506000000000000000000000000002F
:1002C000000000000000000000000000000000002E
:1002D00000000000000000005B1BAD2611241FBEC3
:1002E000CFEFD0E1DEBFCDBF11E0A0E0B1E0EEEB9B
:1002F000F0E500E00BBF02C007900D92A436B107F5
:10030000D9F727E0A4E6B1E001C01D92AA35B207F3
:10031000E1F711E0CDE6D1E004C02197FE010E9493
:10032000E026CC36D107C9F70E94AA1D0C945228AA
:100330000C9400002091800281E0213208F044C03A
:1003400080915C028111FCCF80917F0292E09093BA
:100350005C0291E090935B029FEF90935A0210929F
:10036000590220935802AFE5B2E0E8E3F2E090E0F2
:10037000291331C01092370290913702880F892BD0
:100380008093370280913602813049F5109236020F
:1003900080913702809373008091740083FDF8CFC1
:1003A00085EC8093740080915C028230E1F380914F
:1003B0005A028F3FB1F080915A028032A1F08091B1
:1003C0005A02803391F084E010925E021092800213
:1003D00010925D0208953D9131939F5FC9CF85EEE4
:1003E000E0CF80E0F1CF82E0EFCF83E0EDCF20914E
:1003F000B4063091B5062115310549F090E0880F1B
:10040000991F820F931FFC0180819181089590E0D4
:1004100080E008959C016115710529F06130710536
:1004200071F080E008958091A9068217130681F08B
:100430009091AC0681E09217130699F7089581E038
:100440004091AA065091AB064217530751F7F6CFD9
:1004500081E0F4CFFF920F931F93CF93DF938C0132
:10046000F42EE9010E940A028823B1F08091AC06C3
:100470008017110619F58091B0069091B1068C177E
:100480009D0751F08091AD06882399F0219751F492
:100490001092B1061092B006DF91CF911F910F918B
:1004A000FF90089581E090E09093B1068093B006AC
:1004B000F3CFD093B106C093B006EECF8091AE06D5
:1004C0009091AF06C817D90739F3F0FE0EC02197F7
:1004D00029F41092AF061092AE06DECF81E090E0D4
:1004E0009093AF068093AE06D7CFD093AF06C0935C
:1004F000AE06D2CF089581E080932E020895E09158
:10050000F101F091F201309729F010925E02109201
:10051000800209940895CF93DF93AC01E091F30139
:10052000F091F4013097F1F09091F0018091EF019A
:100530009817C0F090E0292F30E02617370754F4C1
:10054000D901A459BE4F240F351FE90128812C93EE
:100550009F5FF1CF1092F0016093EF01CB01DF912B
:10056000CF910994DF91CF910895DC011296ED911E
:10057000FC91139711969C911197808161110EC087
:100580009095982390831496ED91FC911597908106
:1005900011968C918095892380830895623061F44F
:1005A0009095982390831496ED91FC9115978081F6
:1005B00011969C91892BF0CF982B908308958150B0
:1005C0008C3088F5E82FF0E0E851FD4F0C94E026E0
:1005D000100310031303F402F802FB02FE021303DC
:1005E0001303020308030C038FB58F778FBD0895A3
:1005F0008FB58F7DFBCF8FB5877FF8CF85B58F7D8A
:1006000085BD089580918B008F7780938B0008952E
:1006100080918B008F7DF9CF80918B00877FF5CF04
:1006200083B78F7D83BF08951F93CF93DF93282FC8
:1006300030E0F901ED55FD4F8491F901E259FD4F8C
:10064000D491F901E75CFD4FC491CC23A9F0162F9A
:1006500081110E94DF02EC2FF0E0EE0FFF1FE75345
:10066000FE4FA591B4918FB7F894EC91111108C089
:10067000D095DE23DC938FBFDF91CF911F9108953A
:10068000DE2BF8CFCF93DF9390E0FC01E259FD4FD2
:100690002491875C9D4FFC0184918823D1F090E0E8
:1006A000880F991FFC01E754FE4FA591B491FC01FE
:1006B000E753FE4FC591D49161110EC09FB7F894D6
:1006C0008C91E22FE0958E238C932881E223E8839E
:1006D0009FBFDF91CF9108958FB7F894EC91E22BF3
:1006E000EC938FBFF6CF3FB7F8948091E4019091DF
:1006F000E501A091E601B091E70122B706B600FE40
:1007000005C02F3F19F00196A11DB11D3FBFBA2FA3
:10071000A92F982F8827BC01CD01620F711D811D63
:10072000911D42E0660F771F881F991F4A95D1F7E8
:1007300008958F929F92AF92BF92CF92DF92EF92E5
:10074000FF924B015C010E9473036B017C010E94CC
:1007500073036C197D098E099F09683E73408105FA
:100760009105A8F321E0821A9108A108B10888EE4A
:10077000C80E83E0D81EE11CF11C81149104A10471
:10078000B10429F7FF90EF90DF90CF90BF90AF902A
:100790009F908F90089561E08BE00E94140364E0C5
:1007A00070E080E090E00E94990360E08BE00C94A0
:1007B00014030C94CB032FB7F8946091E00170916F
:1007C000E1018091E2019091E3012FBF0895E82FAC
:1007D000F0E0DF01AA0FBB1FA050BF4F11967C9322
:1007E0006E938830A8F4E950FC4F0C94E026FF0388
:1007F000090416042404320439044404500480918A
:100800006A008C7F482B40936A0089B7816089BF5A
:10081000089580916A00837F440F551F440F551F30
:10082000482B40936A0089B78260F1CF80916A00BB
:100830008F7C74E0440F551F7A95E1F7482B409365
:100840006A0089B78460E3CF80916A008F7366E0A5
:10085000440F551F6A95E1F7482B40936A0089B70A
:100860008860D5CF8AB78C7F482B4ABF89B7806113
:10087000CECF8AB7837F440F551F440F551F482B97
:100880004ABF89B78062C3CF8AB78F7C24E0440F08
:10089000551F2A95E1F7482B4ABF89B78064B7CF27
:1008A0008AB78F7396E0440F551F9A95E1F7482B4E
:1008B0004ABF89B78068ABCF883010F40C94E70347
:1008C00008950E94730320916A0130916B01FB012E
:1008D000E21BF30B2091990230919A02E217F30781
:1008E00008F438C120919B0230919C0270936B01F7
:1008F00060936A0140919D0250919E0241305105E2
:1009000099F148F04230510509F4B9C0433051051E
:1009100009F4EFC00895E217F30708F0D4C08091FE
:10092000A0028F5F8093A0028B3008F413C181E096
:1009300090E090939E0280939D0241E050E061E63A
:1009400074E0809193020E945C041092690182E538
:1009500090E090939C0280939B0283E290E09093BE
:100960009A02809399020895409169014130A9F05B
:1009700038F0433009F449C0443009F47CC008958C
:10098000E217F30730F491E090936901E093680176
:10099000089584E0809369010895E217F30798F5BC
:1009A000109269019091A0029F5F9093A0028E2FF8
:1009B000EE0F990B20916801821B910927FD9395F9
:1009C00097FF03C091958195910949970CF4C2C096
:1009D00010929E0210929D0282E990E090939C02F8
:1009E00080939B0282E590E090939A028093990213
:1009F0001092A0024091810250E061E674E0809183
:100A000093020C945C0483E0C5CFE217F30700F374
:100A100080918102833061F582E08093810282E0DF
:100A200090E090939E0280939D0282E990E09093E3
:100A30009C0280939B0282E590E090939A028093BF
:100A400099021092A2021092A4021092A502109292
:100A5000A6021092A7021092A8021092A9028091F9
:100A6000A0028093A3021092A0021092A102C2CF12
:100A700040938102D4CFE217F30788F6A9CF5091B3
:100A8000A0025F5F5093A0024091A102440FE217C1
:100A9000F307E0F04093A102583009F05BC0E09109
:100AA000A202E630A9F410929E0210929D0282E901
:100AB00090E090939C0280939B0282E590E090935B
:100AC0009A02809399021092A00208954160E2CFA9
:100AD00083E090E090939E0280939D0281E08E0FD0
:100AE0008093A202F0E0E356FD4F8091A10287833C
:100AF0000895E217F307F8F410929E0210929D02F7
:100B00001092A00282E990E090939C0280939B0255
:100B100082E590E090939A028093990288E0E2EA5D
:100B2000F2E0AAEAB2E001900D928A95E1F781E045
:100B300080939F0208958091A202863009F4B3CF7A
:100B400082E090E090939E0280939D021092A0021A
:100B50001092A1020895CF93DF93DC01EC91F0E0B5
:100B6000EE0FFF1FE75DFD4FC591D491988111965F
:100B70008C91982381E009F480E0DF91CF91089572
:100B8000DC0170E0FB01E259FD4FE4911196EC931A
:100B90001197675C7D4FFB0124912C9330E0220F6D
:100BA000331FF901E754FE4F8591949113969C935E
:100BB0008E931297F901E753FE4F85919491159604
:100BC0009C938E9314970895FC018081813089F461
:100BD000CB01845893408897C0F06138F3E07F07D9
:100BE000A1F06C5F734081E06530710578F080E0C2
:100BF0000895823021F4CB018C5A9340ECCF83309E
:100C000061F7CB01845D9340E6CF81E00895CF93F7
:100C1000DF93EC0161E08D8D9E8D0E94B502AD8D5C
:100C2000BE8D1496ED91FC911597908111968C9143
:100C300080958923808361E070E080E090E00E94ED
:100C4000990360E08D8D9E8DDF91CF910C94B5025C
:100C500085ED809374008091740084FDFCCF109228
:100C60005C0208952091AC01260F3327331F2132F7
:100C70003105ECF420915C02FC0190E080E024302E
:100C800069F082E00895A091AC012191AC01445734
:100C90005E4FA40FB52FB11D2C930196861798F3C4
:100CA0008091AC01680F6093AC0180E0089581E011
:100CB00008950895E091F0018091EF01E81730F474
:100CC000F0E0E459FE4F808190E008958FEF9FEFB0
:100CD00008959091F0018091EF012FEF3FEF981769
:100CE00048F4E92FF0E0E459FE4F208130E09F5FA7
:100CF0009093F001C90108958091EF019091F00166
:100D0000891B990B0895CF92DF92EF92FF920F9378
:100D10001F93CF93DF937C01CB018A0120915D0269
:100D2000222389F0EB016B01C40ED51ECC15DD0525
:100D300069F06991D701ED91FC910190F081E02D6E
:100D4000C7010995F3CF642F0E943206C801DF91D5
:100D5000CF911F910F91FF90EF90DF90CF9008956A
:100D600044E050E064E671E082EB92E00C9483068C
:100D7000CF93DF931F92CDB7DEB7698320915D02D9
:100D80002223F9F020918002203258F021E030E057
:100D9000FC013383228390E080E00F90DF91CF91BC
:100DA000089580915E02E82FF0E0E15AFD4F9981AD
:100DB00090838F5F80935E028093800281E090E059
:100DC000ECCF61E0CE0101960E943206F7CF90E0B1
:100DD00080E0089580E090E0892B29F080919802CE
:100DE00083FD0C9400000895E82FF0E0E950FE4FD9
:100DF000608308950F931F93CF93DF93FC0182814B
:100E0000813089F040F0823009F47AC0DF91CF91CF
:100E10001F910F91089561E08081DF91CF911F9123
:100E20000F910C9414030181C02FD0E0108161E078
:100E3000812F0E944203209719F460E0812FEDCFAB
:100E4000CF3FD10511F461E0F9CFE12FF0E0ED558E
:100E5000FD4FE491E150EC3008F04DC0F0E0ED5C66
:100E6000F84F0C94E0263F073F077B0744074A07EB
:100E7000500758077B077B075D076707710783B734
:100E8000806283BF01BFC2CF8FB580688FBDDBBDDD
:100E9000CABDBCCF8FB580628FBDD9BDC8BDB6CF2E
:100EA0008FB588608FBDD0937900C0937800AECFA6
:100EB00085B5806285BD03BDA9CF80918B00806818
:100EC00080938B00D0938700C09386009FCF809142
:100ED0008B00806280938B00D0938500C093840048
:100EE00095CF80918B00886080938B00D093830096
:100EF000C09382008BCFC038D1050CF0A4CF9DCF1A
:100F00008181E381F0E0E950FE4F80837FCF0F9332
:100F10001F93CF93DF93D62F8C01C0E0CD1741F004
:100F2000F801819191918F010E94FA06CF5FF6CF6F
:100F3000DF91CF911F910F9108950F931F93CF933E
:100F4000DF9300D000D01F92CDB7DEB789837B83BB
:100F50006A835D834C8310E001E08091EA011817F9
:100F600008F5E091E801F091E901E10FF11D8081C0
:100F700000935D0280937F0210925E0210928002C5
:100F800062E082EB92E00E94B80645E050E0BE01CC
:100F90006F5F7F4F82EB92E00E9483060E949A016E
:100FA0001F5FDBCF0F900F900F900F900F90DF918E
:100FB000CF911F910F9108950F931F93CF93DF93BC
:100FC000162F082FEC0182EB92E00E9469068993AC
:100FD0008C2F801B8117B8F3812FDF91CF911F9148
:100FE0000F9108958F929F92AF92BF92CF92DF920E
:100FF000EF92FF920F931F93CF930E947303AB0165
:10100000BC018091C0029091C102A091C202B09136
:10101000C3028A019B01081B190B2A0B3B0B809111
:10102000C802882309F47FC08091CA029091C90246
:10103000E92FEE0FFF0BA82F082E000CBB0BC3E609
:101040008C02E00DF11D1124E254FD4F178B068B2D
:10105000053F11402105310508F054C09F5F909372
:10106000C9029091C9029332C9F593E69A9F900103
:101070009B9F300D112422543D4FF901E45AFF4F3C
:10108000C090C402D090C502E090C602F090C702A2
:101090004A015B018C189D08AE08BF087501640108
:1010A000C082D182E282F38229593F4FE1E0F0E031
:1010B000D901ED93FC938F5F8A3094F58093CA0237
:1010C000E091CA02B3E6EB02F0011124EB5DFC4FA4
:1010D000118210821092C8021092C9024093C0027D
:1010E0005093C1026093C2027093C302CF911F91CB
:1010F0000F91FF90EF90DF90CF90BF90AF909F90B7
:101100008F9008951092C90291E09093C802409385
:10111000C4025093C5026093C6027093C702A1CF68
:101120001092CA02CDCF053F114021053105B0F222
:1011300081E08093C8024093C4025093C50260933B
:10114000C6027093C702CACFE82FF0E0E950FE4F05
:1011500060830895CF93FC018281813051F020F0AB
:10116000823079F0CF91089560E08081CF910C9426
:101170001403C08161E08C2F0E94420360E08C2F39
:10118000F5CFE381F0E0E950FE4F1082EBCF809382
:101190002F02882361F00FB6F894A89581B5886175
:1011A00081BD11BC0FBE81E597E00C94FA0681E584
:1011B00097E00E94AA0888E19BE00FB6F894A895F2
:1011C00081BD0FBE91BD0895CF93C82F8091840239
:1011D0008C1731F081E0C11101C080E00E94C70886
:1011E000C093840260E070E0CB01C1110E94DB0378
:1011F00060938502709386028093870290938802A1
:10120000809184028C1739F081E0C11101C080E027
:10121000CF910C94C708CF910895EF92FF920F934E
:101220001F93CF93DF938C01FC01C581D68120975A
:1012300051F0E480F12CEF1431F0899199910E94E2
:10124000AA08F394F8CFF801C085D185209751F012
:10125000078110E0011731F0899199910E94AA0845
:101260001F5FF8CFDF91CF911F910F91FF90EF900B
:1012700008952091B4063091B5062115310551F03D
:1012800090E0880F991F820F931FFC01808191814C
:101290000C940D090895CF938091B606882369F1C7
:1012A0008091B7069091B806892B29F1C0E0809112
:1012B000B306C81700F58C2F86958695869590E025
:1012C000E091B706F091B806E80FF91F208130E0F1
:1012D00043E0880F991F4A95E1F74C2F481B02C045
:1012E000359527954A95E2F720FF03C08C2F0E9481
:1012F0003909CF5FDCCF1092B606CF9108950F93D6
:101300001F93CF938C01C42F0E940A028823E1F11E
:101310008091AC06482F50E0C03128F5882319F1A0
:101320002C2F30E08091B9069091BA060C2E02C0A5
:10133000969587950A94E2F780FF15C00417150764
:1013400019F58091B4069091B5060097E9F0220F47
:10135000331F820F931FFC0180819181CF911F91D8
:101360000F910C940D090417150771F08091B406C4
:101370009091B506009741F04C2F50E0440F551F57
:10138000480F591FFA01E8CFCF911F910F9108958F
:101390000F931F93CF93DF93EC018B81882379F018
:1013A0008B0189819A818617970729F0CE010E94C7
:1013B0000D091A83098389819A81019731F48D81FE
:1013C0009E81009769F06C8105C08885998500979A
:1013D00039F06F81DF91CF911F910F910C948707A6
:1013E000DF91CF911F910F9108952091B406309114
:1013F000B5062115310571F06091AE067091AF060A
:1014000090E0880F991F820F931FFC0180819181CA
:101410000C94C8090895CF938091B606811138C005
:10142000C0E08091B306C81728F48C2F0E943909B8
:10143000CF5FF7CF8091B7069091B806892B29F13D
:10144000C0E08091B306C81700F58C2F869586956D
:10145000869590E0E091B706F091B806E80FF91F85
:10146000208130E043E0880F991F4A95E1F74C2F27
:10147000481B02C0359527954A95E2F720FF03C027
:101480008C2F0E94F509CF5FDCCF81E08093B606F8
:10149000CF9108952091AE063091AF0628173907F5
:1014A00061F09093AF068093AE068091B6068823D4
:1014B00021F00E944B090C940B0A08950F931F937F
:1014C000CF938C01C42F0E940A02882309F444C0E0
:1014D0008091AC06482F50E0C03148F5882339F19F
:1014E0002C2F30E08091B9069091BA060C2E02C0E4
:1014F000969587950A94E2F780FF19C0041715079F
:1015000059F58091B4069091B506009729F1609144
:10151000B0067091B106220F331F820F931FFC019A
:1015200080819181CF911F910F910C94C80904176C
:10153000150791F08091B4069091B506009761F07F
:101540006091AE067091AF064C2F50E0440F551FCE
:10155000480F591FFA01E4CFCF911F910F910895C1
:101560000E94E408E2E8F2E081E087831086EBE87D
:10157000F2E088E0DF011D928A95E9F708950C9466
:10158000B726CF93C62F8230910509F456C020F4B8
:10159000019769F1CF9108958330910509F48BC0CB
:1015A0000497C1F785E160FFC0C00E94F50986E19C
:1015B000C1FFBEC00E94F50987E1C2FFBCC00E9406
:1015C000F50988E1C3FFBAC00E94F50989E1C4FFAB
:1015D000B8C00E94F5098AE1C5FFB6C00E94F509AE
:1015E0008BE1C6FFB4C00E94F5098CE14AC080E0DF
:1015F00064FF17C00E94F50981E0C0FF15C00E947A
:10160000F50982E0C1FF13C00E94F50983E0C2FF23
:1016100011C00E94F50984E0C3FF35C0CF910C943E
:10162000F5090E943909E8CF0E943909EACF0E94E2
:101630003909ECCF0E943909EECF85E060FF26C062
:101640000E94F50986E0C1FF24C00E94F50987E0E9
:10165000C2FF22C00E94F50988E0C3FF20C00E949B
:10166000F50989E0C4FF1EC00E94F5098AE0C5FFA4
:101670001CC00E94F5098BE0C6FF1AC00E94F50944
:101680008CE0C7FDCBCFCF910C9439090E9439096A
:10169000D9CF0E943909DBCF0E943909DDCF0E94E2
:1016A0003909DFCF0E943909E1CF0E943909E3CF20
:1016B0000E943909E5CF8DE060FF22C00E94F50944
:1016C0008EE0C1FF20C00E94F5098FE0C2FF1EC05E
:1016D0000E94F50980E1C3FF1CC00E94F50981E169
:1016E000C4FF1AC00E94F50982E1C5FF18C00E941C
:1016F000F50983E1C6FF16C00E94F50984E1C1CF58
:101700000E943909DDCF0E943909DFCF0E943909D3
:10171000E1CF0E943909E3CF0E943909E5CF0E9449
:101720003909E7CF0E943909E9CF0E9439093FCF33
:101730000E94390941CF0E94390943CF0E943909DB
:1017400045CF0E94390947CF0E94390949CF0E94ED
:1017500039094BCF0F931F93CF93DF93C82F8B0182
:1017600081E090E00E94BF0A90E02091A90628172E
:10177000190629F02091AC062817190611F4C09318
:10178000B2068DE190E00E94BF0AD82F81E090E080
:101790000E94BF0A90E00130110519F521E030E008
:1017A0004D2F70E060E00E942A0281E090E00E94EC
:1017B000BF0A90E02091A9062817190629F0209168
:1017C000AC062817190641F48091EA014FE750E072
:1017D00061E070E0811123C0DF91CF911F910F91E3
:1017E000089530E020E04D2F70E060E00E942A0272
:1017F00081E090E00E94BF0A90E02091A90628179E
:10180000190629F02091AC062817190629F78091AE
:10181000EA01882309F34FE750E070E060E08C2F85
:10182000DF91CF911F910F910C949D07CF93863834
:1018300023E0920719F130F481389340D1F08FEF13
:10184000CF910895873823E09207D9F088389340E4
:10185000B1F786E893E00E94BF0AC82F87E893E0BB
:101860000E94BF0A90E02FEFC29F800D911D1124AE
:1018700002C081E893E0CF910C94BF0A86E893E020
:10188000FACF87E893E0F7CFCF93C82F8FE290E0AD
:101890000E94BF0A811109C085E190E0CC2311F0BC
:1018A00086E190E0CF910C94BF0A80E0CF9108953B
:1018B000CF93C82F8FE290E00E94BF0A811106C02B
:1018C0008C2F90E0CA96CF910C94BF0A80E0CF9104
:1018D00008951F93CF93DF93EC0180912F0288230B
:1018E00059F08FE090E00E94BF0A182F80E190E04D
:1018F0000E94BF0A181306C0CE01DF91CF911F913D
:101900000C94BF0A81E597E00E94AA08FFCF0C94CF
:10191000690CCF93DF9320919502309196022F3F6F
:10192000320721F0C901DF91CF910895809198028B
:1019300087FF2BC086FF0FC089E090E00E94870CD4
:10194000C82F81E090E00E94870C9C2F9093960214
:101950008093950215C089E090E00E94870CC82F03
:1019600081E090E00E94870C90E4C99F90011124CF
:10197000207C31708F73282B309396022093950230
:101980008091950290919602CECF85FF0CC081E1A7
:1019900090E00E94870CC82F82E190E00E94870CA3
:1019A000C05CDD0BD2CF81E090E00E94870C90E01C
:1019B000CDCFBF92CF92DF92EF92FF920F931F9302
:1019C000CF93DF9300D01F92CDB7DEB730912502C1
:1019D000311165C1B22E6A017B018C014330510582
:1019E00009F4ACC008F03FC04130510509F44CC0C7
:1019F0004230510509F483C0B701C8010E940A02B0
:101A0000882309F44CC18091EA01882309F447C175
:101A1000DA82C982BB8210E001E08091EA011817E6
:101A200008F03DC1E091E801F091E901E10FF11DFD
:101A3000808100935D0280937F0210925E0210927B
:101A4000800262E082EB92E00E94B80643E050E040
:101A5000BE016F5F7F4F82EB92E00E9483060E947F
:101A60009A011F5FDACF4530510509F4D1C008F45F
:101A700084C04630510509F0BFCF40E0C80124FFC3
:101A800028C00E945E0AB8CF80912202811127C02F
:101A900040E0B701C801B4FE1FC00E945E0A41E0E9
:101AA000B701C801B0FE22C00E945E0A42E0B70141
:101AB000C801B1FE1EC00E945E0A43E0B701C80122
:101AC000B2FE1AC00E945E0A44E0B701C801B3FC2E
:101AD000D8CF0E947F0990CF0E947F09E0CF8DE18F
:101AE00090E00E94870C81FDD3CFD9CF0E947F095F
:101AF000DDCF0E947F09E1CF0E947F09E5CF45E05D
:101B0000C80120FF12C00E945E0A46E0B701C8016A
:101B1000B1FE0EC00E945E0A47E0B701C801B2FEE6
:101B20000AC00E945E0A48E0D0CF0E947F09EDCF34
:101B30000E947F09F1CF0E947F09F5CF49E0C801DB
:101B400020FF12C00E945E0A4AE0B701C801B1FE40
:101B50000EC00E945E0A4BE0B701C801B2FE0AC087
:101B60000E945E0A4CE0B1CF0E947F09EDCF0E9437
:101B70007F09F1CF0E947F09F5CF4DE0C80120FF1A
:101B800032C00E945E0A4EE0B701C801B1FE2EC00D
:101B90000E945E0A4FE0B701C801B2FE2AC00E944F
:101BA0005E0A40E1B701C801B3FE26C00E945E0A8A
:101BB00041E1B701C801B4FE22C00E945E0A42E1C1
:101BC000B701C801B5FE1EC00E945E0A43E1B7011D
:101BD000C801B6FE1AC00E945E0A44E1B701C801FE
:101BE000B7FE77CF4ECF0E947F09CDCF0E947F09ED
:101BF000D1CF0E947F09D5CF0E947F09D9CF0E9403
:101C00007F09DDCF0E947F09E1CF0E947F09E5CFE8
:101C100045E1C80120FF2EC00E945E0A46E1B701DF
:101C2000C801B1FE2AC00E945E0A47E1B701C8019F
:101C3000B2FE26C00E945E0A48E1B701C801B3FEA9
:101C400022C00E945E0A49E1B701C801B4FE1EC06D
:101C50000E945E0A4AE1B701C801B5FE1AC00E949F
:101C60005E0A4BE1B701C801B6FE16C00E945E0ACB
:101C70004CE1B4CF0E947F09D1CF0E947F09D5CF1C
:101C80000E947F09D9CF0E947F09DDCF0E947F0982
:101C9000E1CF0E947F09E5CF0E947F09E9CF0F9035
:101CA0000F900F90DF91CF911F910F91FF90EF90C8
:101CB000DF90CF90BF900895AF92BF92CF92DF9206
:101CC000EF92FF920F931F93CF93DF9350912502D2
:101CD00051112DC058016901142F7B01EC010E94A4
:101CE0000A0281111093B2068DE190E00E94BF0AB2
:101CF0009601482FB701CE010E942A02B701CE01FA
:101D00000E940A02882399F08091EA01882379F0E1
:101D1000A501B601812FDF91CF911F910F91FF9007
:101D2000EF90DF90CF90BF90AF900C949D07DF9124
:101D3000CF911F910F91FF90EF90DF90CF90BF90C8
:101D4000AF9008951F93CF93DF93EC01162F0E945D
:101D5000B726181721F0612FCE010E94BF26CE01B1
:101D6000DF91CF911F910C94BF0ACF93DF938638F8
:101D700023E0920739F138F481389340E9F08FEF8E
:101D8000DF91CF910895873823E09207F1F08838EA
:101D90009340A9F7C62F86E893E00E94BF0AD82F88
:101DA00087E893E00E94BF0A90E06C2F2FEFD29F4C
:101DB000800D911D112402C081E893E0DF91CF9145
:101DC0000C94A20E86E893E0F9CF87E893E0F6CF73
:101DD0000F931F93CF93DF930FB7F894D0E0C0E039
:101DE000FE01E457FF4F1491CE010E94B726181749
:101DF00021F0612FCE010E94BF262196CD3281E0D5
:101E0000D80771F781E893E00E94B726813029F066
:101E100061E081E893E00E94BF26CCE1D1E01FEFB2
:101E200089919991FC0111830E94FA06F1E0C23573
:101E3000DF07B1F70FBFDF91CF911F910F91089589
:101E40002F923F924F925F926F927F928F929F92CA
:101E5000AF92BF92CF92DF92EF92FF920F931F93B8
:101E6000CF93DF9300D000D000D0CDB7DEB78C0188
:101E7000E0E0AE2EE0E0BE2EF0E02F2EF0E03F2EB0
:101E8000412C512C32014394B0E08B2EB0E09B2EBC
:101E900080E0C82E80E0D82ED8015B960D90BC91D2
:101EA000A02DBD83AC83109709F454C28C9180346B
:101EB00009F45AC108F04BC0893209F4C8C108F5C9
:101EC000843209F4A6C198F4813209F46EC18332D8
:101ED00009F477C1811113C0E0E0F0E0EF2B79F055
:101EE000AC81BD8111968C910E94000008C08632A1
:101EF00009F47BC108F44DC0883209F49CC180E02C
:101F000019C28D3209F4C3C170F48B3209F4B4C123
:101F100008F4A8C1C114D10491F3EC81FD81618161
:101F200085E090E091C18F3209F4C6C108F4BAC1CE
:101F3000803309F4CCC1813311F7E0E0F0E0EF2BFE
:101F4000F1F2AC81BD8111966C9182E0CAC18136FB
:101F500009F4B8C068F5803509F45BC188F48234AF
:101F600009F419C108F40CC1833449F6A114B10471
:101F700031F2AC81BD8111966C9184E090E0FDC09E
:101F80008E3509F4B1C1803609F494C0813509F069
:101F9000B6CFAC81BD8111969C9180E8890F61E03C
:101FA00070E097FD02C070E060E00E94AA0BA7CF2E
:101FB0008D3609F49BC0A0F4833609F490C008F470
:101FC00088C08C3609F09BCF80E090E0892B09F423
:101FD00096CFAC81BD8111968C910E9400008FCF6D
:101FE000873709F498C108F58E3609F088CFAC819F
:101FF000BD811396ED91FC911497309709F4AAC115
:1020000080818F3609F07BCF2114310409F477CF1A
:1020100011962C91622F661F6627661F8181B0E89A
:102020008B9FC0011124822B9CC08B3709F4E2C125
:102030008F3709F064CFAC81BD811196EC90F12C03
:10204000BFEFEB1ABCEFFB0AB701C8010E94E40521
:10205000882309F46EC1E5E8EE16E3E0FE0609F414
:1020600068C1FDEAEF16F3E0FF0609F489C225ED29
:10207000E21623E0F20609F483C234E8E31633E003
:10208000F30659F04CEAE41643E0F40631F084ED2F
:10209000E81683E0F80609F065C2AC81BD811296AE
:1020A0008C91883009F05EC20E94E80EC8010E943F
:1020B000070666C2EC81FD81618181E090E00E94AB
:1020C000C10A1DCFAC81BD8111966C9182E090E078
:1020D000F6CFEC81FD81618183E090E0F0CFAC81AF
:1020E000BD8111966C9184E090E0E9CFEC81FD8197
:1020F0006181862F8F778183D8015B96ED91FC916A
:102100005C9781832114310409F4F9CE661F662798
:10211000661F5B96ED91FC918181811121C081E068
:102120008093DE0161110EC08091DE0187FDE7CE54
:1021300060E090E00E9400008091DE018F5F80935C
:10214000DE01F2CF8091DE0187FDD9CE61E090E023
:102150000E9400008091DE018F5F8093DE01F2CF4C
:1021600090E00E940000CBCEA114B10409F4C7CEC8
:10217000EC81FD81618181E090E00E940000BFCE92
:10218000A114B10409F4BBCEAC81BD8111966C9150
:1021900082E090E0F2CFA114B10409F4B0CEEC815A
:1021A000FD81618183E090E0E8CFE0E0F0E0EF2B9B
:1021B00009F4A5CEAC81BD8111968C910E940000DE
:1021C0009ECEE0E0F0E0EF2B09F499CEAC81BD812A
:1021D00011968C9190E087FF05C0819590E09195D4
:1021E000819591090E9400008ACEE0E0F0E0EF2B9B
:1021F00009F485CEAC81BD8111968C9190E087FF6A
:1022000005C0819590E09195819591090E9400000B
:1022100076CE8114910409F472CEEC81FD81918116
:1022200080E8890F61E070E097FD02C070E060E037
:102230000E94000064CEC114D10409F460CEEC8188
:10224000FD81618181E090E00E94000058CEC114C0
:10225000D10409F454CEAC81BD8111966C9182E019
:1022600090E0F2CFC114D10409F449CEEC81FD8194
:10227000618183E090E0E8CFC114D10409F43FCE3E
:10228000AC81BD8111966C9184E090E0DDCFC114EA
:10229000D10409F434CEAC81BD8111966C9186E0F5
:1022A00090E0D2CFC114D10409F429CEEC81FD8194
:1022B000618187E090E0C8CFC114D10409F41FCE3A
:1022C000AC81BD8111966C9188E090E0BDCFE0E0DB
:1022D000F0E0EF2B09F413CEAC81BD8111966C9127
:1022E00081E00E9400000BCEAC81BD811396ED9180
:1022F000FC911497309771F180818F3509F0FFCDF3
:1023000020E030E0232B09F4FACD918111968C91D5
:102310000E940000F4CDEC81FD81E180F12CFFEF03
:10232000EF1AFCEFFF0AB701C8010E94E405811112
:102330002AC081E0D8015B96ED91FC915C972381E6
:102340003481148213825C963C932E935B97813088
:1023500009F4A2CD26960FB6F894DEBF0FBECDBF0E
:10236000DF91CF911F910F91FF90EF90DF90CF9071
:10237000BF90AF909F908F907F906F905F904F90A5
:102380003F902F90089521E8E21623E0F20601F134
:1023900034E8E31633E0F30659F145E8E41643E088
:1023A000F406A1F08CEAE81683E0F80609F19DEA4C
:1023B000E91693E0F90651F0A4EDEA16A3E0FA0657
:1023C000B9F0B5EDEB16B3E0FB0671F48AE002C09C
:1023D000F8018081AC81BD8112969C919813A9CFA0
:1023E000C8010E940706A5CFC7010E94160CF2CFB4
:1023F0008DE0F0CFEC81FD81F181F983EF2EF12C9E
:102400002FEFE21A2CEFF20AB701C8010E94E4058F
:10241000882309F48ECFAC81BD811296BC91BA831A
:102420008B2F90E09C0144E0359527954A95E1F784
:10243000E22FE170EE83E093DD019C0153E03595DE
:1024400027955A95E1F7F22FF170FB83F093DC01A9
:102450009C0135952795422F4170440F959587959E
:10246000959587958170880F880F840FB170B80F8C
:10247000BC83B093DB0181E8E81683E0F806B9F489
:10248000D8018C918093DA01E130B1F18091DA01C9
:1024900090E00C8002C0959587950A94E2F78170D0
:1024A0009927BB81B817190609F043CF99CFE4E803
:1024B000EE16E3E0FE0651F0FCEAEF16F3E0FF064D
:1024C00029F024EDE21623E0F20691F58DE08093E9
:1024D000DA019E819130D1F6C7018458934002976A
:1024E00008F427CF89818B5A823008F422CF898162
:1024F000835D823008F41DCFD301C2010C8004C07B
:10250000880F991FAA1FBB1F0A94D2F72091DA01E6
:10251000EA81E3FF22C0822B8093DA016091DA0125
:10252000C7010E94B50E9091DA01891302CF58CFEE
:1025300035E8E31633E0F30651F04DEAE41643E0E4
:10254000F40629F085EDE81683E0F80611F48AE038
:10255000BECFC7010E94160CBACF482F4095822FDC
:102560008423DACFEC81FD816281C7010E94B50E20
:10257000D8015B96ED91FC919281891709F496CD73
:10258000B1E8EB16B3E0FB0609F0D3CE81E893E0A7
:102590000E94BF0AF8018083CCCEAF92BF92CF9247
:1025A000DF92EF92FF920F931F93CF93DF93C0912F
:1025B000F501D091F6011091D90111111AC0FE0157
:1025C00090E080E025813681232B09F05AC025E078
:1025D000289FF001299FF00D11243296EC0FFD1F6A
:1025E000F093D801E093D701309709F43FC01482EB
:1025F0001382A090D701B090D801A114B104B1F119
:102600000E94DB03C090D301D090D401E090D501AB
:10261000F090D6016C197D098E099F096A30710509
:1026200081059105C8F11092D9010E94DB036093E6
:10263000D3017093D4018093D5019093D6018D8DF1
:102640009E8D0E94AB05F5019081882319F1916060
:10265000908381E08093D9010E9473036093CF013E
:102660007093D0018093D1019093D201DF91CF91EB
:102670001F910F91FF90EF90DF90CF90BF90AF90A0
:102680000895019635968530910509F09BCFF0E0CD
:10269000E0E0A6CF9E7FDCCF0E947303C090CF0105
:1026A000D090D001E090D101F090D2016C197D0959
:1026B0008E099F096531710581059105B8F20E9467
:1026C00073036C197D098E099F09643F7140810570
:1026D000910560F68D8D9E8D212F2770C12CD12CF8
:1026E0007601C39404C0CC0CDD1CEE1CFF1C2A95A3
:1026F000D2F7103108F049C00E94AB05E12FE695F2
:10270000E695E695EA0DFB2DF11D8823D1F1808138
:10271000C82AC08201E0010F0093D9010E9473030F
:102720006093CF017093D0018093D1019093D20137
:10273000177F173019F0083109F098CF0E94DB039A
:102740006093D3017093D4018093D5019093D60107
:10275000003141F1083109F089CF0B8D1C8D80913A
:10276000D7019091D8019C8F8B8FCE010E94200FB2
:10277000E091D701F091D801148213821C8F0B8F46
:102780002CC0C0948081C822C4CF0E94AB05F50143
:102790009281882319F0C92AC282BCCFC0949C219F
:1027A0009283B8CFA091D701B091D8018C91982F86
:1027B000977F973709F45ACF8B3709F457CFEB8DB2
:1027C000FC8D309721F4BC8FAB8F07C0FC01838157
:1027D00094810097D9F7B483A3831092D90146CF8F
:1027E0001F93CF93DF93EC01162F089779F466239C
:1027F00019F10E94E80E80E090E0892BB9F0612F7A
:10280000CE01DF91CF911F910C94000080E090E009
:10281000892BA9F781E0C11590E1D90708F080E084
:10282000111105C0DF91CF911F91089581E0279785
:102830002297C0F780E0F6CF80E090E0892BF9F690
:1028400081E0F0CF0F931F93CF93DF9320912F025E
:10285000222329F08F30910541F48FE090E0DF9141
:10286000CF911F910F910C94A20E162FEC018FE0C7
:1028700090E00E94BF0A082F80E190E00E94BF0A0A
:1028800008130DC0C730D10531F0C830D10521F48F
:10289000183031F0FFCFFFCF612FCE01E0CFFFCF57
:1028A0000E94E80E88E0DF91CF911F910F9108956B
:1028B0008331910588F48131910530F4813091059F
:1028C00019F08930910531F42FEF3FEF30939602E4
:1028D000209395020C9422148D319105D9F7677FCE
:1028E00060939802209182022F73362F307C232B25
:1028F00020938202E9CFCF93DF93EDE9F2E095E1F7
:10290000DF011D929A95E9F722E930E030939C02AD
:1029100020939B0222E530E030939A0220939902A3
:10292000C2E8D2E0888319828FEF9FEF9C8B8B8B5C
:102930001D8A83E08093810243E050E061E674E009
:1029400089890E945C048DE190E00E94870C682FC9
:102950006F738DE190E00E9458148E8B6AE087E0DF
:1029600090E00E9458146DE088E090E00E945814B6
:1029700080E0DF91CF910C94B00A89B78F7789BF3F
:102980008AE792E090930F0180930E0181E00E940C
:102990007B14109235021092340208950F931F9306
:1029A0000E94730300913002109131022091320293
:1029B00030913302601B710B820B930B613F7944A2
:1029C0008240910508F456C080912F0281110BC0FE
:1029D000809134029091350281309105B1F188F0F7
:1029E000029709F444C00E9473036093300270930D
:1029F0003102809332029093330281E01F910F9154
:102A0000089580E390E00E94690C80FF0EC041E0D1
:102A100050E062EF77E087E00E94E70381E090E01A
:102A20009093350280933402DECF8DE190E00E94D6
:102A3000690C82FFD8CF41E050E06BE772E087E09D
:102A40000E94E70382E090E0EBCF89B78F7789BFE0
:102A50008AE792E090930F0180930E018DE190E060
:102A60000E94690C82FDE7CF0E94BD14BCCF10927A
:102A70002E02FACF80E0C2CFBF92CF92DF92EF92C8
:102A8000FF920F931F93CF93DF938B01B42E6901B5
:102A900082FF23C083FF17C061E0C8010E94F013CA
:102AA0008823D9F16B2DC8010E9458148B1135C0B1
:102AB000F601DF91CF911F910F91FF90EF90DF9082
:102AC000CF90BF90099460E0C8010E94F013882362
:102AD00021F1C8010E94870CE9CF842F8770C1E0E3
:102AE000D0E07E0101C0EE0C8A95EAF7D42FD870B1
:102AF000CB010E94870CC82FB4FE1CC061E0C80146
:102B00000E94F013882349F0DD2389F0CE296C2F31
:102B1000C8010E9458148C1759F2DF91CF911F9170
:102B20000F91FF90EF90DF90CF90BF900895E094C9
:102B3000CE21EDCF60E0C8010E94F013882369F335
:102B4000CE21DD2319F0C111B3CFE7CFCC2309F497
:102B5000AFCFE3CFCF92DF92EF92FF920F931F930D
:102B6000CF93DF937C016B01C42F122FD42FD07E23
:102B70008091820287FF2CC0D03EC1F580918302F4
:102B80008823A1F190E00E94870CD82F80918302C6
:102B900090E001960E94870C982F8D2FE816F90679
:102BA00029F56C2F70E0762F662766277370612BEE
:102BB0006F5F7F4F2AEE36E0402F8C2FDF91CF9151
:102BC0001F910F91FF90EF90DF90CF900C943C15E8
:102BD00080FD32C0D03609F464C088F4D03209F4E4
:102BE00047C0D03409F45DC0DD2379F1DF91CF9186
:102BF0001F910F91FF90EF90DF90CF900895D03A02
:102C000009F483C090F42C2F2F7141E050E0D038AC
:102C100069F7B601C701DF91CF911F910F91FF9026
:102C2000EF90DF90CF900C94D90CD03C09F476C093
:102C3000D03E09F4B6CFDACF0E94890C8E159F05DD
:102C400049F2E114F10431F2D1CF8C2F8E7071F67C
:102C500080E090E0892B51F28C2F8170DF91CF9131
:102C60001F910F91FF90EF90DF90CF900C94000098
:102C7000CF71CF3109F0BACF412F4F7771F041308A
:102C800071F0111F1127111F212F30E00FE710E005
:102C9000B601C7010E945C0EA9CF41E0F2CF40E02F
:102CA000F0CF2C2F30E08C2F8F71813029F030F055
:102CB000803121F08131F9F440E001C041E025FB91
:102CC000222720F90DE110E030E0B601C7010E9493
:102CD0005C0E80E090E0892B09F488CF4C2FB60180
:102CE000C701DF91CF911F910F91FF90EF90DF907F
:102CF000CF900C940000C901880F991F8E71C4FBFE
:102D0000442740F9482B4250DACF2C2F2F7043E054
:102D100050E0C4FF7ECF42E050E07BCFCF71CE3198
:102D200039F0CF3109F062CF212F45E050E071CF6B
:102D3000212F44E050E06DCFCF93DF9300D000D03F
:102D40001F92CDB7DEB7181619069CF582EB92E0FC
:102D50000E946906992782309105D9F08330910548
:102D600081F1019759F464E084E691E00E94DC0768
:102D7000809167018823A1F18130D9F19091EF0111
:102D80008091F0019817A9F082EB92E00E94690609
:102D9000F5CF65E0CE0101960E94DC0780E090E06F
:102DA000892B39F04C815D816A817B8189810E9408
:102DB00000000F900F900F900F900F90DF91CF9128
:102DC000089563E0CE0101960E94DC0780E090E068
:102DD000892B79F36B8189819A810E940000E9CF68
:102DE00080916501909166010E94690C8093640155
:102DF000C5CF6091640180916501909166010E9448
:102E00002214F4CFCF92DF92EF92FF920F931F9391
:102E1000CF93DF93EC017B0141305105F9F4CD8074
:102E2000DE802496C114D104E9F462E070E081E010
:102E300090E00E94FD268C01009731F0FC01F182A8
:102E4000E08288818F5F8883C801DF91CF911F91D5
:102E50000F91FF90EF90DF90CF900895C884D984B0
:102E60002796E0CF88818F5F8883C82FD0E062E00B
:102E700070E0CE010E94FD268C0120E0BE01615071
:102E80007109822F90E08617970774F4880F991FB5
:102E9000F601E80FF91F40815181800F911FFC015D
:102EA000518340832F5FEDCFC150D048CC0FDD1F41
:102EB000C00FD11FF982E882C6010E94B527C4CF96
:102EC0001F920F920FB60F9211242F933F938F935F
:102ED0009F93AF93BF938091E0019091E101A09106
:102EE000E201B091E3013091DF0123E0230F2D37A0
:102EF00068F126E8230F0296A11DB11D2093DF0182
:102F00008093E0019093E101A093E201B093E3018B
:102F10008091E4019091E501A091E601B091E70173
:102F20000196A11DB11D8093E4019093E501A0934A
:102F3000E601B093E701BF91AF919F918F913F91CF
:102F40002F910F900FBE0F901F9018950196A11D05
:102F5000B11DD4CF1F920F920FB60F9211240BB652
:102F60000F922F933F934F935F936F937F938F9322
:102F70009F93AF93BF93EF93FF93E0910E01F09176
:102F80000F010995FF91EF91BF91AF919F918F91A3
:102F90007F916F915F914F913F912F910F900BBE59
:102FA0000F900FBE0F901F9018951F920F920FB6A3
:102FB0000F9211240BB60F922F933F934F935F9371
:102FC0006F937F938F939F93AF93BF93EF93FF93F1
:102FD000E0910C01F0910D010995FF91EF91BF91E6
:102FE000AF919F918F917F916F915F914F913F91A1
:102FF0002F910F900BBE0F900FBE0F901F90189542
:103000001F920F920FB60F9211240BB60F922F93AF
:103010003F934F935F936F937F938F939F93AF9360
:10302000BF93EF93FF93E0910A01F0910B01099593
:10303000FF91EF91BF91AF919F918F917F916F9190
:103040005F914F913F912F910F900BBE0F900FBE4C
:103050000F901F9018951F920F920FB60F92112488
:103060000BB60F922F933F934F935F936F937F9382
:103070008F939F93AF93BF93EF93FF93E0910801DA
:10308000F09109010995FF91EF91BF91AF919F9147
:103090008F917F916F915F914F913F912F910F9001
:1030A0000BBE0F900FBE0F901F9018951F920F929E
:1030B0000FB60F9211240BB60F922F933F934F939D
:1030C0005F936F937F938F939F93AF93BF93EF9390
:1030D000FF93E0910601F09107010995FF91EF91AF
:1030E000BF91AF919F918F917F916F915F914F9120
:1030F0003F912F910F900BBE0F900FBE0F901F901E
:1031000018951F920F920FB60F9211240BB60F92C3
:103110002F933F934F935F936F937F938F939F93DF
:10312000AF93BF93EF93FF93E0910401F0910501FA
:103130000995FF91EF91BF91AF919F918F917F91F1
:103140006F915F914F913F912F910F900BBE0F9018
:103150000FBE0F901F9018951F920F920FB60F92EF
:1031600011240BB60F922F933F934F935F936F935E
:103170007F938F939F93AF93BF93EF93FF93E091D0
:103180000201F09103010995FF91EF91BF91AF9179
:103190009F918F917F916F915F914F913F912F916F
:1031A0000F900BBE0F900FBE0F901F9018951F929F
:1031B0000F920FB60F9211240BB60F922F933F93DD
:1031C0004F935F936F937F938F939F93AF93BF932F
:1031D000EF93FF93E0910001F09101010995FF91B8
:1031E000EF91BF91AF919F918F917F916F915F917F
:1031F0004F913F912F910F900BBE0F900FBE0F90EC
:103200001F9018951F920F920FB60F9211240BB6B4
:103210000F922F933F934F935F936F937F938F936F
:103220009F93AF93BF93EF93FF9380917100887F3B
:10323000803609F44DC008F040C0883209F4A9C0B6
:1032400028F5803109F49DC0C8F4882309F4FBC037
:10325000883009F496C0FF91EF91BF91AF919F9193
:103260008F917F916F915F914F913F912F910F902F
:103270000BBE0F900FBE0F901F901895883109F468
:1032800088C0803241F780935A0214C0803409F418
:103290009DC040F48033B9F38833E9F680935A0235
:1032A00085ECB0C0803509F485C0883509F496C036
:1032B000883489F60E942806CECF883909F48CC05C
:1032C00038F5883729F050F4883611F0803719F630
:1032D00083E080935C021092CE0157C0883809F4D5
:1032E0007BC0803919F0803809F0B5CF8091CE01CC
:1032F000803208F071C0E091CE0181E08E0F8093A2
:10330000CE0180917300F0E0E255FE4F80833DC016
:10331000803B39F0E0F4803A09F479C0883A09F04A
:103320009ACF84E080935C021092AD011092AC01C0
:10333000E091ED01F091EE0109958091AC018111D0
:103340000FC081E08093AC0110928C0109C0803CD9
:1033500009F4A6CF883C09F4A3CF883B09F07BCFC2
:10336000E091AD0181E08E0F8093AD01F0E0E45774
:10337000FE4F8081809373009091AD018091AC01EC
:1033800029C0809137028093730085EC809374008C
:1033900062CF9091590280915802981758F5E091A8
:1033A000590281E08E0F80935902F0E0E85CFD4FF6
:1033B0008081E9CFE091590281E08E0F809359021C
:1033C00080917300F0E0E85CFD4F8083909159029A
:1033D000809158029817C8F285E8D8CFE091590239
:1033E00081E08E0F8093590280917300F0E0E85CD9
:1033F000FD4F808380915B0281115CCF81E08093DF
:10340000360284EA8093740010925C0224CF85EC2B
:103410008093740010925C028091CE01803230F46F
:10342000E091CE01F0E0E255FE4F10826091CE01B6
:1034300070E0E091EB01F091EC018EEA91E00995EA
:103440001092CE0108CF10925A0234CF1F920F92E1
:103450000FB60F9211248F939F937894809112024C
:1034600090911102891708F0CFC09091620091608D
:103470009093620090911002891708F0C9C0AD9A2C
:1034800090910F02891708F0C5C0969A90910E028C
:10349000891708F0C1C0979A90910D02891708F01A
:1034A000BDC09091650091609093650090910C0271
:1034B000891708F0B7C090916500926090936500FD
:1034C00090910B02891708F0B1C0A89A90910A0256
:1034D000891708F0ADC01B9A90910902891708F06E
:1034E000A9C090916200946090936200909108024C
:1034F000891708F0A3C0C79A90910702891708F0AE
:103500009FC0C59A90910602891708F09BC0C49A83
:1035100090910502891708F097C0C69A909104020D
:10352000891708F093C0DB9A90910302891708F07D
:103530008FC0DC9A90910202891708F08BC0DD9A47
:1035400090910102891708F087C0DE9A90910002DD
:10355000891708F083C0DF9A9091FF01891708F05E
:103560007FC01C9A9091FE01891708F07BC01D9ABC
:103570009091FD01891708F077C0909162009260E8
:10358000909362009091FC01891708F071C0C09A75
:103590009091FB01891708F06DC0909162009068CE
:1035A000909362009091FA01891708F067C090919A
:1035B00062009064909362009091F901891708F07D
:1035C00061C0909162009062909362009091F801C6
:1035D000891708F05BC0909162009061909362003F
:1035E0009091F701891708F055C09091620098609A
:1035F000909362008F5F809312029F918F910F9042
:103600000FBE0F901F901895909162009E7F30CF53
:10361000AD9836CF96983ACF97983ECF9091650067
:103620009E7F42CF909165009D7F48CFA8984ECF56
:103630001B9852CF909162009B7F56CFC7985CCF6A
:10364000C59860CFC49864CFC69868CFDB986CCF1C
:10365000DC9870CFDD9874CFDE9878CFDF987CCF80
:103660001C9880CF1D9884CF909162009D7F88CF59
:10367000C0988ECF909162009F7792CF9091620018
:103680009F7B98CF909162009F7D9ECF909162002A
:103690009F7EA4CF90916200977FAACFCF93DF93B4
:1036A000EC0161E088810E94420360E08881DF9143
:1036B000CF910C941403EF92FF920F931F93CF932B
:1036C000DF931092B5021092B40288EE93E0A0E06E
:1036D000B0E08093B6029093B702A093B802B09383
:1036E000B90286E591E09093B3028093B202109202
:1036F000C0021092C1021092C2021092C302109234
:10370000C4021092C5021092C6021092C702109213
:10371000C8021092C9021092CA0287E090E090930A
:10372000BF028093BE0283E190E00E94BF0AC82FCF
:1037300082E190E00E94BF0AD82F81E190E00E94D0
:10374000BF0A182F81E090E00E94BF0A21E030E01C
:103750003093AF062093AE063093B1062093B006A7
:103760001092B2061092B6061092B8061092B706E2
:103770008093A906212F205C330BC9012D2F382FF0
:10378000C9019093AB068093AA06CF77C093AC068D
:103790001092AD068DE18093B30662E070E08DE19A
:1037A00090E00E94FD269093B5068093B4060097A2
:1037B000C9F0EC0110E0EE24E394F12C8AE090E0F3
:1037C0000E941927FC01F282E18213821482168280
:1037D00015821782118610861083899399931F5F33
:1037E0001D3161F767E089EC96E00E94C00563E255
:1037F00083EC96E00E94C00580E380935107C2E00D
:10380000C093530710925407DFEFD09352071092E2
:10381000550781E597E00E944E1B81E380934C079A
:10382000C0934E0781E080934F07D0934D071092CD
:1038300050078CE497E00E944E1B82E38093470779
:10384000C0934907C0934A07D093480710924B078B
:1038500087E497E00E944E1B83E380934207C09366
:10386000440713E010934507D0934307109246078F
:1038700082E497E00E944E1B84E380933D07C0934F
:103880003F0784E0F82EF0924007D0933E07109255
:1038900041078DE397E00E944E1B08E00093380734
:1038A000C0933A0795E0E92EE0923B07D0933907A1
:1038B00010923C0788E397E00E944E1B8EE28093B3
:1038C0003307C093350786E080933607D0933407DB
:1038D0001092370783E397E00E944E1BE0922E0779
:1038E000C093300787E080933107D0932F07109261
:1038F00032078EE297E00E944E1BF0922907C09398
:103900002B0700932C07D0932A0710922D0789E2EA
:1039100097E00E944E1B85E280932407C093260700
:1039200089E080932707D09325071092280784E227
:1039300097E00E944E1B86E280931F07C0932107E9
:103940008AE080932207D0932007109223078FE10B
:1039500097E00E944E1B87E280931A07C0931C07D2
:103960008BE080931D07D0931B0710921E078AE1FE
:1039700097E00E944E1B88E280931507C0931707BB
:103980000CE000931807D09316071092190785E1F1
:1039900097E00E944E1B89E280931007C0931207A4
:1039A0002DE0F22EF0921307D09311071092140716
:1039B00080E197E00E944E1B8EE080930B07C0933E
:1039C0000D0780930E07D0930C0710920F078BE022
:1039D00097E00E944E1B00930607C09308070FE074
:1039E00000930907D093070710920A0786E097E033
:1039F0000E944E1BF0920107C093030780E1809361
:103A00000407D09302071092050781E097E00E9417
:103A10004E1B0093FC06C093FE0681E18093FF06D7
:103A2000D093FD06109200078CEF96E00E944E1B8B
:103A30008FE28093F706C093F90682E18093FA063D
:103A4000D093F8061092FB0687EF96E00E944E1B7B
:103A50001093F206C093F40683E18093F506D093A9
:103A6000F3061092F60682EF96E00E944E1B8CE160
:103A70008093ED06C093EF0684E18093F006D09327
:103A8000EE061092F1068DEE96E00E944E1B8BE141
:103A90008093E806C093EA0685E18093EB06D09315
:103AA000E9061092EC0688EE96E00E944E1B1AE1A1
:103AB0001093E306C093E50686E18093E606D09373
:103AC000E4061092E70683EE96E00E944E1B09E1A1
:103AD0000093DE06C093E00687E18093E106D09371
:103AE000DF061092E2068EED96E00E944E1B88E102
:103AF0008093D906C093DB068093DC06D093DA0668
:103B00001092DD0689ED96E00E944E1B81E28093C3
:103B1000D406C093D6060093D706D093D50610924C
:103B2000D80684ED96E00E944E1B8DE28093CF066E
:103B3000C093D1061093D206D093D0061092D3062C
:103B40008FEC96E0DF91CF911F910F91FF90EF9056
:103B50000C944E1BCF93DF93CDB7DEB762970FB6B1
:103B6000F894DEBF0FBECDBF789483B78C6483BF5B
:103B700087B7816087BF82E08EBD8EB581608EBDC4
:103B80008FB581608FBD85B5846085BD85B5806446
:103B900085BD80918A00836080938A0080918B002C
:103BA000816080938B0087E886B91AB80FB6F894C5
:103BB000A89581B5886181BD11BC0FBE61E08DE023
:103BC0000E9442032FB7F89490E080E0FC01E95096
:103BD000FE4F108201968B319105C1F780916200F2
:103BE0008E7F80936200AD9896989798809165003B
:103BF0008E7F80936500809165008D7F8093650046
:103C0000A8981B98809162008B7F80936200C79870
:103C1000C598C498C698DB98DC98DD98DE98DF9844
:103C20001C981D98809162008D7F80936200C098DF
:103C3000809162008F7780936200809162008F7B19
:103C400080936200809162008F7D809362008091FA
:103C500062008F7E8093620080916200877F8093F4
:103C600062002FBF9FB7F8948091610081608093BC
:103C70006100A59A8E9A8F9A8091640081608093EA
:103C8000640080916400826080936400A09A139A1B
:103C900080916100846080936100BF9ABD9ABC9A54
:103CA000BE9AD39AD49AD59AD69AD79A149A159A34
:103CB00080916100826080936100B89A8091610078
:103CC00080688093610080916100806480936100CE
:103CD00080916100806280936100809161008061C9
:103CE00080936100809161008860809361009FBF34
:103CF0001FBC89E08EBD8CE093E09BBD8ABD87B779
:103D0000806187BF1092120261E08BE00E94420343
:103D100060E089EC96E00E94B502E091C506F09162
:103D2000C60690818091C406809589238083E091A6
:103D3000C706F091C80680819091C406892B8083C4
:103D400029EDC22E21E0D22E3CE1E32E31E0F32E0C
:103D500042E5842E41E0942E77247394F601049179
:103D600010E0C8010E94BF0A682EC80101960E9497
:103D7000BF0AB82EC80102960E94BF0AA82EC80129
:103D800003960E94BF0A9091B306691610F5D701F9
:103D90000D911C91F801A1828483862DB11042C13E
:103DA0000E94F7015C0141E050E0B8010E94021757
:103DB000D50116969C938E931597862D0E94F70138
:103DC0005C0150E040E0B8010E940217F5019187C4
:103DD0008087A895B2E0CB0ED11CE2E0EE0EF11C7C
:103DE0008E149F0409F0BACF61E070E084E090E0A7
:103DF0000E94FD269093B8068093B706892B91F018
:103E000010E000E0E090B706F090B806E00EF11E7A
:103E1000802F0E94580CD7018C930F5F1F4F0430E6
:103E2000110581F780E00E94440C082F10E081E02A
:103E30000E94440C282F30E0322F222722273E7F79
:103E4000000F111F202B312B3093BA062093B90697
:103E500080FF05C021603093BA062093B9068CE933
:103E600096E19093F4018093F30180EB96E09093B8
:103E7000F2018093F1011092F0011092EF01109283
:103E80005E021092800210925C0281E080935B02DD
:103E90001092360261E083E10E94140361E082E146
:103EA0000E941403809171008E7F80937100809135
:103EB00071008D7F8093710088E48093700085E4A9
:103EC000809374008FE792E09093EE018093ED0170
:103ED0008BE892E09093EC018093EB0182E0809379
:103EE00072008CE08093700010E001E000935D02AE
:103EF00010937F0210925E02109280020E949A013B
:103F00009091EA01811103C09F5F9093EA011F5FC6
:103F10001F3761F78091EA01882311F161E070E0B9
:103F200090E00E94FD267C019093E9018093E801D6
:103F300000E010E0DD24D394D0925D0210937F0264
:103F400010925E02109280020E949A01811105C0B7
:103F5000F701E00FF11D10830F5F1F5F1F3761F73F
:103F600060E08AE00E944203EDEAF2E08491E8E733
:103F7000F2E00491E3E4F2E0149111116EC0FF2429
:103F8000F394F09225028FE190E00E9419278C01B2
:103F900086E0F801818386E090E00E9419276C0199
:103FA00066E10E94C005D8015E96DC92CE925D97D4
:103FB000109324020093230281E893E00E94BF0A39
:103FC000F8018083843008F0CDC01093F60100938F
:103FD000F50160E0F80181810E94420360E0D801B0
:103FE0005D968D919C910E94B502F8011682158212
:103FF00013861286108A1786158A148A128E118EDD
:10400000148E138E81819CEF980F943020F0825192
:10401000843008F08FEF42E050E06DEC72E10E94D6
:104020005C042AC00E94F701DC0113967C92B0E880
:10403000BB1609F4C2CEF1E8BF12CBCE862D0E948A
:10404000F7015C0141E050E0B8010E940217D50180
:1040500016969C938E931597BCCE81110E94DF0219
:10406000E12FF0E0EE0FFF1FE75DFD4FA591B4914A
:10407000EC91E02309F483CF81E090E00E94BF0A35
:1040800021E030E030931802209317028093190248
:1040900081E190E00E94BF0A21E130E030931B02F1
:1040A00020931A0280931C0282E190E00E94BF0AD2
:1040B00022E130E030931E0220931D0280931F0204
:1040C0008DE190E00E94690C81FD4EC08DE190E091
:1040D00090932102809320021092220287E0809325
:1040E00093028093940260E00E94420361E087E0C3
:1040F0000E94140380E00E947B1488E19BE00FB6CD
:10410000F894A89581BD0FBE91BD72E0472E512C49
:104110008091260281110DC00E94730360933002CA
:1041200070933102809332029093330281E0809346
:10413000260280913402909135028130910509F474
:10414000AEC260F1029709F4D8C5A8958091250206
:104150008823F1F280912302909124020E94200F83
:10416000A895D6CFF08231CF8DE190E00E94690C06
:1041700085FD0DC08091160190911701A091180145
:104180008093200290932102A0932202A7CF8091D6
:10419000190190911A01A0911B01F2CF8091840224
:1041A0008823B1F00E94DB03009185021091860202
:1041B0002091870230918802601B710B820B930B58
:1041C000653171058105910518F080E00E94B00A03
:1041D00080919F02882309F445C0F89488E0EAEAB8
:1041E000F2E0ABEBB6E001900D928A95E1F7109208
:1041F0009F0278943091AA02ECEAF2E090E080E02D
:10420000391721F0219182279F5FFACF81112AC0AF
:1042100080E090E0892B21F08BEB96E00E9400007B
:104220008091BD06811125C09091BE06911121C0DB
:1042300080E090E0892B19F080E00E9400008091DE
:104240008402882391F081E00E94E4080E944B09D7
:104250000E947303609330027093310280933202A4
:10426000909333020E94CE1470CF81E00E94B00A76
:10427000EDCF90918402992309F486C08057803154
:1042800008F07FC081E00E94E4081091BB06809195
:104290008B0218130AC0412F50E06DE872E08DEBDD
:1042A00096E00E943E28892B61F010928A0288E0F5
:1042B000EBEBF6E0ABE8B2E001900D928A95E1F706
:1042C000C5CF80918A028F5F80938A02133009F0F4
:1042D00040C09091BD06892F8770F090BE06853052
:1042E00029F4F09289020E94CB03B0CF0DE110E0D7
:1042F000843091F0282F30E08430F0F4009189026E
:104300000023D1F00150110B000F111F000F111FDE
:10431000020F131F0F5F1F4F93FF10C061E0C80112
:104320000E94F013882309F491CF6F2DC8010E94D9
:104330005814F8128BCFD7CF8901ECCF60E0C801B9
:104340000E94F013882309F481CFC8010E94870CD2
:10435000F0CF143009F07ACF8091BD06682F70E05D
:10436000762F6627662773709091BE06692B6F5F64
:104370007F4F29ED33E04091BF068C700E943C15C1
:1043800065CF80E00E94B00AE091BD06EF3F61F486
:104390008091BE0681115ACF80E090E0892B09F40C
:1043A00055CF0E94000052CFE7FD0DC00091C0061E
:1043B0002091BF064091BE0670E060E08E2F90E035
:1043C0000E94AA1543CFE03C08F058C13091820208
:1043D00037FF3CCF2091BE06822F90E08C010095E4
:1043E0001095000F111F000F111F007C1170EF734B
:1043F0000E2B95958795F82FF370BF2E8091BB06F5
:10440000853041F52C782C3029F50E94890C8017D5
:10441000910721F00F3F114009F018CF8091BE069F
:1044200090E0982F8827882793700091BF06080F87
:10443000192F111D0F5F1F4FF090C00661E0C801DA
:104440000E94F0136F2D882309F400CFC8010E9449
:104450005814FCCE680141E0C41AD108CC0CDD1C14
:10446000CC0CDD1CCB2876015FEFE51AF50A8091B4
:1044700097028823F9F036FF41C0C70160E071E080
:104480000E94CC26682F81E090E00E945814C7015A
:10449000F7FE02C081509F4F692F89E090E00E9493
:1044A000581480E090E0892B19F0C7010E940000A9
:1044B000109297028091820280FD39C08091BB06E4
:1044C000843009F04FC08091BE068978813009F0B0
:1044D000BDCE6091BF0680E090E0892B19F0C70146
:1044E0000E94000080E090E0892B09F4AFCE40915B
:1044F000BF066B2DC7010E940000A8CEB8016F73E4
:10450000772781E090E00E945814B801E6E07595A5
:104510006795EA95E1F789E090E00E94581480E001
:1045200090E0892B29F2C8010E940000C1CF86FFCC
:104530000DC00E94890C8E159F0509F4BFCF8DEF29
:10454000E81687E0F8060CF0B9CF80CE0E94890CFF
:104550008017910709F4B2CF0F3F91E0190709F4D2
:10456000ADCF74CE833069F54091BE06A42FA17003
:10457000CA2E43FBDD24D0F880E090E0892B31F097
:1045800047702D2DB801C7010E9400008091820262
:1045900086FF0BC080E090E0892B09F457CE4D2DAB
:1045A0006C2DC7010E94000051CE80E090E0892B65
:1045B00009F44CCE2D2D4C2D6B2DC8010E9400000E
:1045C00045CE863009F042CE8091BE06982F99786C
:1045D000913021F08F78803809F038CE80918202B6
:1045E00086FF28C00E94890C8E159F05E9F48091F2
:1045F000BF0690E0382F2227222733700091C00693
:10460000020F132F111D0F5F1F4FF090C1069595DC
:10461000879595958795837099278230910599F0B4
:10462000039709F40BCF12CEBDEFEB16B7E0FB06F4
:10463000F4F60CCE0E94890C80179107C1F20F3F4F
:104640001140A9F203CEF4FE01CE61E0C8010E9440
:10465000F013882309F4FACDC8010E94870C9F2D1E
:10466000977061E070E001C0660F9A95EAF7F3FE7B
:1046700002C0682BEBCE60956823E8CEE83E08F0D8
:10468000E5CDE05CFF0B8091BE060091C106209154
:10469000C0064091BF0661E070E09E2F91CE0AE116
:1046A00013E09AE0E92EF12CDD24D39423E6C22E08
:1046B00033E0B32E42E0A42E5BE1352ED8011B96E9
:1046C0008D919C91019709F03FC1F801E654F109E1
:1046D00080819181329660807180680E791EF80128
:1046E000118A128A168212861586168617861782F6
:1046F000108A138A118615821482930135952795A5
:104700004801FCE58F1A9108F40161E070E08689A8
:104710009789A72FA69541E050E04C0F5D1F4A0FE7
:10472000511DDA0141E0281739070CF040E04C93A5
:10473000713248F4408D518D840F951F8E57910929
:10474000C19708F460E07E5F3496743201F7FE0191
:104750003196CE9C9001CF9C300D11244CE956E04F
:10476000421B530B90E080E0708171118FC071810A
:104770007111A6C0D401A80FB91F1D961C920196F5
:1047800032968930910581F7F80180819181A2816B
:10479000B38185519540A109B10983359B40A1059D
:1047A000B10508F070C1662309F46DC181E046E9E6
:1047B000641671040CF080E0D80151968C93F801D6
:1047C000EC54F109908131978081B9E08B9F802D65
:1047D0001124939D800D112432979081890F319679
:1047E0004081942F990F940F890FF8018683EB5421
:1047F000F10946E9641671040CF430C181E090813E
:10480000913009F080E0D8011D968C938989880F3A
:104810009F85890F880F9D85890F880F9B85890F3C
:1048200091E009F090E0F801968791E0813009F07D
:1048300090E0D8011F969C9381118150F8018783E5
:104840008289882309F456C08C85880F9E85890F3C
:10485000880F9889890F880F9A89890FEEEFE80FE2
:10486000EE3008F047C0F0E0E85CFB4D0C94E02629
:104870006D246D24752475241A251A257A247A242A
:104880001F251F2523252325282528257130C1F420
:104890002180A1E02A1206C0DA01A80FB91F1D96D7
:1048A0002C926DCF21100CC0D401A80FB91F1D96FA
:1048B000AC92853008F463CFD80152967C935FCFD9
:1048C000853048F0DA01A80FB91F1D96BC92D801B7
:1048D0005296DC9254CF60E057CFD8011996AC9233
:1048E0001997817053968C9305C041E050E0F80110
:1048F0005583448389E090E0FAE0EF16F10411F06B
:104900008E199F09D8011C965C924E921B97C89EE7
:10491000B001C99E700D1124FB01EB5DFC4F80813D
:104920009181029789F465537D4F49E050E089EA0F
:1049300096E0821B930B0E943E28892B29F423E0EA
:1049400030E0F80134872387F1E0EF1AF1080D59C0
:104950001F4FE114F10409F0B1CEE5E2F3E090E07D
:1049600080E0208131812330310509F094C023E6B5
:10497000289F8001299F100D1124F801EB5DFC4F49
:1049800084E090E09183808305531D4F011511054C
:1049900009F468CC780125E5E20EF11CD701EC9111
:1049A000F0E0809119029F01281B3109C9012130D3
:1049B000310509F4DDC00CF076C0892B09F046CC36
:1049C00080911602D801A45ABF4F9C91992309F4F3
:1049D00091C080618093160290911602D801A85A66
:1049E000BF4F8C91823009F4A0C008F085C081309F
:1049F00009F48FC02091160241E050E070E060E0C1
:104A0000CF010E94D90CF801ED5AFF4F80819181AE
:104A10008130910509F09FC03396809119020DE114
:104A200010E021E030E0408170E060E090E00E9422
:104A30005C0E0CCCD8011996BC92199752CFF80194
:104A40005582448257CFD8011996DC92199749CFE5
:104A500044E0F80141878170838B4CCF80818111C4
:104A600012C08F85880F9D85890F880F9B85890FC0
:104A7000D8011A968C9381E09989913009F080E0F1
:104A8000F801808B37CFE5E0F0E0D8011C96FC936D
:104A9000EE931B9759CF0196ED59FF4F8A30910540
:104AA00009F05FCFDFCB2230310509F4ADC02330F0
:104AB000310509F0CBCB80E390E00E94690C83FFC5
:104AC000C5CB80911302F801E85AFF4F90819230D4
:104AD00009F4FDC008F0E2C0913009F4ECC0D70140
:104AE0008C912091130244E050E070E060E083502C
:104AF000990B59C08F7E6ECF833009F1843009F055
:104B000079CFD801AE59BF4F8C91882311F19860AD
:104B100007C0D801AE59BF4F8C91882321F0916016
:104B20009093160267CF9E7FFBCFD801AE59BF4F3F
:104B30008C91882311F09260F3CF9D7FF1CFD80143
:104B4000AE59BF4F8C91882311F09460E9CF9B7FC1
:104B5000E7CF977FE5CF029709F078CBF801EA5AC3
:104B6000FF4F809119020DE110E030E020E05BCFB3
:104B700080E390E00E94690C81FF68CB8091150270
:104B8000F801E85AFF4F9081923041F178F491306A
:104B9000C9F0D7018C912091150242E050E070E0FD
:104BA00060E08150990B0E94D90C50CB933001F1F9
:104BB000943079F7F801EE59FF4F9081992311F164
:104BC000886007C0F801EE59FF4F9081992321F0CA
:104BD000816080931502DDCF8E7FFBCFF801EE5907
:104BE000FF4F9081992311F08260F3CF8D7FF1CF39
:104BF000F801EE59FF4F9081992311F08460E9CFBD
:104C00008B7FE7CF877FE5CF80E390E00E94690C40
:104C100082FF1CCB80911402F801E85AFF4F90816B
:104C2000923031F168F49130B9F0F7018081209130
:104C3000140243E050E070E060E08250990BB3CF83
:104C4000933001F1943089F7F801EE59FF4F9081CC
:104C5000992311F1886007C0F801EE59FF4F908148
:104C6000992321F0816080931402DFCF8E7FFBCFE8
:104C7000F801EE59FF4F9081992311F08260F3CF34
:104C80008D7FF1CFF801EE59FF4F9081992311F0FC
:104C90008460E9CF8B7FE7CF877FE5CF933009F141
:104CA000943009F01CCFF801EE59FF4F9081992301
:104CB00011F1886007C0F801EE59FF4F90819923E8
:104CC00021F08160809313020ACF8E7FFBCFF80121
:104CD000EE59FF4F9081992311F08260F3CF8D7FC1
:104CE000F1CFF801EE59FF4F9081992311F08460C4
:104CF000E9CF8B7FE7CF877FE5CF0E940B0A8091BA
:104D00002E028823E1F083EC96E00E94AB0581112E
:104D1000A9CA8091AE069091AF06019769F490E020
:104D200080E00E944A0A0E940B0A83EC96E00E94EF
:104D3000AB058823D1F396CA81E090E0F2CF89ECED
:104D400096E00E94AB05811105C081E090E00E94D1
:104D50004A0A88CA90E080E0FACF60E083EC96E0EF
:104D60000E94B50260E089EC96E00C94B502E199EE
:104D7000FECF9FBB8EBBE09A99278DB30895262F57
:104D8000E199FECF9FBB8EBB2DBB0FB6F894E29A84
:104D9000E19A0FBE0196089597FB072E16F4009432
:104DA00007D077FD09D00E94E92607FC05D03EF424
:104DB000909581959F4F0895709561957F4F0895C7
:104DC000EE0FFF1F0024001C0BBE0790F691E02D94
:104DD0000994AA1BBB1B51E107C0AA1FBB1FA61742
:104DE000B70710F0A61BB70B881F991F5A95A9F794
:104DF00080959095BC01CD0108950F931F93CF939B
:104E0000DF93869F8001879F100D969F100D1124C0
:104E1000C8010E941927EC01009729F0A80170E051
:104E200060E00E944B28CE01DF91CF911F910F913E
:104E300008950F931F93CF93DF938230910510F461
:104E400082E090E0E0915807F091590730E020E0CF
:104E5000B0E0A0E0309799F42115310509F44AC07B
:104E6000281B390B24303105D8F58A819B816115C7
:104E7000710589F1FB0193838283FE0111C040819A
:104E800051810281138148175907E0F048175907EB
:104E900099F4109761F012960C93129713961C9345
:104EA0003296CF01DF91CF911F910F91089500931A
:104EB000580710935907F4CF2115310551F04217C7
:104EC000530738F0A901DB019A01BD01DF01F801A8
:104ED000C1CFEF01F9CF9093590780935807CDCFF9
:104EE000FE01E20FF31F8193919322503109398320
:104EF0002883D7CF2091560730915707232B41F4B1
:104F000020911201309113013093570720935607D7
:104F100020911001309111012115310541F42DB777
:104F20003EB74091140150911501241B350BE091BF
:104F30005607F0915707E217F307A0F42E1B3F0B1B
:104F40002817390778F0AC014E5F5F4F24173507FB
:104F500048F04E0F5F1F50935707409356078193B9
:104F600091939FCFF0E0E0E09CCFCF93DF93009749
:104F7000E9F0FC01329713821282A0915807B09198
:104F80005907ED0130E020E01097A1F42081318134
:104F9000820F931F20915607309157072817390722
:104FA00009F061C0F0935707E0935607DF91CF9166
:104FB0000895EA01CE17DF07E8F54A815B819E017B
:104FC00041155105B1F7E901FB83EA8349915991F4
:104FD000C40FD51FEC17FD0761F480819181029603
:104FE000840F951FE90199838883828193819B8334
:104FF0008A83F0E0E0E012968D919C9113970097E0
:10500000B9F52D913C911197CD010296820F931F16
:1050100020915607309157072817390739F63097EE
:1050200051F51092590710925807B0935707A09363
:105030005607BCCFD383C28340815181840F951F13
:10504000C817D90761F44E5F5F4F88819981480F77
:10505000591F518340838A819B81938382832115C9
:10506000310509F0B0CFF0935907E09358079ECF70
:10507000FD01DC01C0CF13821282D7CFFB01DC011E
:1050800004C08D910190801921F441505040C8F71F
:10509000881B990B0895DC0101C06D93415050406D
:1050A000E0F7089511E0CDE6D1E004C0FE010E94D2
:0E50B000E0262196CE36D107C9F7F894FFCF3F
:1050BE007A02000000000000000000000000000066
:1050CE0000005A0780001D00021D002251074C07E8
:1050DE00470742073D07380733072E0729072407DE
:1050EE001F071A07150710070B0706070107FC060F
:1050FE00F706F206ED06E806E306DE06D906D40646
:10510E00CF0600000000B8068306E70659067C06A7
:04511E0069065A06BE
:00000001FF
