:100000000C945D010C94B4120C9489120C945E1241
:100010000C9433120C9408120C94DD110C94B21150
:100020000C9487110C9487010C9487010C94870120
:100030000C9403140C9487010C9487010C94870191
:100040000C943D110C9487010C9407110C94DD1055
:100050000C9487010C9487010C9487010C94870100
:100060000C9487010C9487010C9487010C948701F0
:100070000C9487010C9487010C9487010C948701E0
:100080000C9487010C94DF120C9487013E0300004E
:1000900000000000000000000000000101C080001E
:1000A000000000000000000000060000000000004A
:1000B0000000000000000000000000000000000040
:1000C000000000000000FF1F000000000000000012
:1000D0000000000000000000000000000000000020
:1000E0000000000000000000000000000000000010
:1000F0000000000000000000000000000100FF0000
:100100000200FF000300FF000400FF000500FF00E5
:100110000600FF000700FF000800FF000900FF00C5
:100120000A00FF000B00FF000C00FF000D00FF00A5
:100130000E00FF000F00FF001000FF001100FF0085
:100140001200FF001300FF001400FF001500FF0065
:100150001600FF001700FF001800FF0000008000DD
:10016000000080000000800000008000000080008F
:100170001980FF001981FF00FF000000FF00000050
:10018000FF000000FF000000FF000000FF00000073
:10019000FF000000FF00000000003A0037003400BC
:1001A000310022006100640000003B00380035008F
:1001B0003200230062006500000039003600330081
:1001C0003000210020006300050505050505050533
:1001D00002020202020202020707040404040404E9
:1001E00004040707030303030303030307010101D7
:1001F00001010101010606060606060606010204C3
:1002000008102040800102040810204080081001DE
:10021000020408102040800102010204081020405E
:10022000800480402010080402010102040810200C
:1002300040800000000A0B0C0000000000000104D8
:1002400005060000000000000000000000000000A3
:10025000000000000000000000000000000000009E
:10026000000000000000007000740078007C008036
:1002700000840088008C009000940098009C00A0EE
:1002800000A400A800AC00B000B400B800BC00C0DE
:1002900000C400C800CC00D000D400D800DC00E0CE
:1002A00000E400E800EC00F000F400F800FC0000BE
:1002B00001040108010C01006C1511241FBECFEFD1
:1002C000D0E1DEBFCDBF11E0A0E0B1E0EAE1FBE4A8
:1002D00000E00BBF02C007900D92AE37B107D9F70F
:1002E00027E0AEE7B1E001C01D92A43FB207E1F7FD
:1002F00011E0CDE5D1E004C02197FE010E94192450
:10030000CC35D107C9F70E943D180C948B250C946D
:1003100000009C016115710529F06130710571F0D3
:1003200080E00895809145078217130681F090912F
:10033000480781E09217130699F7089581E04091EC
:100340004607509147074217530751F7F6CF81E010
:10035000F4CFE82FF0E0E858FD4F60830895209136
:100360004E0730914F072115310549F090E0880F75
:10037000991F820F931FFC0180819181089590E065
:1003800080E008950895883008F5E82FF0E0EE0F3A
:10039000FF1FE050FF4F718360838150873068F406
:1003A000E82FF0E0EA52FE4F0C941924E701F40123
:1003B00002021002170222022E0280916A008C7F34
:1003C000482B40936A0089B7816089BF0895809166
:1003D0006A00837F440F551F440F551F482B4093DD
:1003E0006A0089B78260F1CF80916A008F7C74E0E7
:1003F000440F551F7A95E1F7482B40936A0089B75F
:100400008460E3CF80916A008F7366E0440F551FCC
:100410006A95E1F7482B40936A0089B78860D5CF89
:100420008AB78C7F482B4ABF89B78061CECF8AB705
:10043000837F440F551F440F551F482B4ABF89B770
:100440008062C3CF8AB78F7C24E0440F551F2A9562
:10045000E1F7482B4ABF89B78064B7CF8AB78F735B
:1004600096E0440F551F9A95E1F7482B4ABF89B78C
:100470008068ABCF20915407213099F49C01245817
:10048000334028323105C8F0813823E09207A9F0C3
:100490009C012C5F334081E02530310578F080E00D
:1004A0000895223021F49C012C5A3340EACF2330A6
:1004B00059F79C01245D3340E4CF81E00895FC01AD
:1004C000538D448D252F30E0842F90E0821B930BB9
:1004D000541710F0CF96089501970895FC01918D5F
:1004E000828D981761F0A28DAE0FBF2FB11D5D9662
:1004F0008C91928D9F5F9F73928F90E008958FEF04
:100500009FEF0895FC01918D828D981731F0828DB7
:10051000E80FF11D858D90E008958FEF9FEF08950E
:10052000FC01918D228D892F90E0805C9F4F821B72
:1005300091098F7399270895FC01A48DA80FB92FF5
:10054000B11DA35ABF4F2C91848D90E001968F73FB
:100550009927848FA689B7892C93A089B1898C911A
:1005600080648C93938D848D981306C00288F389E0
:10057000E02D80818F7D80830895EF92FF920F930D
:100580001F93CF93DF93EC0181E0888F9B8D8C8D3F
:10059000981316C0E889F989808185FF11C0EE891A
:1005A000FF896083E889F98980818064808381E0A4
:1005B00090E0DF91CF911F910F91FF90EF90089500
:1005C000F62E0B8D10E00F5F1F4F0F731127E02EDB
:1005D0008C8D8E110CC00FB607FCFACFE889F98913
:1005E000808185FFF5CFCE010E949C02F1CFEB8D7B
:1005F000EC0FFD2FF11DE35AFF4FF0820B8FEA89BC
:10060000FB8980818062D2CFCF93DF93EC01888D0C
:100610008823B9F0AA89BB89E889F9898C9185FD7D
:1006200003C0808186FD0DC00FB607FCF7CF8C910B
:1006300085FFF2CF808185FFEDCFCE010E949C0225
:10064000E9CFDF91CF91089588E992E00E9490026E
:1006500021E0892B09F420E0822F089580E090E0CA
:10066000892B29F00E94240381110E94000080E060
:1006700090E0892B49F080E090E0892B29F00E94DE
:10068000000081110C9400000895E0911802F0918F
:100690001902309729F01092220210922102099437
:1006A0000895CF93DF93AC01E0911602F091170209
:1006B0003097F1F090912402809123029817C0F0B6
:1006C00090E0292F30E02617370754F4D901AA57B4
:1006D000BE4F240F351FE90128812C939F5FF1CF76
:1006E0001092240260932302CB01DF91CF910994F1
:1006F000DF91CF910895AF92BF92CF92DF92EF92A8
:10070000FF920F931F93CF93DF936C017B018B01BB
:10071000040F151FEB015E01AE18BF08C017D1070B
:1007200059F06991D601ED91FC910190F081E02D95
:10073000C6010995892B79F7C501DF91CF911F91EA
:100740000F91FF90EF90DF90CF90BF90AF90089502
:1007500081508C3088F5E82FF0E0EF54FC4F0C947A
:100760001924D903D903DC03BD03C103C403C703A0
:10077000DC03DC03CB03D103D5038FB58F778FBDAB
:1007800008958FB58F7DFBCF8FB5877FF8CF85B567
:100790008F7D85BD089580918B008F7780938B002E
:1007A000089580918B008F7DF9CF80918B00877F9A
:1007B000F5CF83B78F7D83BF0895CF93DF93282F25
:1007C00030E0F901EE5CFD4F8491F901E350FE4FFA
:1007D000D491F901E853FE4FC491CC23A1F08111CB
:1007E0000E94A803EC2FF0E0EE0FFF1FE854FE4F2D
:1007F000A591B491EC91ED2381E090E009F480E0C3
:10080000DF91CF91089580E090E0FACF1F93CF93CE
:10081000DF93282F30E0F901EE5CFD4F8491F90160
:10082000E350FE4FD491F901E853FE4FC491CC231D
:10083000A9F0162F81110E94A803EC2FF0E0EE0F13
:10084000FF1FE855FE4FA591B4918FB7F894EC9136
:10085000111108C0D095DE23DC938FBFDF91CF91BB
:100860001F910895DE2BF8CFCF93DF9390E0FC012A
:10087000E350FE4F249188539E4FFC0184918823BE
:10088000D1F090E0880F991FFC01E856FE4FA5912A
:10089000B491FC01E855FE4FC591D49161110EC091
:1008A0009FB7F8948C91E22FE0958E238C9328814A
:1008B000E223E8839FBFDF91CF9108958FB7F8942B
:1008C000EC91E22BEC938FBFF6CF3FB7F894809179
:1008D000120290911302A0911402B091150222B756
:1008E00006B600FE05C02F3F19F00196A11DB11DEF
:1008F0003FBFBA2FA92F982F8827BC01CD01620FC7
:10090000711D811D911D42E0660F771F881F991F81
:100910004A95D1F708950E94650420918001309195
:100920008101FB01E21BF30B20915F023091600219
:10093000E217F30708F438C1209161023091620296
:100940007093810160938001409163025091640231
:100950004130510599F148F04230510509F4B9C0D0
:100960004330510509F4EFC00895E217F30708F08A
:10097000D4C0809166028F5F809366028B3008F44A
:1009800013C181E090E0909364028093630241E0A0
:1009900050E06BE874E0809159020E94C30110920C
:1009A0007F0182E590E0909362028093610283E28E
:1009B00090E09093600280935F02089540917F01E0
:1009C0004130A9F038F0433009F449C0443009F40B
:1009D0007CC00895E217F30730F491E090937F0113
:1009E000E0937E01089584E080937F010895E217EB
:1009F000F30798F510927F01909166029F5F9093A4
:100A000066028E2FEE0F990B20917E01821B9109B9
:100A100027FD939597FF03C091958195910949977B
:100A20000CF4C2C0109264021092630282E990E05A
:100A3000909362028093610282E590E0909360025D
:100A400080935F02109266024091470250E06BE88B
:100A500074E0809159020C94C30183E0C5CFE21782
:100A6000F30700F380914702833061F582E08093C1
:100A7000470282E090E0909364028093630282E9EF
:100A800090E0909362028093610282E590E09093FF
:100A9000600280935F021092680210926A021092C4
:100AA0006B0210926C0210926D0210926E02109204
:100AB0006F02809166028093690210926602109222
:100AC0006702C2CF40934702D4CFE217F30788F6FC
:100AD000A9CF509166025F5F509366024091670212
:100AE000440FE217F307E0F040936702583009F033
:100AF0005BC0E0916802E630A9F4109264021092A3
:100B0000630282E990E0909362028093610282E541
:100B100090E09093600280935F02109266020895C5
:100B20004160E2CF83E090E090936402809363029F
:100B300081E08E0F80936802F0E0ED59FD4F8091C7
:100B4000670287830895E217F307F8F410926402AE
:100B5000109263021092660282E990E09093620222
:100B60008093610282E590E09093600280935F023F
:100B700088E0E8E6F2E0A0E7B2E001900D928A9505
:100B8000E1F781E0809365020895809168028630E4
:100B900009F4B3CF82E090E0909364028093630203
:100BA000109266021092670208958F929F92AF9200
:100BB000BF92CF92DF92EF92FF924B015C010E94B5
:100BC00065046B017C010E9465046C197D098E0926
:100BD0009F09683E734081059105A8F321E0821AC0
:100BE0009108A108B10888EEC80E83E0D81EE11C68
:100BF000F11C81149104A104B10429F7FF90EF9036
:100C0000DF90CF90BF90AF909F908F900895CF933B
:100C1000C091420361E08C2F0E94340460E08C2F6D
:100C20000E94060461E070E080E090E00E94D5053B
:100C300061E08C2F0E94060460E08C2FCF910C9411
:100C4000340461E08BE00E94060464E070E080E020
:100C500090E00E94D50560E08BE00C9406040C94B3
:100C600021062FB7F89460910E0270910F028091C7
:100C70001002909111022FBF089585ED80937400AA
:100C80008091740084FDFCCF109220020895209181
:100C9000C601260F3327331F21323105ECF4209192
:100CA0002002FC0190E080E0243069F082E00895A9
:100CB000A091C6012191AC014A555E4FA40FB52FFA
:100CC000B11D2C930196861798F38091C601680F89
:100CD0006093C60180E0089581E008950895E09151
:100CE000240280912302E81730F4F0E0EA57FE4F27
:100CF000808190E008958FEF9FEF089590912402F6
:100D0000809123022FEF3FEF981748F4E92FF0E08E
:100D1000EA57FE4F208130E09F5F90932402C90183
:100D200008958091230290912402891B990B0895C4
:100D3000CF93DF93CB01EA01642F0E944706CE01D7
:100D4000DF91CF91089544E050E062E871E085E3DF
:100D500093E00C949806CF93DF931F92CDB7DEB744
:100D6000698361E0CE0101960E94470681E090E030
:100D70000F90DF91CF91089590E080E008950F9358
:100D80001F93CF93DF93FC018281813089F040F083
:100D9000823009F47AC0DF91CF911F910F910895AD
:100DA00061E08081DF91CF911F910F910C94060437
:100DB0000181C02FD0E0108161E0812F0E943404B6
:100DC000209719F460E0812FEDCFCF3FD10511F4CA
:100DD00061E0F9CFE12FF0E0EE5CFD4FE491E150EE
:100DE000EC3008F04DC0F0E0E850F94F0C941924B5
:100DF00004070407400709070F0715071D074007E9
:100E0000400722072C07360783B7806283BF01BFE4
:100E1000C2CF8FB580688FBDDBBDCABDBCCF8FB5DB
:100E200080628FBDD9BDC8BDB6CF8FB588608FBD7C
:100E3000D0937900C0937800AECF85B5806285BD30
:100E400003BDA9CF80918B00806880938B00D093E5
:100E50008700C09386009FCF80918B008062809333
:100E60008B00D0938500C093840095CF80918B0038
:100E7000886080938B00D0938300C09382008BCFD7
:100E8000C038D1050CF0A4CF9DCF8181E381F0E083
:100E9000E858FD4F80837FCF0F931F93CF93DF934D
:100EA000D62F8C01C0E0CD1741F0F80181919191CE
:100EB0008F010E94BF06CF5FF6CFDF91CF911F91C8
:100EC0000F9108950F931F93CF93DF93162F082F41
:100ED000EC0185E393E00E947E0689938C2F801BB2
:100EE0008117B8F3812FDF91CF911F910F91089552
:100EF000809142030E94DD03E0915003F0E0EF5B3C
:100F0000FC4F328520914F0341E050E060E070E0FB
:100F1000022E04C0440F551F661F771F0A94D2F794
:100F2000892B81F0432B42872F5F20934F030E9430
:100F3000650460934703709348038093490390933B
:100F40004A03089540954323EECFCF92DF92EF926C
:100F5000FF9280915103811172C00E943106C090AE
:100F60004303D0904403E0904503F09046036C198E
:100F70007D098E099F096A30710581059105A0F0F0
:100F800010924F03109250030E9431066093430366
:100F9000709344038093450390934603FF90EF9032
:100FA000DF90CF900C9478070E946504C0904703AF
:100FB000D0904803E0904903F0904A036C197D09F2
:100FC0008E099F096B30710581059105C0F10E9462
:100FD00065046C197D098E099F09643F7140810584
:100FE000910568F50E94780780914F03883039F5A4
:100FF0000E9431066093430370934403809345033A
:101000009093460310924F0380915003811104C0C6
:1010100081E08093500313C08130B1F480914B0381
:101020008E3611F08E3511F482E0F3CF982F977F32
:101030009737D1F38B37C1F381E080935103FF9051
:10104000EF90DF90CF9008958230B1F780914B03FD
:101050008E3611F08E3581F783E0DBCF8093460228
:101060000895CF93C82F80914A028C1731F081E008
:10107000C11101C080E080934602C0934A0260E043
:1010800070E0CB01C1110E94310660934B02709356
:101090004C0280934D0290934E0280914A028C172D
:1010A00031F081E0C11101C080E080934602CF9110
:1010B000089580E090E0892B29F080915E0283FD05
:1010C0000C9400000895E82FF0E0E858FD4F60838D
:1010D00008958F929F92AF92BF92CF92DF92EF923C
:1010E000FF920F931F93CF930E946504AB01BC0145
:1010F0008091540390915503A0915603B0915703EA
:101100008A019B01081B190B2A0B3B0B80915C0386
:10111000882309F47FC080915E0390915D03E92FDD
:10112000EE0FFF0BA82F082E000CBB0BC3E68C02A2
:10113000E00DF11D1124EE5AFC4F178B068B053F75
:1011400011402105310508F054C09F5F90935D0365
:1011500090915D039332C9F593E69A9F90019B9F0E
:10116000300D11242E5A3C4FF901E45AFF4FC09024
:101170005803D0905903E0905A03F0905B034A0162
:101180005B018C189D08AE08BF0875016401C08220
:10119000D182E282F38229593F4FE1E0F0E0D901A8
:1011A000ED93FC938F5F8A3094F580935E03E0911A
:1011B0005E03B3E6EB02F0011124E754FC4F118209
:1011C000108210925C0310925D034093540350937D
:1011D00055036093560370935703CF911F910F915E
:1011E000FF90EF90DF90CF90BF90AF909F908F9047
:1011F000089510925D0391E090935C03409358032F
:101200005093590360935A0370935B03A1CF1092DC
:101210005E03CDCF053F114021053105B0F281E0DD
:1012200080935C03409358035093590360935A038F
:1012300070935B03CACFFF920F931F93CF93DF93FB
:10124000F62E8C01C0E0CF15F9F0D801ED91FD919B
:101250008D018281813051F020F0823079F0CF5FB2
:10126000F2CF60E080810E940604F9CFD08161E076
:101270008D2F0E94340460E08D2FF5CFE381F0E0E4
:10128000E858FD4F1082EBCFDF91CF911F910F9166
:10129000FF900895CF93DF93EC018C819D8100979F
:1012A00019F06B810E941B098F819885009729F0A6
:1012B0006E81DF91CF910C941B09DF91CF9108953E
:1012C0000F931F93CF938C01C42F0E948901882311
:1012D000E1F180914807482F50E0C03128F588237C
:1012E00019F12C2F30E080915207909153070C2E6A
:1012F00002C0969587950A94E2F780FF15C00417FF
:10130000150719F580914E0790914F070097E9F066
:10131000220F331F820F931FFC0180819181CF9197
:101320001F910F910C944A090417150771F08091D1
:101330004E0790914F07009741F04C2F50E0440F1B
:10134000551F480F591FFA01E8CFCF911F910F91F8
:1013500008951F93CF93DF93EC018A81882359F07E
:10136000162F8981861721F0CE010E944A09198320
:101370008981882331F08C819D81009761F06B8198
:1013800005C08F819885009731F06E81DF91CF91F4
:101390001F910C944C07DF91CF911F9108950F93EB
:1013A0001F93CF938C01C42F0E948901882309F4D5
:1013B00040C080914807482F50E0C03138F588235D
:1013C00029F12C2F30E080915207909153070C2E79
:1013D00002C0969587950A94E2F780FF17C004171C
:1013E000150739F580914E0790914F07009709F145
:1013F000220F331F820F931F60914B07FC018081E6
:101400009181CF911F910F910C94A9090417150791
:1014100081F080914E0790914F07009751F04C2F2B
:1014200050E0440F551F480F591F60914A07FA01B9
:10143000E6CFCF911F910F9108950E943108E8E403
:10144000F2E081E087831086E1E5F2E088E0DF01E9
:101450001D928A95E9F70895CF92DF92EF92FF925D
:101460000F931F93CF93DF93EC017B014423F9F09B
:10147000CC80DD802396C114D104E9F462E070E0F1
:1014800081E090E00E9436248C01009731F0FC014D
:10149000F182E08288818F5F8883C801DF91CF91DC
:1014A0001F910F91FF90EF90DF90CF900895CF8024
:1014B000D8842696E0CF88818F5F8883C82FD0E0BC
:1014C00062E070E0CE010E9436248C0120E0BE0173
:1014D00061507109822F90E08617970774F4880F86
:1014E000991FF601E80FF91F40815181800F911F6C
:1014F000FC01518340832F5FEDCFC150D048CC0F0A
:10150000DD1FC00FD11FF982E882C6010E94EE24C0
:10151000C4CF0C94F023DF92EF92FF920F931F93AE
:10152000CF93DF938C017B01D42EE9010E948901C6
:101530008111D0924C078DE190E00E94890AD82E4B
:10154000B701C8010E9489018823C1F08091480732
:1015500080171106D9F480914B078C171D0671F086
:1015600080914907882329F081E0CD2B29F080E084
:1015700003C081E0CD2BD9F380934B07DF91CF914E
:101580001F910F91FF90EF90DF90089580914A078F
:101590008C171D0699F381E0D0FE04C0CD2B21F0FD
:1015A00080E002C0CD2BE1F380934A07E7CF1F9381
:1015B000CF93DF93EC0180914602882359F08FE0AE
:1015C00090E00E94890A182F80E190E00E94890A29
:1015D000181306C0CE01DF91CF911F910C94890A98
:1015E000FFCF0C94D70ACF93DF9320915B02309109
:1015F0005C022F3F320721F0C901DF91CF9108959E
:1016000080915E0287FF2BC086FF0FC089E090E0CB
:101610000E94F10AC82F81E090E00E94F10A9C2FFD
:1016200090935C0280935B0215C089E090E00E9479
:10163000F10AC82F81E090E00E94F10A90E4C99F6E
:1016400090011124207C31708F73282B30935C0221
:1016500020935B0280915B0290915C02CECF85FF6C
:101660000CC081E190E00E94F10AC82F82E190E075
:101670000E94F10AC05CDD0BD2CF81E090E00E94B5
:10168000F10A90E0CDCFFF920F931F93CF93DF939A
:10169000EC018B01F22E4330510509F47EC068F451
:1016A00041305105E9F04230510509F458C0DF914D
:1016B000CF911F910F91FF9008954530510509F486
:1016C000D4C008F488C04630510589F740E024FFB3
:1016D0002CC0DF91CF911F910F91FF900C94CF09F7
:1016E00080913E0281112BC040E0B801CE01F4FE92
:1016F00023C00E94CF0941E0B801CE01F0FE26C010
:101700000E94CF0942E0B801CE01F1FE22C00E9442
:10171000CF0943E0B801CE01F2FE1EC00E94CF09FE
:1017200044E0B801CE01F3FCD4CFDF91CF911F91FB
:101730000F91FF900C9460090E946009DCCF8DE14D
:1017400090E00E94F10A81FDCFCFD5CF0E946009C1
:10175000D9CF0E946009DDCF0E946009E1CF45E04A
:1017600020FF12C00E94CF0946E0B801CE01F1FE71
:101770000EC00E94CF0947E0B801CE01F2FE0AC0B8
:101780000E94CF0948E0CDCF0E946009EDCF0E94B2
:101790006009F1CF0E946009F5CF49E020FF12C037
:1017A0000E94CF094AE0B801CE01F1FE0EC00E94AE
:1017B000CF094BE0B801CE01F2FE0AC00E94CF096A
:1017C0004CE0AFCF0E946009EDCF0E946009F1CFDD
:1017D0000E946009F5CF4DE020FF32C00E94CF0982
:1017E0004EE0B801CE01F1FE2EC00E94CF094FE0BD
:1017F000B801CE01F2FE2AC00E94CF0940E1B80133
:10180000CE01F3FE26C00E94CF0941E1B801CE010E
:10181000F4FE22C00E94CF0942E1B801CE01F5FEDC
:101820001EC00E94CF0943E1B801CE01F6FE1AC0E6
:101830000E94CF0944E1B801CE01F7FE76CF49CF2F
:101840000E946009CDCF0E946009D1CF0E9460093B
:10185000D5CF0E946009D9CF0E946009DDCF0E94D8
:101860006009E1CF0E946009E5CF45E120FF2EC06D
:101870000E94CF0946E1B801CE01F1FE2AC00E94C4
:10188000CF0947E1B801CE01F2FE26C00E94CF0980
:1018900048E1B801CE01F3FE22C00E94CF0949E120
:1018A000B801CE01F4FE1EC00E94CF094AE1B80182
:1018B000CE01F5FE1AC00E94CF094BE1B801CE015E
:1018C000F6FE16C00E94CF094CE1B5CF0E94600918
:1018D000D1CF0E946009D5CF0E946009D9CF0E9464
:1018E0006009DDCF0E946009E1CF0E946009E5CF69
:1018F0000E946009E9CFCF93C82F81E090E00E9459
:10190000890A2C2F42E050E070E060E090E00E94F5
:10191000430B81E090E00E94890A2C2F30E094E094
:10192000359527959A95E1F743E050E070E060E047
:1019300090E0CF910C94430BCF938230910511F13D
:10194000C62F8330910520F4019779F0CF91089547
:1019500083309105D9F00497C9F781E090E00E94A7
:10196000890A2C2F45E050E007C081E090E00E94FA
:10197000890A2C2F41E050E070E060E090E0CF91C8
:101980000C94430B862FCF910C947B0C81E090E05C
:101990000E94890A2C2F44E050E0EECF0F931F9352
:1019A000CF93C82F81E090E00E94890A0FE710E0F2
:1019B00021E030E04C2F70E060E090E00E948B0A64
:1019C000CF911F910F9108950F931F93CF93613083
:1019D000710529F4CF911F910F910C94CE0CC82F53
:1019E00081E090E00E94890A0FE710E030E020E0FB
:1019F0004C2F70E060E090E00E948B0ACF911F9125
:101A00000F910895CF93C82F8FE290E00E94890A2A
:101A1000811109C085E190E0CC2311F086E190E0CE
:101A2000CF910C94890A80E0CF910895CF93C82F6D
:101A30008FE290E00E94890A811106C08C2F90E00D
:101A4000CA96CF910C94890A80E0CF910895CF93E4
:101A5000863823E0920719F130F481389340D1F0B1
:101A60008FEFCF910895873823E09207D9F0883817
:101A70009340B1F786E893E00E94890AC82F87E86F
:101A800093E00E94890A90E02FEFC29F800D911D84
:101A9000112402C081E893E0CF910C94890A86E872
:101AA00093E0FACF87E893E0F7CF1F93CF93DF93CC
:101AB0000FB6F894A89581B5886181BD11BC0FBEA1
:101AC000D0E0C0E0FE01E457FF4F1491CE010E9428
:101AD000F023181721F0612FCE010E94F8232196E0
:101AE000CC3081E0D80771F781E893E00E94F023C1
:101AF000813029F061E081E893E00E94F8230FB67D
:101B0000F894A89581B5886181BD11BC0FBECCE168
:101B1000D1E01FEF89919991FC0111830E94BF06CA
:101B2000F1E0CA35DF07B1F788E19BE00FB6F89422
:101B3000A89581BD0FBE91BDDF91CF911F910895F2
:101B40001F93CF93DF93EC01162F089779F4662348
:101B500019F10E94550D80E090E0892BB9F0612FBA
:101B6000CE01DF91CF911F910C94000080E090E0B6
:101B7000892BA9F781E0C11590E1D90708F080E031
:101B8000111105C0DF91CF911F91089581E0279732
:101B90002297C0F780E0F6CF80E090E0892BF9F63D
:101BA00081E0F0CF1F93CF93DF93EC01162F0E94BB
:101BB000F023181721F0612FCE010E94F823CE01E7
:101BC000DF91CF911F910C94890ACF93DF938638D0
:101BD00023E0920739F138F481389340E9F08FEF30
:101BE000DF91CF910895873823E09207F1F088388C
:101BF0009340A9F7C62F86E893E00E94890AD82F60
:101C000087E893E00E94890A90E06C2F2FEFD29F23
:101C1000800D911D112402C081E893E0DF91CF91E6
:101C20000C94D20D86E893E0F9CF87E893E0F6CFE5
:101C30000F931F93CF93DF9320914602222329F025
:101C40008F30910541F48FE090E0DF91CF911F91AB
:101C50000F910C94D20D162FEC018FE090E00E94B2
:101C6000890A082F80E190E00E94890A08130CC0BD
:101C7000C730D10529F0C830D10519F4183029F042
:101C8000FFCF612FCE01E1CFFFCF0E94550D88E03D
:101C9000DF91CF911F910F9108950F931F93CF93D1
:101CA000DF93CDB7DEB729970FB6F894DEBF0FBE2E
:101CB000CDBF181619069CF585E393E00E947E06B9
:101CC000992782309105D9F08330910599F10197D8
:101CD00059F464E082E891E00E94620780918501F6
:101CE0008823B9F18130F1F190912302809124028F
:101CF0009817A9F085E393E00E947E06F5CF69E08E
:101D0000CE0101960E946207088519852E813F81C8
:101D10006B817C814D8189819A810E948B0A2996F1
:101D20000FB6F894DEBF0FBECDBFDF91CF911F91EC
:101D30000F91089567E0CE0101960E9462074D81E0
:101D40005E816B817C812F8189819A810E94430B06
:101D5000E6CF80918301909184010E94D70A8093FD
:101D60008201C2CF609182018091830190918401B0
:101D70000E94180EF4CF8331910588F481319105CA
:101D800030F48130910519F08930910531F42FEF4D
:101D90003FEF30935C0220935B020C94180E8D3160
:101DA0009105D9F7677F60935E02209148022F73F7
:101DB000362F307C232B20934802E9CF1F93CF93FB
:101DC000DF93182FE3E6F2E085E1DF011D928A95AB
:101DD000E9F782E990E0909362028093610282E5E4
:101DE00090E09093600280935F02C8E4D2E0688341
:101DF00019828FEF9FEF9C8B8B8B1D8A83E08093E2
:101E0000470243E050E06BE874E089890E94C30117
:101E10008DE190E00E94F10A682F6F738DE190E0F0
:101E20000E94BB0E8E8B612F87E090E00E94BB0E5C
:101E30006DE088E090E00E94BB0E80E0DF91CF91E2
:101E40001F910C941D0A80914602811156C0809109
:101E50004402909145028130910581F118F002977A
:101E6000E1F1089580E390E00E94D70A80FF1DC051
:101E700089B78F7789BF82EC91E090930F018093AF
:101E80000E0189E698E090930F0180930E018AB7C6
:101E90008F7380648ABF89B7806889BF81E090E0D2
:101EA000909345028093440208958DE190E00E9452
:101EB000D70A82FF22C082E090E0F2CF89B78F7705
:101EC00089BF82EC91E090930F0180930E018DE128
:101ED00090E00E94D70A82FDEECF87E080935902FE
:101EE00080935A0260E00E94340461E08AE00E941C
:101EF000DE0E10924502109244020895BF92CF92D6
:101F0000DF92EF92FF920F931F93CF93DF938B019A
:101F1000B42E690182FF23C083FF17C061E0C801AE
:101F20000E94A00D8823D9F16B2DC8010E94BB0E21
:101F30008B1135C0F601DF91CF911F910F91FF906A
:101F4000EF90DF90CF90BF90099460E0C8010E94AD
:101F5000A00D882321F1C8010E94F10AE9CF842F46
:101F60008770C1E0D0E07E0101C0EE0C8A95EAF7EF
:101F7000D42FD870CB010E94F10AC82FB4FE1CC028
:101F800061E0C8010E94A00D882349F0DD2389F09B
:101F9000CE296C2FC8010E94BB0E8C1759F2DF911D
:101FA000CF911F910F91FF90EF90DF90CF90BF9056
:101FB0000895E094CE21EDCF60E0C8010E94A00D0D
:101FC000882369F3CE21DD2319F0C111B3CFE7CF08
:101FD000CC2309F4AFCFE3CFCF92DF92EF92FF9201
:101FE0000F931F93CF93DF937C016B01C42F122FAC
:101FF000D42FD07E8091480287FF2BC0D03EB9F508
:10200000C0904902CC2099F1D12CC6010E94F10A5E
:10201000D82FC60101960E94F10A982F8D2FE8163D
:10202000F90629F56C2F70E0762F66276627737006
:10203000612B6F5F7F4F29E538E0402F8C2FDF91B8
:10204000CF911F910F91FF90EF90DF90CF900C9464
:102050007E0F80FD32C0D03609F464C088F4D032DF
:1020600009F447C0D03409F45DC0DD2379F1DF9174
:10207000CF911F910F91FF90EF90DF90CF90089537
:10208000D03A09F483C090F42C2F2F7141E050E036
:10209000D03869F7B601C701DF91CF911F910F9139
:1020A000FF90EF90DF90CF900C94430BD03C09F45D
:1020B00076C0D03E09F4B6CFDACF0E94F30A8E156F
:1020C0009F0549F2E114F10431F2D1CF8C2F8E70CB
:1020D00071F680E090E0892B51F28C2F8170DF91B6
:1020E000CF911F910F91FF90EF90DF90CF900C94C4
:1020F0000000CF71CF3109F0BACF412F4F7771F087
:10210000413071F0111F1127111F212F30E00FE70F
:1021100010E0B601C7010E948B0AA9CF41E0F2CFBF
:1021200040E0F0CF2C2F30E08C2F8F71813029F0E0
:1021300030F0803121F08131F9F440E001C041E01C
:1021400025FB222720F90DE110E030E0B601C701A0
:102150000E948B0A80E090E0892B09F488CF4C2FF5
:10216000B601C701DF91CF911F910F91FF90EF90C2
:10217000DF90CF900C940000C901880F991F8E71D9
:10218000C4FB442740F9482B4250DACF2C2F2F7044
:1021900043E050E0C4FF7ECF42E050E07BCFCF7100
:1021A000CE3139F0CF3109F062CF212F45E050E038
:1021B00071CF212F44E050E06DCF1F920F920FB6E8
:1021C0000F9211240BB60F922F933F934F935F936F
:1021D0006F937F938F939F93AF93BF93EF93FF93EF
:1021E00088E992E00E949C02FF91EF91BF91AF912C
:1021F0009F918F917F916F915F914F913F912F911F
:102200000F900BBE0F900FBE0F901F9018951F924E
:102210000F920FB60F9211240BB60F922F938F933C
:102220009F93EF93FF93E091A802F091A902808120
:10223000E091AE02F091AF0282FD1DC090818091CD
:10224000B1028F5F8F732091B202821741F0E0914B
:10225000B102F0E0E856FD4F958F8093B102FF91F7
:10226000EF919F918F912F910F900BBE0F900FBE0A
:102270000F901F9018958081F2CF1F920F920FB68A
:102280000F9211242F933F938F939F93AF93BF93FC
:1022900080910E0290910F02A0911002B091110254
:1022A00030910D0223E0230F2D3768F126E8230F2C
:1022B0000296A11DB11D20930D0280930E029093F2
:1022C0000F02A0931002B09311028091120290911C
:1022D0001302A0911402B09115020196A11DB11D27
:1022E0008093120290931302A0931402B0931502EC
:1022F000BF91AF919F918F913F912F910F900FBE02
:102300000F901F9018950196A11DB11DD4CF1F925B
:102310000F920FB60F9211240BB60F922F933F938B
:102320004F935F936F937F938F939F93AF93BF93DD
:10233000EF93FF93E0910E01F0910F010995FF914A
:10234000EF91BF91AF919F918F917F916F915F912D
:102350004F913F912F910F900BBE0F900FBE0F909A
:102360001F9018951F920F920FB60F9211240BB663
:102370000F922F933F934F935F936F937F938F931E
:102380009F93AF93BF93EF93FF93E0910C01F09174
:102390000D010995FF91EF91BF91AF919F918F91A1
:1023A0007F916F915F914F913F912F910F900BBE55
:1023B0000F900FBE0F901F9018951F920F920FB69F
:1023C0000F9211240BB60F922F933F934F935F936D
:1023D0006F937F938F939F93AF93BF93EF93FF93ED
:1023E000E0910A01F0910B010995FF91EF91BF91E6
:1023F000AF919F918F917F916F915F914F913F919D
:102400002F910F900BBE0F900FBE0F901F9018953D
:102410001F920F920FB60F9211240BB60F922F93AB
:102420003F934F935F936F937F938F939F93AF935C
:10243000BF93EF93FF93E0910801F0910901099593
:10244000FF91EF91BF91AF919F918F917F916F918C
:102450005F914F913F912F910F900BBE0F900FBE48
:102460000F901F9018951F920F920FB60F92112484
:102470000BB60F922F933F934F935F936F937F937E
:102480008F939F93AF93BF93EF93FF93E0910601D8
:10249000F09107010995FF91EF91BF91AF919F9145
:1024A0008F917F916F915F914F913F912F910F90FD
:1024B0000BBE0F900FBE0F901F9018951F920F929A
:1024C0000FB60F9211240BB60F922F933F934F9399
:1024D0005F936F937F938F939F93AF93BF93EF938C
:1024E000FF93E0910401F09105010995FF91EF91AF
:1024F000BF91AF919F918F917F916F915F914F911C
:102500003F912F910F900BBE0F900FBE0F901F9019
:1025100018951F920F920FB60F9211240BB60F92BF
:102520002F933F934F935F936F937F938F939F93DB
:10253000AF93BF93EF93FF93E0910201F0910301FA
:102540000995FF91EF91BF91AF919F918F917F91ED
:102550006F915F914F913F912F910F900BBE0F9014
:102560000FBE0F901F9018951F920F920FB60F92EB
:1025700011240BB60F922F933F934F935F936F935A
:102580007F938F939F93AF93BF93EF93FF93E091CC
:102590000001F09101010995FF91EF91BF91AF9179
:1025A0009F918F917F916F915F914F913F912F916B
:1025B0000F900BBE0F900FBE0F901F9018951F929B
:1025C0000F920FB60F9211240BB60F922F933F93D9
:1025D0004F935F936F937F938F939F93AF93BF932B
:1025E000EF93FF9380917100887F803609F44DC08E
:1025F00008F040C0883209F4A9C028F5803109F4F8
:102600009DC0C8F4882309F4FBC0883009F496C043
:10261000FF91EF91BF91AF919F918F917F916F91BA
:102620005F914F913F912F910F900BBE0F900FBE76
:102630000F901F901895883109F488C0803241F7B7
:102640008093E90114C0803409F49DC040F48033C4
:10265000B9F38833E9F68093E90185ECB0C08035A1
:1026600009F485C0883509F496C0883489F60E943B
:102670003D06CECF883909F48CC038F5883729F06B
:1026800050F4883611F0803719F683E080932002E9
:102690001092E80157C0883809F47BC0803919F0DE
:1026A000803809F0B5CF8091E801803208F071C020
:1026B000E091E80181E08E0F8093E8018091730042
:1026C000F0E0E853FE4F80833DC0803B39F0E0F4FA
:1026D000803A09F479C0883A09F09ACF84E080936F
:1026E00020021092C7011092C601E0911C02F091E5
:1026F0001D0209958091C60181110FC081E0809370
:10270000C6011092A60109C0803C09F4A6CF883CFE
:1027100009F4A3CF883B09F07BCFE091C70181E0AA
:102720008E0F8093C701F0E0EA55FE4F80818093C1
:1027300073009091C7018091C60129C080910C025D
:102740008093730085EC8093740062CF90910B02AC
:1027500080910A02981758F5E0910B0281E08E0FE4
:1027600080930B02F0E0E651FE4F8081E9CFE091CB
:102770000B0281E08E0F80930B0280917300F0E0DA
:10278000E651FE4F808390910B0280910A029817C8
:10279000C8F285E8D8CFE0910B0281E08E0F8093DC
:1027A0000B0280917300F0E0E651FE4F8083809130
:1027B0001F0281115CCF81E080931E0284EA809326
:1027C00074001092200224CF85EC80937400109244
:1027D00020028091E801803230F4E091E801F0E0DD
:1027E000E853FE4F10826091E80170E0E0911A0218
:1027F000F0911B0288EC91E009951092E80108CF56
:102800001092E90134CF1F920F920FB60F9211244C
:102810008F939F9378948091970290919602891755
:1028200008F0F5C0909162009160909362009091E1
:102830009502891708F0EFC0AD9A9091940289171C
:1028400008F0EBC0969A90919302891708F0E7C0C0
:10285000979A90919202891708F0E3C090916500D1
:1028600091609093650090919102891708F0DDC006
:102870009091650092609093650090919002891705
:1028800008F0D7C0A89A90918F02891708F0D3C09A
:102890009091650090619093650090918E028917E8
:1028A00008F0CDC09091650098609093650090917C
:1028B0008D02891708F0C7C0C79A90918C028917BA
:1028C00008F0C3C0C59A90918B02891708F0BFC069
:1028D000C49A90918A02891708F0BBC0C69A909159
:1028E0008902891708F0B7C0DB9A9091880289178E
:1028F00008F0B3C0DC9A90918702891708F0AFC046
:10290000DD9A90918602891708F0ABC0DE9A90910B
:102910008502891708F0A7C0DF9A90918402891771
:1029200008F0A3C090916500946090936500909129
:102930008302891708F09DC01A9A90918202891724
:1029400008F099C01B9A90918102891708F095C0F0
:102950001C9A90918002891708F091C01D9A90915D
:102960007F02891708F08DC0909162009260909369
:10297000620090917E02891708F087C0C09A9091FA
:102980007D02891708F083C090916200906890934F
:10299000620090917C02891708F07DC090916200DE
:1029A00090649093620090917B02891708F077C041
:1029B0009091620090629093620090917A028917E0
:1029C00008F071C0909162009061909362009091C4
:1029D0007902891708F06BC090916200986090931B
:1029E000620090917802891708F065C080916200BA
:1029F000846080936200809197028F5F809397023A
:102A00009F918F910F900FBE0F901F9018959091EE
:102A100062009E7F0ACFAD9810CF969814CF9798FA
:102A200018CF909165009E7F1CCF909165009D7F8F
:102A300022CFA89828CF909165009F7E2CCF9091AF
:102A40006500977F32CFC79838CFC5983CCFC498E0
:102A500040CFC69844CFDB9848CFDC984CCFDD9868
:102A600050CFDE9854CFDF9858CF909165009B7F70
:102A70005CCF1A9862CF1B9866CF1C986ACF1D98BE
:102A80006ECF909162009D7F72CFC09878CF909169
:102A900062009F777CCF909162009F7B82CF909164
:102AA00062009F7D88CF909162009F7E8ECF909133
:102AB0006200977F94CF809162008B7F9ACFCF93F3
:102AC000DF93EC0161E088810E94340460E088813A
:102AD000DF91CF910C940604AF92BF92CF92DF9218
:102AE000EF92FF920F931F93CF93DF9310929B026D
:102AF00010929A0288EE93E0A0E0B0E080939C02EE
:102B000090939D02A0939E02B0939F022EE531E028
:102B1000309399022093980220E930E03093A50287
:102B20002093A40229E230E03093A7022093A6026A
:102B30002BE230E03093A9022093A8022AE230E091
:102B40003093AB022093AA0225E930E03093AD0226
:102B50002093AC022CE230E03093AF022093AE021F
:102B60001092B1021092B2021092B3021092B4020B
:102B700010923803109237038093390390933A03ED
:102B8000A0933B03B0933C0380E791E0909336031E
:102B9000809335038FE28093EB07C2E0C093ED078B
:102BA0001092EE07DFEFD093EC071092EF078BEE59
:102BB00097E00E945F1580E38093E607C093E807E3
:102BC00001E00093E907D093E7071092EA0786EE49
:102BD00097E00E945F1581E38093E107C093E307CC
:102BE000C093E407D093E2071092E50781EE97E0E7
:102BF0000E945F1582E38093DC07C093DE0713E039
:102C00001093DF07D093DD071092E0078CED97E07B
:102C10000E945F1583E38093D707C093D90784E0B0
:102C2000F82EF092DA07D093D8071092DB0787EDE1
:102C300097E00E945F1584E38093D207C093D40786
:102C400095E0C92EC092D507D093D3071092D6072E
:102C500082ED97E00E945F1528E0D22ED092CD073A
:102C6000C093CF0736E0E32EE092D007D093CE0793
:102C70001092D1078DEC97E00E945F158EE2809351
:102C8000C807C093CA0787E08093CB07D093C907D2
:102C90001092CC0788EC97E00E945F15C092C307A2
:102CA000C093C507D092C607D093C4071092C70738
:102CB00083EC97E00E945F15F092BE07C093C007B7
:102CC00089E08093C107D093BF071092C2078EEBB3
:102CD00097E00E945F151093B907C093BB078AE085
:102CE0008093BC07D093BA071092BD0789EB97E099
:102CF0000E945F15C093B407C093B6078BE0809322
:102D0000B707D093B5071092B80784EB97E00E94FD
:102D10005F1584E28093AF07C093B1074CE0B42EF7
:102D2000B092B207D093B0071092B3078FEA97E042
:102D30000E945F1585E28093AA07C093AC075DE00F
:102D4000C52EC092AD07D093AB071092AE078AEAAA
:102D500097E00E945F1586E28093A507C093A707BE
:102D60006EE0A62EA092A807D093A6071092A907FE
:102D700085EA97E00E945F1587E28093A007C093E1
:102D8000A2077FE0D72ED092A307D093A10710927D
:102D9000A40780EA97E00E945F1588E280939B0772
:102DA000C0939D0710E110939E07D0939C0710924B
:102DB0009F078BE997E00E945F1589E28093960751
:102DC000C0939807E1E1FE2EF0929907D093970700
:102DD00010929A0786E997E00E945F15A0929107EA
:102DE000C093930782E180939407D0939207109247
:102DF000950781E997E00E945F15B0928C07C09318
:102E00008E0783E180938F07D0938D0710929007F0
:102E10008CE897E00E945F15C0928707C0938907EE
:102E200084E180938A07D093880710928B0787E804
:102E300097E00E945F15D0928207C093840785E1D6
:102E400080938507D09383071092860782E897E0E6
:102E50000E945F1510937D07C0937F0716E11093C2
:102E60008007D0937E07109281078DE797E00E943C
:102E70005F15F0927807C0937A0787E180937B070C
:102E8000D093790710927C0788E797E00E945F153E
:102E9000FCE1FF2EF0927307C0937507A8E1DA2ECC
:102EA000D0927607D09374071092770783E797E064
:102EB0000E945F15BBE1CB2EC0926E07C0937007D6
:102EC00089E1B82EB0927107D0936F071092720704
:102ED0008EE697E00E945F158AE180936907C093B0
:102EE0006B0780936C07D0936A0710926D0789E691
:102EF00097E00E945F15B0926407C0936607C09286
:102F00006707D09365071092680784E697E00E94F0
:102F10005F15D0925F07C0936107F0926207D0936C
:102F20006007109263078FE597E00E945F1581E2CA
:102F300080935A07C0935C079DE1F92EF0925D07DC
:102F4000D0935B0710925E078AE597E00E945F15B9
:102F50008DE280935507C09357078EE18093580701
:102F6000D09356071092590785E597E00E945F15A8
:102F7000E09241031093420360E086E00E94340433
:102F800060E086E10E94340483E190E00E94890AB7
:102F9000C82F82E190E00E94890AD82F81E190E059
:102FA0000E94890A182F81E090E00E94890A00930C
:102FB0004A0700934B0710924C071092510710924A
:102FC000500780934507212F205C330BC9012D2F1B
:102FD000382FC9019093470780934607CF77C09356
:102FE000480710924907F0924D0762E070E08DE1CA
:102FF00090E00E94362490934F0780934E070097ED
:10300000A9F0EC0110E089E090E00E945224FC015C
:10301000018312821382158214821682108617820F
:103020001083899399931F5F1D3169F710925403A0
:1030300010925503109256031092570310925803A2
:103040001092590310925A0310925B0310925C0382
:1030500010925D0310925E0387E090E0909353031B
:1030600080935203DF91CF911F910F91FF90EF90CA
:10307000DF90CF90BF90AF900895CF93DF93CDB7FF
:10308000DEB765970FB6F894DEBF0FBECDBF78945C
:1030900083B78C6483BF87B7816087BF82E08EBDB2
:1030A0008EB581608EBD8FB581608FBD85B5846022
:1030B00085BD85B5806485BD80918A0083608093DD
:1030C0008A0080918B00816080938B0087E886B9AD
:1030D0001AB80FB6F894A89581B5886181BD11BC66
:1030E0000FBE2FB7F89490E080E0FC01E858FD4F48
:1030F000108201968F319105C1F7809162008E7F19
:1031000080936200AD9896989798809165008E7F25
:1031100080936500809165008D7F80936500A898FD
:10312000809165008F7E8093650080916500877F28
:1031300080936500C798C598C498C698DB98DC98BA
:10314000DD98DE98DF98809165008B7F8093650025
:103150001A981B981C981D98809162008D7F80930F
:103160006200C098809162008F77809362008091A6
:1031700062008F7B80936200809162008F7D8093DC
:103180006200809162008F7E809362008091620075
:10319000877F80936200809162008B7F80936200C2
:1031A0002FBF9FB7F8948091610081608093610088
:1031B000A59A8E9A8F9A80916400816080936400B2
:1031C00080916400826080936400A09A8091640082
:1031D00080618093640080916400886080936400C3
:1031E000BF9ABD9ABC9ABE9AD39AD49AD59AD69AC7
:1031F000D79A80916400846080936400129A139A35
:10320000149A159A80916100826080936100B89A47
:10321000809161008068809361008091610080648A
:103220008093610080916100806280936100809151
:10323000610080618093610080916100886080936B
:103240006100809161008460809361009FBF1FBC1A
:1032500089E08EBD81E194E09BBD8ABD87B7806126
:1032600087BF1092970261E08BE00E94340488E1EE
:103270009BE00FB6F894A89581BD0FBE91BDD12CEF
:10328000C12CBB24B394F601E959FD4FE4910E2FF4
:1032900010E0C8010E94890AF82EC80101960E9418
:1032A000890AE82EC80102960E94890AA82EC80140
:1032B00003960E94890A90914D07F91628F5F601A8
:1032C000E45EFE4F00811181D8011196AC921197F6
:1032D00014968C938F2DE11079C10E94AF014C019F
:1032E00041E0B8010E942C0AF401958384838F2D5C
:1032F0000E94AF017C0140E0B8010E942C0AD70176
:1033000018969C938E931797F2E0CF0ED11C2EE364
:10331000C216D10409F0B7CF61E070E084E090E01C
:103320000E9436249093510780935007892B91F087
:1033300010E000E0E0905007F0905107E00EF11E21
:10334000802F0E94160DD7018C930F5F1F4F043002
:10335000110581F780E00E94020D082F10E081E046
:103360000E94020D282F30E0322F222722273E7F95
:10337000000F111F202B312B30935307209352073E
:1033800080FF05C021603093530720935207A89512
:103390008DE49EE0909317028093160283EA96E0F4
:1033A0009093190280931802109224021092230223
:1033B00010922202109221021092200211E010932A
:1033C0001F0210921E0261E083E10E94060461E088
:1033D00082E10E940604809171008E7F80937100CB
:1033E000809171008D7F8093710088E480937000DC
:1033F00085E48093740085E493E090931D028093AC
:103400001C0281E593E090931B0280931A0282E0F4
:10341000809372008CE08093700060E08AE00E94EC
:1034200034048AE00E94DD03892B11F410934302D7
:10343000809143028111F7C081E090E00E94890AE7
:1034400021E030E030933402209333028093350240
:1034500081E190E00E94890A21E130E03093370257
:10346000209336028093380282E190E00E94890A1C
:1034700022E130E030933A022093390280933B02FC
:103480008DE190E00E94D70A81FDB7C08DE190E008
:1034900090933D0280933C0210923E0287E080931D
:1034A000590280935A0260E00E94340461E087E090
:1034B0000E94060460E087E00E94DE0E80914302D5
:1034C000882309F4DDC0412C512C32014394E0E003
:1034D0008E2EE0E09E2EF0E0EF2EF0E0FF2EA0E03A
:1034E000CA2EA0E0DA2EB0E02B2EB0E03B2E809169
:1034F0005103882309F4E8C0E0914B03E152EF3512
:1035000008F0DCC0F0E0E957F54E0C941924DE1BFE
:103510005E1BE81BFA1B231C0C1C5E1B311C3C1C95
:10352000441C4C1C551C5D1C651C6D1C751C7F1CB3
:103530005E1B5E1B5E1B5E1B5E1B5E1B5E1B5E1BC3
:103540005E1B5E1B5E1B5E1B5E1B5E1BBA1BC51BF0
:10355000CE1BD61B5E1B5E1B5E1B5E1B5E1B5E1BBB
:103560005E1B5E1B5E1B5E1B5E1B5E1B1E1C231C0C
:103570005E1B5E1B5E1B5E1B5E1B5E1B5E1B5E1B83
:103580005E1B5E1B5E1B5E1B871C5E1B531B5A1B58
:10359000661B6B1B5E1B5E1B5E1B5E1B5E1B5E1B4E
:1035A0005E1B5E1B981C701BA31B5E1B5E1B5E1BC1
:1035B0005E1B5E1B5E1B5E1B5E1BA21C5E1B5E1BFE
:1035C0005E1BE21C5E1B5E1B5E1B861D0E94AF0124
:1035D000FC01B282F0E8EF1609F489CEB1E8EB12F3
:1035E00093CE8F2D0E94AF017C0141E0B8010E9473
:1035F0002C0AF7019583848387CE85FD0DC08091C9
:10360000160190911701A091180180933C029093AC
:103610003D02A0933E0242CF8091190190911A0180
:10362000A0911B01F2CF10924F0310925003109201
:1036300051031092470310924803109249031092CD
:103640004A031092430310924403109245031092D0
:103650004603809141039CEF980F943020F08251F3
:10366000843008F08FEF42E050E065EA77E00E9496
:10367000C30181E893E00E94890A809354071ECF1A
:1036800062E0462E512C8091440290914502813097
:10369000910509F41AC508F484C2029711F40C9438
:1036A0009E23A895F0CF60914C0381E090E00E94AA
:1036B0009C0C04C080914C030E947B0C10924F0321
:1036C0001092500310925103A89511CF60914C03B2
:1036D00083E090E0ECCF60914C0384E090E0E7CF92
:1036E00080914C03682F661F6627661F8F77809333
:1036F0004C032114310411F3811121C081E0809326
:103700002E0261110EC080912E0287FDD7CF60E09E
:1037100090E00E94000080912E028F5F80932E0225
:10372000F2CF80912E0287FDC9CF61E090E00E9428
:10373000000080912E028F5F80932E02F2CF90E0E6
:103740000E940000BBCF80914D038F3609F0B6CFA9
:103750002114310409F4B2CF20914C03622F661F6B
:103760006627661F80914E03B0E88B9FC00111242D
:10377000822BE6CF60914C0381E090E0C114D1042C
:1037800009F49CCF0E94000099CFC114D10409F420
:1037900095CF60914C0382E090E0F4CF60914C03B0
:1037A00083E090E0C114D10469F788CF60914C03A5
:1037B00084E090E0C114D10429F780CFE0E0F0E08C
:1037C000EF2B09F47BCF80914C030E94000076CF51
:1037D00020E030E0232B09F471CF80914C0390E07E
:1037E00087FF05C0819590E09195819591090E9490
:1037F000000064CF40E050E0452B09F45FCF90918A
:103800004C0380E8890F61E070E097FD02C070E032
:1038100060E00E94000052CF80E090E0892B09F424
:103820004DCF80914C0390E087FF05C0819590E0DB
:103830009195819591090E94000040CFA0E0B0E0F1
:10384000AB2BE9F63BCF90914C0380E8890F97FFB3
:1038500003C00E94CE0C32CF70E060E00E94E40C06
:103860002DCF60914C0381E090E0E114F10409F464
:1038700025CF0E94000022CF60914C0382E090E0AF
:10388000E114F104B1F71ACF60914C0383E090E0AA
:10389000E114F10471F712CFE114F10409F40ECF31
:1038A00060914C0384E090E0E4CF60914C0385E0AC
:1038B00090E0E114F104E9F601CF60914C0386E059
:1038C00090E0E114F104A9F6F9CE60914C0387E091
:1038D00090E0E114F10469F6F1CE60914C0388E0C8
:1038E00090E0E114F10429F6E9CE60914C0381E007
:1038F0008114910409F4E2CE0E940000DFCE81140D
:10390000910409F4DBCE60914C0382E0F5CF809105
:103910004D038F3509F0D2CEE0E0F0E0EF2B09F453
:10392000CDCE90914E0380914C030E940000C6CEF4
:1039300020E030E0232B09F4C1CE80914C030E949B
:103940000000BCCE00914C0310E00F5F1C4FC8017B
:103950000E943A02882309F4B1CE013833E01307FC
:10396000E1F0043843E01407E9F0053853E01507A7
:1039700081F00C3A83E01807A9F00D3A93E019079B
:1039800041F0043DA3E01A0769F0053DB3E01B07D1
:10399000A9F4FAE0F0932D0208C0809154078093B7
:1039A0002D0203C0EDE0E0932D0290914D03809134
:1039B0002D02981383CE0E94070680CEC8010E9474
:1039C000270DEDCF20914C032B8B022F10E00F5FC2
:1039D0001C4F10932C0200932B02C8010E943A0244
:1039E000882309F46BCEA0904D038A2D90E09C01B2
:1039F000A4E035952795AA95E1F7422F41704C8BAD
:103A000040932A029C01B3E035952795BA95E1F7DA
:103A1000522F51705D8B509329029C01359527954B
:103A20002170B22EBB0C95958795959587958170E1
:103A3000880F880F8B0D9A2D9170B82EB90EB09209
:103A40002802043883E0180741F00C3A93E0190784
:103A500021F0043DA3E01A07B1F4BDE0B0932702C2
:103A60004C89413031F18091270290E002C0959558
:103A70008795BA94E2F7817099275D8958171906DE
:103A800009F01CCE98CF0538E3E01E0741F00D3A4F
:103A9000F3E01F0721F0053D23E0120721F43AE08F
:103AA00030932702DDCFC8010E94270D80932702A3
:103AB000D7CFC80184589340029708F4FFCD8B8973
:103AC0008B5A823008F4FACD8B89835D823008F4FA
:103AD000F5CDD301C20104C0880F991FAA1FBB1FD7
:103AE000BA94D2F720912702A3FE0DC0822B8093B7
:103AF000270260912702C8010E94E50D90912702DC
:103B00008913DCCD58CF80958223F1CF00914C03EF
:103B100010E00F5F1C4F1093260200932502C8018E
:103B20000E943A02882309F4C9CD053883E01807BA
:103B300009F4C4CD0D3A93E0190709F4BFCD053D52
:103B4000A3E01A0709F4BACD0438B3E01B0741F02B
:103B50000C3AE3E01E0721F0043DF3E01F0749F4AF
:103B600080914D03883029F40E94550D0E9407066C
:103B700009C060914D03C8010E94E50D90914D036D
:103B80008917A1F3809125029091260281389340F4
:103B900009F094CD81E893E00E94890A809354074C
:103BA0008DCD80914A028823B1F00E9431060091A8
:103BB0004B0210914C0220914D0230914E02601B3D
:103BC000710B820B930B653171058105910518F01E
:103BD00080E00E941D0A80916502882309F45EC27C
:103BE000F89488E0E0E7F2E0ADE3B7E001900D92F1
:103BF0008A95E1F710926502789430917002E2E7BD
:103C0000F2E090E080E0391721F0219182279F5F58
:103C1000FACF811143C280E090E0892B21F08DE33F
:103C200097E00E94000080913F07811121C0909190
:103C3000400791111DC080E090E0892B19F080E0D1
:103C40000E94000080914A02882371F081E00E9466
:103C500031080E94650460933F0270934002809394
:103C600041029093420216C481E00E941D0AF1CFE6
:103C700090914A02992309F486C08057803108F058
:103C80007FC081E00E94310810913D078091510270
:103C900018130AC0412F50E063E572E08FE397E00C
:103CA0000E947725892B61F01092500288E0EDE3A5
:103CB000F7E0A1E5B2E001900D928A95E1F7C9CF56
:103CC000809150028F5F80935002133009F040C002
:103CD00090913F07892F8770F0904007853029F435
:103CE000F0924F020E942106B4CF0DE110E0843023
:103CF00091F0282F30E08430F0F400914F0200233F
:103D0000D1F00150110B000F111F000F111F020FF6
:103D1000131F0F5F1F4F93FF10C061E0C8010E9487
:103D2000A00D882309F495CF6F2DC8010E94BB0E0A
:103D3000F8128FCFD7CF8901ECCF60E0C8010E9485
:103D4000A00D882309F485CFC8010E94F10AF0CFA5
:103D5000143009F07ECF80913F07682F70E0762FF6
:103D600066276627737090914007692B6F5F7F4FBE
:103D70002FE236E0409141078C700E947E0F69CFA0
:103D800080E00E941D0AE0913F07EF3F61F48091BF
:103D9000400781115ECF80E090E0892B09F459CF74
:103DA0000E94000056CFE7FD0DC000914207209110
:103DB00041074091400770E060E08E2F90E00E9444
:103DC000EC0F47CFE03C08F058C13091480237FF74
:103DD00040CF20914007822F90E08C0100951095F4
:103DE000000F111F000F111F007C1170EF730E2BBD
:103DF00095958795482F4370B42E80913D07853067
:103E000041F52C782C3029F50E94F30A8017910790
:103E100021F00F3F114009F01CCF8091400790E046
:103E2000982F88278827937000914107080F192F32
:103E3000111D0F5F1F4FF090420761E0C8010E9403
:103E4000A00D6F2D882309F404CFC8010E94BB0E7A
:103E500000CF680181E0C81AD108CC0CDD1CCC0C65
:103E6000DD1CCB2876019FEFE91AF90A80915D02EB
:103E70008823F9F036FF41C0C70160E071E00E947D
:103E80000524682F81E090E00E94BB0EC701F7FE79
:103E900002C081509F4F692F89E090E00E94BB0EC5
:103EA00080E090E0892B19F0C7010E940000109279
:103EB0005D028091480280FD39C080913D078430C9
:103EC00009F04FC0809140078978813009F0C1CE58
:103ED0006091410780E090E0892B19F0C7010E94B2
:103EE000000080E090E0892B09F4B3CE40914107B7
:103EF0006B2DC7010E940000ACCEB8016F7377270D
:103F000081E090E00E94BB0EB80136E075956795A0
:103F10003A95E1F789E090E00E94BB0E80E090E0E6
:103F2000892B29F2C8010E940000C1CF86FF0DC075
:103F30000E94F30A8E159F0509F4BFCFADEFEA1674
:103F4000A7E0FA060CF0B9CF84CE0E94F30A8017DE
:103F5000910709F4B2CF0F3FB1E01B0709F4ADCFD1
:103F600078CE833069F540914007E42FE170CE2E82
:103F700043FBDD24D0F880E090E0892B31F04770DE
:103F80002D2DB801C7010E9400008091480286FFD4
:103F90000BC080E090E0892B09F45BCE4D2D6C2D99
:103FA000C7010E94000055CE80E090E0892B09F403
:103FB00050CE2D2D4C2D6B2DC8010E94000049CEF6
:103FC000863009F046CE80914007982F997891303D
:103FD00021F08F78803809F03CCE8091480286FF2E
:103FE00028C00E94F30A8E159F05E9F480914107CD
:103FF00090E0382F22272227337000914207020FCA
:10400000132F111D0F5F1F4FF09043079595879554
:1040100095958795837099278230910599F003973C
:1040200009F40BCF16CEFDEFEF16F7E0FF06F4F61E
:1040300010CE0E94F30A80179107C1F20F3F114082
:10404000A9F207CEF4FE05CE61E0C8010E94A00DE2
:10405000882309F4FECDC8010E94F10A9F2D9770B4
:1040600061E070E001C0660F9A95EAF7F3FE02C0C6
:10407000682BEBCE60956823E8CEE83E08F0E9CDEA
:10408000E05CFF0B809140070091430720914207BD
:104090004091410761E070E09E2F91CE0E9465043F
:1040A00000913F0210914002209141023091420262
:1040B000601B710B820B930B613F79448240910529
:1040C00008F4E8C10E94230FC4CD0EEA13E07AE0A1
:1040D000E72EF12CDD24D394E3E6CE2EF3E0BF2EC1
:1040E000A2E0AA2EBBE13B2ED8011B968D919C919C
:1040F000019709F03FC1F801E654F10980819181EF
:10410000329660807180680E791EF801118A128AD9
:10411000168212861586168617861782108A138ACB
:104120001186158214829301359527954801FCE587
:104130008F1A9108F40161E070E086899789A72FB2
:10414000A69541E050E04C0F5D1F4A0F511DDA016A
:1041500041E0281739070CF040E04C93713248F4E5
:10416000408D518D840F951F8E579109C19708F48A
:1041700060E07E5F3496743201F7FE013196CE9C8A
:104180009001CF9C300D112440E357E0421B530BAC
:1041900090E080E0708171118FC071817111A6C0B3
:1041A000D401A80FB91F1D961C9201963296893032
:1041B000910581F7F80180819181A281B3818551B8
:1041C0009540A109B10983359B40A105B10508F0CF
:1041D00035C1662309F432C181E046E964167104F1
:1041E0000CF080E0D80151968C93F801EC54F10961
:1041F000908131978081B9E08B9F802D1124939D10
:10420000800D112432979081890F31964081942F2F
:10421000990F940F890FF8018683EB54F10946E951
:10422000641671040CF4F5C081E09081913009F0BE
:1042300080E0D8011D968C938989880F9F85890F0E
:10424000880F9D85890F880F9B85890F91E009F064
:1042500090E0F801968791E0813009F090E0D80174
:104260001F969C9381118150F8018783828988234E
:1042700009F456C08C85880F9E85890F880F988910
:10428000890F880F9A89890FEEEFE80FEE3008F05A
:1042900047C0F0E0E25BFE4D0C941924832183219A
:1042A0008B218B21F521F52190219021FA21FA21F2
:1042B000FE21FE21032203227130C1F42180A1E0FE
:1042C0002A1206C0DA01A80FB91F1D962C926DCFD5
:1042D00021100CC0D401A80FB91F1D96AC928530D7
:1042E00008F463CFD80152967C935FCF853048F0B5
:1042F000DA01A80FB91F1D96BC92D8015296DC9224
:1043000054CF60E057CFD8011996AC9219978170BD
:1043100053968C9305C041E050E0F80155834483E7
:1043200089E090E0FAE0EF16F10411F08E199F0990
:10433000D8011C965C924E921B97C89EB001C99EF4
:10434000700D1124FB01E754FC4F8081918102978D
:1043500089F4615A7C4F49E050E08DE397E0821B7D
:10436000930B0E947725892B29F423E030E0F80194
:1043700034872387F1E0EF1AF1080D591F4FE1143C
:10438000F10409F0B1CEE9EBF3E090E080E02081A8
:1043900031812330310509F059C023E6289F80017F
:1043A000299F100D1124F801E754FC4F84E090E0A0
:1043B00091838083015A1C4F0115110509F04EC0ED
:1043C0000E94650400913F02109140022091410239
:1043D00030914202601B710B820B930B613F794459
:1043E0008240910508F456C06DCED8011996BC9252
:1043F00019978DCFF8015582448292CFD801199632
:10440000DC92199784CF44E0F80141878170838B57
:1044100087CF8081811112C08F85880F9D85890F7C
:10442000880F9B85890FD8011A968C9381E0998912
:10443000913009F080E0F801808B72CFE5E0F0E088
:10444000D8011C96FC93EE931B9794CF0196ED59DF
:10445000FF4F8A30910509F09ACFB2CF0E946504D0
:1044600060933F0270934002809341029093420216
:10447000F801EB5AFF4FE080F12CC0903502D12CAF
:10448000C7018C199D098130910509F496C024F467
:10449000892B29F1A89505C98230910509F4D7C067
:1044A0000397C1F780E390E00E94D70A83FFF2CF21
:1044B00080912F02F801E85AFF4F9081923009F461
:1044C00027C108F00CC1913009F416C120912F02C8
:1044D00044E050E070E060E0C701039787C080913E
:1044E0003202F801E45AFF4F9081992359F180611B
:1044F0008093320280913202F801E85AFF4F908196
:104500009230D1F108F5913059F12091320241E019
:1045100050E070E060E0C7010E94430BF801ED5AE3
:10452000FF4F8081918181309105E1F533960DE156
:1045300010E021E030E0408170E060E0C6010E94C0
:104540008B0AA8CF8F7ED4CF933001F19430E9F657
:10455000F801EE59FF4F9081992311F1886007C04F
:10456000F801EE59FF4F9081992321F081608093EB
:104570003202CBCF8E7FFBCFF801EE59FF4F9081F7
:10458000992311F08260F3CF8D7FF1CFF801EE59BE
:10459000FF4F9081992311F08460E9CF8B7FE7CFA3
:1045A000877FE5CF029709F075CFF801EA5AFF4FF0
:1045B0000DE110E030E020E0BECF80E390E00E940B
:1045C000D70A81FF67CF80913102F801E85AFF4F87
:1045D0009081923031F168F49130B9F0209131023C
:1045E00042E050E070E060E0C70101970E94430B99
:1045F00051CF933001F1943089F7F801EE59FF4F14
:104600009081992311F1886007C0F801EE59FF4F9E
:104610009081992321F0816080933102DFCF8E7FDA
:10462000FBCFF801EE59FF4F9081992311F0826082
:10463000F3CF8D7FF1CFF801EE59FF4F9081992391
:1046400011F08460E9CF8B7FE7CF877FE5CF80E3F0
:1046500090E00E94D70A82FF1DCF80913002F801BE
:10466000E85AFF4F9081923021F158F49130A9F02F
:104670002091300243E050E070E060E0C701029713
:10468000B5CF933001F1943099F7F801EE59FF4F0F
:104690009081992311F1886007C0F801EE59FF4F0E
:1046A0009081992321F0816080933002E1CF8E7F49
:1046B000FBCFF801EE59FF4F9081992311F08260F2
:1046C000F3CF8D7FF1CFF801EE59FF4F9081992301
:1046D00011F08460E9CF8B7FE7CF877FE5CF933000
:1046E00009F1943009F0F2CEF801EE59FF4F9081B4
:1046F000992311F1886007C0F801EE59FF4F9081AE
:10470000992321F0816080932F02E0CE8E7FFBCF32
:10471000F801EE59FF4F9081992311F08260F3CF99
:104720008D7FF1CFF801EE59FF4F9081992311F061
:104730008460E9CF8B7FE7CF877FE5CF80915007FB
:1047400090915107892BB1F110E080914D07181716
:1047500088F5812F86958695869590E0E0915007A3
:10476000F0915107E80FF91F608170E0212F30E0D0
:1047700053E0880F991F5A95E1F7A901481B590B7F
:1047800002C0759567954A95E2F760FF11C0809168
:104790004E0790914F07009759F0220F331F820F59
:1047A000931F60914A07DC018D919C910E94A90999
:1047B0001F5FCBCF0E94650400913F021091400221
:1047C0002091410230914202601B710B820B930BCE
:1047D000603F79448240910508F074CCA895EACFF7
:1047E000E199FECF9FBB8EBBE09A99278DB30895C8
:1047F000262FE199FECF9FBB8EBB2DBB0FB6F89441
:10480000E29AE19A0FBE0196089597FB072E16F4DF
:10481000009407D077FD09D00E94222407FC05D020
:104820003EF4909581959F4F0895709561957F4FC7
:104830000895EE0FFF1F0024001C0BBE0790F69199
:10484000E02D0994AA1BBB1B51E107C0AA1FBB1F87
:10485000A617B70710F0A61BB70B881F991F5A950C
:10486000A9F780959095BC01CD0108950F931F93F2
:10487000CF93DF93869F8001879F100D969F100D29
:104880001124C8010E945224EC01009729F0A801CC
:1048900070E060E00E948425CE01DF91CF911F91EE
:1048A0000F9108950F931F93CF93DF93823091055B
:1048B00010F482E090E0E091F207F091F30730E02D
:1048C00020E0B0E0A0E0309799F42115310509F41B
:1048D0004AC0281B390B24303105D8F58A819B81C9
:1048E0006115710589F1FB0193838283FE0111C07B
:1048F000408151810281138148175907E0F0481720
:10490000590799F4109761F012960C931297139629
:104910001C933296CF01DF91CF911F910F91089593
:104920000093F2071093F307F4CF2115310551F0EE
:104930004217530738F0A901DB019A01BD01DF01DD
:10494000F801C1CFEF01F9CF9093F3078093F207FD
:10495000CDCFFE01E20FF31F8193919322503109D5
:1049600039832883D7CF2091F0073091F107232B8B
:1049700041F420911201309113013093F1072093FB
:10498000F00720911001309111012115310541F4FA
:104990002DB73EB74091140150911501241B350BE2
:1049A000E091F007F091F107E217F307A0F42E1B56
:1049B0003F0B2817390778F0AC014E5F5F4F241783
:1049C000350748F04E0F5F1F5093F1074093F007F3
:1049D000819391939FCFF0E0E0E09CCFCF93DF9362
:1049E0000097E9F0FC01329713821282A091F2073E
:1049F000B091F307ED0130E020E01097A1F42081A1
:104A00003181820F931F2091F0073091F107281711
:104A1000390709F061C0F093F107E093F007DF91E7
:104A2000CF910895EA01CE17DF07E8F54A815B814F
:104A30009E0141155105B1F7E901FB83EA834991D4
:104A40005991C40FD51FEC17FD0761F48081918146
:104A50000296840F951FE90199838883828193814F
:104A60009B838A83F0E0E0E012968D919C911397EE
:104A70000097B9F52D913C911197CD010296820FC7
:104A8000931F2091F0073091F1072817390739F665
:104A9000309751F51092F3071092F207B093F10797
:104AA000A093F007BCCFD383C28340815181840F90
:104AB000951FC817D90761F44E5F5F4F88819981B0
:104AC000480F591F518340838A819B81938382833E
:104AD0002115310509F0B0CFF093F307E093F20709
:104AE0009ECFFD01DC01C0CF13821282D7CFFB0124
:104AF000DC0104C08D910190801921F44150504097
:104B0000C8F7881B990B0895DC0101C06D934150D3
:0A4B10005040E0F70895F894FFCF3D
:104B1A00C2010000000000000000000000000000C8
:104B2A000000F40780001D00021D0022EB07E607C3
:104B3A00E107DC07D707D207CD07C807C307BE07B7
:104B4A00B907B407AF07AA07A507A0079B079607E7
:104B5A0091078C07870782077D07780773076E0717
:104B6A00690764075F075A07550700000000BD027E
:104B7A007B035F02040390026E02820200000000BF
:0E4B8A00AB069806BC066E0691067E066F0608
:00000001FF
