:100000000C946E010C94D61C0C94AB1C0C94801CAC
:100010000C94551C0C942A1C0C94FF1B0C94D41BA0
:100020000C94A91B0C9498010C9498010C949801C1
:100030000C94341E0C9498010C9498010C94980123
:100040000C945F1B0C9498010C94291B0C94FF1AC0
:100050000C9498010C9498010C9498010C949801BC
:100060000C9498010C9498010C9498010C949801AC
:100070000C9498010C94251E0C9498010C949801F2
:100080000C9498010C94011D0C9498013F030000FE
:100090000000000B0D0000000000000101C0800006
:1000A000000000000000000000060000000000004A
:1000B0000000000000000000000000000000000040
:1000C000000000000000FF0300000000000000002E
:1000D0000000000000000000000000000000000020
:1000E0000000000000000000000000000000000010
:1000F0000000000000000000000000000100AA0055
:100100000200AA000300AA000400AA000500AA0039
:100110000600AA000700AA000800AA000900AA0019
:100120000A0080000B0080000C0080000D008000A1
:100130000E0080000F008000100080001100800081
:10014000120080001300AA001400AA000000AA00F8
:100150000000AA000000AA000000AA000000AA00F7
:100160001580FF001581FF00FF000000FF00000068
:10017000FF000000FF000000FF000000FF00000083
:10018000FF000000FF000000FF000000FF00000073
:10019000FF000000FF000000FF0000000000000062
:1001A000000000000000000000000000000000004F
:1001B00000000000000000000000003A003700349A
:1001C00000310022006100640000003B003800356F
:1001D0000032002300620065007000740078007C2B
:1001E000008000840088008C009000940098009C9F
:1001F00000A000A400A800AC00B000B400B800BC8F
:1002000000C000C400C800CC00D000D400D800DC7E
:1002100000E000E400E800EC00F000F400F800FC6E
:10022000000001040108010C010000390036003310
:1002300000300021002000630005050505050505C7
:100240000502020202020202020707040404040477
:100250000404040707030303030303030307010163
:100260000101010101010606060606060606010255
:10027000040810204080010204081020408008106B
:10028000010204081020408001020102040810202D
:10029000408004804020100804020101020408107C
:1002A0002040800000000A0B0C000000000000014C
:1002B000040506000000000000000000000000002F
:1002C000000000000000000000000000000000002E
:1002D0000000000000000000691FE82811241FBE74
:1002E000CFEFD0E1DEBFCDBF11E0A0E0B1E0E8E7A5
:1002F000F5E500E00BBF02C007900D92AA37B107E9
:10030000D9F728E0AAE7B1E001C01D92AE30B207EC
:10031000E1F711E0CDE6D1E004C02197FE010E9493
:100320003D29CC36D107C9F70E94F6210C94AF2A9B
:100330000C94000020916807309169072115310560
:1003400049F090E0880F991F820F931FFC01808174
:100350009181089590E080E008952091970281E0D6
:10036000213208F044C0809173028111FCCF80914A
:10037000960292E09093730291E0909372029FEF45
:10038000909371021092700220936F02A6E7B2E080
:10039000EFE4F2E090E0291331C010924E02909108
:1003A0004E02880F892B80934E0280914D0281303E
:1003B00049F510924D0280914E0280937300809116
:1003C000740083FDF8CF85EC8093740080917302F4
:1003D0008230E1F3809171028F3FB1F08091710220
:1003E0008032A1F080917102803391F084E010920C
:1003F0007502109297021092740208953D91319304
:100400009F5FC9CF85EEE0CF80E0F1CF82E0EFCFF4
:1004100083E0EDCF089581E0809345020895FC01CB
:10042000538D448D252F30E0842F90E0821B930B59
:10043000541710F0CF96089501970895FC01918DFF
:10044000828D981761F0A28DAE0FBF2FB11D5D9602
:100450008C91928D9F5F9F73928F90E008958FEFA4
:100460009FEF0895FC01918D828D981731F0828D58
:10047000E80FF11D858D90E008958FEF9FEF0895AF
:10048000FC01918D228D892F90E0805C9F4F821B13
:1004900091098F7399270895FC01A48DA80FB92F96
:1004A000B11DA35ABF4F2C91848D90E001968F739C
:1004B0009927848FA689B7892C93A089B1898C91BB
:1004C00080648C93938D848D981306C00288F38981
:1004D000E02D80818F7D80830895EF92FF920F93AE
:1004E0001F93CF93DF93EC0181E0888F9B8D8C8DE0
:1004F000981316C0E889F989808185FF11C0EE89BB
:10050000FF896083E889F98980818064808381E044
:1005100090E0DF91CF911F910F91FF90EF900895A0
:10052000F62E0B8D10E00F5F1F4F0F731127E02E7B
:100530008C8D8E110CC00FB607FCFACFE889F989B3
:10054000808185FFF5CFCE010E944C02F1CFEB8D6B
:10055000EC0FFD2FF11DE35AFF4FF0820B8FEA895C
:10056000FB8980818062D2CFCF93DF93EC01888DAD
:100570008823B9F0AA89BB89E889F9898C9185FD1E
:1005800003C0808186FD0DC00FB607FCF7CF8C91AC
:1005900085FFF2CF808185FFEDCFCE010E944C0216
:1005A000E9CFDF91CF91089589EC92E00E9440025B
:1005B00021E0892B09F420E0822F089580E090E06B
:1005C000892B29F00E94D40281110E94000080E052
:1005D00090E0892B49F080E090E0892B29F00E947F
:1005E000000081110C94000008950895E091040228
:1005F000F0910502309729F010927502109297023F
:1006000009940895CF93DF93AC01E0910602F09135
:1006100007023097F1F0909103028091020298173F
:10062000C0F090E0292F30E02617370754F4D901A5
:10063000A458BE4F240F351FE90128812C939F5FDA
:10064000F1CF1092030260930202CB01DF91CF91B0
:100650000994DF91CF910895DC011296ED91FC9100
:10066000139711969C911197808161110EC09095FE
:10067000982390831496ED91FC9115979081119693
:100680008C918095892380830895623061F49095E0
:10069000982390831496ED91FC9115978081119683
:1006A0009C91892BF0CF982B90830895AF92BF92A5
:1006B000CF92DF92EF92FF920F931F93CF93DF932E
:1006C0006C017B018B01040F151FEB015E01AE185D
:1006D000BF08C017D10759F06991D601ED91FC917F
:1006E0000190F081E02DC6010995892B79F7C501AC
:1006F000DF91CF911F910F91FF90EF90DF90CF90FE
:10070000BF90AF90089581508C3088F5E82FF0E0CD
:10071000E457FC4F0C943D29B403B403B70398038A
:100720009C039F03A203B703B703A603AC03B00364
:100730008FB58F778FBD08958FB58F7DFBCF8FB528
:10074000877FF8CF85B58F7D85BD089580918B001B
:100750008F7780938B00089580918B008F7DF9CFE8
:1007600080918B00877FF5CF83B78F7D83BF0895FE
:100770001F93CF93DF93282F30E0F901ED55FD4F04
:100780008491F901E259FD4FD491F901E75CFD4FE5
:10079000C491CC23A9F0162F81110E948303EC2F62
:1007A000F0E0EE0FFF1FE753FE4FA591B4918FB716
:1007B000F894EC91111108C0D095DE23DC938FBF23
:1007C000DF91CF911F910895DE2BF8CFCF93DF9368
:1007D00090E0FC01E259FD4F2491875C9D4FFC01A4
:1007E00084918823D1F090E0880F991FFC01E75491
:1007F000FE4FA591B491FC01E753FE4FC591D491F2
:1008000061110EC09FB7F8948C91E22FE0958E2372
:100810008C932881E223E8839FBFDF91CF910895D5
:100820008FB7F894EC91E22BEC938FBFF6CF3FB7E4
:10083000F8948091F8019091F901A091FA01B0919A
:10084000FB0122B706B600FE05C02F3F19F0019646
:10085000A11DB11D3FBFBA2FA92F982F8827BC011A
:10086000CD01620F711D811D911D42E0660F771F42
:10087000881F991F4A95D1F708958F929F92AF9242
:10088000BF92CF92DF92EF92FF924B015C010E94E8
:1008900017046B017C010E9417046C197D098E09F5
:1008A0009F09683E734081059105A8F321E0821AF3
:1008B0009108A108B10888EEC80E83E0D81EE11C9B
:1008C000F11C81149104A104B10429F7FF90EF9069
:1008D000DF90CF90BF90AF909F908F90089561E090
:1008E0008BE00E94B80364E070E080E090E00E943A
:1008F0003D0460E08BE00C94B8030C946F042FB7B8
:10090000F8946091F4017091F5018091F601909155
:10091000F7012FBF0895E82FF0E0DF01AA0FBB1FFA
:10092000A050BF4F11967C936E938830A8F4E55683
:10093000FB4F0C943D29A304AD04BA04C804D604AB
:10094000DD04E804F40480916A008C7F482B409316
:100950006A0089B7816089BF089580916A00837FAA
:10096000440F551F440F551F482B40936A0089B709
:100970008260F1CF80916A008F7C74E0440F551F34
:100980007A95E1F7482B40936A0089B78460E3CFFA
:1009900080916A008F7366E0440F551F6A95E1F7F6
:1009A000482B40936A0089B78860D5CF8AB78C7F7F
:1009B000482B4ABF89B78061CECF8AB7837F440F67
:1009C000551F440F551F482B4ABF89B78062C3CFBC
:1009D0008AB78F7C24E0440F551F2A95E1F7482BF6
:1009E0004ABF89B78064B7CF8AB78F7396E0440F48
:1009F000551F9A95E1F7482B4ABF89B78068ABCF5E
:100A0000883010F40C948B0408950E9417042091F0
:100A1000F1013091F201FB01E21BF30B2091B002D6
:100A20003091B102E217F30708F438C12091B20205
:100A30003091B3027093F2016093F1014091B402DE
:100A40005091B5024130510599F148F042305105BD
:100A500009F4B9C04330510509F4EFC00895E21715
:100A6000F30708F0D4C08091B7028F5F8093B7027C
:100A70008B3008F413C181E090E09093B50280932D
:100A8000B40241E050E065E075E08091AA020E9466
:100A900000051092F00182E590E09093B3028093FC
:100AA000B20283E290E09093B1028093B002089585
:100AB0004091F0014130A9F038F0433009F449C0C9
:100AC000443009F47CC00895E217F30730F491E054
:100AD0009093F001E093EF01089584E08093F0019A
:100AE0000895E217F30798F51092F0019091B7027C
:100AF0009F5F9093B7028E2FEE0F990B2091EF011D
:100B0000821B910927FD939597FF03C091958195CD
:100B1000910949970CF4C2C01092B5021092B40228
:100B200082E990E09093B3028093B20282E590E074
:100B30009093B1028093B0021092B7024091980254
:100B400050E065E075E08091AA020C94000583E016
:100B5000C5CFE217F30700F380919802833061F567
:100B600082E08093980282E090E09093B5028093B7
:100B7000B40282E990E09093B3028093B20282E5DE
:100B800090E09093B1028093B0021092B90210925B
:100B9000BB021092BC021092BD021092BE021092D3
:100BA000BF021092C0028091B7028093BA021092E5
:100BB000B7021092B802C2CF40939802D4CFE21786
:100BC000F30788F6A9CF5091B7025F5F5093B70241
:100BD0004091B802440FE217F307E0F04093B802E7
:100BE000583009F05BC0E091B902E630A9F41092E8
:100BF000B5021092B40282E990E09093B302809320
:100C0000B20282E590E09093B1028093B00210921C
:100C1000B70208954160E2CF83E090E09093B5027F
:100C20008093B40281E08E0F8093B902F0E0EC541F
:100C3000FD4F8091B80287830895E217F307F8F417
:100C40001092B5021092B4021092B70282E990E0BD
:100C50009093B3028093B20282E590E09093B10248
:100C60008093B00288E0E9EBF2E0A1ECB2E0019001
:100C70000D928A95E1F781E08093B6020895809104
:100C8000B902863009F4B3CF82E090E09093B502C8
:100C90008093B4021092B7021092B802089580E0D7
:100CA00090E0892B29F08091AF0283FD0C94000025
:100CB0000895E82FF0E0E65FFD4F608308950F93FD
:100CC0001F93CF93DF93FC018281813089F040F044
:100CD000823009F47AC0DF91CF911F910F9108956E
:100CE00061E08081DF91CF911F910F910C94B80347
:100CF0000181C02FD0E0108161E0812F0E94E603C6
:100D0000209719F460E0812FEDCFCF3FD10511F48A
:100D100061E0F9CFE12FF0E0ED55FD4FE491E150B6
:100D2000EC3008F04DC0F0E0E856F94F0C943D2946
:100D3000A406A406E006A906AF06B506BD06E006B1
:100D4000E006C206CC06D60683B7806283BF01BF29
:100D5000C2CF8FB580688FBDDBBDCABDBCCF8FB59C
:100D600080628FBDD9BDC8BDB6CF8FB588608FBD3D
:100D7000D0937900C0937800AECF85B5806285BDF1
:100D800003BDA9CF80918B00806880938B00D093A6
:100D90008700C09386009FCF80918B0080628093F4
:100DA0008B00D0938500C093840095CF80918B00F9
:100DB000886080938B00D0938300C09382008BCF98
:100DC000C038D1050CF0A4CF9DCF8181E381F0E044
:100DD000E65FFD4F80837FCF0F931F93CF93DF9309
:100DE000D62F8C01C0E0CD1741F0F801819191918F
:100DF0008F010E945F06CF5FF6CFDF91CF911F91E9
:100E00000F910895CF93DF93DC01EC91F0E0EE0FAA
:100E1000FF1FE75DFD4FC591D491988111968C918C
:100E2000982381E009F480E0DF91CF910895DC01FF
:100E300070E0FB01E259FD4FE4911196EC9311979C
:100E4000675C7D4FFB0124912C9330E0220F331F10
:100E5000F901E754FE4F8591949113969C938E93DC
:100E60001297F901E753FE4F8591949115969C9343
:100E70008E9314970895FC018081813089F4CB0111
:100E8000845893408897C0F06138F3E07F07A1F061
:100E90006C5F734081E06530710578F080E0089503
:100EA000823021F4CB018C5A9340ECCF833061F730
:100EB000CB01845D9340E6CF81E00895CF93DF932B
:100EC000FC0121812F3FF9F0EC0161E0858D968DC9
:100ED0000E942C03AD8DBE8D1496ED91FC9115975B
:100EE000908111968C9180958923808361E070E0D8
:100EF00080E090E00E943D0460E08D8D9E8DDF914A
:100F0000CF910C942C0380E090E0892B21F0DF91AD
:100F1000CF910C940000DF91CF91089585ED8093DF
:100F200074008091740084FDFCCF109273020895C8
:100F30002091BC01260F3327331F21323105ECF4F9
:100F400020917302FC0190E080E0243069F082E09F
:100F50000895A091BC012191AC0144565E4FA40FAD
:100F6000B52FB11D2C930196861798F38091BC0183
:100F7000680F6093BC0180E0089581E008950895B2
:100F8000E091030280910202E81730F4F0E0E458A7
:100F9000FE4F808190E008958FEF9FEF089590912C
:100FA0000302809102022FEF3FEF981748F4E92FD8
:100FB000F0E0E458FE4F208130E09F5F9093030201
:100FC000C90108958091020290910302891B990B37
:100FD0000895CF92DF92EF92FF920F931F93CF93DA
:100FE000DF937C01CB018A0120917402222389F0D6
:100FF000EB016B01C40ED51ECC15DD0569F06991BE
:10100000D701ED91FC910190F081E02DC701099588
:10101000F3CF642F0E949807C801DF91CF911F91F1
:101020000F91FF90EF90DF90CF900895CF93DF93D3
:101030001F92CDB7DEB76983209174022223F9F0A5
:1010400020919702203258F021E030E0FC013383F8
:10105000228390E080E00F90DF91CF9108958091FE
:101060007502E82FF0E0EA58FD4F998190838F5F79
:10107000809375028093970281E090E0ECCF61E06D
:10108000CE0101960E949807F7CF90E080E0089586
:101090000F931F93CF93DF9300D000D01F92CDB753
:1010A000DEB790913B02992329F189836A834B83B0
:1010B00010E001E080913B021817E0F4E091260275
:1010C000F0912702E10FF11D80810093740280935B
:1010D0009602109275021092970245E050E0BE0110
:1010E0006F5F7F4F86E693E00E94E9070E94AD01A3
:1010F0001F5FE0CF0F900F900F900F900F90DF9138
:10110000CF911F910F91089590913B0291110C94F2
:10111000480808958F929F92AF92BF92CF92DF922C
:10112000EF92FF920F931F93CF930E941704AB018E
:10113000BC018091740390917503A0917603B091E6
:1011400077038A019B01081B190B2A0B3B0B80912B
:101150007C03882309F47FC080917E0390917D03F6
:10116000E92FEE0FFF0BA82F082E000CBB0BC3E6D8
:101170008C02E00DF11D1124EE58FC4F178B068BED
:10118000053F11402105310508F054C09F5F909341
:101190007D0390917D039332C9F593E69A9F900168
:1011A0009B9F300D11242E583C4FF901E45AFF4FFC
:1011B000C0907803D0907903E0907A03F0907B039D
:1011C0004A015B018C189D08AE08BF0875016401D7
:1011D000C082D182E282F38229593F4FE1E0F0E000
:1011E000D901ED93FC938F5F8A3094F580937E0351
:1011F000E0917E03B3E6EB02F0011124E752FC4FCD
:101200001182108210927C0310927D03409374032C
:10121000509375036093760370937703CF911F917A
:101220000F91FF90EF90DF90CF90BF90AF909F9085
:101230008F90089510927D0391E090937C034093EA
:1012400078035093790360937A0370937B03A1CF63
:1012500010927E03CDCF053F114021053105B0F23C
:1012600081E080937C0340937803509379036093EB
:101270007A0370937B03CACFE82FF0E0E65FFD4F5F
:1012800060830895CF93FC018281813051F020F07A
:10129000823079F0CF91089560E08081CF910C94F5
:1012A000B803C08161E08C2F0E94E60360E08C2FC0
:1012B000F5CFE381F0E0E65FFD4F1082EBCF809346
:1012C0004602882361F00FB6F894A89581B588612D
:1012D00081BD11BC0FBE85E098E00C945F0685E0EF
:1012E00098E00E94420988E19BE00FB6F894A89527
:1012F00081BD0FBE91BD0895CF93C82F80919B02F1
:101300008C1731F081E0C11101C080E00E945F09BB
:10131000C0939B0260E070E0CB01C1110E947F048A
:1013200060939C0270939D0280939E0290939F0213
:1013300080919B028C1739F081E0C11101C080E0DF
:10134000CF910C945F09CF910895EF92FF920F9384
:101350001F93CF93DF938C01FC01C581D681209729
:1013600051F0E480F12CEF1431F0899199910E94B1
:101370004209F394F8CFF801C085D185209751F048
:10138000078110E0011731F0899199910E9442097B
:101390001F5FF8CFDF91CF911F910F91FF90EF90DA
:1013A000089520916807309169072115310551F0A2
:1013B00090E0880F991F820F931FFC01808191811B
:1013C0000C94A5090895CF9380916A07882369F149
:1013D00080916B0790916C07892B29F1C0E0809177
:1013E0006707C81700F58C2F86958695869590E03F
:1013F000E0916B07F0916C07E80FF91F208130E056
:1014000043E0880F991F4A95E1F74C2F481B02C013
:10141000359527954A95E2F720FF03C08C2F0E944F
:10142000D109CF5FDCCF10926A07CF9108950F9357
:101430001F93CF93DF93209168073091690721159F
:10144000310571F190E0880F991F820F931FFC0105
:10145000C081D1818B81882391F000916207109126
:10146000630789819A810817190729F0CE010E9424
:10147000A5091A83098389819A81019731F48D81A5
:101480009E81009769F06C8105C0888599850097D9
:1014900039F06F81DF91CF911F910F910C94EC0681
:1014A000DF91CF911F910F910895CF9380916A079B
:1014B000811138C0C0E080916707C81728F48C2FCD
:1014C0000E94D109CF5FF7CF80916B0790916C0795
:1014D000892B29F1C0E080916707C81700F58C2F90
:1014E00086958695869590E0E0916B07F0916C0764
:1014F000E80FF91F208130E043E0880F991F4A95DB
:10150000E1F74C2F481B02C0359527954A95E2F725
:1015100020FF03C08C2F0E94170ACF5FDCCF81E031
:1015200080936A07CF9108952091620730916307F5
:101530002817390761F090936307809362078091C1
:101540006A07882321F00E94E3090C94550A089544
:101550000F931F93CF93DF9350913A02511106C01E
:101560006115710541F061307105D9F0DF91CF91BE
:101570001F910F91089550915D075817190629F092
:10158000509160075817190689F70D31110579F147
:10159000642F0F371105B9F00F30110551F06FE7C7
:1015A00012C060915E0770915F078617970769F315
:1015B000DDCF4E30E0F450E8459FC00111246EE0CD
:1015C00070E00E9407292223D9F06068132FD22FE0
:1015D000C42F40E085E20E944808C09366078D2F23
:1015E000912FDF91CF911F910F910C94940A4C3160
:1015F000B0F650E8459FC00111246CE170E0E1CFE6
:101600006F77E4CFCF93C62F8230910509F456C08F
:1016100020F4019769F1CF9108958330910509F481
:101620008BC00497C1F785E160FFC0C00E94170A14
:1016300086E1C1FFBEC00E94170A87E1C2FFBCC09D
:101640000E94170A88E1C3FFBAC00E94170A89E105
:10165000C4FFB8C00E94170A8AE1C5FFB6C00E9445
:10166000170A8BE1C6FFB4C00E94170A8CE14AC07A
:1016700080E064FF17C00E94170A81E0C0FF15C018
:101680000E94170A82E0C1FF13C00E94170A83E07C
:10169000C2FF11C00E94170A84E0C3FF35C0CF917A
:1016A0000C94170A0E94D109E8CF0E94D109EACF11
:1016B0000E94D109ECCF0E94D109EECF85E060FFF6
:1016C00026C00E94170A86E0C1FF24C00E94170AA4
:1016D00087E0C2FF22C00E94170A88E0C3FF20C033
:1016E0000E94170A89E0C4FF1EC00E94170A8AE000
:1016F000C5FF1CC00E94170A8BE0C6FF1AC00E94DB
:10170000170A8CE0C7FDCBCFCF910C94D1090E9472
:10171000D109D9CF0E94D109DBCF0E94D109DDCFF9
:101720000E94D109DFCF0E94D109E1CF0E94D109E7
:10173000E3CF0E94D109E5CF8DE060FF22C00E9477
:10174000170A8EE0C1FF20C00E94170A8FE0C2FF77
:101750001EC00E94170A80E1C3FF1CC00E94170A26
:1017600081E1C4FF1AC00E94170A82E1C5FF18C0B8
:101770000E94170A83E1C6FF16C00E94170A84E17F
:10178000C1CF0E94D109DDCF0E94D109DFCF0E94D5
:10179000D109E1CF0E94D109E3CF0E94D109E5CF61
:1017A0000E94D109E7CF0E94D109E9CF0E94D10957
:1017B0003FCF0E94D10941CF0E94D10943CF0E945F
:1017C000D10945CF0E94D10947CF0E94D10949CF05
:1017D0000E94D1094BCF0E947C09E9E9F2E081E047
:1017E00087831086E2EAF2E088E0DF011D928A95A5
:1017F000E9F708950C94F228DF92EF92FF920F938D
:101800001F93CF93DF93D82E7B0181E090E00E945D
:10181000FA0B90E000915D0710E0C0916007D0E006
:101820008017910721F08C179D0709F050C0D092C6
:101830006607EA94EF2809F04DC08DE190E00E9420
:10184000FA0BF82E81E090E00E94FA0B90E0081766
:10185000190721F08C179D0799F4CE018C179D076D
:10186000B9F48091640790916507019749F08091E0
:101870006107882309F44AC0109265071092640733
:10188000DF91CF911F910F91FF90EF90DF9008951E
:101890008091620790916307019791F3F0FE10C069
:1018A0001092630710926207EBCF0C171D0711F11E
:1018B0008091620790916307892B11F3F0FEF0CFBE
:1018C00081E090E09093630780936207D9CFEA9418
:1018D000EF28B1F28DE190E00E94FA0BF82E81E042
:1018E00090E00E94FA0B90E080179107F1F28C17BC
:1018F0009D0731F68091640790916507892B09F463
:10190000BFCF80916107882309F4B6CF81E090E0D2
:101910009093650780936407B3CFCF93863823E015
:10192000920719F130F481389340D1F08FEFCF91C5
:101930000895873823E09207D9F088389340B1F7AB
:1019400086E893E00E94FA0BC82F87E893E00E9494
:10195000FA0B90E02FEFC29F800D911D112402C061
:1019600081E893E0CF910C94FA0B86E893E0FACFEC
:1019700087E893E0F7CFCF93C82F8FE290E00E94E3
:10198000FA0B811109C085E190E0CC2311F086E1CA
:1019900090E0CF910C94FA0B80E0CF910895CF9313
:1019A000C82F8FE290E00E94FA0B811106C08C2FA5
:1019B00090E0CA96CF910C94FA0B80E0CF910895F5
:1019C0001F93CF93DF93EC0180914602882359F057
:1019D0008FE090E00E94FA0B182F80E190E00E94C7
:1019E000FA0B181306C0CE01DF91CF911F910C9412
:1019F000FA0B85E098E00E944209FFCF0C94E00CBE
:101A0000CF93DF932091AC023091AD022F3F32078C
:101A100021F0C901DF91CF9108958091AF0287FF36
:101A20002BC086FF0FC089E090E00E94FE0CC82FFB
:101A300081E090E00E94FE0C9C2F9093AD02809379
:101A4000AC0215C089E090E00E94FE0CC82F81E036
:101A500090E00E94FE0C90E4C99F90011124207C2C
:101A600031708F73282B3093AD022093AC0280919C
:101A7000AC029091AD02CECF85FF0CC081E190E029
:101A80000E94FE0CC82F82E190E00E94FE0CC05C18
:101A9000DD0BD2CF81E090E00E94FE0C90E0CDCF34
:101AA000EF92FF920F931F93CF93DF9330913A02FF
:101AB000311107C06115710559F06130710509F4E4
:101AC00061C0DF91CF911F910F91FF90EF9008952A
:101AD00030915D073817190629F0309160073817E3
:101AE000190679F7C22F4330510509F409C108F0EE
:101AF00052C04130510509F472C04230510509F716
:101B0000822F8170F82E85E020FFE6C00E94170A20
:101B10000C2F027086E0C1FFE2C00E94170A1C2F42
:101B2000147087E0C2FFDEC00E94170ADC2FD87055
:101B300088E0C3FFDAC00E94170A80917A01FF2073
:101B400009F4D6C0816080937A0180917A010023E4
:101B500009F4D0C0826080937A0180917A011123C8
:101B600009F4CAC0846080937A0180917A01DD23F0
:101B700009F4C4C0886080937A0140E060917A01E2
:101B800081E621C060915E0770915F078617970715
:101B900009F4A8CF96CF4530510509F441C108F4A6
:101BA000FBC04630510509F08CCFD0917B0180E01D
:101BB00024FF11C00E94170AD061D0937B0140E03E
:101BC00060917B0180E6DF91CF911F910F91FF9093
:101BD000EF900C9448080E94D109DF7EEECF122FBF
:101BE0001071D0917B0180913702811155C0112372
:101BF00009F44DC00E94170AD061D0937B0140E0E8
:101C000060917B0180E60E9448088C2F8170E82E4D
:101C100081E0C0FF4BC00E94170A8C2F8270F82E03
:101C200082E0C1FF46C00E94170A0C2F047083E0B7
:101C3000C2FF42C00E94170ADC2FD87084E0C3FFA5
:101C40003EC00E94170A80917B011123D9F1806167
:101C500080937B0180917B01EE20B1F181608093C4
:101C60007B0180917B01FF2089F1826080937B0161
:101C700080917B01002361F1846080937B018091DE
:101C80007B01DD2339F1886080937B0198CF80E070
:101C90000E94D109DF7EB1CF8DE190E00E94FE0C61
:101CA00081FFB3CF80E0112399F3A4CF0E94D10923
:101CB000B4CF0E94D109B9CF0E94D109BDCF0E94F3
:101CC000D109C1CF8F7EC4CF8E7FC9CF8D7FCECFBC
:101CD0008B7FD3CF877FD8CF0E94D10919CF0E94A5
:101CE000D1091DCF0E94D10921CF0E94D10925CF52
:101CF0008E7F29CF8D7F2FCF8B7F35CF877F3BCFB7
:101D0000822F8170F82E89E020FF32C00E94170ACE
:101D10000C2F02708AE0C1FF2EC00E94170A1C2FF0
:101D200014708BE0C2FF2AC00E94170ADC2FD87003
:101D30008CE0C3FF26C00E94170A80917A01FF2021
:101D400019F1806180937A0180917A010023F1F08A
:101D5000806280937A0180917A011123C9F08064B6
:101D600080937A0180917A01DD23A1F0806803CF0E
:101D70000E94D109CDCF0E94D109D1CF0E94D109B3
:101D8000D5CF0E94D109D9CF8F7EDCCF8F7DE1CF17
:101D90008F7BE6CF8F77EFCE8DE020FF29C00E94AA
:101DA000170A8EE0C1FF27C00E94170A8FE0C2FF0A
:101DB00025C00E94170A80E1C3FF23C00E94170AB2
:101DC00081E1C4FF21C00E94170A82E1C5FF1FC044
:101DD0000E94170A83E1C6FF1DC00E94170A84E112
:101DE000C7FF1BC00E94170A40E06C2F82E6EBCEB3
:101DF0000E94D109D6CF0E94D109D8CF0E94D10923
:101E0000DACF0E94D109DCCF0E94D109DECF0E9437
:101E1000D109E0CF0E94D109E2CF0E94D109E4CFDD
:101E200085E120FF29C00E94170A86E1C1FF27C073
:101E30000E94170A87E1C2FF25C00E94170A88E1A5
:101E4000C3FF23C00E94170A89E1C4FF21C00E947A
:101E5000170A8AE1C5FF1FC00E94170A8BE1C6FF5F
:101E60001DC00E94170A8CE1C7FF1BC00E94170A01
:101E700040E06C2F83E6A7CE0E94D109D6CF0E9406
:101E8000D109D8CF0E94D109DACF0E94D109DCCF85
:101E90000E94D109DECF0E94D109E0CF0E94D10972
:101EA000E2CF0E94D109E4CF1F93CF93DF93EC01DF
:101EB000162F0E94F228181721F0612FCE010E94E0
:101EC000FA28CE01DF91CF911F910C94FA0BCF939A
:101ED000DF93863823E0920739F138F48138934054
:101EE000E9F08FEFDF91CF910895873823E09207D3
:101EF000F1F088389340A9F7C62F86E893E00E9456
:101F0000FA0BD82F87E893E00E94FA0B90E06C2F31
:101F10002FEFD29F800D911D112402C081E893E024
:101F2000DF91CF910C94540F86E893E0F9CF87E8C6
:101F300093E0F6CF0F931F93CF93DF930FB7F894EF
:101F4000D0E0C0E0FE01E457FF4F1491CE010E94A3
:101F5000F228181721F0612FCE010E94FA2821964D
:101F6000CD3281E0D80771F781E893E00E94F22832
:101F7000813029F061E081E893E00E94FA28CCE109
:101F8000D1E01FEF89919991FC0111830E945F06B6
:101F9000F1E0C235DF07B1F70FBFDF91CF911F919D
:101FA0000F9108951F93CF93DF93EC01162F08979D
:101FB00079F4662319F10E949A0F80E090E0892B52
:101FC000B9F0612FCE01DF91CF911F910C940000E9
:101FD00080E090E0892BA9F781E0C11590E1D90755
:101FE00008F080E0111105C0DF91CF911F91089595
:101FF00081E027972297C0F780E0F6CF80E090E05D
:10200000892BF9F681E0F0CF2F923F924F925F92A9
:102010006F927F928F929F92AF92BF92CF92DF92F8
:10202000EF92FF920F931F93CF93DF9300D000D0D6
:1020300000D0CDB7DEB78C01E0E0AE2EE0E0BE2EE2
:10204000F0E02F2EF0E03F2E412C512C3201439432
:10205000B0E08B2EB0E09B2E80E0C82E80E0D82E22
:10206000D8015B96ED91FC91309709F45BC24281F7
:10207000618180810E948408F801038CF48DE02D39
:10208000FD83EC838081803409F45BC108F04BC090
:10209000893209F4C4C108F5843209F4A7C198F45F
:1020A000813209F46FC1833209F478C1811113C000
:1020B000E0E0F0E0EF2B79F0AC81BD8111968C91DE
:1020C0000E94000008C0863209F47CC108F44DC0AB
:1020D000883209F498C180E015C28D3209F4BFC17D
:1020E00070F48B3209F4B0C108F4A4C1C114D10456
:1020F00091F3EC81FD81618185E090E08DC18F32AB
:1021000009F4C2C108F4B6C1803309F4C8C18133EF
:1021100011F7E0E0F0E0EF2BF1F2AC81BD81119618
:102120006C9182E0C6C1813609F4BCC080F580356F
:1021300009F45CC188F4823409F41AC108F40DC1B1
:10214000833449F6A114B10431F2AC81BD811196FA
:102150006C9184E090E0FEC08E3509F4ADC180360C
:1021600009F497C0813509F0B6CF8114910409F4C0
:10217000B2CFAC81BD8111968C9170E060E087FF99
:1021800003C061E070E080580E940000A4CF8D364B
:1021900009F49BC0A0F4833609F491C008F488C008
:1021A0008C3609F098CF80E090E0892B09F493CF2A
:1021B000AC81BD8111968C910E9400008CCF873735
:1021C00009F491C108F58E3609F085CFAC81BD8147
:1021D0001396ED91FC911497309709F4A3C1808177
:1021E0008F3609F078CF2114310409F474CF119699
:1021F0002C91622F661F6627661F8181B0E88B9F36
:10220000C0011124822B9AC08B3709F4DBC18F37B0
:1022100009F061CFAC81BD811196EC90F12CBFEF3C
:10222000EB1ABCEFFB0AB701C8010E943B078823E9
:1022300009F467C1E5E8EE16E3E0FE0609F461C1C2
:10224000FDEAEF16F3E0FF0609F482C225EDE2167F
:1022500023E0F20609F47CC234E8E31633E0F30627
:1022600059F04CEAE41643E0F40631F084EDE81648
:1022700083E0F80609F05EC2AC81BD8112968C91B4
:10228000883009F057C20E949A0FC8010E945E0769
:102290005FC2AC81BD8111966C9181E090E00E949B
:1022A000020B19CFEC81FD81618182E090E0F7CFD4
:1022B000AC81BD8111966C9183E090E0F0CFEC8110
:1022C000FD81618184E090E0EACFAC81BD8111960F
:1022D0006C911197862F8F7711968C93211431046E
:1022E00009F4F9CE661F6627661FD8015B96ED914B
:1022F000FC918181811121C081E08093EE01611107
:102300000EC08091EE0187FDE6CE60E090E00E9475
:1023100000008091EE018F5F8093EE01F2CF8091FB
:10232000EE0187FDD8CE61E090E00E940000809130
:10233000EE018F5F8093EE01F2CF90E00E940000EB
:10234000CACEA114B10409F4C6CEEC81FD8161812D
:1023500081E090E00E940000BECEA114B10409F417
:10236000BACEAC81BD8111966C9182E090E0F2CF43
:10237000A114B10409F4AFCEEC81FD81618183E049
:1023800090E0E8CFE0E0F0E0EF2B09F4A4CEAC81E0
:10239000BD8111968C910E9400009DCEE0E0F0E09E
:1023A000EF2B09F498CEAC81BD8111968C9190E011
:1023B00087FF05C0819590E09195819591090E94D4
:1023C000000089CEE0E0F0E0EF2B09F484CEAC8190
:1023D000BD8111968C9190E087FF05C0819590E0BA
:1023E0009195819591090E94000075CEEC81FD8147
:1023F000818170E060E087FF03C061E070E0805899
:102400000E94FC0B68CEC114D10409F464CEEC81A7
:10241000FD81618181E090E00E9400005CCEC114EA
:10242000D10409F458CEAC81BD8111966C9182E043
:1024300090E0F2CFC114D10409F44DCEEC81FD81BE
:10244000618183E090E0E8CFC114D10409F443CE68
:10245000AC81BD8111966C9184E090E0DDCFC11418
:10246000D10409F438CEAC81BD8111966C9186E01F
:1024700090E0D2CFC114D10409F42DCEEC81FD81BE
:10248000618187E090E0C8CFC114D10409F423CE64
:10249000AC81BD8111966C9188E090E0BDCFE0E009
:1024A000F0E0EF2B09F417CEAC81BD8111966C9151
:1024B00081E00E9400000FCEAC81BD811396ED91AA
:1024C000FC911497309771F180818F3509F003CE1C
:1024D00020E030E0232B09F4FECD918111968C9100
:1024E0000E940000F8CDEC81FD81E180F12CFFEF2E
:1024F000EF1AFCEFFF0AB701C8010E943B078111E8
:102500002AC081E0D8015B96ED91FC915C97238114
:102510003481148213825C963C932E935B978130B6
:1025200009F49ECD26960FB6F894DEBF0FBECDBF40
:10253000DF91CF911F910F91FF90EF90DF90CF909F
:10254000BF90AF909F908F907F906F905F904F90D3
:102550003F902F90089521E8E21623E0F20601F162
:1025600034E8E31633E0F30659F145E8E41643E0B6
:10257000F406A1F08CEAE81683E0F80609F19DEA7A
:10258000E91693E0F90651F0A4EDEA16A3E0FA0685
:10259000B9F0B5EDEB16B3E0FB0671F48AE002C0CA
:1025A000F8018081AC81BD8112969C919813A9CFCE
:1025B000C8010E945E07A5CFC7010E948D0CF2CF13
:1025C0008DE0F0CFEC81FD81F181F983EF2EF12CCC
:1025D0002FEFE21A2CEFF20AB701C8010E943B0765
:1025E000882309F48ECFAC81BD811296BC91BA8349
:1025F0008B2F90E09C0144E0359527954A95E1F7B3
:10260000E22FE170EE83E093ED019C0153E03595FC
:1026100027955A95E1F7F22FF170FB83F093EC01C7
:102620009C0135952795422F4170440F95958795CC
:10263000959587958170880F880F840FB170B80FBA
:10264000BC83B093EB0181E8E81683E0F806B9F4A7
:10265000D8018C918093EA01E130B1F18091EA01D7
:1026600090E00C8002C0959587950A94E2F78170FE
:102670009927BB81B817190609F043CF99CFE4E831
:10268000EE16E3E0FE0651F0FCEAEF16F3E0FF067B
:1026900029F024EDE21623E0F20691F58DE0809317
:1026A000EA019E819130D1F6C70184589340029788
:1026B00008F427CF89818B5A823008F422CF898190
:1026C000835D823008F41DCFD301C2010C8004C0A9
:1026D000880F991FAA1FBB1F0A94D2F72091EA0105
:1026E000EA81E3FF22C0822B8093EA016091EA0134
:1026F000C7010E94670F9091EA01891302CF58CF5A
:1027000035E8E31633E0F30651F04DEAE41643E012
:10271000F40629F085EDE81683E0F80611F48AE066
:10272000BECFC7010E948D0CBACF482F4095822F93
:102730008423DACFEC81FD816281C7010E94670F9B
:10274000D8015B96ED91FC919281891709F49DCD9A
:10275000B1E8EB16B3E0FB0609F0D3CE81E893E0D5
:102760000E94FA0BF8018083CCCEAF92BF92CF9239
:10277000DF92EF92FF920F931F93CF93DF93C0915D
:10278000FC01D091FD011091E90111111AC0FE0167
:1027900090E080E025813681232B09F05AC025E0A6
:1027A000289FF001299FF00D11243296EC0FFD1F98
:1027B000F093E801E093E701309709F43FC01482F9
:1027C0001382A090E701B090E801A114B104B1F127
:1027D0000E947F04C090E301D090E401E090E50105
:1027E000F090E6016C197D098E099F096A30710528
:1027F00081059105C8F11092E9010E947F04609360
:10280000E3017093E4018093E5019093E6018D8DDF
:102810009E8D0E940207F5019081882319F1916035
:10282000908381E08093E9010E9417046093DF01A7
:102830007093E0018093E1019093E201DF91CF91E9
:102840001F910F91FF90EF90DF90CF90BF90AF90CE
:102850000895019635968530910509F09BCFF0E0FB
:10286000E0E0A6CF9E7FDCCF0E941704C090DF017E
:10287000D090E001E090E101F090E2016C197D0957
:102880008E099F096531710581059105B8F20E9495
:1028900017046C197D098E099F09643F71408105F9
:1028A000910560F68D8D9E8D212F2770C12CD12C26
:1028B0007601C39404C0CC0CDD1CEE1CFF1C2A95D1
:1028C000D2F7103108F049C00E940207E12FE695C7
:1028D000E695E695EA0DFB2DF11D8823D1F1808167
:1028E000C82AC08201E0010F0093E9010E94170489
:1028F0006093DF017093E0018093E1019093E20126
:10290000177F173019F0083109F098CF0E947F0423
:102910006093E3017093E4018093E5019093E601F5
:10292000003141F1083109F089CF0B8D1C8D809168
:10293000E7019091E8019C8F8B8FCE010E940410DB
:10294000E091E701F091E801148213821C8F0B8F54
:102950002CC0C0948081C822C4CF0E940207F50118
:102960009281882319F0C92AC282BCCFC0949C21CD
:102970009283B8CFA091E701B091E8018C91982F94
:10298000977F973709F45ACF8B3709F457CFEB8DE0
:10299000FC8D309721F4BC8FAB8F07C0FC01838185
:1029A00094810097D9F7B483A3831092E90146CFAD
:1029B0000F931F93CF93DF9320914602222329F098
:1029C0008F30910541F48FE090E0DF91CF911F911E
:1029D0000F910C94540F162FEC018FE090E00E94A1
:1029E000FA0B082F80E190E00E94FA0B08130DC04B
:1029F000C730D10531F0C830D10521F4183031F09D
:102A0000FFCFFFCF612FCE01E0CFFFCF0E949A0F03
:102A100088E0DF91CF911F910F9108958331910547
:102A200088F48131910530F48130910519F08930B5
:102A3000910531F42FEF3FEF3093AD022093AC02BC
:102A40000C94D8148D319105D9F7677F6093AF024C
:102A5000209199022F73362F307C232B20939902DB
:102A6000E9CF1F93CF93DF93182FE4EBF2E085E1DA
:102A7000DF011D928A95E9F782E990E09093B30215
:102A80008093B20282E590E09093B1028093B0020D
:102A9000C9E9D2E0688319828FEF9FEF9C8B8B8B03
:102AA0001D8A83E08093980243E050E065E075E082
:102AB00089890E9400058DE190E00E94FE0C682F3C
:102AC0006F738DE190E00E940E158E8B612F87E071
:102AD00090E00E940E156DE088E090E00E940E15D7
:102AE00080E0DF91CF911F910C94EB0B89B78F772A
:102AF00089BF8AE092E090930F0180930E0161E01C
:102B00008AE00E94311510924C0210924B020895F7
:102B10000F931F930E9417040091470210914802DF
:102B20002091490230914A02601B710B820B930B7A
:102B3000613F79448240910508F456C08091460275
:102B400081110BC080914B0290914C028130910514
:102B5000B1F188F0029709F444C00E941704609311
:102B60004702709348028093490290934A0281E0A1
:102B70001F910F91089580E390E00E94E00C80FF88
:102B80000EC041E050E06AE878E087E00E948B04E4
:102B900081E090E090934C0280934B02DECF8DE178
:102BA00090E00E94E00C82FFD8CF41E050E06BE063
:102BB00072E087E00E948B0482E090E0EBCF89B75F
:102BC0008F7789BF8AE092E090930F0180930E0186
:102BD0008DE190E00E94E00C82FDE7CF0E94761527
:102BE000BCCF10924502FACF80E0C2CFBF92CF9205
:102BF000DF92EF92FF920F931F93CF93DF938B019E
:102C0000B42E690182FF23C083FF17C061E0C801B1
:102C10000E94D20F8823D9F16B2DC8010E940E1596
:102C20008B1135C0F601DF91CF911F910F91FF906D
:102C3000EF90DF90CF90BF90099460E0C8010E94B0
:102C4000D20F882321F1C8010E94FE0CE9CF842F06
:102C50008770C1E0D0E07E0101C0EE0C8A95EAF7F2
:102C6000D42FD870CB010E94FE0CC82FB4FE1CC01C
:102C700061E0C8010E94D20F882349F0DD2389F06A
:102C8000CE296C2FC8010E940E158C1759F2DF91C6
:102C9000CF911F910F91FF90EF90DF90CF90BF9059
:102CA0000895E094CE21EDCF60E0C8010E94D20FDC
:102CB000882369F3CE21DD2319F0C111B3CFE7CF0B
:102CC000CC2309F4AFCFE3CFCF92DF92EF92FF9204
:102CD0000F931F93CF93DF937C016B01C42F122FAF
:102CE000D42FD07E8091990287FF2CC0D03EC1F5B1
:102CF00080919A028823A1F190E00E94FE0CD82FC7
:102D000080919A0290E001960E94FE0C982F8D2FE0
:102D1000E816F90629F56C2F70E0762F66276627EE
:102D20007370612B6F5F7F4F2FE436E0402F8C2F45
:102D3000DF91CF911F910F91FF90EF90DF90CF9097
:102D40000C94F61580FD32C0D03609F464C088F4C6
:102D5000D03209F447C0D03409F45DC0DD2379F1E5
:102D6000DF91CF911F910F91FF90EF90DF90CF9067
:102D70000895D03A09F483C090F42C2F2F7141E0CC
:102D800050E0D03869F7B601C701DF91CF911F91AC
:102D90000F91FF90EF90DF90CF900C94500DD03CAE
:102DA00009F476C0D03E09F4B6CFDACF0E94000D08
:102DB0008E159F0549F2E114F10431F2D1CF8C2F29
:102DC0008E7071F680E090E0892B51F28C2F81702B
:102DD000DF91CF911F910F91FF90EF90DF90CF90F7
:102DE0000C940000CF71CF3109F0BACF412F4F774B
:102DF00071F0413071F0111F1127111F212F30E0A8
:102E00000FE710E0B601C7010E94A80AA9CF41E070
:102E1000F2CF40E0F0CF2C2F30E08C2F8F7181303B
:102E200029F030F0803121F08131F9F440E001C027
:102E300041E025FB222720F90DE110E030E0B6014A
:102E4000C7010E94A80A80E090E0892B09F488CF8E
:102E50004C2FB601C701DF91CF911F910F91FF90C9
:102E6000EF90DF90CF900C940000C901880F991F5C
:102E70008E71C4FB442740F9482B4250DACF2C2FE7
:102E80002F7043E050E0C4FF7ECF42E050E07BCFA4
:102E9000CF71CE3139F0CF3109F062CF212F45E02B
:102EA00050E071CF212F44E050E06DCFDF92EF92E0
:102EB000FF920F931F93CF93DF9380919B02882300
:102EC000B1F00E947F0400919C0210919D0220911C
:102ED0009E0230919F02601B710B820B930B653138
:102EE00071058105910518F080E00E94EB0B80913F
:102EF000B602811109C080E0DF91CF911F910F913F
:102F0000FF90EF90DF900895F89488E0E1ECF2E014
:102F1000AFE6B7E001900D928A95E1F71092B60204
:102F200078943091C102E3ECF2E090E080E0391750
:102F300021F0219182279F5FFACF8111DCCF80E0C1
:102F400090E0892B21F08FE697E00E9400008091AD
:102F50007107811118C090917207911114C080E01F
:102F600090E0892B19F080E00E94000080919B0284
:102F7000882329F081E00E947C0981E0BDCF81E0B7
:102F80000E94EB0BFACF90919B02992309F482C027
:102F90008057803108F07BC081E00E947C09C0919D
:102FA0006F078091A202C8130AC04C2F50E064EA58
:102FB00072E081E797E00E949B2A892B61F01092D2
:102FC000A10288E0EFE6F7E0A2EAB2E001900D92FC
:102FD0008A95E1F7D2CF8091A1028F5F8093A10201
:102FE000C330E9F520917107822F87701091720725
:102FF000853029F41093A0020E946F04BECFCDE16A
:10300000D0E0843089F0C82FD0E0843060F4809123
:10301000A002882341F08150990B880F991F880FD7
:10302000991FC80FD91F219623FF0EC061E0CE0162
:103030000E94D20F882309F4A0CF612FCE010E94F5
:103040000E1518139ACFD8CF60E0CE010E94D20F90
:10305000882309F492CFCE010E94FE0CF2CFC43037
:1030600009F08BCF80917107682F70E0762F66276B
:103070006627737090917207692B6F5F7F4F2DE702
:1030800034E0409173078C700E94F61576CF80E093
:103090000E94EB0BE0917107EF3F61F480917207A2
:1030A00081116BCF80E090E0892B09F466CF0E94FC
:1030B000000063CFE7FD0DC00091740720917307F6
:1030C0004091720770E060E08E2F90E00E946416DD
:1030D00054CFE03C08F054C19091990297FF4DCF36
:1030E00080917207682F70E0EB01C095D095CC0FEE
:1030F000DD1FCC0FDD1FC07CD170EF73CE2B75951B
:103100006795262F2370D22E20916F07253039F531
:103110008C788C3021F50E94000D8C179D0721F0D2
:10312000CF3FD14009F029CF8091720790E0982FCE
:10313000882788279370C0917307C80FD92FD11D96
:1031400021961091740761E0CE010E94D20F612F89
:10315000882309F412CFCE010E940E150ECF8E01E6
:1031600001501109000F111F000F111F0D297801C7
:103170002FEFE21AF20A8091AE028823F9F096FF4F
:1031800041C0C70160E071E00E940729682F81E01B
:1031900090E00E940E15C701F7FE02C081509F4FBC
:1031A000692F89E090E00E940E1580E090E0892B65
:1031B00019F0C7010E9400001092AE02809199029E
:1031C00080FD39C080916F07843009F04FC0809135
:1031D00072078978813009F0D0CE80E090E0892BA9
:1031E00029F060917307C7010E94000080E090E021
:1031F000892B09F4C2CE409173076D2DC7010E943F
:103200000000BBCEBE016F73772781E090E00E9483
:103210000E15BE0146E0759567954A95E1F789E080
:1032200090E00E940E1580E090E0892B29F2CE01FB
:103230000E940000C1CF86FF0DC00E94000D8E15B8
:103240009F0509F4BFCF8DEFE81687E0F8060CF074
:10325000B9CF93CE0E94000D8C179D0709F4B2CF11
:10326000CF3F21E0D20709F4ADCF87CE833061F59F
:1032700040917207042F017043FB112710F980E081
:1032800090E0892B31F04770212FBE01C7010E94C9
:1032900000008091990286FF0BC080E090E0892BAE
:1032A00009F46BCE412F602FC7010E94000065CE4C
:1032B00080E090E0892B09F460CE212F402F6D2D06
:1032C000CE010E94000059CE863009F056CE809182
:1032D0007207982F9978913021F08F78803809F013
:1032E0004CCE8091990286FF27C00E94000D8E155A
:1032F0009F05E1F48091730790E0382F2227222761
:103300003370C0917407C20FD32FD11D2196109135
:103310007507959587959595879583709927823040
:10332000910599F0039709F40ECF27CE8DEFE8169B
:1033300087E0F806FCF621CE0E94000D8C179D0751
:10334000C9F2CF3FD140B1F218CE14FF16CE61E0E2
:10335000CE010E94D20F882309F40FCECE010E9425
:10336000FE0C912F977061E070E001C0660F9A9596
:10337000EAF713FF02C0682BEECE60956823EBCE10
:10338000E83E08F0FACDE05CFF0B809172070091F7
:103390007507209174074091730761E070E09E2FDC
:1033A00095CECF92DF92EF92FF920F931F93CF9320
:1033B000DF93EC017B0141305105F9F4CD80DE80D3
:1033C0002496C114D104E9F462E070E081E090E059
:1033D0000E945A298C01009731F0FC01F182E082B1
:1033E00088818F5F8883C801DF91CF911F910F91F2
:1033F000FF90EF90DF90CF900895C884D9842796EE
:10340000E0CF88818F5F8883C82FD0E062E070E0D2
:10341000CE010E945A298C0120E0BE016150710941
:10342000822F90E08617970774F4880F991FF60192
:10343000E80FF91F40815181800F911FFC015183DA
:1034400040832F5FEDCFC150D048CC0FDD1FC00FA0
:10345000D11FF982E882C6010E94122AC4CF4F927E
:103460005F926F927F92AF92BF92CF92DF92EF9274
:10347000FF920F931F93CF93DF93CDB7DEB7C15465
:10348000D1090FB6F894DEBF0FBECDBF5C01F82E98
:103490006E0182E2C80ED11C8601802F8C198F1517
:1034A00040F486E693E00E94CF07F80181938F01F4
:1034B000F4CFF12C8AE0482E512C612C712CF5E0D0
:1034C000AF16B10409F064C000910802109109021E
:1034D00001151105A9F13CA14BA12AA1F80190E029
:1034E00080E065817681672B31F555E0589F70014A
:1034F000599FF00C1124C7010296800F911FE00E16
:10350000F11EF70116821582228343833483F8016A
:10351000C38CD48C322F377F373741F5F801948F25
:10352000838FC8010E940410F70116821582F801EA
:10353000D48EC38E05C0019635968530910589F6E7
:10354000CF5BDF4F0FB6F894DEBF0FBECDBFDF916C
:10355000CF911F910F91FF90EF90DF90CF90BF9090
:10356000AF907F906F905F904F9008952B37B1F29E
:10357000C114D10421F4948F838FE2CF6901F60145
:103580002381348121153105C9F794838383D8CFF2
:103590008F2D90E08A159B059CF68C0D9D1DFC01DE
:1035A000208130E050E040E019A28E010F5D1F4FF6
:1035B000CA01B901A30192010E941B29605DF801B3
:1035C00062938F01211531054105510589F7309727
:1035D00061F001900020E9F73197AF01401B510BDA
:1035E000B80189EC92E00E94560342E050E066E7A1
:1035F00071E089EC92E00E945603F394C9CF1F92C8
:103600000F920FB60F9211240BB60F922F933F9388
:103610004F935F936F937F938F939F93AF93BF93DA
:10362000EF93FF9389EC92E00E944C02FF91EF919F
:10363000BF91AF919F918F917F916F915F914F91CA
:103640003F912F910F900BBE0F900FBE0F901F90C8
:1036500018951F920F920FB60F9211240BB60F926E
:103660002F938F939F93EF93FF93E091D902F09163
:10367000DA028081E091DF02F091E00282FD1DC05C
:1036800090818091E2028F5F8F732091E302821715
:1036900041F0E091E202F0E0E753FD4F958F809317
:1036A000E202FF91EF919F918F912F910F900BBEAE
:1036B0000F900FBE0F901F9018958081F2CF1F9230
:1036C0000F920FB60F9211242F933F938F939F93D6
:1036D000AF93BF938091F4019091F501A091F60111
:1036E000B091F7013091F30123E0230F2D3768F1FA
:1036F00026E8230F0296A11DB11D2093F3018093AC
:10370000F4019093F501A093F601B093F701809135
:10371000F8019091F901A091FA01B091FB01019695
:10372000A11DB11D8093F8019093F901A093FA01B6
:10373000B093FB01BF91AF919F918F913F912F91DA
:103740000F900FBE0F901F9018950196A11DB11DEF
:10375000D4CF1F920F920FB60F9211240BB60F9277
:103760002F933F934F935F936F937F938F939F9389
:10377000AF93BF93EF93FF93E0910E01F0910F0190
:103780000995FF91EF91BF91AF919F918F917F919B
:103790006F915F914F913F912F910F900BBE0F90C2
:1037A0000FBE0F901F9018951F920F920FB60F9299
:1037B00011240BB60F922F933F934F935F936F9308
:1037C0007F938F939F93AF93BF93EF93FF93E0917A
:1037D0000C01F0910D010995FF91EF91BF91AF910F
:1037E0009F918F917F916F915F914F913F912F9119
:1037F0000F900BBE0F900FBE0F901F9018951F9249
:103800000F920FB60F9211240BB60F922F933F9386
:103810004F935F936F937F938F939F93AF93BF93D8
:10382000EF93FF93E0910A01F0910B010995FF914D
:10383000EF91BF91AF919F918F917F916F915F9128
:103840004F913F912F910F900BBE0F900FBE0F9095
:103850001F9018951F920F920FB60F9211240BB65E
:103860000F922F933F934F935F936F937F938F9319
:103870009F93AF93BF93EF93FF93E0910801F09173
:1038800009010995FF91EF91BF91AF919F918F91A0
:103890007F916F915F914F913F912F910F900BBE50
:1038A0000F900FBE0F901F9018951F920F920FB69A
:1038B0000F9211240BB60F922F933F934F935F9368
:1038C0006F937F938F939F93AF93BF93EF93FF93E8
:1038D000E0910601F09107010995FF91EF91BF91E9
:1038E000AF919F918F917F916F915F914F913F9198
:1038F0002F910F900BBE0F900FBE0F901F90189539
:103900001F920F920FB60F9211240BB60F922F93A6
:103910003F934F935F936F937F938F939F93AF9357
:10392000BF93EF93FF93E0910401F0910501099596
:10393000FF91EF91BF91AF919F918F917F916F9187
:103940005F914F913F912F910F900BBE0F900FBE43
:103950000F901F9018951F920F920FB60F9211247F
:103960000BB60F922F933F934F935F936F937F9379
:103970008F939F93AF93BF93EF93FF93E0910201D7
:10398000F09103010995FF91EF91BF91AF919F9144
:103990008F917F916F915F914F913F912F910F90F8
:1039A0000BBE0F900FBE0F901F9018951F920F9295
:1039B0000FB60F9211240BB60F922F933F934F9394
:1039C0005F936F937F938F939F93AF93BF93EF9387
:1039D000FF93E0910001F09101010995FF91EF91B2
:1039E000BF91AF919F918F917F916F915F914F9117
:1039F0003F912F910F900BBE0F900FBE0F901F9015
:103A000018951F920F920FB60F9211240BB60F92BA
:103A10002F933F934F935F936F937F938F939F93D6
:103A2000AF93BF93EF93FF9380917100887F8036AF
:103A300009F44DC008F040C0883209F4A9C028F547
:103A4000803109F49DC0C8F4882309F4FBC0883094
:103A500009F496C0FF91EF91BF91AF919F918F9123
:103A60007F916F915F914F913F912F910F900BBE7E
:103A70000F900FBE0F901F901895883109F488C0E1
:103A8000803241F78093710214C0803409F49DC0E4
:103A900040F48033B9F38833E9F68093710285EC02
:103AA000B0C0803509F485C0883509F496C08834E3
:103AB00089F60E948E07CECF883909F48CC038F57C
:103AC000883729F050F4883611F0803719F683E0F2
:103AD000809373021092DE0157C0883809F47BC0CE
:103AE000803919F0803809F0B5CF8091DE0180323D
:103AF00008F071C0E091DE0181E08E0F8093DE015D
:103B000080917300F0E0E254FE4F80833DC0803B23
:103B100039F0E0F4803A09F479C0883A09F09ACF94
:103B200084E0809373021092BD011092BC01E09179
:103B30000002F091010209958091BC0181110FC032
:103B400081E08093BC0110929C0109C0803C09F483
:103B5000A6CF883C09F4A3CF883B09F07BCFE09146
:103B6000BD0181E08E0F8093BD01F0E0E456FE4F71
:103B70008081809373009091BD018091BC0129C028
:103B800080914E028093730085EC8093740062CF25
:103B90009091700280916F02981758F5E091700231
:103BA00081E08E0F80937002F0E0E15BFD4F808139
:103BB000E9CFE091700281E08E0F809370028091D6
:103BC0007300F0E0E15BFD4F808390917002809183
:103BD0006F029817C8F285E8D8CFE091700281E0B3
:103BE0008E0F8093700280917300F0E0E15BFD4FD7
:103BF00080838091720281115CCF81E080934D02BD
:103C000084EA809374001092730224CF85EC809331
:103C10007400109273028091DE01803230F4E091E2
:103C2000DE01F0E0E254FE4F10826091DE0170E0B0
:103C3000E091FE01F091FF018EEB91E00995109269
:103C4000DE0108CF1092710234CF1F920F920FB68F
:103C50000F9211248F9381E080933C028F910F90FB
:103C60000FBE0F901F9018951F920F920FB60F92D4
:103C700011248F939F937894809125029091240230
:103C8000891708F0CFC09091620091609093620014
:103C900090912302891708F0C9C0AD9A9091220231
:103CA000891708F0C5C0969A90912102891708F0EB
:103CB000C1C0979A90912002891708F0BDC09091D9
:103CC000650091609093650090911F02891708F03C
:103CD000B7C09091650092609093650090911E022C
:103CE000891708F0B1C0A89A90911D02891708F0B1
:103CF000ADC01B9A90911C02891708F0A9C0909141
:103D0000620094609093620090911B02891708F002
:103D1000A3C0C79A90911A02891708F09FC0C59A4C
:103D200090911902891708F09BC0C49A90911802CB
:103D3000891708F097C0C69A90911702891708F062
:103D400093C0DB9A90911602891708F08FC0DC9A15
:103D500090911502891708F08BC0DD9A909114029A
:103D6000891708F087C0DE9A90911302891708F02E
:103D700083C0DF9A90911202891708F07FC01C9AC5
:103D800090911102891708F07BC01D9A9091100242
:103D9000891708F077C0909162009260909362005A
:103DA00090910F02891708F071C0C09A90910E028D
:103DB000891708F06DC0909162009068909362003E
:103DC00090910D02891708F067C09091620090648D
:103DD0009093620090910C02891708F061C0909155
:103DE000620090629093620090910B02891708F034
:103DF0005BC09091620090619093620090910A0282
:103E0000891708F055C09091620098609093620005
:103E10008F5F809325029F918F910F900FBE0F901F
:103E20001F901895909162009E7F30CFAD9836CF4D
:103E300096983ACF97983ECF909165009E7F42CF5B
:103E4000909165009D7F48CFA8984ECF1B9852CF88
:103E5000909162009B7F56CFC7985CCFC59860CF8A
:103E6000C49864CFC69868CFDB986CCFDC9870CFCD
:103E7000DD9874CFDE9878CFDF987CCF1C9880CF08
:103E80001D9884CF909162009D7F88CFC0988ECF7F
:103E9000909162009F7792CF909162009F7B98CF24
:103EA000909162009F7D9ECF909162009F7EA4CFF3
:103EB00090916200977FAACFCF93DF93EC0161E0EE
:103EC00088810E94E60360E08881DF91CF910C94A5
:103ED000B803EF92FF920F931F93CF93DF9310924B
:103EE000CC021092CB0288EE93E0A0E0B0E0809389
:103EF000CD029093CE02A093CF02B093D00226E5DC
:103F000031E03093CA022093C90220E930E03093B7
:103F1000D6022093D50229E230E03093D8022093D4
:103F2000D7022BE230E03093DA022093D9022AE262
:103F300030E03093DC022093DB0225E930E030935F
:103F4000DE022093DD022CE230E03093E002209389
:103F5000DF021092E2021092E3021092E402109249
:103F6000E502109269031092680380936A039093AC
:103F70006B03A0936C03B0936D0388E691E090937C
:103F80006703809366031092740310927503109276
:103F900076031092770310927803109279031092AF
:103FA0007A0310927B0310927C0310927D0310928F
:103FB0007E0387E090E0909373038093720383E124
:103FC00090E00E94FA0BC82F82E190E00E94FA0B69
:103FD000D82F81E190E00E94FA0B182F81E090E049
:103FE0000E94FA0B21E030E03093630720936207D0
:103FF00030936507209364071092660710926A0752
:1040000010926C0710926B0780935D07212F205C44
:10401000330BC9012D2F382FC90190935F0780936F
:104020005E07CF77C0936007109261078DE18093A0
:10403000670762E070E08DE190E00E945A2990935A
:104040006907809368070097C9F0EC0110E0EE243F
:10405000E394F12C8AE090E00E947629FC01F28240
:10406000E1821382148216821582178211861086CD
:104070001083899399931F5F1D3161F767E08DE786
:1040800097E00E94170763E287E797E00E9417070F
:1040900080E380930508C2E0C093070810920808E7
:1040A000DFEFD09306081092090885E098E00E949F
:1040B0005C1F81E380930008C093020881E0809335
:1040C0000308D09301081092040880E098E00E9451
:1040D0005C1F82E38093FB07C093FD07C093FE073C
:1040E000D093FC071092FF078BEF97E00E945C1FB4
:1040F00083E38093F607C093F80713E01093F90762
:10410000D093F7071092FA0786EF97E00E945C1FA2
:1041100084E38093F107C093F30784E0F82EF092D4
:10412000F407D093F2071092F50781EF97E00E9411
:104130005C1F08E00093EC07C093EE0795E0E92EC2
:10414000E092EF07D093ED071092F0078CEE97E026
:104150000E945C1F8EE28093E707C093E90786E028
:104160008093EA07D093E8071092EB0787EE97E079
:104170000E945C1FE092E207C093E40787E080930F
:10418000E507D093E3071092E60782EE97E00E94DE
:104190005C1FF092DD07C093DF070093E007D09328
:1041A000DE071092E1078DED97E00E945C1F85E22B
:1041B0008093D807C093DA0789E08093DB07D09318
:1041C000D9071092DC0788ED97E00E945C1F86E219
:1041D0008093D307C093D5078AE08093D607D09306
:1041E000D4071092D70783ED97E00E945C1F87E207
:1041F0008093CE07C093D0078BE08093D107D093F4
:10420000CF071092D2078EEC97E00E945C1F88E2E5
:104210008093C907C093CB070CE00093CC07D093E1
:10422000CA071092CD0789EC97E00E945C1F89E2D3
:104230008093C407C093C6072DE0F22EF092C70703
:10424000D093C5071092C80784EC97E00E945C1FCA
:104250008EE08093BF07C093C1078093C207D093BD
:10426000C0071092C3078FEB97E00E945C1F00937A
:10427000BA07C093BC070FE00093BD07D093BB07FC
:104280001092BE078AEB97E00E945C1FF092B50780
:10429000C093B70780E18093B807D093B607109218
:1042A000B90785EB97E00E945C1F0093B007C093AD
:1042B000B20781E18093B307D093B1071092B4079E
:1042C00080EB97E00E945C1F8FE28093AB07C09366
:1042D000AD0782E18093AE07D093AC071092AF0791
:1042E0008BEA97E00E945C1F1093A607C093A80773
:1042F00083E18093A907D093A7071092AA0786EAC3
:1043000097E00E945C1F8CE18093A107C093A307F4
:1043100084E18093A407D093A2071092A50781EAB5
:1043200097E00E945C1F8BE180939C07C0939E07DF
:1043300085E180939F07D0939D071092A0078CE999
:1043400097E00E945C1F1AE110939707C0939907AA
:1043500086E180939A07D093980710929B0787E98C
:1043600097E00E945C1F09E100939207C0939407B5
:1043700087E180939507D09393071092960782E97F
:1043800097E00E945C1F88E180938D07C0938F07A0
:1043900080939007D0938E07109291078DE897E055
:1043A0000E945C1F81E280938807C0938A07009374
:1043B0008B07D093890710928C0788E897E00E94BA
:1043C0005C1F8DE280938307C09385071093860757
:1043D000D09384071092870783E897E0DF91CF910D
:1043E0001F910F91FF90EF900C945C1FCF93DF9380
:1043F000CDB7DEB762970FB6F894DEBF0FBECDBF64
:10440000789483B78C6483BF87B7816087BF82E06D
:104410008EBD8EB581608EBD8FB581608FBD85B537
:10442000846085BD85B5806485BD80918A00836088
:1044300080938A0080918B00816080938B0087E855
:1044400086B91AB80FB6F894A89581B5886181BD70
:1044500011BC0FBEF8942FB7F89490E080E0FC01F7
:10446000E65FFD4F108201968B319105C1F7809177
:1044700062008E7F80936200AD98969897988091A5
:1044800065008E7F80936500809165008D7F8093AD
:104490006500A8981B98809162008B7F80936200D2
:1044A000C798C598C498C698DB98DC98DD98DE98C4
:1044B000DF981C981D98809162008D7F8093620028
:1044C000C098809162008F77809362008091620033
:1044D0008F7B80936200809162008F7D8093620069
:1044E000809162008F7E8093620080916200877F5E
:1044F000809362002FBF9FB7F89480916100816024
:1045000080936100A59A8E9A8F9A80916400816051
:104510008093640080916400826080936400A09A1C
:10452000139A80916100846080936100BF9ABD9A64
:10453000BC9ABE9AD39AD49AD59AD69AD79A149AF4
:10454000159A80916100826080936100B89A809191
:104550006100806880936100809161008064809335
:1045600061008091610080628093610080916100B0
:104570008061809361008091610088608093610018
:104580009FBF1FBC89E08EBD8CE093E09BBD8ABDC0
:1045900087B7806187BF1092250261E08BE00E949F
:1045A000E60360E08DE797E00E942C03E091790735
:1045B000F0917A0790818091780780958923808394
:1045C000E0917B07F0917C07808190917807892B9F
:1045D0008083A9EDAA2EA1E0BA2EBCE1CB2EB1E0DA
:1045E000DB2E99249394F501049110E0C8010E94F8
:1045F000FA0BF82EC80101960E94FA0BE82EC801AA
:1046000002960E94FA0B882EC80103960E94FA0BAC
:1046100090916707F91610F5D6010D911C91F801DC
:10462000818284838F2DE110D2C00E949A013C01C7
:1046300041E050E0B8010E94D119D30116969C9335
:104640008E9315978F2D0E949A017C0150E040E0D7
:10465000B8010E94D119F70191878087A895B2E02F
:10466000AB0EB11CE2E0CE0ED11CF2E5CF16F1E0AC
:10467000DF0609F0B8CF61E070E084E090E00E94CE
:104680005A2990936C0780936B07892B91F010E067
:1046900000E0E0906B07F0906C07E00EF11E802FB9
:1046A0000E94CF0CD7018C930F5F1F4F0430110570
:1046B00081F780E00E94BB0C082F10E081E00E948F
:1046C000BB0C282F30E0322F222722273E7F000FFD
:1046D000111F202B312B30936E0720936D0780FF25
:1046E00005C0216030936E0720936D0760E08AE07B
:1046F0000E94E603EDEAF2E08491E8E7F2E004913B
:10470000E3E4F2E0149111117DC0FF24F394F092E0
:104710003A028FE190E00E9476298C0186E0F80150
:10472000818386E090E00E9476296C0166E10E9418
:104730001707D8015E96DC92CE925D9710933902EE
:104740000093380281E893E00E94FA0BF80180831D
:10475000843008F081C1F80181818F3FF1F010931E
:10476000FD010093FC0160E00E94E60360E0D801D7
:104770005D968D919C910E942C03F80181819CEFA4
:10478000980F943020F08251843008F08FEF42E08F
:1047900050E065EB73E10E940005D80116961C926B
:1047A0001E9215971B961C921E921A9750961C9259
:1047B0001E921F9755961C921E9254975A961C92C1
:1047C0001E9259975C961C921E925B972AC00E947B
:1047D0009A01DC0113969C92B0E8EB1609F432CFF3
:1047E000F1E8EF123BCF8F2D0E949A017C0141E04E
:1047F00050E0B8010E94D119D70116969C938E9370
:1048000015972CCF81110E948303E12FF0E0EE0F6A
:10481000FF1FE75DFD4FA591B491EC91E02309F4F2
:1048200074CF81E090E00E94FA0B21E030E03093F9
:104830002D0220932C0280932E0281E190E00E94B1
:10484000FA0B21E130E03093300220932F02809365
:10485000310282E190E00E94FA0B22E130E03093D5
:10486000330220933202809334028DE190E00E9463
:10487000E00C81FDF3C08DE190E0909336028093CF
:1048800035021092370287E08093AA028093AB0230
:1048900060E00E94E60361E087E00E94B80360E008
:1048A0008BE00E9431158FE29AE19093070280938A
:1048B000060285EF92E09093050280930402109225
:1048C0000302109202021092750210929702109247
:1048D000730281E08093720210924D0261E083E1E5
:1048E0000E94B80361E082E10E94B80380917100E8
:1048F0008E7F80937100809171008D7F8093710015
:1049000088E48093700085E48093740086EF92E0E1
:10491000909301028093000282E093E09093FF0164
:104920008093FE0182E0809372008CE0809370009F
:1049300010920902109208021092880010928900C9
:1049400010928A0010928B0080918A00846080937C
:104950008A0080917D00846080937D0088E19BE0E7
:104960000FB6F894A89581BD0FBE91BD789462E012
:10497000462E512C80913D0281110DC00E941704DA
:1049800060934702709348028093490290934A02D1
:1049900081E080933D0280913C02882309F448C065
:1049A00010E001E0009374021093960210927502D9
:1049B000109297020E94AD01811105C080913B02C7
:1049C0008F5F80933B021F5F1F3761F780913B022F
:1049D000882339F161E070E090E00E945A298C014F
:1049E0009093270280932602E12CF12CDD24D394AE
:1049F000D0927402F0929602109275021092970271
:104A00000E94AD01811105C0F801EE0DF11DF0828B
:104A1000E394F394BFE7FB12EBCF10928A0010925D
:104A20007D00109288001092890010923C02A89597
:104A300080913A02882361F10E945617A8958091CF
:104A40003A02882309F496CF809138029091390276
:104A50000E940410A8958ECFF0827DCE8DE190E06B
:104A60000E94E00C85FD0DC0809116019091170108
:104A7000A09118018093350290933602A0933702DB
:104A800002CF8091190190911A01A0911B01F2CFE0
:104A900080914B0290914C0281309105E9F148F1EF
:104AA000029761F60E94550A80914502882309F415
:104AB0007DC387E797E00E940207182F811186C304
:104AC0008091620790916307019709F069C390E0B4
:104AD00080E00E94940A0E94550A87E797E00E94AE
:104AE00002078823D1F340E0612F84E20E94480846
:104AF00010C00E945617882361F00E94E3090E94AB
:104B00001704609347027093480280934902909380
:104B10004A020E94881592CF0EEC13E09AE0E92E2B
:104B2000F12CDD24D39423E6C22E33E0B32E42E0F1
:104B3000A42E5BE1352EF80183859485019709F059
:104B400056C1E654F109808191813296608071806E
:104B5000680E791ED80151961C92519752961C925C
:104B6000529716961C9216971A961C921A971D9693
:104B70001C921D971E961C921E971F961C921F97A3
:104B800017961C92179750961C92509753961C920A
:104B9000539719961C92199715961C921E9214976A
:104BA0009301359527954801BCE58B1A9108F401CE
:104BB00061E070E086899789A72FA69541E050E0D3
:104BC0004C0F5D1F4A0F511DDA0141E028173907CC
:104BD0000CF040E04C93713248F4408D518D840FBD
:104BE000951F8E579109C19708F460E07E5F349657
:104BF000743201F7FE013196CE9C9001CF9C300DAE
:104C0000112440E557E0421B530B90E080E0708197
:104C100071118FC071817111A6C0D401A80FB91F85
:104C20001D961C92019632968930910581F7F80104
:104C300080819181A281B38185519540A109B109FB
:104C400083359B40A105B10508F070C1662309F4C6
:104C50006DC181E046E9641671040CF080E0D80172
:104C600051968C93F801EC54F10990813197808131
:104C7000B9E08B9F802D1124939D800D11243297D4
:104C80009081890F31964081942F990F940F890F4D
:104C9000F8018683EB54F10946E9641671040CF4BB
:104CA00030C181E09081913009F080E0D8011D96FB
:104CB0008C938989880F9F85890F880F9D85890F1F
:104CC000880F9B85890F91E009F090E0F8019687A5
:104CD00091E0813009F090E0D8011F969C938111FA
:104CE0008150F80187838289882309F456C08C8516
:104CF000880F9E85890F880F9889890F880F9A8958
:104D0000890FEEEFE80FEE3008F047C0F0E0E5570E
:104D1000F94D0C943D29C026C026C826C8266D270B
:104D20006D27CD26CD2672277227762776277B27FB
:104D30007B277130C1F42180A1E02A1206C0DA017C
:104D4000A80FB91F1D962C926DCF21100CC0D40155
:104D5000A80FB91F1D96AC92853008F463CFD80117
:104D600052967C935FCF853048F0DA01A80FB91FC7
:104D70001D96BC92D8015296DC9254CF60E057CF7A
:104D8000D8011996AC921997817053968C9305C0EF
:104D900041E050E0F8015583448389E090E0FAE077
:104DA000EF16F10411F08E199F09D8011C965C9240
:104DB0004E921B97C89EB001C99E700D1124FB0135
:104DC000E752FC4F80819181029789F461587C4FB2
:104DD00049E050E08DE597E0821B930B0E949B2AEF
:104DE000892B29F423E030E0F80134872387F1E0B0
:104DF000EF1AF1080D591F4FE114F10409F09BCE91
:104E0000E9EDF3E090E080E020813181233031054D
:104E100009F094C023E6289F8001299F100D1124DA
:104E2000F801E752FC4F84E090E0918380830158C1
:104E30001C4F0115110509F46CCE780125E5E20E31
:104E4000F11CD701EC91F0E080912E029F01281B0C
:104E50003109C9012130310509F4DDC00CF076C0FB
:104E6000892B09F04ACE80912B02D801A45ABF4F5A
:104E70009C91992309F491C0806180932B029091B9
:104E80002B02D801A85ABF4F8C91823009F4A0C0E0
:104E900008F085C0813009F48FC020912B0241E0D9
:104EA00050E070E060E0CF010E94500DF801ED5A33
:104EB000FF4F808191818130910509F09FC0339629
:104EC00080912E020DE110E021E030E0408170E0A1
:104ED00060E090E00E94A80A10CED8011996BC921A
:104EE000199752CFF8015582448257CFD8011996AD
:104EF000DC92199749CF44E0F80141878170838B98
:104F00004CCF8081811112C08F85880F9D85890FBC
:104F1000880F9B85890FD8011A968C9381E0998917
:104F2000913009F080E0F801808B37CFE5E0F0E0C8
:104F3000D8011C96FC93EE931B9759CF0196ED591F
:104F4000FF4F8A30910509F05FCFE3CD2230310564
:104F500009F4ADC02330310509F0CFCD80E390E0F6
:104F60000E94E00C83FFC9CD80912802F801E85A25
:104F7000FF4F9081923009F4FDC008F0E2C09130FB
:104F800009F4ECC0D7018C912091280244E050E054
:104F900070E060E08350990B59C08F7E6ECF8330F4
:104FA00009F1843009F079CFD801AE59BF4F8C9107
:104FB000882311F1986007C0D801AE59BF4F8C917A
:104FC000882321F0916090932B0267CF9E7FFBCFC7
:104FD000D801AE59BF4F8C91882311F09260F3CF66
:104FE0009D7FF1CFD801AE59BF4F8C91882311F02E
:104FF0009460E9CF9B7FE7CF977FE5CF029709F0D9
:105000007CCDF801EA5AFF4F80912E020DE110E0AD
:1050100030E020E05BCF80E390E00E94E00C81FF75
:105020006CCD80912A02F801E85AFF4F90819230AE
:1050300041F178F49130C9F0D7018C9120912A0286
:1050400042E050E070E060E08150990B0E94500D0A
:1050500054CD933001F1943079F7F801EE59FF4FB8
:105060009081992311F1886007C0F801EE59FF4F34
:105070009081992321F0816080932A02DDCF8E7F79
:10508000FBCFF801EE59FF4F9081992311F0826018
:10509000F3CF8D7FF1CFF801EE59FF4F9081992327
:1050A00011F08460E9CF8B7FE7CF877FE5CF80E386
:1050B00090E00E94E00C82FF20CD80912902F8014F
:1050C000E85AFF4F9081923031F168F49130B9F095
:1050D000F70180812091290243E050E070E060E018
:1050E0008250990BB3CF933001F1943089F7F801D6
:1050F000EE59FF4F9081992311F1886007C0F801A4
:10510000EE59FF4F9081992321F08160809329020D
:10511000DFCF8E7FFBCFF801EE59FF4F90819923AF
:1051200011F08260F3CF8D7FF1CFF801EE59FF4F80
:105130009081992311F08460E9CF8B7FE7CF877F3F
:10514000E5CF933009F1943009F01CCFF801EE5906
:10515000FF4F9081992311F1886007C0F801EE5943
:10516000FF4F9081992321F08160809328020ACF1C
:105170008E7FFBCFF801EE59FF4F9081992311F0FC
:105180008260F3CF8D7FF1CFF801EE59FF4F908110
:10519000992311F08460E9CF8B7FE7CF877FE5CF3C
:1051A00081E090E00E94940A10E895CC8DE797E0AA
:1051B0000E940207811106C081E090E00E94940ADB
:1051C00010E891CC90E080E00E94940A10E08BCC33
:1051D00060E087E797E00E942C0360E08DE797E0AE
:1051E0000C942C03E199FECF9FBB8EBBE09A9927CC
:1051F0008DB30895262FE199FECF9FBB8EBB2DBBAB
:105200000FB6F894E29AE19A0FBE0196089597FBC3
:10521000072E16F4009407D077FD09D00E94462986
:1052200007FC05D03EF4909581959F4F08957095A9
:1052300061957F4F0895A1E21A2EAA1BBB1BFD01A9
:105240000DC0AA1FBB1FEE1FFF1FA217B307E40765
:10525000F50720F0A21BB30BE40BF50B661F771FBD
:10526000881F991F1A9469F760957095809590959D
:105270009B01AC01BD01CF010895EE0FFF1F00247B
:10528000001C0BBE0790F691E02D0994AA1BBB1BD6
:1052900051E107C0AA1FBB1FA617B70710F0A61B36
:1052A000B70B881F991F5A95A9F780959095BC0157
:1052B000CD0108950F931F93CF93DF93869F8001B5
:1052C000879F100D969F100D1124C8010E9476290A
:1052D000EC01009729F0A80170E060E00E94A82A84
:1052E000CE01DF91CF911F910F9108950F931F93DE
:1052F000CF93DF938230910510F482E090E0E0914B
:105300000C08F0910D0830E020E0B0E0A0E030970C
:1053100099F42115310509F44AC0281B390B2430B2
:105320003105D8F58A819B816115710589F1FB01F1
:1053300093838283FE0111C04081518102811381D8
:1053400048175907E0F04817590799F4109761F08A
:1053500012960C93129713961C933296CF01DF91FD
:10536000CF911F910F91089500930C0810930D0891
:10537000F4CF2115310551F04217530738F0A90138
:10538000DB019A01BD01DF01F801C1CFEF01F9CFC7
:1053900090930D0880930C08CDCFFE01E20FF31F10
:1053A000819391932250310939832883D7CF20915B
:1053B0000A0830910B08232B41F4209112013091FF
:1053C000130130930B0820930A08209110013091AB
:1053D00011012115310541F42DB73EB7409114015B
:1053E00050911501241B350BE0910A08F0910B0830
:1053F000E217F307A0F42E1B3F0B2817390778F0AC
:10540000AC014E5F5F4F2417350748F04E0F5F1F0A
:1054100050930B0840930A08819391939FCFF0E03B
:10542000E0E09CCFCF93DF930097E9F0FC01329747
:1054300013821282A0910C08B0910D08ED0130E0AA
:1054400020E01097A1F420813181820F931F2091D9
:105450000A0830910B082817390709F061C0F0934A
:105460000B08E0930A08DF91CF910895EA01CE1767
:10547000DF07E8F54A815B819E0141155105B1F7CF
:10548000E901FB83EA8349915991C40FD51FEC17B9
:10549000FD0761F4808191810296840F951FE901D7
:1054A00099838883828193819B838A83F0E0E0E003
:1054B00012968D919C9113970097B9F52D913C917F
:1054C0001197CD010296820F931F20910A08309107
:1054D0000B082817390739F6309751F510920D0847
:1054E00010920C08B0930B08A0930A08BCCFD3838A
:1054F000C28340815181840F951FC817D90761F479
:105500004E5F5F4F88819981480F591F51834083B7
:105510008A819B81938382832115310509F0B0CF65
:10552000F0930D08E0930C089ECFFD01DC01C0CF85
:1055300013821282D7CFFB01DC0104C08D91019050
:10554000801921F441505040C8F7881B990B0895E9
:10555000DC0101C06D9341505040E0F7089511E027
:10556000CDE6D1E004C0FE010E943D292196CE3651
:08557000D107C9F7F894FFCF41
:105578000A02000000000000000000000000000017
:1055880000000E0880001D00021D0022050800080A
:10559800FB07F607F107EC07E707E207DD07D8077F
:1055A800D307CE07C907C407BF07BA07B507B007AF
:1055B800AB07A607A1079C07970792078D078807DF
:1055C8008307000000006D0256030F02B402400278
:1055D8001E023202000000001608E9074508BF074E
:0A55E800E207CF07C0070D0A00001C
:00000001FF
