:100000000C946E010C94A4120C9479120C944E1260
:100010000C9423120C94F8110C94CD110C94A21191
:100020000C9477110C9498010C9498010C949801FD
:100030000C9490140C9498010C9498010C949801D1
:100040000C942D110C9498010C9498010C94980127
:100050000C9498010C9498010C9498010C949801BC
:100060000C9498010C9498010C9498010C949801AC
:100070000C9498010C94F3130C9498010C9498012F
:100080000C9498010C94CF120C9498013F0300003B
:100090000000000B0D0000000000000101C0800006
:1000A000000000000000000000060000000000004A
:1000B0000000000000000000000000000000000040
:1000C000000000000000FF0300000000000000002E
:1000D0000000000000000000000000000000000020
:1000E0000000000000000000000000000000000010
:1000F0000000000000000000000000000100AA0055
:100100000200AA000300AA000400AA000500AA0039
:100110000600AA000700AA000800AA000900AA0019
:100120000A0080000B0080000C0080000D008000A1
:100130000E0080000F008000100080001100800081
:10014000120080001300AA001400AA000000AA00F8
:100150000000AA000000AA000000AA000000AA00F7
:100160001580FF001581FF00FF000000FF00000068
:10017000FF000000FF000000FF000000FF00000083
:10018000FF000000FF000000FF000000FF00000073
:10019000FF000000FF000000FF0000000000000062
:1001A000000000000000000000000000000000004F
:1001B00000000000000000000000003A003700349A
:1001C00000310022006100640000003B003800356F
:1001D0000032002300620065000000000A0B0C00E2
:1001E00000000000000104050600000000000000FF
:1001F00000000000000000000000000000000000FF
:10020000000000000000000000000000000070007E
:10021000740078007C008000840088008C009000CE
:10022000940098009C00A000A400A800AC00B000BE
:10023000B400B800BC00C000C400C800CC00D000AE
:10024000D400D800DC00E000E400E800EC00F0009E
:10025000F400F800FC000001040108010C01010297
:10026000040810204080010204081020408008107B
:10027000010204081020408001020102040810203D
:10028000408004804020100804020101020408108C
:10029000204080000039003600330030002100206B
:1002A00000630005050505050505050202020202B9
:1002B00002020207070404040404040404070703F9
:1002C000030303030303030701010101010101010A
:1002D0000606060606060606E3152F2311241FBE92
:1002E000CFEFD0E1DEBFCDBF11E0A0E0B1E0E6E3AB
:1002F000FAE400E00BBF02C007900D92A836B107E8
:10030000D9F727E0A8E6B1E001C01D92A83AB207EC
:10031000E1F711E0CDE6D1E004C02197FE010E9493
:100320008223CC36D107C9F70E9431180C940E25D0
:100330000C9400002091FA023091FB022115310546
:1003400049F090E0880F991F820F931FFC01808174
:100350009181089590E080E008952091AC0281E0C1
:10036000213208F044C0809188028111FCCF809135
:10037000AB0292E09093880291E0909387029FEF06
:10038000909386021092850220938402ABE8B2E03B
:10039000E4E6F2E090E0291331C0109263029091FC
:1003A0006302880F892B80936302809162028130FF
:1003B00049F51092620280916302809373008091EC
:1003C000740083FDF8CF85EC8093740080918802DF
:1003D0008230E1F3809186028F3FB1F080918602F6
:1003E0008032A1F080918602803391F084E01092F7
:1003F0008A021092AC021092890208953D913193C5
:100400009F5FC9CF85EEE0CF80E0F1CF82E0EFCFF4
:1004100083E0EDCFE82FF0E0EA5BFD4F60830895C5
:10042000E091FB01F091FC01309729F010928A02D3
:100430001092AC0209940895CF93DF93AC01E09140
:10044000F901F091FA013097F1F09091F801809163
:10045000F7019817C0F090E0292F30E026173707F2
:1004600054F4D901AC58BE4F240F351FE90128813F
:100470002C939F5FF1CF1092F8016093F701CB01AD
:10048000DF91CF910994DF91CF91089581508C3005
:1004900088F5E82FF0E0E15BFD4F0C9482237702B2
:1004A00077027A025B025F02620265027A027A02D6
:1004B00069026F0273028FB58F778FBD08958FB574
:1004C0008F7DFBCF8FB5877FF8CF85B58F7D85BDBD
:1004D000089580918B008F7780938B000895809191
:1004E0008B008F7DF9CF80918B00877FF5CF83B70D
:1004F0008F7D83BF0895CF93DF93282F30E0F901DC
:10050000E752FE4F8491F901E25AFD4FD491F9016F
:10051000ED55FD4FC491CC23A1F081110E944602FC
:10052000EC2FF0E0EE0FFF1FED56FD4FA591B491BB
:10053000EC91ED2381E090E009F480E0DF91CF9130
:10054000089580E090E0FACF1F93CF93DF93282F98
:1005500030E0F901E752FE4F8491F901E25AFD4F74
:10056000D491F901ED55FD4FC491CC23A9F0162F7C
:1005700081110E944602EC2FF0E0EE0FFF1FE753BF
:10058000FE4FA591B4918FB7F894EC91111108C06A
:10059000D095DE23DC938FBFDF91CF911F9108951B
:1005A000DE2BF8CFCF93DF9390E0FC01E25AFD4FB2
:1005B00024918D559D4FFC0184918823C9F090E0D2
:1005C000880F991FFC01E754FE4FA591B491FC01DF
:1005D000E753FE4FC591D49161110DC09FB7F894B8
:1005E0008C91209582238C938881282328839FBF18
:1005F000DF91CF910895623051F49FB7F8943C9108
:10060000822F809583238C93E8812E2BEFCF8FB799
:10061000F894EC912E2B2C938FBFEACF3FB7F89430
:100620008091EF019091F001A091F101B091F20160
:1006300022B706B600FE05C02F3F19F00196A11D96
:10064000B11D3FBFBA2FA92F982F8827BC01CD011C
:10065000620F711D811D911D42E0660F771F881F7B
:10066000991F4A95D1F70895CF92DF92EF92FF92AA
:100670000F931F930E940E036B017C018091020176
:10068000813019F483E08093020187E00E947B02AD
:1006900040913A0250913B0260913C0270913D02C0
:1006A00097018601041B150B260B370BB901A80116
:1006B000892BB9F440934202509343026093440261
:1006C00070934502C0923A02D0923B02E0923C0203
:1006D000F0923D021F910F91FF90EF90DF90CF902D
:1006E000089540933E0250933F02609340027093FE
:1006F0004102F0CF8F929F92AF92BF92CF92DF9242
:10070000EF92FF924B015C010E940E036B017C0192
:100710000E940E036C197D098E099F09683E734083
:1007200081059105A8F321E0821A9108A108B1087A
:1007300088EEC80E83E0D81EE11CF11C81149104E0
:10074000A104B10429F7FF90EF90DF90CF90BF9004
:10075000AF909F908F90089561E08BE00E94A4027B
:1007600064E070E080E090E00E947A0360E08BE05B
:100770000C94A4020C94AC0308958091F70190911D
:10078000F801891B990B0895CF93DF93DC01EC915D
:10079000F0E0EE0FFF1FED56FD4FC591D49198810B
:1007A00011968C91982381E009F480E0DF91CF913C
:1007B000089585ED809374008091740084FDFCCFD2
:1007C0001092880208952091B401260F3327331F19
:1007D00021323105ECF420918802FC0190E080E0A8
:1007E000243069F082E00895A091B4012191AC0118
:1007F0004C565E4FA40FB52FB11D2C930196861752
:1008000098F38091B401680F6093B40180E008957B
:1008100081E008950895E091F8018091F701E817CB
:1008200030F4F0E0EC58FE4F808190E008958FEFB7
:100830009FEF08959091F8018091F7012FEF3FEF1E
:10084000981748F4E92FF0E0EC58FE4F208130E093
:100850009F5F9093F801C9010895CF92DF92EF92C4
:10086000FF920F931F93CF93DF937C01CB018A01FB
:1008700020918902222389F0EB016B01C40ED51E61
:10088000CC15DD0569F06991D701ED91FC910190DE
:10089000F081E02DC7010995F3CF642F0E94E30397
:1008A000C801DF91CF911F910F91FF90EF90DF90E2
:1008B000CF900895CF93DF931F92CDB7DEB76983B2
:1008C000209189022223F9F02091AC02203258F0C5
:1008D00021E030E0FC013383228390E080E00F9040
:1008E000DF91CF91089580918A02E82FF0E0E557DB
:1008F000FD4F998190838F5F80938A028093AC0231
:1009000081E090E0ECCF61E0CE0101960E94E3032C
:10091000F7CF1F93CF93DF93CBEED1E0188169819E
:1009200083EE92E00E945A04612F83EE92E00E94CF
:100930005A046A8183EE92E0DF91CF911F910C946B
:100940005A0490E080E0089580E090E0892B29F03F
:100950008091C80283FD0C9400000895EF92FF92ED
:1009600080917301823009F477C0833039F480912B
:10097000C1020E947B02019709F075C00E940E031C
:1009800020917101309172017B01E21AF30A2091EA
:10099000C9023091CA02E216F30608F464C020913D
:1009A000CD023091CE022130310561F0E091C202DA
:1009B000F091C30240815091C40245235091AD0291
:1009C000451351C070937201609371014091CB0245
:1009D0005091CC022230310509F4D2C023303105C8
:1009E00009F40DC12130310561F4209170012130ED
:1009F00009F449C0D8F1233009F481C0243009F446
:100A0000A7C02091CD023091CE022130310559F19D
:100A1000E416F50608F02BC180916E018F5F80937C
:100A20006E018B3000F181E090E09093CE028093D4
:100A3000CD02809373011092AD021092700182E595
:100A400090E09093CC028093CB0283E290E090936D
:100A5000CA028093C90207C08091C1020E947B0232
:100A6000892B09F48BCFFF90EF900895E416F506DB
:100A700030F421E020937001E0926F01C2CF24E0B6
:100A800020937001BECFE416F506B8F51092700100
:100A900020916E012F5F20936E0160916F012E2DCA
:100AA0000E2C000C330B261B310967FD339537FFE5
:100AB00003C031952195310929313105A4F21092F5
:100AC000CE021092CD0222E930E03093CC02209386
:100AD000CB0222E530E03093CA022093C902109283
:100AE0006E013091AE02309373012091C402333015
:100AF00009F020E02093AD0284CF23E0C1CFE416BB
:100B0000F506E8F23091AE02333009F422E020938A
:100B1000AE0222E030E03093CE022093CD0222E9F3
:100B200030E03093CC022093CB0222E530E03093CA
:100B3000CA022093C9021092D30220916E01209321
:100B4000D4021092D0021092D2021092D102C9CFD8
:100B5000E416F506F0F61092CE021092CD0222E9CC
:100B600030E03093CC022093CB0222E530E030938A
:100B7000CA022093C90210926E011092D002B1CF26
:100B80003091D0023F5F3093D0022091D102220FEA
:100B9000E416F506E0F02093D102383009F038CFA2
:100BA000E091D302E630A9F41092CE021092CD0269
:100BB00022E930E03093CC022093CB0222E530E0F2
:100BC0003093CA022093C9021092D0021ACF21603A
:100BD000E2CF23E030E03093CE022093CD0230917B
:100BE000D10221E02E0F2093D302F0E0E353FD4F1A
:100BF00030872091D20223272093D20202CFE4161D
:100C0000F50628F51092CE021092CD021092D00275
:100C100022E930E03093CC022093CB0222E530E091
:100C20003093CA022093C9022091D2022111F4CE3E
:100C300028E0E3EDF2E0ABEDB2E001900D922A95F1
:100C4000E1F721E02093CF0210926E01DACE2091DD
:100C5000D302263009F4A8CF22E030E03093CE0250
:100C60002093CD021092D0021092D102CACE1092DF
:100C70006E01F9CE0F931F93CF93DF93FC01828116
:100C8000813089F040F0823009F47AC0DF91CF9151
:100C90001F910F91089561E08081DF91CF911F91A5
:100CA0000F910C94A4020181C02FD0E0108161E06B
:100CB000812F0E94D202209719F460E0812FEDCF9E
:100CC000CF3FD10511F461E0F9CFE12FF0E0E75219
:100CD000FE4FE491E150EC3008F04DC0F0E0ED58EB
:100CE000F94F0C9482237F067F06BB0684068A0692
:100CF00090069806BB06BB069D06A706B10683B7FD
:100D0000806283BF01BFC2CF8FB580688FBDDBBD5E
:100D1000CABDBCCF8FB580628FBDD9BDC8BDB6CFAF
:100D20008FB588608FBDD0937900C0937800AECF27
:100D300085B5806285BD03BDA9CF80918B00806899
:100D400080938B00D0938700C09386009FCF8091C3
:100D50008B00806280938B00D0938500C0938400C9
:100D600095CF80918B00886080938B00D093830017
:100D7000C09382008BCFC038D1050CF0A4CF9DCF9B
:100D80008181E381F0E0EA5BFD4F80837FCF0F93A9
:100D90001F93CF93DF93D62F8C01C0E0CD1741F086
:100DA000F801819191918F010E943A06CF5FF6CFB1
:100DB000DF91CF911F910F91089580936B0188234C
:100DC00051F08EE893E00E943A0680918A00887F75
:100DD00080938A0008958EE893E00E943A0610926C
:100DE00088001092890080918A008460F1CFCF93AF
:100DF000C82F8091B1028C1731F081E0C11101C080
:100E000080E00E94DD06C093B102CC2311F12FB720
:100E1000F89480910B0290910C02A0910D02B09178
:100E20000E022FBF482F392F2A2F8B2F4093B2024B
:100E30003093B3022093B4028093B5028091B10243
:100E40008C1761F081E0C11101C080E0CF910C945A
:100E5000DD0640E030E020E080E0E8CFCF9108956B
:100E60008F929F92AF92BF92CF92DF92EF92FF92BA
:100E70000F931F93CF930E940E03AB01BC0180918F
:100E8000950390919603A0919703B09198038A01DE
:100E90009B01081B190B2A0B3B0B80919D03882398
:100EA00009F481C080919F0390919E03A82F082E82
:100EB000000CBB0BC3E38C02F0011124E90FF11D00
:100EC00097FDFA95EE0FFF1FE755FC4F1183008346
:100ED000053F11402105310508F054C09F5F9093F4
:100EE0009E0390919E039332C9F596E69A9F9001D6
:100EF0009B9F300D11242D563C4FF901E45AFF4FB2
:100F0000C0909903D0909A03E0909B03F0909C03CB
:100F10004A015B018C189D08AE08BF087501640189
:100F2000C082D182E282F38228593F4FE1E0F0E0B3
:100F3000D901ED93FC938F5F8A3094F580939F03E2
:100F4000E0919F03B6E6EB02F0011124E550FC4F5F
:100F50001182108210929D0310929E03409395037C
:100F6000509396036093970370939803CF911F91CA
:100F70000F91FF90EF90DF90CF90BF90AF909F9038
:100F80008F90089510929E0391E090939D0340935B
:100F9000990350939A0360939B0370939C03A1CF92
:100FA00010929F03CDCF053F114021053105B0F2CE
:100FB00081E080939D034093990350939A0360933B
:100FC0009B0370939C03CACFFC01A281B3818C91D7
:100FD0009181909598239C93A481B5819C91818166
:100FE000809589238C930895FF920F931F93CF933D
:100FF000DF93F62E8C01C0E0CF15F9F0D801ED910A
:10100000FD918D018281813051F020F0823079F0A4
:10101000CF5FF2CF60E080810E94A402F9CFD0813F
:1010200061E08D2F0E94D20260E08D2FF5CFE38129
:10103000F0E0EA5BFD4F1082EBCFDF91CF911F9183
:101040000F91FF900895CF93DF93EC018D819E81E6
:10105000009719F06C810E94F407888599850097A4
:1010600029F06F81DF91CF910C94F407DF91CF913C
:1010700008950F931F93CF93DF932091FA0230913D
:10108000FB022115310571F190E0880F991F820F45
:10109000931FFC01C081D1818B81882391F0009145
:1010A000F4021091F50289819A810817190729F035
:1010B000CE010E9423081A83098389819A810197AE
:1010C00031F48D819E81009769F06C8105C088851F
:1010D0009985009739F06F81DF91CF911F910F9122
:1010E0000C94C706DF91CF911F910F910895CF9374
:1010F0008091FC029091FD02892B29F1C0E0809142
:10110000F902C81700F58C2F86958695869590E094
:10111000E091FC02F091FD02E80FF91F208130E020
:1011200043E0880F991F4A95E1F74C2F481B02C0F6
:10113000359527954A95E2F720FF03C08C2F0E9432
:101140003908CF5FDCCFCF9108952091F402309120
:10115000F5022817390731F09093F5028093F402D5
:101160000C94770808956115710521F061307105BF
:1011700081F008955091EF025817190629F0509107
:10118000F2025817190661F44093F802C9010C9451
:10119000A5086091F0027091F10286179707A1F3FC
:1011A00008952091FA023091FB022115310551F08A
:1011B00090E0880F991F820F931FFC01808191811D
:1011C0000C9423080895CF93C62F813079F140F015
:1011D000823009F469C0833009F4A0C0CF9108952A
:1011E00080E064FF17C00E94390881E0C0FF15C08D
:1011F0000E94390882E0C1FF13C00E94390883E0D1
:10120000C2FF11C00E94390884E0C3FF35C0CF91EE
:101210000C9439080E94D108E8CF0E94D108EACF87
:101220000E94D108ECCF0E94D108EECF85E060FF8C
:1012300026C00E94390886E0C1FF24C00E943908F8
:1012400087E0C2FF22C00E94390888E0C3FF20C0A7
:101250000E94390889E0C4FF1EC00E9439088AE054
:10126000C5FF1CC00E9439088BE0C6FF1AC00E944F
:1012700039088CE0C7FDCBCFCF910C94D1080E94E8
:10128000D108D9CF0E94D108DBCF0E94D108DDCF91
:101290000E94D108DFCF0E94D108E1CF0E94D1087F
:1012A000E3CF0E94D108E5CF8DE060FF22C00E940D
:1012B00039088EE0C1FF20C00E9439088FE0C2FFCC
:1012C0001EC00E94390880E1C3FF1CC00E9439087B
:1012D00081E1C4FF1AC00E94390882E1C5FF18C02D
:1012E0000E94390883E1C6FF16C00E94390884E1D4
:1012F000C1CF0E94D108DDCF0E94D108DFCF0E946C
:10130000D108E1CF0E94D108E3CF0E94D108E5CFF8
:101310000E94D108E7CF0E94D108E9CF85E160FFA4
:1013200022C00E94390886E1C1FF20C00E9439080E
:1013300087E1C2FF1EC00E94390888E1C3FF1CC0BC
:101340000E94390889E1C4FF1AC00E9439088AE165
:10135000C5FF18C00E9439088BE1C6FF16C00E9465
:1013600039088CE187CF0E94D108DDCF0E94D108D7
:10137000DFCF0E94D108E1CF0E94D108E3CF0E94C5
:10138000D108E5CF0E94D108E7CF0E94D108E9CF6C
:101390000E94F706EFEAF2E081E087831086E8EB2F
:1013A000F2E088E0DF011D928A95E9F708950C9438
:1013B0003723EF92FF920F931F93CF93DF93E82E83
:1013C000F62E81E090E00E94D70990E00091EF02B4
:1013D00010E0C091F202D0E08017910721F08C1745
:1013E0009D0709F04EC0E092F80281E0F8124CC06F
:1013F0008DE190E00E94D709F82E81E090E00E94F4
:10140000D70990E00817190721F08C179D0799F468
:10141000CE018C179D07B1F48091F6029091F702EE
:10142000019749F08091F302882309F448C0109293
:10143000F7021092F602DF91CF911F910F91FF906A
:10144000EF9008958091F4029091F502019799F33D
:10145000F0FE10C01092F5021092F402ECCF0C17BF
:101460001D0711F18091F4029091F502892B19F377
:10147000F0FEF0CF81E090E09093F5028093F402CB
:10148000DACF81E0F816B9F28DE190E00E94D70939
:10149000F82E81E090E00E94D70990E08017910734
:1014A000F1F28C179D0739F68091F6029091F702C0
:1014B000892B09F28091F302882309F4B8CF81E0E7
:1014C00090E09093F7028093F602B5CFCF938638E1
:1014D00023E0920719F138F4813823E09207D9F01C
:1014E000CF910C94D709873823E09207D1F0883840
:1014F00023E09207A9F786E893E00E94D709C82F56
:1015000087E893E00E94D70990E02FEFC29F800DFB
:10151000911D1124E5CF81E893E0E2CF86E893E0C6
:10152000DFCF87E893E0DCCF1F93CF93DF93EC010D
:1015300080916B01882359F08FE090E00E94D709D9
:10154000182F80E190E00E94D709181306C0CE0141
:10155000DF91CF911F910C94D709FFCF0C94940A7F
:10156000CF93DF932091C5023091C6022F3F3207FF
:1015700021F0C901DF91CF9108958091C80287FFC2
:101580002BC086FF0FC089E090E00E94AE0AC82FF2
:1015900081E090E00E94AE0A9C2F9093C602809357
:1015A000C50215C089E090E00E94AE0AC82F81E014
:1015B00090E00E94AE0A90E4C99F90011124207C23
:1015C00031708F73282B3093C6022093C50280910F
:1015D000C5029091C602CECF85FF0CC081E190E09C
:1015E0000E94AE0AC82F82E190E00E94AE0AC05C61
:1015F000DD0BD2CF81E090E00E94AE0A90E0CDCF2B
:10160000EF92FF920F931F93CF93DF9361157105B4
:1016100059F06130710509F45DC0DF91CF911F91E0
:101620000F91FF90EF9008953091EF02381719064F
:1016300029F03091F2023817190679F7C22F43309A
:10164000510509F4F4C008F04EC04130510509F4C9
:1016500063C04230510509F7822F8170F82E85E072
:1016600020FFD1C00E9439080C2F027086E0C1FF14
:10167000CDC00E9439081C2F147087E0C2FFC9C07A
:101680000E943908DC2FD87088E0C3FFC5C00E94D3
:10169000390880916C01FF2009F4C1C081608093FA
:1016A0006C0180916C01002309F4BBC082608093BF
:1016B0006C0180916C01112309F4B5C084608093A2
:1016C0006C0180916C01DD2309F4AFC088608093C8
:1016D0006C01A3CF6091F0027091F1028617970719
:1016E00009F4ACCF9ACF4530510509F42FC108F465
:1016F000EAC04630510509F090CFD0916D0180E0ED
:1017000024FF06C00E943908D061D0936D0185CFB7
:101710000E94D108DF7EF9CF122F1071D0916D0198
:101720008091080281114FC0112309F447C00E9423
:101730003908D061D0936D018C2F8170E82E81E043
:10174000C0FF4BC00E9439088C2F8270F82E82E0B7
:10175000C1FF46C00E9439080C2F047083E0C2FF0D
:1017600042C00E943908DC2FD87084E0C3FF3EC01D
:101770000E94390880916D011123D9F18061809315
:101780006D0180916D01EE20B1F1816080936D015A
:1017900080916D01FF2089F1826080936D018091BD
:1017A0006D01002361F1846080936D0180916D0172
:1017B000DD2339F1886080936D012FCF80E00E9496
:1017C000D108DF7EB7CF8DE190E00E94D70981FF7D
:1017D000B3CF80E0112399F3AACF0E94D108B4CFF0
:1017E0000E94D108B9CF0E94D108BDCF0E94D10874
:1017F000C1CF8F7EC4CF8E7FC9CF8D7FCECF8B7F61
:10180000D3CF877FD8CF0E94D1082ECF0E94D10896
:1018100032CF0E94D10836CF0E94D1083ACF8E7FB6
:101820003ECF8D7F44CF8B7F4ACF877F50CF822F93
:101830008170F82E89E020FF32C00E9439080C2FF9
:1018400002708AE0C1FF2EC00E9439081C2F14705C
:101850008BE0C2FF2AC00E943908DC2FD8708CE0D0
:10186000C3FF26C00E94390880916C01FF2019F146
:10187000806180936C0180916C010023F1F08062A3
:1018800080936C0180916C011123C9F08064809376
:101890006C0180916C01DD23A1F0806818CF0E945B
:1018A000D108CDCF0E94D108D1CF0E94D108D5CF89
:1018B0000E94D108D9CF8F7EDCCF8F7DE1CF8F7B87
:1018C000E6CF8F7704CF8DE020FF2BC00E94390830
:1018D0008EE0C1FF29C00E9439088FE0C2FF27C0F7
:1018E0000E94390880E1C3FF25C00E94390881E1C8
:1018F000C4FF23C00E94390882E1C5FF21C00E94B5
:10190000390883E1C6FF1FC00E94390884E1C7FF80
:1019100057C0DF91CF911F910F91FF90EF900C94E2
:1019200039080E94D108D4CF0E94D108D6CF0E9496
:10193000D108D8CF0E94D108DACF0E94D108DCCFDD
:101940000E94D108DECF0E94D108E0CF85E120FFC0
:1019500022C00E94390886E1C1FF20C00E943908D8
:1019600087E1C2FF1EC00E94390888E1C3FF1CC086
:101970000E94390889E1C4FF1AC00E9439088AE12F
:10198000C5FF18C00E9439088BE1C6FF16C00E942F
:1019900039088CE1BCCF0E94D108DDCF0E94D1086C
:1019A000DFCF0E94D108E1CF0E94D108E3CF0E948F
:1019B000D108E5CF0E94D108E7CF0E94D108E9CF36
:1019C000DF91CF911F910F91FF90EF900C94D10870
:1019D000CF93C82F8FE290E00E94D709811109C0F0
:1019E00085E190E0CC2311F086E190E0CF910C945A
:1019F000D70980E0CF910895CF93C82F8FE290E070
:101A00000E94D709811106C08C2F90E0CA96CF9111
:101A10000C94D70980E0CF9108951F93CF93DF9363
:101A2000EC01162F0E943723181739F0612FCE01D1
:101A3000DF91CF911F910C943F23DF91CF911F91A4
:101A400008950F931F93CF93DF93EC01162FC638A1
:101A500083E0D80781F150F4C13883E0D807F9F06A
:101A6000612FCE010E940D0DCE011FC0C73883E04B
:101A7000D80741F1C83883E0D80791F786E893E0AA
:101A80000E94D709082F87E893E00E94D709C82F42
:101A9000D0E08FEF089FC00DD11D1124E1CF81E868
:101AA00093E00E940D0D81E893E0DF91CF911F91AB
:101AB0000F910C94D70986E893E00E940D0D86E8FB
:101AC00093E0F3CF87E893E00E940D0D87E893E061
:101AD000ECCF1F93CF93DF93209100012223C1F01D
:101AE0002FEF3FEF3093DA012093D9013093DE01DD
:101AF0002093DD013093E2012093E1013093E60170
:101B00002093E5013093EA012093E901109200014E
:101B100082309105C9F08330910509F458C020E066
:101B200030E0232B11F00E9400008091F70190918A
:101B3000F801891B990B181619060CF044C083EEA6
:101B400092E00E941A04F1CFE7EDF1E0D0E0C0E0AE
:101B5000828193810196E9F4CC0FDD1FCC0FDD1F4C
:101B6000C952DE4F1B821A8283EE92E00E941A0451
:101B7000888383EE92E00E941A048983E09109022F
:101B8000F0910A023097C9F4D0930A02C093090277
:101B90001AC021963496C530D105D1F68091F7014F
:101BA0009091F801891B990B1816190664F483EEBD
:101BB00092E00E941A04F2CFFC0182819381009787
:101BC000D9F7D383C283DF91CF911F91089583EE1C
:101BD00092E00E941A04182F83EE92E00E941A04E9
:101BE000D12F90E0C92FC80FD11DD093EC01C09325
:101BF000EB0183EE92E00E941A048093ED01D7FF7F
:101C00000CC0DF77D093EC01C093EB01682FCE01BD
:101C10000E94210D8093ED01D6CFCE010E94660A6D
:101C2000F9CFFF920F931F93CF93DF930FB6F894E2
:101C3000A89581B5886181BD11BC0FBED0E0C0E020
:101C4000FE01E457FF4F6491CE010E940D0D2196D5
:101C5000CD3281E0D807A1F7CFE1D1E005E511E071
:101C6000FF24FA9489919991FC01F1820E943A062D
:101C70000C171D07B9F788E19BE00FB6F894A895FB
:101C800081BD0FBE91BDDF91CF911F910F91FF904C
:101C900008951F93CF93DF93EC01162F089779F4E3
:101CA000662319F10E94110E80E090E0892BB9F0B3
:101CB000612FCE01DF91CF911F910C94000080E045
:101CC00090E0892BA9F781E0C11590E1D90708F0D0
:101CD00080E0111105C0DF91CF911F91089581E03F
:101CE00027972297C0F780E0F6CF80E090E0892B1D
:101CF000F9F681E0F0CF0F931F93CF93DF93EC01C0
:101D0000162F80916B01882329F1CF30D10561F422
:101D10008FE090E00E940D0D8FE090E0DF91CF9179
:101D20001F910F910C94D7098FE090E00E94D70982
:101D3000082F80E190E00E94D70908130AC0C7303D
:101D4000D10531F0C830D10529F4183049F0FFCF62
:101D5000FFCFFFCF612FCE010E940D0DCE01DECF50
:101D60000E94110E88E0DF91CF911F910F9108958D
:101D70008331910588F48131910530F481309105EA
:101D800019F08930910531F42FEF3FEF3093C602FF
:101D90002093C5020C947B0E8D319105D9F7677F96
:101DA0006093C8022091AF022F73362F307C232B13
:101DB0002093AF02E9CFEDECF2E086E1DF011D9266
:101DC0008A95E9F782E990E09093CC028093CB0268
:101DD00082E590E09093CA028093C9021092AF020C
:101DE0001092B0028FEF9FEF9093C6028093C502CE
:101DF0001092C70283E08093AE028091C402809368
:101E0000AD02E091C002E83010F5AE2FB0E0AA0FAD
:101E1000BB1FAD5FBE4F8EEA94E011969C938E93EC
:101E2000E150E73060F4F0E0E85EF04F0C9482237C
:101E3000400F480F500F580F5E0F640F6A0F8091CC
:101E40006A00836080936A0089B7816089BF8DE1F1
:101E500090E00E94AE0A682F6F738DE190E00E94BF
:101E6000B80E8093C8026BE087E090E00E94B80E45
:101E70006DE088E090E00E94B80E80E00C94C80904
:101E800080916A008C6080936A0089B78260DECF9F
:101E900080916A00806380936A0089B78460D6CF9E
:101EA00080916A00806C80936A0089B78860CECF89
:101EB0008AB783608ABF89B78061C8CF8AB78C60D0
:101EC0008ABF89B78062C2CF8AB780638ABF89B769
:101ED0008064BCCF8AB7806C8ABF89B78068B6CF70
:101EE000BF92CF92DF92EF92FF920F931F93CF9307
:101EF000DF938B01B42E690182FF23C083FF17C0DB
:101F000061E0C8010E94490E8823D9F16B2DC801F8
:101F10000E94B80E8B1135C0F601DF91CF911F9151
:101F20000F91FF90EF90DF90CF90BF90099460E009
:101F3000C8010E94490E882321F1C8010E94AE0AFF
:101F4000E9CF842F8770C1E0D0E07E0101C0EE0CA4
:101F50008A95EAF7D42FD870CB010E94AE0AC82F19
:101F6000B4FE1CC061E0C8010E94490E882349F0FC
:101F7000DD2389F0CE296C2FC8010E94B80E8C1782
:101F800059F2DF91CF911F910F91FF90EF90DF9069
:101F9000CF90BF900895E094CE21EDCF60E0C801CE
:101FA0000E94490E882369F3CE21DD2319F0C11167
:101FB000B3CFE7CFCC2309F4AFCFE3CFCF92DF92FB
:101FC000EF92FF920F931F93CF93DF937C016B01EE
:101FD000C42F122FD42FD07E8091AF0287FF2BC049
:101FE000D03EB9F5C090B002CC2099F1D12CC601F9
:101FF0000E94AE0AD82FC60101960E94AE0A982F01
:102000008D2FE816F90629F56C2F70E0762F6627DC
:1020100066277370612B6F5F7F4F24EA34E0402F97
:102020008C2FDF91CF911F910F91FF90EF90DF9058
:10203000CF900C94700F80FD32C0D03609F464C08C
:1020400088F4D03209F447C0D03409F45DC0DD23F0
:1020500079F1DF91CF911F910F91FF90EF90DF9079
:10206000CF900895D03A09F483C090F42C2F2F71AB
:1020700041E050E0D03869F7B601C701DF91CF9158
:102080001F910F91FF90EF90DF90CF900C94000B79
:10209000D03C09F476C0D03E09F4B6CFDACF0E9426
:1020A000B00A8E159F0549F2E114F10431F2D1CF47
:1020B0008C2F8E7071F680E090E0892B51F28C2F7E
:1020C0008170DF91CF911F910F91FF90EF90DF9082
:1020D000CF900C940000CF71CF3109F0BACF412FCF
:1020E0004F7771F0413071F0111F1127111F212F0F
:1020F00030E00FE710E0B601C7010E94B308A9CF96
:1021000041E0F2CF40E0F0CF2C2F30E08C2F8F71E8
:10211000813029F030F0803121F08131F9F440E054
:1021200001C041E025FB222720F90DE110E030E05D
:10213000B601C7010E94B30880E090E0892B09F442
:1021400088CF4C2FB601C701DF91CF911F910F911E
:10215000FF90EF90DF90CF900C940000C901880FA2
:10216000991F8E71C4FB442740F9482B4250DACFA7
:102170002C2F2F7043E050E0C4FF7ECF42E050E0B0
:102180007BCFCF71CE3139F0CF3109F062CF212F23
:1021900045E050E071CF212F44E050E06DCFCF9269
:1021A000DF92EF92FF920F931F93CF93DF93EC0197
:1021B0007B0141305105F9F4CD80DE802496C114B5
:1021C000D104E9F462E070E081E090E00E94B9237C
:1021D0008C01009731F0FC01F182E08288818F5FF1
:1021E0008883C801DF91CF911F910F91FF90EF90ED
:1021F000DF90CF900895C884D9842796E0CF888156
:102200008F5F8883C82FD0E062E070E0CE010E942B
:10221000B9238C0120E0BE0161507109822F90E04A
:102220008617970774F4880F991FF601E80FF91FB6
:1022300040815181800F911FFC01518340832F5FAA
:10224000EDCFC150D048CC0FDD1FC00FD11FF98298
:10225000E882C6010E947124C4CF1F920F920FB66C
:102260000F9211242F933F938F939F93AF93BF931C
:1022700080910B0290910C02A0910D02B0910E0280
:102280003091EE0123E0230F2D3768F126E8230F6C
:102290000296A11DB11D2093EE0180930B02909335
:1022A0000C02A0930D02B0930E028091EF01909169
:1022B000F001A091F101B091F2010196A11DB11DB3
:1022C0008093EF019093F001A093F101B093F2019C
:1022D000BF91AF919F918F913F912F910F900FBE22
:1022E0000F901F9018950196A11DB11DD4CF1F927C
:1022F0000F920FB60F9211240BB60F922F933F93AC
:102300004F935F936F937F938F939F93AF93BF93FD
:10231000EF93FF93E0911101F09112010995FF9164
:10232000EF91BF91AF919F918F917F916F915F914D
:102330004F913F912F910F900BBE0F900FBE0F90BA
:102340001F9018951F920F920FB60F9211240BB683
:102350000F922F933F934F935F936F937F938F933E
:102360009F93AF93BF93EF93FF93E0910F01F09191
:1023700010010995FF91EF91BF91AF919F918F91BE
:102380007F916F915F914F913F912F910F900BBE75
:102390000F900FBE0F901F9018951F920F920FB6BF
:1023A0000F9211240BB60F922F933F934F935F938D
:1023B0006F937F938F939F93AF93BF93EF93FF930D
:1023C000E0910D01F0910E010995FF91EF91BF9100
:1023D000AF919F918F917F916F915F914F913F91BD
:1023E0002F910F900BBE0F900FBE0F901F9018955E
:1023F0001F920F920FB60F9211240BB60F922F93CC
:102400003F934F935F936F937F938F939F93AF937C
:10241000BF93EF93FF93E0910B01F0910C010995AD
:10242000FF91EF91BF91AF919F918F917F916F91AC
:102430005F914F913F912F910F900BBE0F900FBE68
:102440000F901F9018951F920F920FB60F921124A4
:102450000BB60F922F933F934F935F936F937F939E
:102460008F939F93AF93BF93EF93FF93E0910901F5
:10247000F0910A010995FF91EF91BF91AF919F9162
:102480008F917F916F915F914F913F912F910F901D
:102490000BBE0F900FBE0F901F9018951F920F92BA
:1024A0000FB60F9211240BB60F922F933F934F93B9
:1024B0005F936F937F938F939F93AF93BF93EF93AC
:1024C000FF93E0910701F09108010995FF91EF91C9
:1024D000BF91AF919F918F917F916F915F914F913C
:1024E0003F912F910F900BBE0F900FBE0F901F903A
:1024F00018951F920F920FB60F9211240BB60F92E0
:102500002F933F934F935F936F937F938F939F93FB
:10251000AF93BF93EF93FF93E0910501F091060114
:102520000995FF91EF91BF91AF919F918F917F910D
:102530006F915F914F913F912F910F900BBE0F9034
:102540000FBE0F901F9018951F920F920FB60F920B
:1025500011240BB60F922F933F934F935F936F937A
:102560007F938F939F93AF93BF93EF93FF93E091EC
:102570000301F09104010995FF91EF91BF91AF9193
:102580009F918F917F916F915F914F913F912F918B
:102590000F900BBE0F900FBE0F901F9018951F92BB
:1025A0000F920FB60F9211240BB60F922F933F93F9
:1025B0004F935F936F937F938F939F93AF93BF934B
:1025C000EF93FF9380917100887F803609F44DC0AE
:1025D00008F040C0883209F4A9C028F5803109F418
:1025E0009DC0C8F4882309F4FBC0883009F496C064
:1025F000FF91EF91BF91AF919F918F917F916F91DB
:102600005F914F913F912F910F900BBE0F900FBE96
:102610000F901F901895883109F488C0803241F7D7
:102620008093860214C0803409F49DC040F4803346
:10263000B9F38833E9F68093860285ECB0C0803523
:1026400009F485C0883509F496C0883489F60E945B
:10265000D903CECF883909F48CC038F5883729F0F2
:1026600050F4883611F0803719F683E080938802A1
:102670001092D60157C0883809F47BC0803919F010
:10268000803809F0B5CF8091D601803208F071C052
:10269000E091D60181E08E0F8093D6018091730086
:1026A000F0E0EA54FE4F80833DC0803B39F0E0F417
:1026B000803A09F479C0883A09F09ACF84E080938F
:1026C00088021092B5011092B401E091F501F091E9
:1026D000F60109958091B40181110FC081E08093CA
:1026E000B4011092940109C0803C09F4A6CF883C43
:1026F00009F4A3CF883B09F07BCFE091B50181E0DD
:102700008E0F8093B501F0E0EC56FE4F80818093F0
:1027100073009091B5018091B40129C0809163024A
:102720008093730085EC8093740062CF9091850252
:1027300080918402981758F5E091850281E08E0F10
:1027400080938502F0E0EC59FD4F8081E9CFE09164
:10275000850281E08E0F8093850280917300F0E006
:10276000EC59FD4F808390918502809184029817E7
:10277000C8F285E8D8CFE091850281E08E0F809382
:10278000850280917300F0E0EC59FD4F80838091C9
:10279000870281115CCF81E08093620284EA80939A
:1027A00074001092880224CF85EC809374001092FC
:1027B00088028091D601803230F4E091D601F0E0B9
:1027C000EA54FE4F10826091D60170E0E091F3016F
:1027D000F091F40186EB91E009951092D60108CFB3
:1027E0001092860234CF1F920F920FB60F921124CF
:1027F0000BB60F92EF92FF920F931F932F933F937D
:102800004F935F936F937F938F939F93AF93BF93F8
:10281000CF93DF93EF93FF930FB6F894A89581B50C
:10282000886181BD11BC0FBE789410926A01C1E02D
:10283000D1E0D0938902C093AB0210928A02109229
:10284000AC020E94AD01811105C080916A018F5FC9
:1028500080936A01CF5FCF3761F7809168019091D3
:102860006901009731F00E94712410926901109261
:102870006801D0916A01DD2371F161E070E08D2F74
:1028800090E00E94B9237C019093690180936801D4
:1028900010E0C1E001E000938902C093AB02109206
:1028A0008A021092AC020E94AD01811105C0F701AD
:1028B000E10FF11DC0831F5FCF5FCF3761F7D230CB
:1028C00050F080918A00887F80938A0080917D00FB
:1028D0008B7F80937D00109288001092890088E1A0
:1028E0009BE00FB6F894A89581BD0FBE91BDFF91F6
:1028F000EF91DF91CF91BF91AF919F918F917F9198
:102900006F915F914F913F912F911F910F91FF9088
:10291000EF900F900BBE0F900FBE0F901F90189569
:102920001F920F920FB60F9211248F939F9378945A
:102930008091610290916002891708F0CBC090915C
:10294000620091609093620090915F02891708F095
:10295000C5C0AD9A90915E02891708F0C1C0969AE1
:1029600090915D02891708F0BDC0979A90915C0222
:10297000891708F0B9C09091650091609093650047
:1029800090915B02891708F0B3C090916500926046
:102990009093650090915A02891708F0ADC0A89AEB
:1029A00090915902891708F0A9C01B9A909158027A
:1029B000891708F0A5C0909162009460909362001E
:1029C00090915702891708F09FC0C79A90915602BC
:1029D000891708F09BC0C59A90915502891708F095
:1029E00097C0C49A90915402891708F093C0C69A70
:1029F00090915302891708F08FC0DB9A9091520290
:102A0000891708F08BC0DC9A90915102891708F061
:102A100087C0DD9A90915002891708F083C0DE9A32
:102A200090914F02891708F07FC0DF9A90914E0273
:102A3000891708F07BC01C9A90914D02891708F005
:102A400077C01D9A90914C02891708F073C090913D
:102A5000620092609093620090914B02891708F097
:102A60006DC0C09A90914A02891708F069C0D89A3F
:102A700090914902891708F065C0909162009064B6
:102A80009093620090914802891708F05FC090917E
:102A9000620090629093620090914702891708F05B
:102AA00059C09091620090619093620090914602AB
:102AB000891708F053C0909162009860909362006B
:102AC0008F5F809361029F918F910F900FBE0F9047
:102AD0001F901895909162009E7F34CFAD983ACFA9
:102AE00096983ECF979842CF909165009E7F46CFB3
:102AF000909165009D7F4CCFA89852CF1B9856CFE0
:102B0000909162009B7F5ACFC79860CFC59864CFE1
:102B1000C49868CFC6986CCFDB9870CFDC9874CF20
:102B2000DD9878CFDE987CCFDF9880CF1C9884CF5B
:102B30001D9888CF909162009D7F8CCFC09892CFD6
:102B4000D89896CF909162009F7B9ACF9091620027
:102B50009F7DA0CF909162009F7EA6CF9091620052
:102B6000977FACCFDC0170E0FB01E25AFD4FE491AE
:102B70001196EC9311976D557D4FFB0124912C9389
:102B800030E0220F331FF901E754FE4F85919491F5
:102B900013969C938E931297F901E753FE4F8591FC
:102BA000949115969C938E9314970895CF93DF93E9
:102BB000EC0161E088810E94D20260E08881DF91AF
:102BC000CF910C94A402EF92FF920F931F93CF9397
:102BD000DF931092E6021092E50288EE93E0A0E007
:102BE000B0E08093E7029093E802A093E902B093EB
:102BF000EA0289E591E09093E4028093E30283E1A5
:102C000090E00E94D709C82F82E190E00E94D70986
:102C1000D82F81E190E00E94D709182F81E090E041
:102C20000E94D70921E030E03093F5022093F402AE
:102C30003093F7022093F6021092F8021092FD02F0
:102C40001092FC028093EF02212F205C330BC9010C
:102C50002D2F382FC9019093F1028093F002CF7786
:102C6000C093F2021092F3028DE18093F90262E0C8
:102C700070E08DE190E00E94B9239093FB02809375
:102C8000FA020097C9F0EC0110E0EE24E394F12C75
:102C90008AE090E00E94D523FC01F282E182138257
:102CA00014821682158217821186108610838993EA
:102CB00099931F5F1D3161F767E086E093E00E9402
:102CC000B21563E280E093E00E94B21580E3809346
:102CD0008E03C2E0C093900310929103DFEFD09374
:102CE0008F03109292038EE893E00E94D61581E341
:102CF00080938903C0938B0381E080938C03D093EE
:102D00008A0310928D0389E893E00E94D61582E32E
:102D100080938403C0938603C0938703D093850375
:102D20001092880384E893E00E94D61583E3809391
:102D30007F03C093810313E010938203D093800339
:102D4000109283038FE793E00E94D6158CE2809364
:102D50007A03C0937C0384E0F82EF0927D03D09335
:102D60007B0310927E038AE793E00E94D61508E069
:102D700000937503C093770395E0E92EE092780302
:102D8000D09376031092790385E793E00E94D615DD
:102D90008EE280937003C093720386E08093730386
:102DA000D09371031092740380E793E00E94D615CC
:102DB000E0926B03C0936D0387E080936E03D09322
:102DC0006C0310926F038BE693E00E94D615F0928D
:102DD0006603C093680300936903D093670310925E
:102DE0006A0386E693E00E94D61585E2809361032C
:102DF000C093630389E080936403D09362031092CD
:102E0000650381E693E00E94D61586E280935C0319
:102E1000C0935E038AE080935F03D0935D031092BA
:102E200060038CE593E00E94D61587E280935703F8
:102E3000C09359038BE080935A03D09358031092A8
:102E40005B0387E593E00E94D61588E280935203E6
:102E5000C09354030CE000935503D0935303109296
:102E6000560382E593E00E94D61589E280934D03D4
:102E7000C0934F032DE0F22EF0925003D0934E03F7
:102E8000109251038DE493E00E94D6158EE080935A
:102E90004803C0934A0380934B03D0934903109295
:102EA0004C0388E493E00E94D61500934303C0933B
:102EB00045030FE000934603D09344031092470369
:102EC00083E493E00E94D615F0923E03C093400342
:102ED00080E180934103D0933F03109242038EE33D
:102EE00093E00E94D61500933903C0933B0381E120
:102EF00080933C03D0933A0310923D0389E393E01F
:102F00000E94D6158FE280933403C093360382E18A
:102F100080933703D09335031092380384E393E012
:102F20000E94D61510932F03C093310383E1809341
:102F30003203D0933003109233038FE293E00E9468
:102F4000D6158CE180932A03C0932C0384E18093EF
:102F50002D03D0932B0310922E038AE293E00E945C
:102F6000D6158BE180932503C093270385E18093D9
:102F70002803D09326031092290385E293E00E9450
:102F8000D6151AE110932003C093220386E18093A3
:102F90002303D09321031092240380E293E00E9444
:102FA000D61509E100931B03C0931D0387E18093AD
:102FB0001E03D0931C0310921F038BE193E00E9429
:102FC000D61588E180931603C093180380931903E4
:102FD000D093170310921A0386E193E00E94D6154E
:102FE00081E280931103C093130300931403D093E1
:102FF00012031092150381E193E00E94D6158DE231
:1030000080930C03C0930E0310930F03D0930D0312
:10301000109210038CE093E00E94D6151092950355
:1030200010929603109297031092980310929903AE
:1030300010929A0310929B0310929C0310929D038E
:1030400010929E0310929F0387E090E09093940368
:1030500080939303DF91CF911F910F91FF90EF9099
:103060000895CF93DF93CDB7DEB763970FB6F8948B
:10307000DEBF0FBECDBF789483B78C6483BF87B7A4
:10308000816087BF82E08EBD8EB581608EBD8FB5B9
:1030900081608FBD85B5846085BD85B5806485BD43
:1030A00080918A00836080938A0080918B00816088
:1030B00080938B0087E886B91AB80FB6F894A89564
:1030C00081B5886181BD11BC0FBE2FB7F89490E027
:1030D00080E0FC01EA5BFD4F108201968B31910587
:1030E000C1F7809162008E7F80936200AD989698C0
:1030F0009798809165008E7F809365008091650030
:103100008D7F80936500A8981B98809162008B7FCB
:1031100080936200C798C598C498C698DB98DC98DD
:10312000DD98DE98DF981C981D98809162008D7F55
:1031300080936200C098D898809162008F7B8093C2
:103140006200809162008F7D8093620080916200B6
:103150008F7E8093620080916200877F80936200FF
:103160002FBF9FB7F89480916100816080936100C8
:10317000A59A8E9A8F9A80916400816080936400F2
:1031800080916400826080936400A09A139A809179
:103190006100846080936100BF9ABD9ABC9ABE9A18
:1031A000D39AD49AD59AD69AD79A149A159A809186
:1031B0006100826080936100B89AD09A809161002A
:1031C00080648093610080916100806280936100DF
:1031D00080916100806180936100809161008860CE
:1031E000809361009FBF1FBC89E08EBD81E194E0A8
:1031F0009BBD8ABD87B7806187BF1092610261E085
:103200008BE00E94D20286E093E00E94E407D12C7A
:10321000C12CBB24B394F601E25FFD4FE4910E2F65
:1032200010E0C8010E94D709F82EC80101960E943B
:10323000D709E82EC80102960E94D709A82EC80116
:1032400003960E94D7099091F902F91638F5F60114
:10325000E15EFE4F00811181D8011196AC92119769
:1032600014968C938F2DE11046C10E949A014C0157
:1032700041E050E0B8010E94CF10F40196838583AD
:103280008F2D0E949A017C0150E040E0B8010E941D
:10329000CF10D70119969C938E931897A895F2E0BA
:1032A000CF0ED11C26E3C216D10409F0B4CF61E0E1
:1032B00070E084E090E00E94B9239093FD02809337
:1032C000FC02892B91F010E000E0E090FC02F0900D
:1032D000FD02E00EF11E802F0E94FC0CD7018C93A2
:1032E0000F5F1F4F0430110581F780E00E94E80C4A
:1032F000082F10E081E00E94E80C282F30E0322FE8
:10330000222722273E7F000F111F202B312B3093C5
:10331000FF022093FE0280FF05C021603093FF0270
:103320002093FE021092F8011092F70110928A0287
:103330001092AC021092880281E080938702109272
:10334000620261E083E10E94A40261E082E10E94E6
:10335000A402809171008E7F809371008091710032
:103360008D7F8093710088E48093700085E4809362
:10337000740080E192E09093F6018093F5018CE176
:1033800092E09093F4018093F30182E080937200C5
:103390008CE08093700089E69DE09093FA01809321
:1033A000F90189E894E09093FC018093FB0181E0AE
:1033B00090E00E94D70921E030E03093FE01209395
:1033C000FD018093FF0181E190E00E94D70921E196
:1033D00030E030930102209300028093020282E1E8
:1033E00090E00E94D70922E130E03093040220935C
:1033F0000302809305028DE190E00E94940A81FD12
:1034000092C08DE190E090930702809306021092A3
:10341000080287E08093C0028093C102EAEAF2E0EA
:10342000E491F0E0EE0FFF1FED56FD4F8591949172
:103430009093C3028093C202E5E6F2E0E491E09348
:10344000C40260E087E00E94D2020E94DB0E10926C
:1034500088001092890010928A0010928B0080914F
:103460008A00846080938A0080917D0084608093CC
:103470007D0088E19BE00FB6F894A89581BD0FBE52
:1034800091BD0E940E036B017C01B1E0BB8BE0910A
:103490000902F0910A02309709F46DC080E090E0D3
:1034A000892B21F0618180810E940000E091090256
:1034B000F0910A028081803409F48CC108F0C9C0FF
:1034C000893209F4F3C108F0A0C0843209F4CDC1F7
:1034D00008F03FC0813209F497C1833209F49DC1DD
:1034E00081113FC080E090E0892B09F402C1818105
:1034F0000E940000FEC00E949A01FC01B382F0E825
:10350000EF1609F4BDCEB1E8EB12C8CE8F2D0E94A4
:103510009A017C0141E050E0B8010E94CF10F70110
:1035200096838583BBCE85FD0DC080911901909156
:103530001A01A0911B018093060290930702A093A9
:10354000080267CF80911C0190911D01A0911E017E
:10355000F2CF863209F475C108F490C1883209F4BB
:103560009BC1828193812FEF3FEF3383228390931E
:103570000A02809309022B89223009F42EC42330D9
:1035800009F4B0C7213009F0C8C08091B102882386
:10359000F1F02FB7F89480910B0290910C02A0915A
:1035A0000D02B0910E022FBF4091B2025091B302B2
:1035B0006091B4027091B502841B950BA60BB70BFA
:1035C0004597A105B10518F080E00E94C8098091D7
:1035D000CF02882309F4E1C3F89488E0EBEDF2E030
:1035E000ACE9B7E001900D928A95E1F71092CF0215
:1035F000789480919C07E82FF0E0E256F84F8630EF
:1036000008F08EC111928F5FFACF8D3209F466C136
:1036100068F48B3209F45AC108F450C180E090E09C
:10362000892B09F466C0618184E03DC18F3209F4C1
:1036300065C108F45BC1803309F468C1813309F0C6
:1036400090CF80E090E0892B09F453C0618182E043
:1036500064C1803609F449C058F5803509F405C1C4
:1036600078F4823409F4C8C008F4BEC0833409F089
:1036700078CF80E090E0892BE1F1618183E0B1C0F7
:103680008235B9F108F4FAC08E3509F06ACFA2810B
:10369000B3811097E1F18C918F3559F580E090E07E
:1036A000892B39F111969C9181810E94000021C0E3
:1036B000893650F48436E8F4823609F446C008F4BA
:1036C00041C0618183E013C08D3609F441C08E365C
:1036D00009F465C08C3609F044CF80E090E0892B76
:1036E00041F081810E94000004C0618180E00E945D
:1036F000E308E0910902F0910A02828193812FEFA1
:103700003FEF3383228390930A02809309020E9441
:103710000E036B017C01FBE0FB8B0E940E036C1916
:103720007D098E099F096132714A8740910508F42D
:1037300052C30E94DB0E0E940E036B017C01E1E08C
:10374000EB8B49C3618181E0D2CF618182E0CFCF31
:1037500080E090E0892B69F26181862F8F77D1F428
:1037600010E000E067FD0BC00F5F1F4F0038110530
:1037700009F4BFCF60E0C8010E940000F5CF0F5FE1
:103780001F4F0038110509F4B4CF61E0C8010E9451
:103790000000F5CF607890E00E940000AACFA281DF
:1037A000B381109709F4B3CF8C918F3609F0A1CF74
:1037B00080E090E0892B09F49CCF2181622F661F65
:1037C0006627661F11968C91E0E88E9FC001112438
:1037D000822BE2CF80E090E0892B09F48ACF6181CF
:1037E00080E00E94000085CF80E090E0892B09F402
:1037F00080CF618181E0F5CF80E090E0892B09F4F2
:1038000078CF618182E0EDCF80E090E0892B09F4F0
:1038100070CF81810E9400006CCF80E090E0892B06
:1038200009F467CF818187FD06C0082E000C990B33
:103830000E9400005ECF819590E09195819591095D
:10384000F7CF80E090E0892B09F453CF818187FD89
:1038500006C0082E000C990B0E9400004ACF8195EB
:1038600090E0919581959109F7CF818160E087FF84
:1038700002C061E080580E94D9093BCF80E090E00F
:10388000892B09F436CF818160E087FF02C061E0B7
:1038900080580E9400002DCF80E090E0892B09F431
:1038A00028CF618180E00E94000023CF80E090E07B
:1038B000892B09F41ECF618181E0F5CF80E090E093
:1038C000892B09F416CF618182E0EDCF80E090E092
:1038D000892B09F40ECF618183E0E5CF80E090E091
:1038E000892B09F406CF618185E0DDCF80E090E08F
:1038F000892B09F4FECE618186E0D5CF80E090E08F
:10390000892B09F4F6CE618187E0CDCF80E090E08D
:10391000892B09F4EECE618181E00E940000E9CE9E
:1039200080E090E0892B21F08CE997E00E94000074
:1039300080919E0781111BC090919F07911117C024
:1039400080E090E0892B19F080E00E9400008091D7
:10395000B102882341F081E00E94F7060E940E0325
:103960006B017C0138C281E00E94C809F7CF9091B9
:10397000B102992309F486C08057803108F07FC0D6
:1039800081E00E94F70610919C078091B8021813FD
:103990000AC0412F50E06AEB72E08EE997E00E9486
:1039A000FA24892B61F01092B70288E0ECE9F7E085
:1039B000A8EBB2E001900D928A95E1F7CFCF80910C
:1039C000B7028F5F8093B702133009F040C0909127
:1039D0009E07892F8770F0909F07853029F4F09219
:1039E000B6020E94AC03BACF0DE110E0843091F032
:1039F000282F30E08430F0F40091B6020023D1F09B
:103A00000150110B000F111F000F111F020F131F88
:103A10000F5F1F4F93FF10C061E0C8010E94490E65
:103A2000882309F49BCF6F2DC8010E94B80EF812AD
:103A300095CFD7CF8901ECCF60E0C8010E94490E35
:103A4000882309F48BCFC8010E94AE0AF0CF14304E
:103A500009F084CF80919E07682F70E0762F66274B
:103A60006627737090919F07692B6F5F7F4F2AEBDA
:103A700033E04091A0078C700E94700F6FCF80E000
:103A80000E94C809E0919E07EF3F61F480919F0773
:103A9000811164CF80E090E0892B09F45FCF0E9410
:103AA00000005CCFE7FD0DC00091A1072091A007A9
:103AB00040919F0770E060E08E2F90E00E94DE0F43
:103AC0004DCFE03C08F058C13091AF0237FF46CFF0
:103AD00020919F07822F90E08C0100951095000F98
:103AE000111F000F111F007C1170EF730E2B9595A5
:103AF0008795482F4370B42E80919C07853041F5FF
:103B00002C782C3029F50E94B00A8017910721F0FB
:103B10000F3F114009F022CF80919F0790E0982F2E
:103B20008827882793700091A007080F192F111D6F
:103B30000F5F1F4FF090A10761E0C8010E94490E7E
:103B40006F2D882309F40ACFC8010E94B80E06CF52
:103B5000680191E0C91AD108CC0CDD1CCC0CDD1C2D
:103B6000CB287601AFEFEA1AFA0A8091C7028823C0
:103B7000F9F036FF41C0C70160E071E00E944C23BC
:103B8000682F81E090E00E94B80EC701F7FE02C0E6
:103B900081509F4F692F89E090E00E94B80E80E02D
:103BA00090E0892B19F0C7010E9400001092C70213
:103BB0008091AF0280FD39C080919C07843009F06C
:103BC0004FC080919F078978813009F0C7CE80E08F
:103BD00090E0892B29F06091A007C7010E940000A6
:103BE00080E090E0892B09F4B9CE4091A0076B2DBD
:103BF000C7010E940000B2CEB8016F73772781E041
:103C000090E00E94B80EB801E6E075956795EA95D8
:103C1000E1F789E090E00E94B80E80E090E0892B07
:103C200029F2C8010E940000C1CF86FF0DC00E948A
:103C3000B00A8E159F0509F4BFCFBDEFEB16B7E0B4
:103C4000FB060CF0B9CF8ACE0E94B00A801791070C
:103C500009F4B2CF0F3FE1E01E0709F4ADCF7ECEED
:103C6000833069F540919F07F42FF170CF2E43FB0D
:103C7000DD24D0F880E090E0892B31F047702D2DC5
:103C8000B801C7010E9400008091AF0286FF0BC0FF
:103C900080E090E0892B09F461CE4D2D6C2DC70199
:103CA0000E9400005BCE80E090E0892B09F456CEA4
:103CB0002D2D4C2D6B2DC8010E9400004FCE86305B
:103CC00009F04CCE80919F07982F9978913021F080
:103CD0008F78803809F042CE8091AF0286FF28C0ED
:103CE0000E94B00A8E159F05E9F48091A00790E02C
:103CF000382F2227222733700091A107020F132F9C
:103D0000111D0F5F1F4FF090A20795958795959510
:103D10008795837099278230910599F0039709F46C
:103D20000BCF1CCE2DEFE21627E0F206F4F616CEEE
:103D30000E94B00A80179107C1F20F3F1140A9F20B
:103D40000DCEF4FE0BCE61E0C8010E94490E88231F
:103D500009F404CEC8010E94AE0A9F2D977061E05D
:103D600070E001C0660F9A95EAF7F3FE02C0682B77
:103D7000EBCE60956823E8CEE83E08F0EFCDE05C3E
:103D8000FF0B80919F070091A2072091A10740910E
:103D9000A00761E070E09E2F91CE0E940E036C1987
:103DA0007D098E099F096132714A8740910598F01B
:103DB00080E397E090931201809311018AB78F738B
:103DC00080648ABF89B7806889BF0E940E036B0137
:103DD0007C0182E08B8BA8955ACB80911D028111CA
:103DE00009C080E390E00E94D70980931C0281E023
:103DF00080931D0280911402811109C081E090E03E
:103E00000E94D7098093130281E0809314020FEE81
:103E100013E09AE0892E912C5524539426E6422EE5
:103E200034E0332ED8011C968D919C91019709F0B6
:103E30004FC1F801E654F109808191813296A0804A
:103E4000B180A80EB91EF801148A158A168212864E
:103E500016861786108A1782118A168A118615828D
:103E60001482138A128A1386B50175956795A80185
:103E70004C555109FA0121E030E086899789A32F3A
:103E8000A69566246394712C6C0E7D1E6A0E711CBF
:103E9000D30122242394681779070CF0212C2C924B
:103EA000313248F4A08DB18D8A0F9B1F8E57910936
:103EB000C19708F420E03E5F34963432F1F6FE01FB
:103EC0003196489C3001499C700C11246FE877E0D2
:103ED0006619770990E080E03081311195C0318119
:103EE0003111AFC0DA01A80FB91F1D961C920196BF
:103EF00032968930910581F7F80180819181A28104
:103F0000B38185519540A109B10983359B40A10535
:103F1000B10508F052C1222309F44FC181E026E91E
:103F2000A216B1040CF080E0D80154968C93F801ED
:103F3000EC54F109808131979081B9E09B9F902DDD
:103F40001124EBE18E9F900D1124F801EF54F1093B
:103F50008081980F31962081822F880F820F980FD1
:103F6000D80116969C933396B6E9AB16B1040CF4BF
:103F7000FDC081E09081913009F080E0F8018687F2
:103F80008989880F9F85890F880F9D85890F880FE4
:103F90009B85890F91E009F090E0D8011F969C93D2
:103FA00091E0813009F090E0F801908B811181500F
:103FB000D80117968C93179755968C91559788230F
:103FC00009F45CC08C85880F9E85890F880F9889BD
:103FD000890F880F9A89890FEEEFE80FEE3008F00D
:103FE0004DC0F0E0EA50F04E0C9482233020302097
:103FF00037203720A420A4203E203E20AC20AC2037
:10400000AF20AF20B320B3203130D9F42180A1E01C
:104010002A1206C0DB01A80FB91F1D962C9267CF8C
:1040200021100FC0DA01A80FB91F6894222421F8CB
:104030001D962C92853008F45ACFD80155963C93A2
:1040400056CF853058F0DB01A80FB91F33E0232E7F
:104050001D962C92D80155965C9249CF20E04CCF0A
:1040600092E0292EF80121868170868B07C0E1E05D
:10407000F0E0D8011596FC93EE93149789E090E058
:10408000FAE08F16910411F088199909E2E0F0E046
:10409000D8011D96FC93EE931C97489EB001499E53
:1040A000700D1124FB01E550FC4F80819181029736
:1040B00079F460567C4F49E050E08CE997E086192E
:1040C00097090E94FA24E3E0F0E0892B09F477C015
:1040D000F1E08F1A91080A591F4F8114910409F0D9
:1040E000A1CEEBEFF3E090E080E02081318123303E
:1040F000310509F06AC026E6289F8001299F100D2E
:104100001124F801E550FC4F84E090E09183808316
:1041100000561C4F0115110509F05FC01FEF0E94EA
:104120000E036C197D098E099F096132714A87401F
:10413000910508F450CE1111BAC10E94DB0E0E9405
:104140000E0331E03B8B0ACCE3E01996EC93199710
:10415000817056968C9392CFE2E0F0E08ACF199668
:104160005C921997F5CFF80131867ECF808181115D
:1041700024C02B858F85880F3D85830F880F820F84
:10418000D8011A968C931A9786958F5F915C990F38
:10419000990F890F1B968C931B978989813009F0A1
:1041A0006DCF51968C9382E090E0211102C081E0A6
:1041B00090E0F801938B828B61CFE5E0F0E0D801CD
:1041C0001D96FC93EE931C9783CF0196EA59FF4FFF
:1041D0008A30910509F089CFA1CF90911C0290FF00
:1041E00061C1F801EB5AFF4FA081B0E0E0901302EB
:1041F000F12C9D012E193F092130310509F499C098
:10420000DCF5232B09F0AACB80911202F801E35AC6
:10421000FF4F9081992309F450C08061809312026E
:1042200080911202F801E85AFF4F9081923009F410
:104230005FC008F044C0913009F44EC020911202D2
:1042400041E050E070E060E0CD010E94000BF80119
:10425000ED5AFF4F808191818130910509F05EC058
:1042600033960DE110E021E030E0408170E060E045
:10427000C7010E94B30872CB2230310509F49FC0F8
:104280002330310509F06ACB93FF68CB90910F0280
:10429000F801E85AFF4F8081823009F4EDC008F040
:1042A000D2C0813009F4DCC020910F0244E050E01C
:1042B00070E060E0CD01039751C08F7EAFCF9330A7
:1042C00009F1943009F0BACFF801EB59FF4F908112
:1042D000992311F1886007C0F801EB59FF4F9081D5
:1042E000992321F0816080931202A8CF8E7FFBCFAB
:1042F000F801EB59FF4F9081992311F08260F3CFC1
:104300008D7FF1CFF801EB59FF4F9081992311F088
:104310008460E9CF8B7FE7CF877FE5CF029709F0F5
:104320001DCBF801EA5AFF4F0DE110E030E020E02C
:104330009CCF91FF13CB80911102F801E85AFF4FF7
:104340009081923031F168F49130B9F020911102EE
:1043500042E050E070E060E0CD0101970E94000B68
:10436000FDCA933001F1943089F7F801EB59FF4F02
:104370009081992311F1886007C0F801EB59FF4F34
:104380009081992321F0816080931102DFCF8E7F8D
:10439000FBCFF801EB59FF4F9081992311F0826018
:1043A000F3CF8D7FF1CFF801EB59FF4F9081992327
:1043B00011F08460E9CF8B7FE7CF877FE5CF92FF55
:1043C000CDCA80911002F801E85AFF4F90819230D7
:1043D00021F158F49130A9F02091100243E050E00F
:1043E00070E060E0CD010297B9CF933001F19430D5
:1043F00099F7F801EB59FF4F9081992311F18860EB
:1044000007C0F801EB59FF4F9081992321F081609B
:1044100080931002E1CF8E7FFBCFF801EB59FF4F65
:104420009081992311F08260F3CF8D7FF1CFF80155
:10443000EB59FF4F9081992311F08460E9CF8B7F76
:10444000E7CF877FE5CF833009F1843009F02CCFA7
:10445000F801EB59FF4F8081882311F1986007C064
:10446000F801EB59FF4F8081882321F091609093F0
:104470000F021ACF9E7FFBCFF801EB59FF4F8081CF
:10448000882311F09260F3CF9D7FF1CFF801EB59B3
:10449000FF4F8081882311F09460E9CF9B7FE7CFA5
:1044A000977FE5CF97FD0E94770810E038CE8DE129
:1044B00090E00E94D70982FF10C084E393E09093BC
:1044C0001201809311018AB78F7380648ABF89B704
:1044D000806889BF43E04B8B41CA0E94DB0E81E0BC
:1044E0008B8B3CCA20913E0230913F0240914002AA
:1044F00050914102A4E6B0E00E948B232091420239
:104500003091430240914402509145020E94602341
:1045100049015A018091320281110BC080922E0212
:1045200090922F02A0923002B092310281E08093EB
:10453000320280910201833059F5C501B40124E6AD
:1045400030E040E050E00E946023A5E0B0E00E942F
:104550008B2300912E0210912F0220913002309176
:10456000310224013501461A570A680A790A0415EE
:1045700015052605370548F0680D791D8A1D9B1D18
:10458000601771078207930718F482E08093020195
:10459000109102011230C1F1133009F441C0113001
:1045A000A1F480912602811108C086E093E00E9468
:1045B000C403809325021093260280912502813046
:1045C00061F581E090E00E94A5080E9477086AE00A
:1045D00070E080E090E00E947A0380922E02909238
:1045E0002F02A0923002B09231020E940E036C1989
:1045F0007D098E099F096132714A8740910508F44F
:10460000EACBFFEFFB8BE7CBD501C401C897A1092B
:10461000B1098C97A105B105A0F290E080E0D3CF5D
:1046200080E093E00E94C403182F813071F68091DE
:104630000101813069F490E080E00E94A5081092A9
:10464000010180E093E00E94C4038130D1F3BDCF2B
:1046500081E090E00E94A50810930101F2CF80E074
:1046600093E00E94E40786E093E00C94E407E1996C
:10467000FECF9FBB8EBBE09A99278DB30895262F5E
:10468000E199FECF9FBB8EBB2DBB0FB6F894E29A8B
:10469000E19A0FBE0196089597FB072E16F4009439
:1046A00007D077FD09D00E94962307FC05D03EF481
:1046B000909581959F4F0895709561957F4F0895CE
:1046C000A1E21A2EAA1BBB1BFD010DC0AA1FBB1F16
:1046D000EE1FFF1FA217B307E407F50720F0A21B88
:1046E000B30BE40BF50B661F771F881F991F1A94F5
:1046F00069F760957095809590959B01AC01BD011F
:10470000CF010895EE0FFF1F0024001C0BBE079081
:10471000F691E02D09940E94AA23A59F900DB49FC5
:10472000900DA49F800D911D11240895AA1BBB1B01
:1047300051E107C0AA1FBB1FA617B70710F0A61BA1
:10474000B70B881F991F5A95A9F780959095BC01C2
:10475000CD010895A29FB001B39FC001A39F700D2A
:10476000811D1124911DB29F700D811D1124911D79
:1047700008950F931F93CF93DF93869F8001879FA8
:10478000100D969F100D1124C8010E94D523EC0135
:10479000009729F0A80170E060E00E940725CE0193
:1047A000DF91CF911F910F9108950F931F93CF9396
:1047B000DF938230910510F482E090E0E091A6074B
:1047C000F091A70730E020E0B0E0A0E0309799F446
:1047D0002115310509F44AC0281B390B2430310555
:1047E000D8F58A819B816115710589F1FB0193835D
:1047F0008283FE0111C040815181028113814817DB
:104800005907E0F04817590799F4109761F012968C
:104810000C93129713961C933296CF01DF91CF9190
:104820001F910F9108950093A6071093A707F4CF47
:104830002115310551F04217530738F0A901DB016A
:104840009A01BD01DF01F801C1CFEF01F9CF9093CB
:10485000A7078093A607CDCFFE01E20FF31F819338
:1048600091932250310939832883D7CF2091A4070F
:104870003091A507232B41F42091150130911601A9
:104880003093A5072093A4072091130130911401C0
:104890002115310541F42DB73EB7409117015091D4
:1048A0001801241B350BE091A407F091A507E2172E
:1048B000F307A0F42E1B3F0B2817390778F0AC0143
:1048C0004E5F5F4F2417350748F04E0F5F1F509320
:1048D000A5074093A407819391939FCFF0E0E0E078
:1048E0009CCFCF93DF930097E9F0FC0132971382BE
:1048F0001282A091A607B091A707ED0130E020E059
:104900001097A1F420813181820F931F2091A40779
:104910003091A5072817390709F061C0F093A50762
:10492000E093A407DF91CF910895EA01CE17DF0746
:10493000E8F54A815B819E0141155105B1F7E90116
:10494000FB83EA8349915991C40FD51FEC17FD07EA
:1049500061F4808191810296840F951FE90199830A
:104960008883828193819B838A83F0E0E0E01296C2
:104970008D919C9113970097B9F52D913C911197CA
:10498000CD010296820F931F2091A4073091A507B5
:104990002817390739F6309751F51092A70710926A
:1049A000A607B093A507A093A407BCCFD383C28367
:1049B00040815181840F951FC817D90761F44E5F5C
:1049C0005F4F88819981480F591F518340838A81A5
:1049D0009B81938382832115310509F0B0CFF09339
:1049E000A707E093A6079ECFFD01DC01C0CF13828D
:1049F0001282D7CFFB01DC0104C08D910190801998
:104A000021F441505040C8F7881B990B0895DC01F0
:104A100001C06D9341505040E0F7089511E0CDE69C
:104A2000D1E004C0FE010E9482232196CE36D10738
:064A3000C9F7F894FFCF66
:104A3600010101BC030000000000000000000000AE
:104A46000000000000A80780001D00021D00228E45
:104A560003890384037F037A03750370036B03667C
:104A66000361035C03570352034D03480343033EAC
:104A760003390334032F032A03250320031B0316DC
:104A86000311030C03000000005A042D04A1040ABC
:084A960004BD031A040B040027
:00000001FF
