:100000000C9446010C9429100C94FE0F0C94D30F01
:100010000C94A80F0C947D0F0C94520F0C94270F86
:100020000C94FC0E0C9470010C9470010C947001F3
:100030000C9411120C9470010C9470010C947001CA
:100040000C94B20E0C9470010C9470010C9470011D
:100050000C9470010C9470010C9470010C9470015C
:100060000C9470010C9470010C9470010C9470014C
:100070000C9470010C9474110C9470010C94700128
:100080000C9470010C9454100C9470013F03000008
:100090000000000B0D0000000000000101C0800006
:1000A000000000000000000000060000000000004A
:1000B0000000000000000000000000000000000040
:1000C000000000000000FF0300000000000000002E
:1000D0000000000000000000000000000000000020
:1000E0000000000000000000000000000000000010
:1000F0000000000000000000000000000100AA0055
:100100000200AA000300AA000400AA000500AA0039
:100110000600AA000700AA000800AA000900AA0019
:100120000A0080000B0080000C0080000D008000A1
:100130000E0080000F008000100080001100800081
:10014000120080001300AA001400AA000000AA00F8
:100150000000AA000000AA000000AA000000AA00F7
:100160001580FF001581FF00FF000000FF00000068
:10017000FF000000FF000000FF000000FF00000083
:10018000FF000000FF000000FF000000FF00000073
:10019000FF000000FF000000FF0000000000000062
:1001A000000000000000000000000000000000004F
:1001B000000000000000000000000039003600339D
:1001C0000030002100200063000000000A0B0C003A
:1001D000000000000001040506000000000000000F
:1001E000000000000000000000000000000000000F
:1001F00000000000000000000000000000000000FF
:100200003B0038003500320023006200650000002A
:100210003A00370034003100220061006400050517
:100220000505050505050202020202020202070792
:10023000040404040404040407070303030303037E
:10024000030307010101010101010106060606067B
:10025000060606010204081020408001020408106E
:100260002040800810010204081020408001020193
:10027000020408102040800480402010080402017D
:1002800001020408102040806313781611241FBE59
:10029000CFEFD0E1DEBFCDBF11E0A0E0B1E0E8E1FB
:1002A000F0E300E00BBF02C007900D92A036B1074B
:1002B000D9F727E0A0E6B1E001C01D92AF31B20747
:1002C000E1F711E0C5E4D1E004C02197FE010E94EE
:1002D000AE16C434D107C9F70E94B1150C94FF17AC
:1002E0000C94000090E0FC01ED5AFD4F2491825ED9
:1002F0009D4FFC018491882399F090E0880F991F0D
:10030000FC01E25FFD4FA591B491FC01E250FE4F6C
:10031000859194918FB7F894EC91E22BEC938FBF79
:1003200008952091610281E0213208F044C080915B
:100330003D028111FCCF8091600292E090933D02DA
:1003400091E090933C029FEF90933B0210923A020F
:1003500020933902A0E4B2E0E9E1F2E090E0291351
:1003600031C01092180290911802880F892B809347
:10037000180280911702813049F51092170280917E
:100380001802809373008091740083FDF8CF85EC90
:100390008093740080913D028230E1F380913B02B2
:1003A0008F3FB1F080913B028032A1F080913B02FF
:1003B000803391F084E010923F021092610210921B
:1003C0003E0208953D9131939F5FC9CF85EEE0CF06
:1003D00080E0F1CF82E0EFCF83E0EDCFE82FF0E0D7
:1003E000EB53FE4F6083089581508C3088F5E82FE1
:1003F000F0E0E350FE4F0C94AE16250225022802D1
:1004000009020D02100213022802280217021D021F
:1004100021028FB58F778FBD08958FB58F7DFBCF6C
:100420008FB5877FF8CF85B58F7D85BD0895809185
:100430008B008F7780938B00089580918B008F7D48
:10044000F9CF80918B00877FF5CF83B78F7D83BFF6
:100450000895CF93DF93282F30E0F901E753FE4F43
:100460008491F901ED5AFD4FD491F901E25EFD4FFF
:10047000C491CC23A1F081110E94F401EC2FF0E093
:10048000EE0FFF1FE754FE4FA591B491EC91ED23C1
:1004900081E090E009F480E0DF91CF91089580E061
:1004A00090E0FACF1F93CF93DF93282F30E0F9012C
:1004B000E753FE4F8491F901ED5AFD4FD491F901B4
:1004C000E25EFD4FC491CC23A9F0162F81110E944A
:1004D000F401EC2FF0E0EE0FFF1FE250FE4FA5916C
:1004E000B4918FB7F894EC91111108C0D095DE2328
:1004F000DC938FBFDF91CF911F910895DE2BF8CF52
:100500003FB7F8948091B1019091B201A091B301ED
:10051000B091B40122B706B600FE05C02F3F19F016
:100520000196A11DB11D3FBFBA2FA92F982F882773
:10053000BC01CD01620F711D811D911D42E0660F4E
:10054000771F881F991F4A95D1F70895CF92DF92A0
:10055000EF92FF920F931F930E9480026B017C0128
:1005600080910001813019F483E08093000187E0DD
:100570000E9429024091B9015091BA016091BB01DA
:100580007091BC0197018601041B150B260B370BDC
:10059000B901A801892BB9F44093C1015093C2015C
:1005A0006093C3017093C401C092B901D092BA01A3
:1005B000E092BB01F092BC011F910F91FF90EF9070
:1005C000DF90CF9008954093BD015093BE0160939A
:1005D000BF017093C001F0CF8F929F92AF92BF92F4
:1005E000CF92DF92EF92FF924B015C010E9480025A
:1005F0006B017C010E9480026C197D098E099F09A4
:10060000683E734081059105A8F321E0821A9108A4
:10061000A108B10888EEC80E83E0D81EE11CF11CC9
:1006200081149104A104B10429F7FF90EF90DF90A9
:10063000CF90BF90AF909F908F90089561E08BE036
:100640000E94520264E070E080E090E00E94EC02C0
:1006500060E08BE00C9452020C941E030895CF933B
:10066000DF93DC01EC91F0E0EE0FFF1FE754FE4F4B
:10067000C591D491988111968C91982381E009F4C9
:1006800080E0DF91CF91089585ED80937400809193
:10069000740084FDFCCF10923D02089520918D01DD
:1006A000260F3327331F21323105ECF420913D0210
:1006B000FC0190E080E0243069F082E00895A09190
:1006C0008D012191AC0143595E4FA40FB52FB11D8F
:1006D0002C930196861798F380918D01680F609393
:1006E0008D0180E0089581E0089508958FEF9FEFD8
:1006F00008958FEF9FEF089580916C0190E09195A0
:10070000819591090895CF92DF92EF92FF920F9316
:100710001F93CF93DF937C01CB018A0120913E028E
:10072000222389F0EB016B01C40ED51ECC15DD052B
:1007300069F06991D701ED91FC910190F081E02D74
:10074000C7010995F3CF642F0E944E03C801DF91C2
:10075000CF911F910F91FF90EF90DF90CF90089570
:10076000CF93DF931F92CDB7DEB7698320913E020E
:100770002223F9F020916102203258F021E030E08C
:10078000FC013383228390E080E00F90DF91CF91D2
:10079000089580913F02E82FF0E0E05CFD4F9981E1
:1007A00090838F5F80933F028093610281E090E0AD
:1007B000ECCF61E0CE0101960E944E03F7CF90E0AE
:1007C00080E0089580E090E0892B29F08091FC0181
:1007D00083FD0C9400000895EF92FF9280916B01CD
:1007E000823009F477C0833039F48091F5010E949A
:1007F0002902019709F075C00E94800220916901C9
:1008000030916A017B01E21AF30A2091FD013091D7
:10081000FE01E216F30608F464C020910102309153
:1008200002022130310561F0E091F601F091F7010B
:1008300040815091F80145235091E101451351C089
:1008400070936A01609369014091FF015091000229
:100850002230310509F4D2C02330310509F40DC12D
:100860002130310561F420916801213009F449C03B
:10087000D8F1233009F481C0243009F4A7C02091B5
:100880000102309102022130310559F1E416F506DA
:1008900008F02BC1809166018F5F809366018B30D9
:1008A00000F181E090E09093020280930102809336
:1008B0006B011092E1011092680182E590E0909343
:1008C00000028093FF0183E290E09093FE01809309
:1008D000FD0107C08091F5010E942902892B09F4CE
:1008E0008BCFFF90EF900895E416F50630F421E0E9
:1008F00020936801E0926701C2CF24E02093680151
:10090000BECFE416F506B8F5109268012091660195
:100910002F5F20936601609167012E2D0E2C000C35
:10092000330B261B310967FD339537FF03C0319523
:100930002195310929313105A4F210920202109259
:10094000010222E930E0309300022093FF0122E50A
:1009500030E03093FE012093FD011092660130914A
:10096000E20130936B012091F801333009F020E06F
:100970002093E10184CF23E0C1CFE416F506E8F22D
:100980003091E201333009F422E02093E20122E0C9
:1009900030E0309302022093010222E930E03093EC
:1009A00000022093FF0122E530E03093FE01209306
:1009B000FD01109207022091660120930802109217
:1009C00004021092060210920502C9CFE416F50641
:1009D000F0F6109202021092010222E930E0309308
:1009E00000022093FF0122E530E03093FE012093C6
:1009F000FD011092660110920402B1CF3091040201
:100A00003F5F3093040220910502220FE416F506A1
:100A1000E0F020930502383009F038CFE09107026A
:100A2000E630A9F4109202021092010222E930E0AD
:100A3000309300022093FF0122E530E03093FE0165
:100A40002093FD01109204021ACF2160E2CF23E02F
:100A500030E030930202209301023091050221E040
:100A60002E0F20930702F0E0EF5FFD4F30872091BB
:100A7000060223272093060202CFE416F50628F586
:100A800010920202109201021092040222E930E058
:100A9000309300022093FF0122E530E03093FE0105
:100AA0002093FD01209106022111F4CE28E0E7E019
:100AB000F2E0AFE0B2E001900D922A95E1F721E07B
:100AC0002093030210926601DACE209107022630AD
:100AD00009F4A8CF22E030E0309302022093010213
:100AE0001092040210920502CACE10926601F9CE4D
:100AF0000F931F93CF93DF93FC018281813089F0A4
:100B000040F0823009F479C0DF91CF911F910F91AD
:100B1000089561E08081DF91CF911F910F910C9436
:100B200052020181C02FD0E01081812F0E947201FA
:100B3000209719F460E0812FEECFCF3FD10511F45B
:100B400061E0F9CFE12FF0E0E753FE4FE491E1508F
:100B5000EC3008F04DC0F0E0E055FA4F0C94AE16C2
:100B6000BC05BC05F805C105C705CD05D505F805CB
:100B7000F805DA05E405EE0583B7806283BF01BF9F
:100B8000C3CF8FB580688FBDDBBDCABDBDCF8FB56C
:100B900080628FBDD9BDC8BDB7CF8FB588608FBD0E
:100BA000D0937900C0937800AFCF85B5806285BDC2
:100BB00003BDAACF80918B00806880938B00D09377
:100BC0008700C0938600A0CF80918B0080628093C5
:100BD0008B00D0938500C093840096CF80918B00CA
:100BE000886080938B00D0938300C09382008CCF69
:100BF000C038D1050CF0A4CF9DCF8181E381F0E016
:100C0000EB53FE4F808380CF0F931F93CF93DF93DF
:100C1000D62F8C01C0E0CD1741F0F8018191919160
:100C20008F010E947805CF5FF6CFDF91CF911F91A2
:100C30000F91089580936301882351F08DE093E034
:100C40000E94780580918A00887F80938A000895A9
:100C50008DE093E00E947805109288001092890040
:100C600080918A008460F1CFCF93C82F8091E501F5
:100C70008C1731F081E0C11101C080E00E941A069A
:100C8000C093E501CC2311F12FB7F8948091B50101
:100C90009091B601A091B701B091B8012FBF482F34
:100CA000392F2A2F8B2F4093E6013093E7012093B1
:100CB000E8018093E9018091E5018C1761F081E002
:100CC000C11101C080E0CF910C941A0640E030E0E1
:100CD00020E080E0E8CFCF9108958F929F92AF926D
:100CE000BF92CF92DF92EF92FF920F931F93CF9319
:100CF0000E948002AB01BC01809114039091150306
:100D0000A0911603B09117038A019B01081B190BD0
:100D10002A0B3B0B80911C03882309F481C080912E
:100D20001E0390911D03A82F082E000CBB0BC3E3DC
:100D30008C02F0011124E90FF11D97FDFA95EE0FD9
:100D4000FF1FE85DFC4F11830083053F1140210523
:100D5000310508F054C09F5F90931D0390911D03CF
:100D60009332C9F596E69A9F90019B9F300D11240E
:100D70002E5E3C4FF901E45AFF4FC0901803D0900B
:100D80001903E0901A03F0901B034A015B018C18D1
:100D90009D08AE08BF0875016401C082D182E2825D
:100DA000F38228593F4FE1E0F0E0D901ED93FC9345
:100DB0008F5F8A3094F580931E03E0911E03B6E6A0
:100DC000EB02F0011124E658FC4F118210821092C0
:100DD0001C0310921D03409314035093150360935A
:100DE000160370931703CF911F910F91FF90EF900F
:100DF000DF90CF90BF90AF909F908F90089510920A
:100E00001D0391E090931C03409318035093190322
:100E100060931A0370931B03A1CF10921E03CDCFD2
:100E2000053F114021053105B0F281E080931C039C
:100E3000409318035093190360931A0370931B0394
:100E4000CACF1F93CF93DF93C7E1D1E01FEF899102
:100E50009991FC0111830E947805F1E0CD34DF0700
:100E6000B1F7DF91CF911F910895FF920F931F93D8
:100E7000CF93DF93F62E8C01C0E0CF15F1F0D801AF
:100E8000ED91FD918D018281813051F020F0823011
:100E900071F0CF5FF2CF60E080810E945202F9CF03
:100EA000D0818D2F0E94720160E08D2FF6CFE381FB
:100EB000F0E0EB53FE4F1082ECCFDF91CF911F910A
:100EC0000F91FF900895CF93DF93EC018D819E8168
:100ED000009719F06C810E943507888599850097E5
:100EE00029F06F81DF91CF910C943507DF91CF917D
:100EF00008950F931F93CF93DF9320917902309140
:100F00007A022115310571F190E0880F991F820F47
:100F1000931FFC01C081D1818B81882391F00091C6
:100F200073021091740289819A810817190729F0B8
:100F3000CE010E9463071A83098389819A810197F0
:100F400031F48D819E81009769F06C8105C08885A0
:100F50009985009739F06F81DF91CF911F910F91A3
:100F60000C940406DF91CF911F910F910895CF93B8
:100F700080917B0290917C02892B29F1C0E08091C5
:100F80007802C81700F58C2F86958695869590E097
:100F9000E0917B02F0917C02E80FF91F208130E0A4
:100FA00043E0880F991F4A95E1F74C2F481B02C078
:100FB000359527954A95E2F720FF03C08C2F0E94B4
:100FC0007907CF5FDCCFCF910895209173023091E4
:100FD00074022817390731F09093740280937302DA
:100FE0000C94B70708956115710521F06130710502
:100FF00081F0089550916E025817190629F050910A
:1010000071025817190661F440937702C9010C94D4
:10101000E50760916F027091700286179707A1F340
:1010200008952091790230917A022115310551F00D
:1010300090E0880F991F820F931FFC01808191819E
:101040000C9463070895CF93C62F813079F140F057
:10105000823009F469C0833009F4A0C0CF910895AB
:1010600080E064FF17C00E94790781E0C0FF15C0CF
:101070000E94790782E0C1FF13C00E94790783E0D4
:10108000C2FF11C00E94790784E0C3FF35C0CF9131
:101090000C9479070E941108E8CF0E941108EACF4A
:1010A0000E941108ECCF0E941108EECF85E060FF8E
:1010B00026C00E94790786E0C1FF24C00E947907FC
:1010C00087E0C2FF22C00E94790788E0C3FF20C0EA
:1010D0000E94790789E0C4FF1EC00E9479078AE058
:1010E000C5FF1CC00E9479078BE0C6FF1AC00E9492
:1010F00079078CE0C7FDCBCFCF910C9411080E94EB
:101100001108D9CF0E941108DBCF0E941108DDCF52
:101110000E941108DFCF0E941108E1CF0E94110840
:10112000E3CF0E941108E5CF8DE060FF22C00E944E
:1011300079078EE0C1FF20C00E9479078FE0C2FFCF
:101140001EC00E94790780E1C3FF1CC00E9479077E
:1011500081E1C4FF1AC00E94790782E1C5FF18C06F
:101160000E94790783E1C6FF16C00E94790784E1D7
:10117000C1CF0E941108DDCF0E941108DFCF0E946D
:101180001108E1CF0E941108E3CF0E941108E5CFBA
:101190000E941108E7CF0E941108E9CF85E160FFA6
:1011A00022C00E94790786E1C1FF20C00E94790712
:1011B00087E1C2FF1EC00E94790788E1C3FF1CC0FF
:1011C0000E94790789E1C4FF1AC00E9479078AE169
:1011D000C5FF18C00E9479078BE1C6FF16C00E94A8
:1011E00079078CE187CF0E941108DDCF0E9411089A
:1011F000DFCF0E941108E1CF0E941108E3CF0E94C7
:101200001108E5CF0E941108E7CF0E941108E9CF2D
:101210000E943406E3EEF1E081E087831086ECEE75
:10122000F1E088E0DF011D928A95E9F708950C94BA
:101230009916EF92FF920F931F93CF93DF93E82EAF
:10124000F62E81E090E00E94170990E000916E0276
:1012500010E0C0917102D0E08017910721F08C1747
:101260009D0709F04EC0E092770281E0F8124CC071
:101270008DE190E00E941709F82E81E090E00E9435
:10128000170990E00817190721F08C179D0799F4AA
:10129000CE018C179D07B1F4809175029091760272
:1012A000019749F080917202882309F448C0109296
:1012B000760210927502DF91CF911F910F91FF90EE
:1012C000EF9008958091730290917402019799F3C1
:1012D000F0FE10C01092740210927302ECCF0C1743
:1012E0001D0711F18091730290917402892B19F3FB
:1012F000F0FEF0CF81E090E090937402809373024F
:10130000DACF81E0F816B9F28DE190E00E9417097A
:10131000F82E81E090E00E94170990E08017910775
:10132000F1F28C179D0739F6809175029091760243
:10133000892B09F280917202882309F4B8CF81E0E9
:1013400090E09093760280937502B5CF1F93CF9370
:10135000DF93EC0180916301882359F08FE090E0E6
:101360000E941709182F80E190E00E9417091813B6
:1013700006C0CE01DF91CF911F910C941709FFCFCA
:101380000C94A609CF93DF932091F9013091FA01D3
:101390002F3F320721F0C901DF91CF91089580914D
:1013A000FC0187FF2BC086FF0FC089E090E00E9400
:1013B000C009C82F81E090E00E94C0099C2F909343
:1013C000FA018093F90115C089E090E00E94C009FC
:1013D000C82F81E090E00E94C00990E4C99F90016D
:1013E0001124207C31708F73282B3093FA012093C5
:1013F000F9018091F9019091FA01CECF85FF0CC0DF
:1014000081E190E00E94C009C82F82E190E00E9433
:10141000C009C05CDD0BD2CF81E090E00E94C00922
:1014200090E0CDCFEF92FF920F931F93CF93DF9376
:101430006115710559F06130710509F45DC0DF91E6
:10144000CF911F910F91FF90EF90089530916E0210
:101450003817190629F0309171023817190679F7F3
:10146000C22F4330510509F4E5C008F04EC04130A9
:10147000510509F463C04230510509F7822F81708C
:10148000F82E85E020FFC2C00E9479070C2F027061
:1014900086E0C1FFBEC00E9479071C2F147087E050
:1014A000C2FFBAC00E947907DC2FD87088E0C3FF62
:1014B000B6C00E94790780916401FF2009F4B2C090
:1014C00081608093640180916401002309F4ACC0C1
:1014D00082608093640180916401112309F4A6C0A5
:1014E00084608093640180916401DD2309F4A0C0CD
:1014F000886080936401A3CF60916F027091700245
:101500008617970709F4ACCF9ACF4530510509F4F7
:1015100020C108F4DBC04630510509F090CFD091CE
:10152000650180E024FF06C00E947907D061D09356
:10153000650185CF0E941108DF7EF9CFD09165014A
:10154000822F8071E82E80E024FF46C00E94790738
:10155000D061D09365018C2F8170F82E81E0C0FF9F
:101560003FC00E9479070C2F027082E0C1FF3BC090
:101570000E9479071C2F147083E0C2FF37C00E94BD
:101580007907DC2FD87084E0C3FF33C00E9479074D
:1015900080916501EE2081F18061809365018091E9
:1015A0006501FF2059F1816080936501809165019B
:1015B000002331F1826080936501809165011123E0
:1015C00009F184608093650180916501DD23E1F07C
:1015D00088608093650133CF0E941108DF7EB9CF08
:1015E0000E941108C0CF0E941108C4CF0E941108A8
:1015F000C8CF0E941108CCCF8F7ECFCF8E7FD4CFA3
:101600008D7FD9CF8B7FDECF877FE3CF0E941108FC
:101610003DCF0E94110841CF0E94110845CF0E9482
:10162000110849CF8E7F4DCF8D7F53CF8B7F59CF00
:10163000877F5FCF822F8170F82E89E020FF32C034
:101640000E9479070C2F02708AE0C1FF2EC00E9411
:1016500079071C2F14708BE0C2FF2AC00E94790703
:10166000DC2FD8708CE0C3FF26C00E9479078091E0
:101670006401FF2019F1806180936401809164010D
:101680000023F1F080628093640180916401112352
:10169000C9F080648093640180916401DD23A1F02E
:1016A000806827CF0E941108CDCF0E941108D1CFAA
:1016B0000E941108D5CF0E941108D9CF8F7EDCCFB0
:1016C0008F7DE1CF8F7BE6CF8F7713CF8DE020FF2B
:1016D0002BC00E9479078EE0C1FF29C00E947907C4
:1016E0008FE0C2FF27C00E94790780E1C3FF25C0B9
:1016F0000E94790781E1C4FF23C00E94790782E13B
:10170000C5FF21C00E94790783E1C6FF1FC00E9468
:10171000790784E1C7FF57C0DF91CF911F910F91E7
:10172000FF90EF900C9479070E941108D4CF0E948B
:101730001108D6CF0E941108D8CF0E941108DACF25
:101740000E941108DCCF0E941108DECF0E94110810
:10175000E0CF85E120FF22C00E94790786E1C1FF2A
:1017600020C00E94790787E1C2FF1EC00E9479074E
:1017700088E1C3FF1CC00E94790789E1C4FF1AC039
:101780000E9479078AE1C5FF18C00E9479078BE1A2
:10179000C6FF16C00E9479078CE1BCCF0E941108D9
:1017A000DDCF0E941108DFCF0E941108E1CF0E9417
:1017B0001108E3CF0E941108E5CF0E941108E7CF7E
:1017C0000E941108E9CFDF91CF911F910F91FF90F7
:1017D000EF900C9411081F93CF93DF93EC01162F19
:1017E0000E949916181739F0612FCE01DF91CF9121
:1017F0001F910C94A116DF91CF911F9108951F9313
:10180000CF93DF930FB6F894A89581B5886181BD19
:1018100011BC0FBED0E0C0E0FE01E457FF4F1491B1
:10182000CE010E949916181721F0612FCE010E9457
:10183000A1162196CD3281E0D80771F70E942107C9
:1018400088E19BE00FB6F894A89581BD0FBE91BDCD
:10185000DF91CF911F9108951F93CF93DF93EC01F8
:10186000162F089779F4662319F10E94FF0B80E088
:1018700090E0892BB9F0612FCE01DF91CF911F91BC
:101880000C94000080E090E0892BA9F781E0C1155D
:1018900090E1D90708F080E0111105C0DF91CF91E8
:1018A0001F91089581E027972297C0F780E0F6CF37
:1018B00080E090E0892BF9F681E0F0CF0F931F9341
:1018C000CF93DF93EC01162F80916301882329F1D8
:1018D000CF30D10561F48FE090E00E94EB0B8FE0F8
:1018E00090E0DF91CF911F910F910C9417098FE039
:1018F00090E00E941709082F80E190E00E941709EC
:1019000008130AC0C730D10531F0C830D10529F419
:10191000183049F0FFCFFFCFFFCF612FCE010E94DB
:10192000EB0BCE01DECF0E94FF0B88E0DF91CF9161
:101930001F910F9108958331910588F481319105AC
:1019400030F48130910519F08930910531F42FEF91
:101950003FEF3093FA012093F9010C945E0C8D3126
:101960009105D9F7677F6093FC012091E3012F7304
:10197000362F307C232B2093E301E9CFE1E0F2E026
:1019800086E1DF011D928A95E9F782E990E0909364
:1019900000028093FF0182E590E09093FE01809326
:1019A000FD011092E3011092E4018FEF9FEF9093FD
:1019B000FA018093F9011092FB0183E08093E20128
:1019C0008091F8018093E101E091F401E83010F595
:1019D000AE2FB0E0AA0FBB1FAF5FBE4F8CEE93E0FF
:1019E00011969C938E93E150E73060F4F0E0E5505F
:1019F000F34F0C94AE16230D2B0D330D3B0D410D03
:101A0000470D4D0D80916A00836080936A0089B70D
:101A1000816089BF8DE190E00E94C009682F6F73DB
:101A20008DE190E00E949B0C8093FC016BE087E0CD
:101A300090E00E949B0C6DE088E090E00E949B0C7F
:101A400080E00C94080980916A008C6080936A00A1
:101A500089B78260DECF80916A00806380936A00DC
:101A600089B78460D6CF80916A00806C80936A00C9
:101A700089B78860CECF8AB783608ABF89B7806113
:101A8000C8CF8AB78C608ABF89B78062C2CF8AB755
:101A900080638ABF89B78064BCCF8AB7806C8ABFF5
:101AA00089B78068B6CFBF92CF92DF92EF92FF9254
:101AB0000F931F93CF93DF938B01B42E690182FFA5
:101AC00023C083FF17C061E0C8010E942C0C88234B
:101AD000D9F16B2DC8010E949B0C8B1135C0F6010A
:101AE000DF91CF911F910F91FF90EF90DF90CF90FA
:101AF000BF90099460E0C8010E942C0C882321F15A
:101B0000C8010E94C009E9CF842F8770C1E0D0E0EE
:101B10007E0101C0EE0C8A95EAF7D42FD870CB0174
:101B20000E94C009C82FB4FE1CC061E0C8010E9419
:101B30002C0C882349F0DD2389F0CE296C2FC801B5
:101B40000E949B0C8C1759F2DF91CF911F910F913E
:101B5000FF90EF90DF90CF90BF900895E094CE215A
:101B6000EDCF60E0C8010E942C0C882369F3CE21E0
:101B7000DD2319F0C111B3CFE7CFCC2309F4AFCFE8
:101B8000E3CFCF92DF92EF92FF920F931F93CF9309
:101B9000DF937C016B01C42F122FD42FD07E809154
:101BA000E30187FF2BC0D03EB9F5C090E401CC2003
:101BB00099F1D12CC6010E94C009D82FC601019607
:101BC0000E94C009982F8D2FE816F90629F56C2F71
:101BD00070E0762F662766277370612B6F5F7F4FEB
:101BE00022EE33E0402F8C2FDF91CF911F910F9188
:101BF000FF90EF90DF90CF900C94530D80FD32C09A
:101C0000D03609F464C088F4D03209F447C0D03427
:101C100009F45DC0DD2379F1DF91CF911F910F9120
:101C2000FF90EF90DF90CF900895D03A09F483C0F1
:101C300090F42C2F2F7141E050E0D03869F7B601B5
:101C4000C701DF91CF911F910F91FF90EF90DF902F
:101C5000CF900C94120AD03C09F476C0D03E09F41F
:101C6000B6CFDACF0E94C2098E159F0549F2E11462
:101C7000F10431F2D1CF8C2F8E7071F680E090E0BC
:101C8000892B51F28C2F8170DF91CF911F910F9191
:101C9000FF90EF90DF90CF900C940000CF71CF3188
:101CA00009F0BACF412F4F7771F0413071F0111F19
:101CB0001127111F212F30E00FE710E0B601C701F7
:101CC0000E94F307A9CF41E0F2CF40E0F0CF2C2FE4
:101CD00030E08C2F8F71813029F030F0803121F08D
:101CE0008131F9F440E001C041E025FB222720F9D1
:101CF0000DE110E030E0B601C7010E94F30780E07B
:101D000090E0892B09F488CF4C2FB601C701DF91F1
:101D1000CF911F910F91FF90EF90DF90CF900C9497
:101D20000000C901880F991F8E71C4FB442740F938
:101D3000482B4250DACF2C2F2F7043E050E0C4FFE5
:101D40007ECF42E050E07BCFCF71CE3139F0CF3142
:101D500009F062CF212F45E050E071CF212F44E000
:101D600050E06DCF1F920F920FB60F9211242F9358
:101D70003F938F939F93AF93BF938091B5019091C1
:101D8000B601A091B701B091B8013091B00123E044
:101D9000230F2D3768F126E8230F0296A11DB11DF0
:101DA0002093B0018093B5019093B601A093B70141
:101DB000B093B8018091B1019091B201A091B301AB
:101DC000B091B4010196A11DB11D8093B101909312
:101DD000B201A093B301B093B401BF91AF919F91B1
:101DE0008F913F912F910F900FBE0F901F901895DC
:101DF0000196A11DB11DD4CF1F920F920FB60F9265
:101E000011240BB60F922F933F934F935F936F93D1
:101E10007F938F939F93AF93BF93EF93FF93E09143
:101E20000F01F09110010995FF91EF91BF91AF91D2
:101E30009F918F917F916F915F914F913F912F91E2
:101E40000F900BBE0F900FBE0F901F9018951F9212
:101E50000F920FB60F9211240BB60F922F933F9350
:101E60004F935F936F937F938F939F93AF93BF93A2
:101E7000EF93FF93E0910D01F0910E010995FF9111
:101E8000EF91BF91AF919F918F917F916F915F91F2
:101E90004F913F912F910F900BBE0F900FBE0F905F
:101EA0001F9018951F920F920FB60F9211240BB628
:101EB0000F922F933F934F935F936F937F938F93E3
:101EC0009F93AF93BF93EF93FF93E0910B01F0913A
:101ED0000C010995FF91EF91BF91AF919F918F9167
:101EE0007F916F915F914F913F912F910F900BBE1A
:101EF0000F900FBE0F901F9018951F920F920FB664
:101F00000F9211240BB60F922F933F934F935F9331
:101F10006F937F938F939F93AF93BF93EF93FF93B1
:101F2000E0910901F0910A010995FF91EF91BF91AC
:101F3000AF919F918F917F916F915F914F913F9161
:101F40002F910F900BBE0F900FBE0F901F90189502
:101F50001F920F920FB60F9211240BB60F922F9370
:101F60003F934F935F936F937F938F939F93AF9321
:101F7000BF93EF93FF93E0910701F091080109955A
:101F8000FF91EF91BF91AF919F918F917F916F9151
:101F90005F914F913F912F910F900BBE0F900FBE0D
:101FA0000F901F9018951F920F920FB60F92112449
:101FB0000BB60F922F933F934F935F936F937F9343
:101FC0008F939F93AF93BF93EF93FF93E09105019E
:101FD000F09106010995FF91EF91BF91AF919F910B
:101FE0008F917F916F915F914F913F912F910F90C2
:101FF0000BBE0F900FBE0F901F9018951F920F925F
:102000000FB60F9211240BB60F922F933F934F935D
:102010005F936F937F938F939F93AF93BF93EF9350
:10202000FF93E0910301F09104010995FF91EF9175
:10203000BF91AF919F918F917F916F915F914F91E0
:102040003F912F910F900BBE0F900FBE0F901F90DE
:1020500018951F920F920FB60F9211240BB60F9284
:102060002F933F934F935F936F937F938F939F93A0
:10207000AF93BF93EF93FF93E0910101F0910201C1
:102080000995FF91EF91BF91AF919F918F917F91B2
:102090006F915F914F913F912F910F900BBE0F90D9
:1020A0000FBE0F901F9018951F920F920FB60F92B0
:1020B00011240BB60F922F933F934F935F936F931F
:1020C0007F938F939F93AF93BF93EF93FF938091F1
:1020D0007100887F803609F44DC008F040C0883216
:1020E00009F4A7C028F5803109F49BC0C8F48823FF
:1020F00009F4F7C0883009F494C0FF91EF91BF91C3
:10210000AF919F918F917F916F915F914F913F918F
:102110002F910F900BBE0F900FBE0F901F90189530
:10212000883109F486C0803241F780933B0214C0A5
:10213000803409F49BC040F48033B9F38833E9F666
:1021400080933B0285ECAEC0803509F483C08835AE
:1021500009F494C0883489F60E944403CECF8839AC
:1021600009F48AC038F5883729F050F4883611F020
:10217000803719F683E080933D021092AF0155C07D
:10218000883809F479C0803919F0803809F0B5CF62
:102190008091AF01803208F06FC0E091AF0181E023
:1021A0008E0F8093AF0180917300F0E0E157FE4FF6
:1021B00080833BC0803B39F0D0F4803A09F477C08B
:1021C000883A09F09ACF84E080933D0210928E0104
:1021D00010928D01F0E0E0E0099580918D01811170
:1021E0000FC081E080938D0110926D0109C0803C89
:1021F00009F4A8CF883C09F4A5CF883B09F07DCF2E
:10220000E0918E0181E08E0F80938E01F0E0E35922
:10221000FE4F80818093730090918E0180918D019B
:1022200029C0809118028093730085EC809374001C
:1022300064CF90913A0280913902981758F5E09155
:102240003A0281E08E0F80933A02F0E0E75EFD4FA4
:102250008081E9CFE0913A0281E08E0F80933A02CB
:1022600080917300F0E0E75EFD4F808390913A0229
:10227000809139029817C8F285E8D8CFE0913A02E8
:1022800081E08E0F80933A0280917300F0E0E75E68
:10229000FD4F808380913C0281115ECF81E080936D
:1022A000170284EA8093740010923D0226CF85ECD9
:1022B0008093740010923D028091AF01803230F41F
:1022C000E091AF01F0E0E157FE4F10826091AF0165
:1022D00070E08FE891E0F0E0E0E009951092AF0146
:1022E0000CCF10923B0238CF1F920F920FB60F9275
:1022F00011240BB60F92EF92FF920F931F932F931F
:102300003F934F935F936F937F938F939F93AF937D
:10231000BF93CF93DF93EF93FF930FB6F894A895F5
:1023200081B5886181BD11BC0FBE789410926201A5
:10233000C1E0D1E0D0933E02C093600210923F0210
:10234000109261020E949101811105C08091620189
:102350008F5F80936201CF5FCF3761F7809160011B
:1023600090916101009731F00E946F171092610106
:1023700010926001D0916201DD2371F161E070E0A3
:102380008D2F90E00E94B7167C019093610180939D
:10239000600110E0C1E001E000933E02C0936002E2
:1023A00010923F02109261020E949101811105C0BA
:1023B000F701E10FF11DC0831F5FCF5FCF3761F7DA
:1023C000D23050F080918A00887F80938A0080917B
:1023D0007D008B7F80937D00109288001092890091
:1023E00088E19BE00FB6F894A89581BD0FBE91BD22
:1023F000FF91EF91DF91CF91BF91AF919F918F911D
:102400007F916F915F914F913F912F911F910F910C
:10241000FF90EF900F900BBE0F900FBE0F901F908C
:1024200018951F920F920FB60F9211248F939F93BE
:1024300078948091E0019091DF01891708F0CBC07A
:10244000909162009160909362009091DE018917F3
:1024500008F0C5C0AD9A9091DD01891708F0C1C0A0
:10246000969A9091DC01891708F0BDC0979A9091D7
:10247000DB01891708F0B9C09091650091609093D5
:1024800065009091DA01891708F0B3C0909165005A
:102490009260909365009091D901891708F0ADC0C2
:1024A000A89A9091D801891708F0A9C01B9A909119
:1024B000D701891708F0A5C09091620094609093AD
:1024C00062009091D601891708F09FC0C79A909139
:1024D000D501891708F09BC0C59A9091D40189173E
:1024E00008F097C0C49A9091D301891708F093C05F
:1024F000C69A9091D201891708F08FC0DB9A90910B
:10250000D101891708F08BC0DC9A9091D00189170E
:1025100008F087C0DD9A9091CF01891708F083C039
:10252000DE9A9091CE01891708F07FC0DF9A9091D2
:10253000CD01891708F07BC01C9A9091CC018917B6
:1025400008F077C01D9A9091CB01891708F073C0ED
:10255000909162009260909362009091CA018917F5
:1025600008F06DC0C09A9091C901891708F069C040
:10257000D89A9091C801891708F065C090916200BF
:102580009064909362009091C701891708F05FC032
:10259000909162009062909362009091C6018917B9
:1025A00008F059C090916200906190936200909100
:1025B000C501891708F053C090916200986090930C
:1025C00062008F5F8093E0019F918F910F900FBE0B
:1025D0000F901F901895909162009E7F34CFAD9818
:1025E0003ACF96983ECF979842CF909165009E7FC4
:1025F00046CF909165009D7F4CCFA89852CF1B98F5
:1026000056CF909162009B7F5ACFC79860CFC598F4
:1026100064CFC49868CFC6986CCFDB9870CFDC9835
:1026200074CFDD9878CFDE987CCFDF9880CF1C9870
:1026300084CF1D9888CF909162009D7F8CCFC098E9
:1026400092CFD89896CF909162009F7B9ACF90912D
:1026500062009F7DA0CF909162009F7EA6CF909157
:102660006200977FACCFDC0170E0FB01ED5AFD4FBB
:10267000E4911196EC931197625E7D4FFB012491DA
:102680002C9330E0220F331FF901E25FFD4F85915B
:10269000949113969C938E931297F901E250FE4FFA
:1026A0008591949115969C938E9314970895CF934A
:1026B000DF93EC0188810E94720160E08881DF91E4
:1026C000CF910C945202EF92FF920F931F93CF93EE
:1026D000DF93109265021092640288EE93E0A0E00E
:1026E000B0E08093660290936702A0936802B09373
:1026F000690281E591E0909363028093620283E135
:1027000090E00E941709C82F82E190E00E9417090B
:10271000D82F81E190E00E941709182F81E090E006
:102720000E94170921E030E0309374022093730275
:1027300030937602209375021092770210927C02F9
:1027400010927B0280936E02212F205C330BC90113
:102750002D2F382FC9019093700280936F02CF778D
:10276000C0937102109272028DE18093780262E050
:1027700070E08DE190E00E94B71690937A0280930A
:1027800079020097C9F0EC0110E0EE24E394F12CFB
:102790008AE090E00E94D316FC01F282E18213826B
:1027A00014821682158217821186108610838993EF
:1027B00099931F5F1D3161F767E085E892E00E9401
:1027C000331363E28FE792E00E94331380E3809338
:1027D0000D03C2E0C0930F0310921003DFEFD093FC
:1027E0000E03109211038DE093E00E94571381E3D2
:1027F00080930803C0930A0381E080930B03D09376
:10280000090310920C0388E093E00E94571382E3BF
:1028100080930303C0930503C0930603D09304037E
:102820001092070383E093E00E94571383E38093A1
:10283000FE02C093000313E010930103D093FF0244
:10284000109202038EEF92E00E9457138CE2809365
:10285000F902C093FB0284E0F82EF092FC02D093C0
:10286000FA021092FD0289EF92E00E94571308E0ED
:102870000093F402C093F60295E0E92EE092F7028D
:10288000D093F5021092F80284EF92E00E94571361
:102890008EE28093EF02C093F10286E08093F20211
:1028A000D093F0021092F3028FEE92E00E94571341
:1028B000E092EA02C093EC0287E08093ED02D093AD
:1028C000EB021092EE028AEE92E00E945713F09211
:1028D000E502C093E7020093E802D093E60210926B
:1028E000E90285EE92E00E94571385E28093E002B0
:1028F000C093E20289E08093E302D093E102109258
:10290000E40280EE92E00E94571386E28093DB029D
:10291000C093DD028AE08093DE02D093DC02109245
:10292000DF028BED92E00E94571387E28093D6027C
:10293000C093D8028BE08093D902D093D702109233
:10294000DA0286ED92E00E94571388E28093D1026A
:10295000C093D3020CE00093D402D093D202109221
:10296000D50281ED92E00E94571389E28093CC0258
:10297000C093CE022DE0F22EF092CF02D093CD0282
:102980001092D0028CEC92E00E9457138EE080935C
:10299000C702C093C9028093CA02D093C8021092A2
:1029A000CB0287EC92E00E9457130093C202C093BF
:1029B000C4020FE00093C502D093C3021092C60276
:1029C00082EC92E00E945713F092BD02C093BF02C6
:1029D00080E18093C002D093BE021092C1028DEBC1
:1029E00092E00E9457130093B802C093BA0281E1AB
:1029F0008093BB02D093B9021092BC0288EB92E0A4
:102A00000E9457138FE28093B302C093B50282E114
:102A10008093B602D093B4021092B70283EB92E097
:102A20000E9457131093AE02C093B00283E18093CB
:102A3000B102D093AF021092B2028EEA92E00E94ED
:102A400057138CE18093A902C093AB0284E1809379
:102A5000AC02D093AA021092AD0289EA92E00E94E1
:102A600057138BE18093A402C093A60285E1809363
:102A7000A702D093A5021092A80284EA92E00E94D5
:102A800057131AE110939F02C093A10286E180932D
:102A9000A202D093A0021092A3028FE992E00E94BA
:102AA000571309E100939A02C0939C0287E1809337
:102AB0009D02D0939B0210929E028AE992E00E94AE
:102AC000571388E180939502C093970280939802F0
:102AD000D09396021092990285E992E00E945713D2
:102AE00081E280939002C093920200939302D0936C
:102AF00091021092940280E992E00E9457138DE2B5
:102B000080938B02C0938D0210938E02D0938C021F
:102B100010928F028BE892E00E94571310921403D8
:102B200010921503109216031092170310921803B7
:102B30001092190310921A0310921B0310921C0397
:102B400010921D0310921E0387E090E090931303F0
:102B500080931203DF91CF911F910F91FF90EF901F
:102B60000895789483B78C6483BF87B7816087BFEB
:102B700082E08EBD8EB581608EBD8FB581608FBDC8
:102B800085B5846085BD85B5806485BD80918A00EA
:102B9000836080938A0080918B00816080938B009A
:102BA00087E886B91AB80FB6F894A89581B58861F8
:102BB00081BD11BC0FBE2FB7F89490E080E0FC01FE
:102BC000EB53FE4F108201968B319105C1F7809136
:102BD00062008E7F80936200AD989698979880915E
:102BE00065008E7F80936500809165008D7F809366
:102BF0006500A8981B98809162008B7F809362008B
:102C0000C798C598C498C698DB98DC98DD98DE987C
:102C1000DF981C981D98809162008D7F80936200E0
:102C2000C098D898809162008F7B809362008091D9
:102C300062008F7D80936200809162008F7E80931E
:102C4000620080916200877F809362002FBF9FB7F0
:102C5000F89480916100816080936100A59A8E9ABA
:102C60008F9A8091640081608093640080916400F9
:102C7000826080936400A09A139A809161008460BE
:102C800080936100BF9ABD9ABC9ABE9AD39AD49A97
:102C9000D59AD69AD79A149A159A80916100826033
:102CA00080936100B89AD09A80916100806480938B
:102CB0006100809161008062809361008091610079
:102CC00080618093610080916100886080936100E1
:102CD0009FBF1FBC89E08EBD81E194E09BBD8ABD92
:102CE00087B7806187BF1092E0010E942107FFCF64
:102CF000EFE7F2E0A281B3819C91818180958923E5
:102D00008C93A481B5819C918181809589238C933A
:102D1000E5E8F2E0A281B3819C91818180958923CD
:102D20008C93A481B5819C918181809589238C931A
:102D30000895E199FECF9FBB8EBBE09A99278DB392
:102D40000895262FE199FECF9FBB8EBB2DBB0FB6FA
:102D5000F894E29AE19A0FBE01960895EE0FFF1FD4
:102D60000024001C0BBE0790F691E02D09940F93F0
:102D70001F93CF93DF93869F8001879F100D969FAF
:102D8000100D1124C8010E94D316EC01009729F000
:102D9000A80170E060E00E94F817CE01DF91CF91AA
:102DA0001F910F9108950F931F93CF93DF9382305C
:102DB000910510F482E090E0E0911D07F0911E076C
:102DC00030E020E0B0E0A0E0309799F42115310523
:102DD00009F44AC0281B390B24303105D8F58A8103
:102DE0009B816115710589F1FB0193838283FE014B
:102DF00011C0408151810281138148175907E0F0C9
:102E00004817590799F4109761F012960C9312978E
:102E100013961C933296CF01DF91CF911F910F91A2
:102E2000089500931D0710931E07F4CF2115310557
:102E300051F04217530738F0A901DB019A01BD0197
:102E4000DF01F801C1CFEF01F9CF90931E07809306
:102E50001D07CDCFFE01E20FF31F81939193225006
:102E6000310939832883D7CF20911B0730911C0764
:102E7000232B41F4209113013091140130931C074E
:102E800020931B072091110130911201211531056A
:102E900041F42DB73EB74091150150911601241B06
:102EA000350BE0911B07F0911C07E217F307A0F424
:102EB0002E1B3F0B2817390778F0AC014E5F5F4F90
:102EC0002417350748F04E0F5F1F50931C0740939F
:102ED0001B07819391939FCFF0E0E0E09CCFCF93CD
:102EE000DF930097E9F0FC01329713821282A091E0
:102EF0001D07B0911E07ED0130E020E01097A1F40E
:102F000020813181820F931F20911B0730911C0774
:102F10002817390709F061C0F0931C07E0931B07DD
:102F2000DF91CF910895EA01CE17DF07E8F54A81D6
:102F30005B819E0141155105B1F7E901FB83EA83ED
:102F400049915991C40FD51FEC17FD0761F4808199
:102F500091810296840F951FE9019983888382816C
:102F600093819B838A83F0E0E0E012968D919C919F
:102F700013970097B9F52D913C911197CD010296C9
:102F8000820F931F20911B0730911C0728173907C8
:102F900039F6309751F510921E0710921D07B09325
:102FA0001C07A0931B07BCCFD383C28340815181F0
:102FB000840F951FC817D90761F44E5F5F4F888152
:102FC0009981480F591F518340838A819B81938344
:102FD00082832115310509F0B0CFF0931E07E093ED
:102FE0001D079ECFFD01DC01C0CF13821282D7CF17
:102FF000DC0101C06D9341505040E0F7089511E0AD
:10300000C5E4D1E004C0FE010E94AE162196C6348C
:08301000D107C9F7F894FFCFC6
:10301800012E030000000000000000000000000076
:103028000000001F0780000D0308030303FE02F9D8
:1030380002F402EF02EA02E502E002DB02D602D164
:1030480002CC02C702C202BD02B802B302AE02A994
:1030580002A4029F029A02950290028B02000000CD
:1030680000B0038303DF0375037C03790376030051
:00000001FF
